{
  "_format": "hh-sol-artifact-1",
  "contractName": "Chrysus",
  "sourceName": "contracts/Chrysus.sol",
  "abi": [
    {
      "inputs": [
        {
          "components": [
            {
              "internalType": "address",
              "name": "daiAddress",
              "type": "address"
            },
            {
              "internalType": "address",
              "name": "oracleDAI",
              "type": "address"
            },
            {
              "internalType": "address",
              "name": "oracleETH",
              "type": "address"
            },
            {
              "internalType": "address",
              "name": "oracleCHC",
              "type": "address"
            },
            {
              "internalType": "address",
              "name": "oracleXAU",
              "type": "address"
            },
            {
              "internalType": "address",
              "name": "governance",
              "type": "address"
            },
            {
              "internalType": "address",
              "name": "treasury",
              "type": "address"
            },
            {
              "internalType": "address",
              "name": "swapSolution",
              "type": "address"
            },
            {
              "internalType": "address",
              "name": "stabilityModule",
              "type": "address"
            }
          ],
          "internalType": "struct Chrysus.AddressBook",
          "name": "_ab",
          "type": "tuple"
        },
        {
          "internalType": "uint256",
          "name": "_liquidationReward",
          "type": "uint256"
        }
      ],
      "stateMutability": "nonpayable",
      "type": "constructor"
    },
    {
      "inputs": [],
      "name": "ZeroAddress",
      "type": "error"
    },
    {
      "anonymous": false,
      "inputs": [
        {
          "indexed": true,
          "internalType": "address",
          "name": "collateralToken",
          "type": "address"
        }
      ],
      "name": "AddedCollateralType",
      "type": "event"
    },
    {
      "anonymous": false,
      "inputs": [
        {
          "indexed": true,
          "internalType": "address",
          "name": "owner",
          "type": "address"
        },
        {
          "indexed": true,
          "internalType": "address",
          "name": "spender",
          "type": "address"
        },
        {
          "indexed": false,
          "internalType": "uint256",
          "name": "value",
          "type": "uint256"
        }
      ],
      "name": "Approval",
      "type": "event"
    },
    {
      "anonymous": false,
      "inputs": [
        {
          "indexed": true,
          "internalType": "address",
          "name": "user",
          "type": "address"
        },
        {
          "indexed": false,
          "internalType": "uint256",
          "name": "amount",
          "type": "uint256"
        }
      ],
      "name": "CollateralDeposited",
      "type": "event"
    },
    {
      "anonymous": false,
      "inputs": [
        {
          "indexed": true,
          "internalType": "address",
          "name": "user",
          "type": "address"
        },
        {
          "indexed": false,
          "internalType": "uint256",
          "name": "amount",
          "type": "uint256"
        }
      ],
      "name": "CollateralWithdrawn",
      "type": "event"
    },
    {
      "anonymous": false,
      "inputs": [
        {
          "indexed": true,
          "internalType": "uint256",
          "name": "treasuryFees",
          "type": "uint256"
        },
        {
          "indexed": true,
          "internalType": "uint256",
          "name": "swapSolutionFees",
          "type": "uint256"
        },
        {
          "indexed": true,
          "internalType": "uint256",
          "name": "stabilityModuleFees",
          "type": "uint256"
        }
      ],
      "name": "FeesWithdrawn",
      "type": "event"
    },
    {
      "anonymous": false,
      "inputs": [
        {
          "indexed": true,
          "internalType": "address",
          "name": "liquidator",
          "type": "address"
        },
        {
          "indexed": true,
          "internalType": "address",
          "name": "user",
          "type": "address"
        },
        {
          "indexed": false,
          "internalType": "uint256",
          "name": "amountLiquidated",
          "type": "uint256"
        }
      ],
      "name": "Liquidated",
      "type": "event"
    },
    {
      "anonymous": false,
      "inputs": [
        {
          "indexed": false,
          "internalType": "uint256",
          "name": "newReward",
          "type": "uint256"
        }
      ],
      "name": "LiquidationRewardUpdated",
      "type": "event"
    },
    {
      "anonymous": false,
      "inputs": [
        {
          "indexed": true,
          "internalType": "address",
          "name": "from",
          "type": "address"
        },
        {
          "indexed": true,
          "internalType": "address",
          "name": "to",
          "type": "address"
        },
        {
          "indexed": false,
          "internalType": "uint256",
          "name": "value",
          "type": "uint256"
        }
      ],
      "name": "Transfer",
      "type": "event"
    },
    {
      "inputs": [
        {
          "internalType": "address",
          "name": "_collateralType",
          "type": "address"
        },
        {
          "internalType": "uint256",
          "name": "_minCollateral",
          "type": "uint256"
        },
        {
          "internalType": "address",
          "name": "_oracleAddress",
          "type": "address"
        }
      ],
      "name": "addCollateralType",
      "outputs": [],
      "stateMutability": "nonpayable",
      "type": "function"
    },
    {
      "inputs": [
        {
          "internalType": "address",
          "name": "owner",
          "type": "address"
        },
        {
          "internalType": "address",
          "name": "spender",
          "type": "address"
        }
      ],
      "name": "allowance",
      "outputs": [
        {
          "internalType": "uint256",
          "name": "",
          "type": "uint256"
        }
      ],
      "stateMutability": "view",
      "type": "function"
    },
    {
      "inputs": [
        {
          "internalType": "address",
          "name": "spender",
          "type": "address"
        },
        {
          "internalType": "uint256",
          "name": "amount",
          "type": "uint256"
        }
      ],
      "name": "approve",
      "outputs": [
        {
          "internalType": "bool",
          "name": "",
          "type": "bool"
        }
      ],
      "stateMutability": "nonpayable",
      "type": "function"
    },
    {
      "inputs": [
        {
          "internalType": "address",
          "name": "",
          "type": "address"
        }
      ],
      "name": "approvedCollateral",
      "outputs": [
        {
          "internalType": "bool",
          "name": "approved",
          "type": "bool"
        },
        {
          "internalType": "uint256",
          "name": "balance",
          "type": "uint256"
        },
        {
          "internalType": "uint256",
          "name": "fees",
          "type": "uint256"
        },
        {
          "internalType": "uint256",
          "name": "minCollateral",
          "type": "uint256"
        },
        {
          "internalType": "contract AggregatorV3Interface",
          "name": "oracle",
          "type": "address"
        }
      ],
      "stateMutability": "view",
      "type": "function"
    },
    {
      "inputs": [
        {
          "internalType": "uint256",
          "name": "",
          "type": "uint256"
        }
      ],
      "name": "approvedTokens",
      "outputs": [
        {
          "internalType": "address",
          "name": "",
          "type": "address"
        }
      ],
      "stateMutability": "view",
      "type": "function"
    },
    {
      "inputs": [
        {
          "internalType": "address",
          "name": "account",
          "type": "address"
        }
      ],
      "name": "balanceOf",
      "outputs": [
        {
          "internalType": "uint256",
          "name": "",
          "type": "uint256"
        }
      ],
      "stateMutability": "view",
      "type": "function"
    },
    {
      "inputs": [],
      "name": "collateralizationRatio",
      "outputs": [
        {
          "internalType": "uint256",
          "name": "",
          "type": "uint256"
        }
      ],
      "stateMutability": "view",
      "type": "function"
    },
    {
      "inputs": [],
      "name": "decimals",
      "outputs": [
        {
          "internalType": "uint8",
          "name": "",
          "type": "uint8"
        }
      ],
      "stateMutability": "view",
      "type": "function"
    },
    {
      "inputs": [
        {
          "internalType": "address",
          "name": "spender",
          "type": "address"
        },
        {
          "internalType": "uint256",
          "name": "subtractedValue",
          "type": "uint256"
        }
      ],
      "name": "decreaseAllowance",
      "outputs": [
        {
          "internalType": "bool",
          "name": "",
          "type": "bool"
        }
      ],
      "stateMutability": "nonpayable",
      "type": "function"
    },
    {
      "inputs": [
        {
          "internalType": "address",
          "name": "_collateralType",
          "type": "address"
        },
        {
          "internalType": "uint256",
          "name": "_amount",
          "type": "uint256"
        }
      ],
      "name": "depositCollateral",
      "outputs": [],
      "stateMutability": "payable",
      "type": "function"
    },
    {
      "inputs": [],
      "name": "getCdpCounter",
      "outputs": [
        {
          "internalType": "uint256",
          "name": "",
          "type": "uint256"
        }
      ],
      "stateMutability": "view",
      "type": "function"
    },
    {
      "inputs": [],
      "name": "getCollateralizationRatio",
      "outputs": [
        {
          "internalType": "uint256",
          "name": "",
          "type": "uint256"
        }
      ],
      "stateMutability": "view",
      "type": "function"
    },
    {
      "inputs": [],
      "name": "getPositions",
      "outputs": [
        {
          "components": [
            {
              "internalType": "bytes32",
              "name": "id",
              "type": "bytes32"
            },
            {
              "internalType": "address",
              "name": "user",
              "type": "address"
            },
            {
              "internalType": "address",
              "name": "collateral",
              "type": "address"
            },
            {
              "internalType": "uint256",
              "name": "deposited",
              "type": "uint256"
            },
            {
              "internalType": "uint256",
              "name": "minted",
              "type": "uint256"
            }
          ],
          "internalType": "struct Chrysus.Position[]",
          "name": "",
          "type": "tuple[]"
        }
      ],
      "stateMutability": "view",
      "type": "function"
    },
    {
      "inputs": [
        {
          "internalType": "address",
          "name": "user",
          "type": "address"
        },
        {
          "internalType": "address",
          "name": "_collateral",
          "type": "address"
        }
      ],
      "name": "getUserPositions",
      "outputs": [
        {
          "components": [
            {
              "internalType": "bytes32",
              "name": "id",
              "type": "bytes32"
            },
            {
              "internalType": "address",
              "name": "user",
              "type": "address"
            },
            {
              "internalType": "address",
              "name": "collateral",
              "type": "address"
            },
            {
              "internalType": "uint256",
              "name": "deposited",
              "type": "uint256"
            },
            {
              "internalType": "uint256",
              "name": "minted",
              "type": "uint256"
            }
          ],
          "internalType": "struct Chrysus.Position",
          "name": "",
          "type": "tuple"
        }
      ],
      "stateMutability": "view",
      "type": "function"
    },
    {
      "inputs": [],
      "name": "governance",
      "outputs": [
        {
          "internalType": "address",
          "name": "",
          "type": "address"
        }
      ],
      "stateMutability": "view",
      "type": "function"
    },
    {
      "inputs": [
        {
          "internalType": "address",
          "name": "spender",
          "type": "address"
        },
        {
          "internalType": "uint256",
          "name": "addedValue",
          "type": "uint256"
        }
      ],
      "name": "increaseAllowance",
      "outputs": [
        {
          "internalType": "bool",
          "name": "",
          "type": "bool"
        }
      ],
      "stateMutability": "nonpayable",
      "type": "function"
    },
    {
      "inputs": [
        {
          "internalType": "address",
          "name": "_userToliquidate",
          "type": "address"
        },
        {
          "internalType": "address",
          "name": "_collateralType",
          "type": "address"
        },
        {
          "internalType": "uint256",
          "name": "_amount",
          "type": "uint256"
        },
        {
          "internalType": "bytes32",
          "name": "_positionId",
          "type": "bytes32"
        }
      ],
      "name": "liquidate",
      "outputs": [],
      "stateMutability": "nonpayable",
      "type": "function"
    },
    {
      "inputs": [],
      "name": "liquidationRatio",
      "outputs": [
        {
          "internalType": "uint256",
          "name": "",
          "type": "uint256"
        }
      ],
      "stateMutability": "view",
      "type": "function"
    },
    {
      "inputs": [],
      "name": "name",
      "outputs": [
        {
          "internalType": "string",
          "name": "",
          "type": "string"
        }
      ],
      "stateMutability": "view",
      "type": "function"
    },
    {
      "inputs": [],
      "name": "oracleCHC",
      "outputs": [
        {
          "internalType": "contract AggregatorV3Interface",
          "name": "",
          "type": "address"
        }
      ],
      "stateMutability": "view",
      "type": "function"
    },
    {
      "inputs": [],
      "name": "oracleXAU",
      "outputs": [
        {
          "internalType": "contract AggregatorV3Interface",
          "name": "",
          "type": "address"
        }
      ],
      "stateMutability": "view",
      "type": "function"
    },
    {
      "inputs": [
        {
          "internalType": "uint256",
          "name": "",
          "type": "uint256"
        }
      ],
      "name": "positions",
      "outputs": [
        {
          "internalType": "bytes32",
          "name": "id",
          "type": "bytes32"
        },
        {
          "internalType": "address",
          "name": "user",
          "type": "address"
        },
        {
          "internalType": "address",
          "name": "collateral",
          "type": "address"
        },
        {
          "internalType": "uint256",
          "name": "deposited",
          "type": "uint256"
        },
        {
          "internalType": "uint256",
          "name": "minted",
          "type": "uint256"
        }
      ],
      "stateMutability": "view",
      "type": "function"
    },
    {
      "inputs": [],
      "name": "stabilityModule",
      "outputs": [
        {
          "internalType": "contract IStabilityModule",
          "name": "",
          "type": "address"
        }
      ],
      "stateMutability": "view",
      "type": "function"
    },
    {
      "inputs": [],
      "name": "swapSolution",
      "outputs": [
        {
          "internalType": "contract ISwap",
          "name": "",
          "type": "address"
        }
      ],
      "stateMutability": "view",
      "type": "function"
    },
    {
      "inputs": [],
      "name": "symbol",
      "outputs": [
        {
          "internalType": "string",
          "name": "",
          "type": "string"
        }
      ],
      "stateMutability": "view",
      "type": "function"
    },
    {
      "inputs": [],
      "name": "totalSupply",
      "outputs": [
        {
          "internalType": "uint256",
          "name": "",
          "type": "uint256"
        }
      ],
      "stateMutability": "view",
      "type": "function"
    },
    {
      "inputs": [
        {
          "internalType": "address",
          "name": "to",
          "type": "address"
        },
        {
          "internalType": "uint256",
          "name": "amount",
          "type": "uint256"
        }
      ],
      "name": "transfer",
      "outputs": [
        {
          "internalType": "bool",
          "name": "",
          "type": "bool"
        }
      ],
      "stateMutability": "nonpayable",
      "type": "function"
    },
    {
      "inputs": [
        {
          "internalType": "address",
          "name": "from",
          "type": "address"
        },
        {
          "internalType": "address",
          "name": "to",
          "type": "address"
        },
        {
          "internalType": "uint256",
          "name": "amount",
          "type": "uint256"
        }
      ],
      "name": "transferFrom",
      "outputs": [
        {
          "internalType": "bool",
          "name": "",
          "type": "bool"
        }
      ],
      "stateMutability": "nonpayable",
      "type": "function"
    },
    {
      "inputs": [],
      "name": "treasury",
      "outputs": [
        {
          "internalType": "address",
          "name": "",
          "type": "address"
        }
      ],
      "stateMutability": "view",
      "type": "function"
    },
    {
      "inputs": [
        {
          "internalType": "uint256",
          "name": "_newReward",
          "type": "uint256"
        }
      ],
      "name": "updateLiquidatorReward",
      "outputs": [],
      "stateMutability": "nonpayable",
      "type": "function"
    },
    {
      "inputs": [
        {
          "internalType": "address",
          "name": "",
          "type": "address"
        },
        {
          "internalType": "address",
          "name": "",
          "type": "address"
        }
      ],
      "name": "userDeposits",
      "outputs": [
        {
          "internalType": "bytes32",
          "name": "id",
          "type": "bytes32"
        },
        {
          "internalType": "address",
          "name": "user",
          "type": "address"
        },
        {
          "internalType": "address",
          "name": "collateral",
          "type": "address"
        },
        {
          "internalType": "uint256",
          "name": "deposited",
          "type": "uint256"
        },
        {
          "internalType": "uint256",
          "name": "minted",
          "type": "uint256"
        }
      ],
      "stateMutability": "view",
      "type": "function"
    },
    {
      "inputs": [
        {
          "internalType": "address",
          "name": "_collateralType",
          "type": "address"
        },
        {
          "internalType": "uint256",
          "name": "_amount",
          "type": "uint256"
        },
        {
          "internalType": "bytes32",
          "name": "_positionId",
          "type": "bytes32"
        }
      ],
      "name": "withdrawCollateral",
      "outputs": [],
      "stateMutability": "nonpayable",
      "type": "function"
    },
    {
      "inputs": [],
      "name": "withdrawFees",
      "outputs": [],
      "stateMutability": "nonpayable",
      "type": "function"
    },
    {
      "stateMutability": "payable",
      "type": "receive"
    }
  ],
  "bytecode": "0x60c06040523480156200001157600080fd5b506040516200695838038062006958833981810160405281019062000037919062000a24565b6040518060400160405280600781526020017f43687279737573000000000000000000000000000000000000000000000000008152506040518060400160405280600381526020017f43484300000000000000000000000000000000000000000000000000000000008152508160039080519060200190620000bb92919062000855565b508060049080519060200190620000d492919062000855565b5050506001600581905550600073ffffffffffffffffffffffffffffffffffffffff16826000015173ffffffffffffffffffffffffffffffffffffffff1614156200014b576040517fd92e233d00000000000000000000000000000000000000000000000000000000815260040160405180910390fd5b600073ffffffffffffffffffffffffffffffffffffffff16826020015173ffffffffffffffffffffffffffffffffffffffff161415620001b7576040517fd92e233d00000000000000000000000000000000000000000000000000000000815260040160405180910390fd5b600073ffffffffffffffffffffffffffffffffffffffff16826040015173ffffffffffffffffffffffffffffffffffffffff16141562000223576040517fd92e233d00000000000000000000000000000000000000000000000000000000815260040160405180910390fd5b600073ffffffffffffffffffffffffffffffffffffffff16826060015173ffffffffffffffffffffffffffffffffffffffff1614156200028f576040517fd92e233d00000000000000000000000000000000000000000000000000000000815260040160405180910390fd5b600073ffffffffffffffffffffffffffffffffffffffff16826080015173ffffffffffffffffffffffffffffffffffffffff161415620002fb576040517fd92e233d00000000000000000000000000000000000000000000000000000000815260040160405180910390fd5b600073ffffffffffffffffffffffffffffffffffffffff168260a0015173ffffffffffffffffffffffffffffffffffffffff16141562000367576040517fd92e233d00000000000000000000000000000000000000000000000000000000815260040160405180910390fd5b600073ffffffffffffffffffffffffffffffffffffffff168260c0015173ffffffffffffffffffffffffffffffffffffffff161415620003d3576040517fd92e233d00000000000000000000000000000000000000000000000000000000815260040160405180910390fd5b600073ffffffffffffffffffffffffffffffffffffffff168260e0015173ffffffffffffffffffffffffffffffffffffffff1614156200043f576040517fd92e233d00000000000000000000000000000000000000000000000000000000815260040160405180910390fd5b600073ffffffffffffffffffffffffffffffffffffffff1682610100015173ffffffffffffffffffffffffffffffffffffffff161415620004ac576040517fd92e233d00000000000000000000000000000000000000000000000000000000815260040160405180910390fd5b63068e778060068190555080600881905550620004db826000015161010b84602001516200068760201b60201c565b620004f46000607884604001516200068760201b60201c565b8160600151600c60006101000a81548173ffffffffffffffffffffffffffffffffffffffff021916908373ffffffffffffffffffffffffffffffffffffffff1602179055508160800151600d60006101000a81548173ffffffffffffffffffffffffffffffffffffffff021916908373ffffffffffffffffffffffffffffffffffffffff1602179055508160a00151600a60006101000a81548173ffffffffffffffffffffffffffffffffffffffff021916908373ffffffffffffffffffffffffffffffffffffffff1602179055508160c00151600b60006101000a81548173ffffffffffffffffffffffffffffffffffffffff021916908373ffffffffffffffffffffffffffffffffffffffff1602179055508160e0015173ffffffffffffffffffffffffffffffffffffffff1660808173ffffffffffffffffffffffffffffffffffffffff1660601b8152505081610100015173ffffffffffffffffffffffffffffffffffffffff1660a08173ffffffffffffffffffffffffffffffffffffffff1660601b81525050505062000bdd565b6009839080600181540180825580915050600190039060005260206000200160009091909190916101000a81548173ffffffffffffffffffffffffffffffffffffffff021916908373ffffffffffffffffffffffffffffffffffffffff1602179055506001600f60008573ffffffffffffffffffffffffffffffffffffffff1673ffffffffffffffffffffffffffffffffffffffff16815260200190815260200160002060000160006101000a81548160ff02191690831515021790555081600f60008573ffffffffffffffffffffffffffffffffffffffff1673ffffffffffffffffffffffffffffffffffffffff1681526020019081526020016000206003018190555080600f60008573ffffffffffffffffffffffffffffffffffffffff1673ffffffffffffffffffffffffffffffffffffffff16815260200190815260200160002060040160006101000a81548173ffffffffffffffffffffffffffffffffffffffff021916908373ffffffffffffffffffffffffffffffffffffffff1602179055508273ffffffffffffffffffffffffffffffffffffffff167fc5747b084113a45fa0db9ee3450f0fdf2cac58e149aeb924b9cc46499bf9e95460405160405180910390a2505050565b828054620008639062000ace565b90600052602060002090601f016020900481019282620008875760008555620008d3565b82601f10620008a257805160ff1916838001178555620008d3565b82800160010185558215620008d3579182015b82811115620008d2578251825591602001919060010190620008b5565b5b509050620008e29190620008e6565b5090565b5b8082111562000901576000816000905550600101620008e7565b5090565b600081519050620009168162000ba9565b92915050565b600061012082840312156200093057600080fd5b6200093d61012062000a67565b905060006200094f8482850162000905565b6000830152506020620009658482850162000905565b60208301525060406200097b8482850162000905565b6040830152506060620009918482850162000905565b6060830152506080620009a78482850162000905565b60808301525060a0620009bd8482850162000905565b60a08301525060c0620009d38482850162000905565b60c08301525060e0620009e98482850162000905565b60e08301525061010062000a008482850162000905565b6101008301525092915050565b60008151905062000a1e8162000bc3565b92915050565b600080610140838503121562000a3957600080fd5b600062000a49858286016200091c565b92505061012062000a5d8582860162000a0d565b9150509250929050565b600062000a7362000a86565b905062000a81828262000b04565b919050565b6000604051905090565b600062000a9d8262000aa4565b9050919050565b600073ffffffffffffffffffffffffffffffffffffffff82169050919050565b6000819050919050565b6000600282049050600182168062000ae757607f821691505b6020821081141562000afe5762000afd62000b3a565b5b50919050565b62000b0f8262000b98565b810181811067ffffffffffffffff8211171562000b315762000b3062000b69565b5b80604052505050565b7f4e487b7100000000000000000000000000000000000000000000000000000000600052602260045260246000fd5b7f4e487b7100000000000000000000000000000000000000000000000000000000600052604160045260246000fd5b6000601f19601f8301169050919050565b62000bb48162000a90565b811462000bc057600080fd5b50565b62000bce8162000ac4565b811462000bda57600080fd5b50565b60805160601c60a05160601c615d2c62000c2c600039600081816117c301528181611c6a0152612e0f01526000818161172d015281816119bf01528181611a7401526120bc0152615d2c6000f3fe6080604052600436106101f25760003560e01c806361d027b31161010d578063a457c2d7116100a0578063dcaf9c441161006f578063dcaf9c4414610766578063dd62ed3e14610791578063e11a3ab3146107ce578063ea061ad4146107f9578063ef048a781461082457610204565b8063a457c2d71461068f578063a5d5db0c146106cc578063a9059cbb146106e8578063b050b6721461072557610204565b806386ef5738116100dc57806386ef5738146105cf5780638ebeece5146105fa57806395d89b411461062357806399fbab881461064e57610204565b806361d027b314610511578063694c755f1461053c57806370a082311461056757806380275860146105a457610204565b8063313ce567116101855780634a08e688116101545780634a08e688146104695780635319faa5146104945780635aa6e675146104bd578063619a53aa146104e857610204565b8063313ce567146103a957806339509351146103d4578063436d803914610411578063476343ee1461045257610204565b80631ac55a0a116101c15780631ac55a0a146102c75780631dafede0146102f25780631e1fd1c11461032f57806323b872dd1461036c57610204565b806306fdde0314610209578063095ea7b3146102345780631775765f1461027157806318160ddd1461029c57610204565b366102045761020260003461084d565b005b600080fd5b34801561021557600080fd5b5061021e6110e2565b60405161022b91906150dc565b60405180910390f35b34801561024057600080fd5b5061025b600480360381019061025691906147f0565b611174565b6040516102689190614fca565b60405180910390f35b34801561027d57600080fd5b50610286611197565b6040516102939190615379565b60405180910390f35b3480156102a857600080fd5b506102b161119d565b6040516102be9190615379565b60405180910390f35b3480156102d357600080fd5b506102dc6111a7565b6040516102e9919061508b565b60405180910390f35b3480156102fe57600080fd5b50610319600480360381019061031491906148f3565b6111cd565b6040516103269190614f04565b60405180910390f35b34801561033b57600080fd5b5061035660048036038101906103519190614702565b61120c565b604051610363919061535e565b60405180910390f35b34801561037857600080fd5b50610393600480360381019061038e919061473e565b61136d565b6040516103a09190614fca565b60405180910390f35b3480156103b557600080fd5b506103be61139c565b6040516103cb9190615394565b60405180910390f35b3480156103e057600080fd5b506103fb60048036038101906103f691906147f0565b6113a5565b6040516104089190614fca565b60405180910390f35b34801561041d57600080fd5b5061043860048036038101906104339190614702565b6113dc565b604051610449959493929190615038565b60405180910390f35b34801561045e57600080fd5b5061046761145f565b005b34801561047557600080fd5b5061047e611d7b565b60405161048b919061508b565b60405180910390f35b3480156104a057600080fd5b506104bb60048036038101906104b691906148f3565b611da1565b005b3480156104c957600080fd5b506104d2611e72565b6040516104df9190614f04565b60405180910390f35b3480156104f457600080fd5b5061050f600480360381019061050a919061478d565b611e98565b005b34801561051d57600080fd5b50610526612094565b6040516105339190614f04565b60405180910390f35b34801561054857600080fd5b506105516120ba565b60405161055e91906150c1565b60405180910390f35b34801561057357600080fd5b5061058e600480360381019061058991906146b0565b6120de565b60405161059b9190615379565b60405180910390f35b3480156105b057600080fd5b506105b9612126565b6040516105c69190614fa8565b60405180910390f35b3480156105db57600080fd5b506105e461239c565b6040516105f19190615379565b60405180910390f35b34801561060657600080fd5b50610621600480360381019061061c919061487b565b612678565b005b34801561062f57600080fd5b50610638612b5e565b60405161064591906150dc565b60405180910390f35b34801561065a57600080fd5b50610675600480360381019061067091906148f3565b612bf0565b604051610686959493929190615038565b60405180910390f35b34801561069b57600080fd5b506106b660048036038101906106b191906147f0565b612c76565b6040516106c39190614fca565b60405180910390f35b6106e660048036038101906106e191906147f0565b61084d565b005b3480156106f457600080fd5b5061070f600480360381019061070a91906147f0565b612ced565b60405161071c9190614fca565b60405180910390f35b34801561073157600080fd5b5061074c600480360381019061074791906146b0565b612d10565b60405161075d959493929190614fe5565b60405180910390f35b34801561077257600080fd5b5061077b612d73565b6040516107889190615379565b60405180910390f35b34801561079d57600080fd5b506107b860048036038101906107b39190614702565b612d79565b6040516107c59190615379565b60405180910390f35b3480156107da57600080fd5b506107e3612e00565b6040516107f09190615379565b60405180910390f35b34801561080557600080fd5b5061080e612e0d565b60405161081b91906150a6565b60405180910390f35b34801561083057600080fd5b5061084b6004803603810190610846919061482c565b612e31565b005b600061085a34600a612f67565b9050600061086983600a612f67565b9050600073ffffffffffffffffffffffffffffffffffffffff168473ffffffffffffffffffffffffffffffffffffffff1614156108fd5781600f60008073ffffffffffffffffffffffffffffffffffffffff1673ffffffffffffffffffffffffffffffffffffffff16815260200190815260200160002060020160008282546108f2919061540f565b925050819055610956565b80600f60008673ffffffffffffffffffffffffffffffffffffffff1673ffffffffffffffffffffffffffffffffffffffff168152602001908152602001600020600201600082825461094f919061540f565b9250508190555b50808361096391906154f0565b600f60008673ffffffffffffffffffffffffffffffffffffffff1673ffffffffffffffffffffffffffffffffffffffff16815260200190815260200160002060010160008282546109b4919061540f565b925050819055506000600c60009054906101000a900473ffffffffffffffffffffffffffffffffffffffff1673ffffffffffffffffffffffffffffffffffffffff1663feaf968c6040518163ffffffff1660e01b815260040160a06040518083038186803b158015610a2557600080fd5b505afa158015610a39573d6000803e3d6000fd5b505050506040513d601f19601f82011682018060405250810190610a5d919061491c565b5050509150506000600d60009054906101000a900473ffffffffffffffffffffffffffffffffffffffff1673ffffffffffffffffffffffffffffffffffffffff1663feaf968c6040518163ffffffff1660e01b815260040160a06040518083038186803b158015610acd57600080fd5b505afa158015610ae1573d6000803e3d6000fd5b505050506040513d601f19601f82011682018060405250810190610b05919061491c565b5050509150506000610b178383612f67565b90506000600f60008973ffffffffffffffffffffffffffffffffffffffff1673ffffffffffffffffffffffffffffffffffffffff16815260200190815260200160002060040160009054906101000a900473ffffffffffffffffffffffffffffffffffffffff1673ffffffffffffffffffffffffffffffffffffffff1663feaf968c6040518163ffffffff1660e01b815260040160a06040518083038186803b158015610bc357600080fd5b505afa158015610bd7573d6000803e3d6000fd5b505050506040513d601f19601f82011682018060405250810190610bfb919061491c565b5050509150506000610c2382878a610c1391906154f0565b610c1d9190615496565b86612fb1565b9050610c8961271082610c369190615496565b600f60008c73ffffffffffffffffffffffffffffffffffffffff1673ffffffffffffffffffffffffffffffffffffffff1681526020019081526020016000206003015485610c849190615496565b612f67565b9050610c9361239c565b600781905550600033898342604051602001610cb29493929190614ea1565b60405160208183030381529060405280519060200120905060116040518060a001604052808381526020013373ffffffffffffffffffffffffffffffffffffffff1681526020018c73ffffffffffffffffffffffffffffffffffffffff1681526020018b81526020018481525090806001815401808255809150506001900390600052602060002090600502016000909190919091506000820151816000015560208201518160010160006101000a81548173ffffffffffffffffffffffffffffffffffffffff021916908373ffffffffffffffffffffffffffffffffffffffff16021790555060408201518160020160006101000a81548173ffffffffffffffffffffffffffffffffffffffff021916908373ffffffffffffffffffffffffffffffffffffffff1602179055506060820151816003015560808201518160040155505060006001601180549050610e0a91906154f0565b9050600181610e19919061540f565b601060008481526020019081526020016000208190555089600e60003373ffffffffffffffffffffffffffffffffffffffff1673ffffffffffffffffffffffffffffffffffffffff16815260200190815260200160002060008d73ffffffffffffffffffffffffffffffffffffffff1673ffffffffffffffffffffffffffffffffffffffff1681526020019081526020016000206003016000828254610ebf919061540f565b9250508190555082600e60003373ffffffffffffffffffffffffffffffffffffffff1673ffffffffffffffffffffffffffffffffffffffff16815260200190815260200160002060008d73ffffffffffffffffffffffffffffffffffffffff1673ffffffffffffffffffffffffffffffffffffffff1681526020019081526020016000206004016000828254610f55919061540f565b92505081905550610f663384612fed565b600073ffffffffffffffffffffffffffffffffffffffff168b73ffffffffffffffffffffffffffffffffffffffff16146110875760008b73ffffffffffffffffffffffffffffffffffffffff166323b872dd33308e6040518463ffffffff1660e01b8152600401610fd993929190614f48565b602060405180830381600087803b158015610ff357600080fd5b505af1158015611007573d6000803e3d6000fd5b505050506040513d601f19601f8201168201806040525081019061102b91906148ca565b90508061103757600080fd5b3373ffffffffffffffffffffffffffffffffffffffff167fd7243f6f8212d5188fd054141cf6ea89cfc0d91facb8c3afe2f88a13584801428c60405161107d9190615379565b60405180910390a2505b3373ffffffffffffffffffffffffffffffffffffffff167fd7243f6f8212d5188fd054141cf6ea89cfc0d91facb8c3afe2f88a1358480142346040516110cd9190615379565b60405180910390a25050505050505050505050565b6060600380546110f190615642565b80601f016020809104026020016040519081016040528092919081815260200182805461111d90615642565b801561116a5780601f1061113f5761010080835404028352916020019161116a565b820191906000526020600020905b81548152906001019060200180831161114d57829003601f168201915b5050505050905090565b60008061117f613144565b905061118c81858561314c565b600191505092915050565b60065481565b6000600254905090565b600d60009054906101000a900473ffffffffffffffffffffffffffffffffffffffff1681565b600981815481106111dd57600080fd5b906000526020600020016000915054906101000a900473ffffffffffffffffffffffffffffffffffffffff1681565b6112146145aa565b600e60008473ffffffffffffffffffffffffffffffffffffffff1673ffffffffffffffffffffffffffffffffffffffff16815260200190815260200160002060008373ffffffffffffffffffffffffffffffffffffffff1673ffffffffffffffffffffffffffffffffffffffff1681526020019081526020016000206040518060a0016040529081600082015481526020016001820160009054906101000a900473ffffffffffffffffffffffffffffffffffffffff1673ffffffffffffffffffffffffffffffffffffffff1673ffffffffffffffffffffffffffffffffffffffff1681526020016002820160009054906101000a900473ffffffffffffffffffffffffffffffffffffffff1673ffffffffffffffffffffffffffffffffffffffff1673ffffffffffffffffffffffffffffffffffffffff16815260200160038201548152602001600482015481525050905092915050565b600080611378613144565b9050611385858285613317565b6113908585856133a3565b60019150509392505050565b60006012905090565b6000806113b0613144565b90506113d18185856113c28589612d79565b6113cc919061540f565b61314c565b600191505092915050565b600e602052816000526040600020602052806000526040600020600091509150508060000154908060010160009054906101000a900473ffffffffffffffffffffffffffffffffffffffff16908060020160009054906101000a900473ffffffffffffffffffffffffffffffffffffffff16908060030154908060040154905085565b6000600a60009054906101000a900473ffffffffffffffffffffffffffffffffffffffff1673ffffffffffffffffffffffffffffffffffffffff166385f2aef26040518163ffffffff1660e01b8152600401602060405180830381600087803b1580156114cb57600080fd5b505af11580156114df573d6000803e3d6000fd5b505050506040513d601f19601f8201168201806040525081019061150391906146d9565b90508073ffffffffffffffffffffffffffffffffffffffff163373ffffffffffffffffffffffffffffffffffffffff161461153d57600080fd5b600080600090505b600980549050811015611d76576009818154811061158c577f4e487b7100000000000000000000000000000000000000000000000000000000600052603260045260246000fd5b9060005260206000200160009054906101000a900473ffffffffffffffffffffffffffffffffffffffff1691506000600f60008473ffffffffffffffffffffffffffffffffffffffff1673ffffffffffffffffffffffffffffffffffffffff1681526020019081526020016000206002015490506000600f60008573ffffffffffffffffffffffffffffffffffffffff1673ffffffffffffffffffffffffffffffffffffffff16815260200190815260200160002060020181905550600073ffffffffffffffffffffffffffffffffffffffff168373ffffffffffffffffffffffffffffffffffffffff1614156118ce576000600b60009054906101000a900473ffffffffffffffffffffffffffffffffffffffff1673ffffffffffffffffffffffffffffffffffffffff166116cf6116c784610bb861361b565b612710612fb1565b6040516116db90614eef565b60006040518083038185875af1925050503d8060008114611718576040519150601f19603f3d011682016040523d82523d6000602084013e61171d565b606091505b505090508061172b57600080fd5b7f000000000000000000000000000000000000000000000000000000000000000073ffffffffffffffffffffffffffffffffffffffff1661176d836005612f67565b60405161177990614eef565b60006040518083038185875af1925050503d80600081146117b6576040519150601f19603f3d011682016040523d82523d6000602084013e6117bb565b606091505b5050809150507f000000000000000000000000000000000000000000000000000000000000000073ffffffffffffffffffffffffffffffffffffffff1661180f6118078461138861361b565b612710612fb1565b60405161181b90614eef565b60006040518083038185875af1925050503d8060008114611858576040519150601f19603f3d011682016040523d82523d6000602084013e61185d565b606091505b50508091505061187a6118728361138861361b565b612710612fb1565b611885836005612f67565b61189c61189485610bb861361b565b612710612fb1565b7f367dce06545b3114ffaefdced869369312566226939540f24d07e35d6216fb7760405160405180910390a450611d62565b60008373ffffffffffffffffffffffffffffffffffffffff1663a9059cbb600b60009054906101000a900473ffffffffffffffffffffffffffffffffffffffff1661192661191e86610bb861361b565b612710612fb1565b6040518363ffffffff1660e01b8152600401611943929190614f7f565b602060405180830381600087803b15801561195d57600080fd5b505af1158015611971573d6000803e3d6000fd5b505050506040513d601f19601f8201168201806040525081019061199591906148ca565b9050806119a157600080fd5b8373ffffffffffffffffffffffffffffffffffffffff1663095ea7b37f00000000000000000000000000000000000000000000000000000000000000006119f56119ed866107d061361b565b612710612fb1565b6040518363ffffffff1660e01b8152600401611a12929190614f7f565b602060405180830381600087803b158015611a2c57600080fd5b505af1158015611a40573d6000803e3d6000fd5b505050506040513d601f19601f82011682018060405250810190611a6491906148ca565b905080611a7057600080fd5b60007f000000000000000000000000000000000000000000000000000000000000000073ffffffffffffffffffffffffffffffffffffffff1663e6a4390586306040518363ffffffff1660e01b8152600401611acd929190614f1f565b60206040518083038186803b158015611ae557600080fd5b505afa158015611af9573d6000803e3d6000fd5b505050506040513d601f19601f82011682018060405250810190611b1d91906146d9565b90506000611b2c846005612f67565b90508573ffffffffffffffffffffffffffffffffffffffff1663095ea7b383836040518363ffffffff1660e01b8152600401611b69929190614f7f565b602060405180830381600087803b158015611b8357600080fd5b505af1158015611b97573d6000803e3d6000fd5b505050506040513d601f19601f82011682018060405250810190611bbb91906148ca565b508573ffffffffffffffffffffffffffffffffffffffff166323b872dd3084846040518463ffffffff1660e01b8152600401611bf993929190614f48565b602060405180830381600087803b158015611c1357600080fd5b505af1158015611c27573d6000803e3d6000fd5b505050506040513d601f19601f82011682018060405250810190611c4b91906148ca565b508573ffffffffffffffffffffffffffffffffffffffff1663a9059cbb7f0000000000000000000000000000000000000000000000000000000000000000611c94876002612f67565b6040518363ffffffff1660e01b8152600401611cb1929190614f7f565b602060405180830381600087803b158015611ccb57600080fd5b505af1158015611cdf573d6000803e3d6000fd5b505050506040513d601f19601f82011682018060405250810190611d0391906148ca565b9250611d10846002612f67565b611d1b856005612f67565b611d32611d2a87610bb861361b565b612710612fb1565b7f367dce06545b3114ffaefdced869369312566226939540f24d07e35d6216fb7760405160405180910390a45050505b508080611d6e90615674565b915050611545565b505050565b600c60009054906101000a900473ffffffffffffffffffffffffffffffffffffffff1681565b600a60009054906101000a900473ffffffffffffffffffffffffffffffffffffffff1673ffffffffffffffffffffffffffffffffffffffff163373ffffffffffffffffffffffffffffffffffffffff1614611e31576040517f08c379a0000000000000000000000000000000000000000000000000000000008152600401611e289061529e565b60405180910390fd5b806008819055507fc28da06ddf710a5cd48fc295c25d1619f92ae27da86a6255cac789193fbf18cb81604051611e679190615379565b60405180910390a150565b600a60009054906101000a900473ffffffffffffffffffffffffffffffffffffffff1681565b611ea061365f565b600073ffffffffffffffffffffffffffffffffffffffff168473ffffffffffffffffffffffffffffffffffffffff161415611f07576040517fd92e233d00000000000000000000000000000000000000000000000000000000815260040160405180910390fd5b600073ffffffffffffffffffffffffffffffffffffffff168373ffffffffffffffffffffffffffffffffffffffff161415611f6e576040517fd92e233d00000000000000000000000000000000000000000000000000000000815260040160405180910390fd5b60008211611fb1576040517f08c379a0000000000000000000000000000000000000000000000000000000008152600401611fa8906151de565b60405180910390fd5b6000600e60008673ffffffffffffffffffffffffffffffffffffffff1673ffffffffffffffffffffffffffffffffffffffff16815260200190815260200160002060008573ffffffffffffffffffffffffffffffffffffffff1673ffffffffffffffffffffffffffffffffffffffff16815260200190815260200160002060040154905060008111612078576040517f08c379a000000000000000000000000000000000000000000000000000000000815260040161206f9061531e565b60405180910390fd5b61208585338686866136af565b5061208e613ccc565b50505050565b600b60009054906101000a900473ffffffffffffffffffffffffffffffffffffffff1681565b7f000000000000000000000000000000000000000000000000000000000000000081565b60008060008373ffffffffffffffffffffffffffffffffffffffff1673ffffffffffffffffffffffffffffffffffffffff168152602001908152602001600020549050919050565b6060600060118054905067ffffffffffffffff81111561216f577f4e487b7100000000000000000000000000000000000000000000000000000000600052604160045260246000fd5b6040519080825280602002602001820160405280156121a857816020015b6121956145aa565b81526020019060019003908161218d5790505b5090506000805b601180549050811015612393576000601182815481106121f8577f4e487b7100000000000000000000000000000000000000000000000000000000600052603260045260246000fd5b9060005260206000209060050201600401541115612380576011818154811061224a577f4e487b7100000000000000000000000000000000000000000000000000000000600052603260045260246000fd5b90600052602060002090600502016040518060a0016040529081600082015481526020016001820160009054906101000a900473ffffffffffffffffffffffffffffffffffffffff1673ffffffffffffffffffffffffffffffffffffffff1673ffffffffffffffffffffffffffffffffffffffff1681526020016002820160009054906101000a900473ffffffffffffffffffffffffffffffffffffffff1673ffffffffffffffffffffffffffffffffffffffff1673ffffffffffffffffffffffffffffffffffffffff16815260200160038201548152602001600482015481525050838381518110612366577f4e487b7100000000000000000000000000000000000000000000000000000000600052603260045260246000fd5b6020026020010181905250818061237c90615674565b9250505b808061238b90615674565b9150506121af565b50819250505090565b600080600c60009054906101000a900473ffffffffffffffffffffffffffffffffffffffff1673ffffffffffffffffffffffffffffffffffffffff1663feaf968c6040518163ffffffff1660e01b815260040160a06040518083038186803b15801561240757600080fd5b505afa15801561241b573d6000803e3d6000fd5b505050506040513d601f19601f8201168201806040525081019061243f919061491c565b505050915050600061244f61119d565b8261245a9190615496565b905060008114156124735763068e778092505050612675565b60008060008060005b60098054905081101561265057600981815481106124c3577f4e487b7100000000000000000000000000000000000000000000000000000000600052603260045260246000fd5b9060005260206000200160009054906101000a900473ffffffffffffffffffffffffffffffffffffffff169450600f60008673ffffffffffffffffffffffffffffffffffffffff1673ffffffffffffffffffffffffffffffffffffffff16815260200190815260200160002060040160009054906101000a900473ffffffffffffffffffffffffffffffffffffffff1673ffffffffffffffffffffffffffffffffffffffff1663feaf968c6040518163ffffffff1660e01b815260040160a06040518083038186803b15801561259857600080fd5b505afa1580156125ac573d6000803e3d6000fd5b505050506040513d601f19601f820116820180604052508101906125d0919061491c565b90919293509091509050508094505083600f60008773ffffffffffffffffffffffffffffffffffffffff1673ffffffffffffffffffffffffffffffffffffffff1681526020019081526020016000206001015461262d9190615496565b9150818361263b919061540f565b9250808061264890615674565b91505061247c565b5061266c61266683670de0b6b3a7640000613cd6565b86612f67565b96505050505050505b90565b61268061365f565b61268a3083612ced565b506000600c60009054906101000a900473ffffffffffffffffffffffffffffffffffffffff1673ffffffffffffffffffffffffffffffffffffffff1663feaf968c6040518163ffffffff1660e01b815260040160a06040518083038186803b1580156126f557600080fd5b505afa158015612709573d6000803e3d6000fd5b505050506040513d601f19601f8201168201806040525081019061272d919061491c565b5050509150506000600f60008673ffffffffffffffffffffffffffffffffffffffff1673ffffffffffffffffffffffffffffffffffffffff16815260200190815260200160002060040160009054906101000a900473ffffffffffffffffffffffffffffffffffffffff1673ffffffffffffffffffffffffffffffffffffffff1663feaf968c6040518163ffffffff1660e01b815260040160a06040518083038186803b1580156127dd57600080fd5b505afa1580156127f1573d6000803e3d6000fd5b505050506040513d601f19601f82011682018060405250810190612815919061491c565b5050509150506000612832828661282c9190615496565b84612f67565b905084600e60003373ffffffffffffffffffffffffffffffffffffffff1673ffffffffffffffffffffffffffffffffffffffff16815260200190815260200160002060008873ffffffffffffffffffffffffffffffffffffffff1673ffffffffffffffffffffffffffffffffffffffff16815260200190815260200160002060040160008282546128c391906154f0565b9250508190555080600e60003373ffffffffffffffffffffffffffffffffffffffff1673ffffffffffffffffffffffffffffffffffffffff16815260200190815260200160002060008873ffffffffffffffffffffffffffffffffffffffff1673ffffffffffffffffffffffffffffffffffffffff168152602001908152602001600020600301600082825461295991906154f0565b9250508190555061296a3086613d43565b61297261239c565b6007819055506129828585613f11565b600073ffffffffffffffffffffffffffffffffffffffff168673ffffffffffffffffffffffffffffffffffffffff161415612a695760003373ffffffffffffffffffffffffffffffffffffffff16826040516129dd90614eef565b60006040518083038185875af1925050503d8060008114612a1a576040519150601f19603f3d011682016040523d82523d6000602084013e612a1f565b606091505b5050905080612a63576040517f08c379a0000000000000000000000000000000000000000000000000000000008152600401612a5a906152be565b60405180910390fd5b50612b00565b8573ffffffffffffffffffffffffffffffffffffffff1663a9059cbb33836040518363ffffffff1660e01b8152600401612aa4929190614f7f565b602060405180830381600087803b158015612abe57600080fd5b505af1158015612ad2573d6000803e3d6000fd5b505050506040513d601f19601f82011682018060405250810190612af691906148ca565b612aff57600080fd5b5b3373ffffffffffffffffffffffffffffffffffffffff167fc30fcfbcaac9e0deffa719714eaa82396ff506a0d0d0eebe170830177288715d86604051612b469190615379565b60405180910390a2505050612b59613ccc565b505050565b606060048054612b6d90615642565b80601f0160208091040260200160405190810160405280929190818152602001828054612b9990615642565b8015612be65780601f10612bbb57610100808354040283529160200191612be6565b820191906000526020600020905b815481529060010190602001808311612bc957829003601f168201915b5050505050905090565b60118181548110612c0057600080fd5b90600052602060002090600502016000915090508060000154908060010160009054906101000a900473ffffffffffffffffffffffffffffffffffffffff16908060020160009054906101000a900473ffffffffffffffffffffffffffffffffffffffff16908060030154908060040154905085565b600080612c81613144565b90506000612c8f8286612d79565b905083811015612cd4576040517f08c379a0000000000000000000000000000000000000000000000000000000008152600401612ccb906152fe565b60405180910390fd5b612ce1828686840361314c565b60019250505092915050565b600080612cf8613144565b9050612d058185856133a3565b600191505092915050565b600f6020528060005260406000206000915090508060000160009054906101000a900460ff16908060010154908060020154908060030154908060040160009054906101000a900473ffffffffffffffffffffffffffffffffffffffff16905085565b60075481565b6000600160008473ffffffffffffffffffffffffffffffffffffffff1673ffffffffffffffffffffffffffffffffffffffff16815260200190815260200160002060008373ffffffffffffffffffffffffffffffffffffffff1673ffffffffffffffffffffffffffffffffffffffff16815260200190815260200160002054905092915050565b6000601180549050905090565b7f000000000000000000000000000000000000000000000000000000000000000081565b600a60009054906101000a900473ffffffffffffffffffffffffffffffffffffffff1673ffffffffffffffffffffffffffffffffffffffff163373ffffffffffffffffffffffffffffffffffffffff1614612ec1576040517f08c379a0000000000000000000000000000000000000000000000000000000008152600401612eb89061529e565b60405180910390fd5b60001515600f60008573ffffffffffffffffffffffffffffffffffffffff1673ffffffffffffffffffffffffffffffffffffffff16815260200190815260200160002060000160009054906101000a900460ff16151514612f57576040517f08c379a0000000000000000000000000000000000000000000000000000000008152600401612f4e9061523e565b60405180910390fd5b612f62838383614316565b505050565b6000612fa983836040518060400160405280601a81526020017f536166654d6174683a206469766973696f6e206279207a65726f0000000000008152506144e4565b905092915050565b600081612fdb612fc985670de0b6b3a7640000613cd6565b600285612fd69190615465565b614547565b612fe59190615465565b905092915050565b600073ffffffffffffffffffffffffffffffffffffffff168273ffffffffffffffffffffffffffffffffffffffff16141561305d576040517f08c379a00000000000000000000000000000000000000000000000000000000081526004016130549061533e565b60405180910390fd5b613069600083836145a0565b806002600082825461307b919061540f565b92505081905550806000808473ffffffffffffffffffffffffffffffffffffffff1673ffffffffffffffffffffffffffffffffffffffff168152602001908152602001600020600082825401925050819055508173ffffffffffffffffffffffffffffffffffffffff16600073ffffffffffffffffffffffffffffffffffffffff167fddf252ad1be2c89b69c2b068fc378daa952ba7f163c4a11628f55a4df523b3ef8360405161312c9190615379565b60405180910390a3613140600083836145a5565b5050565b600033905090565b600073ffffffffffffffffffffffffffffffffffffffff168373ffffffffffffffffffffffffffffffffffffffff1614156131bc576040517f08c379a00000000000000000000000000000000000000000000000000000000081526004016131b39061527e565b60405180910390fd5b600073ffffffffffffffffffffffffffffffffffffffff168273ffffffffffffffffffffffffffffffffffffffff16141561322c576040517f08c379a00000000000000000000000000000000000000000000000000000000081526004016132239061513e565b60405180910390fd5b80600160008573ffffffffffffffffffffffffffffffffffffffff1673ffffffffffffffffffffffffffffffffffffffff16815260200190815260200160002060008473ffffffffffffffffffffffffffffffffffffffff1673ffffffffffffffffffffffffffffffffffffffff168152602001908152602001600020819055508173ffffffffffffffffffffffffffffffffffffffff168373ffffffffffffffffffffffffffffffffffffffff167f8c5be1e5ebec7d5bd14f71427d1e84f3dd0314c0f7b2291e5b200ac8c7c3b9258360405161330a9190615379565b60405180910390a3505050565b60006133238484612d79565b90507fffffffffffffffffffffffffffffffffffffffffffffffffffffffffffffffff811461339d578181101561338f576040517f08c379a00000000000000000000000000000000000000000000000000000000081526004016133869061519e565b60405180910390fd5b61339c848484840361314c565b5b50505050565b600073ffffffffffffffffffffffffffffffffffffffff168373ffffffffffffffffffffffffffffffffffffffff161415613413576040517f08c379a000000000000000000000000000000000000000000000000000000000815260040161340a9061525e565b60405180910390fd5b600073ffffffffffffffffffffffffffffffffffffffff168273ffffffffffffffffffffffffffffffffffffffff161415613483576040517f08c379a000000000000000000000000000000000000000000000000000000000815260040161347a906150fe565b60405180910390fd5b61348e8383836145a0565b60008060008573ffffffffffffffffffffffffffffffffffffffff1673ffffffffffffffffffffffffffffffffffffffff16815260200190815260200160002054905081811015613514576040517f08c379a000000000000000000000000000000000000000000000000000000000815260040161350b906151be565b60405180910390fd5b8181036000808673ffffffffffffffffffffffffffffffffffffffff1673ffffffffffffffffffffffffffffffffffffffff16815260200190815260200160002081905550816000808573ffffffffffffffffffffffffffffffffffffffff1673ffffffffffffffffffffffffffffffffffffffff168152602001908152602001600020600082825401925050819055508273ffffffffffffffffffffffffffffffffffffffff168473ffffffffffffffffffffffffffffffffffffffff167fddf252ad1be2c89b69c2b068fc378daa952ba7f163c4a11628f55a4df523b3ef846040516136029190615379565b60405180910390a36136158484846145a5565b50505050565b6000670de0b6b3a764000061364d6136338585613cd6565b6002670de0b6b3a76400006136489190615465565b614547565b6136579190615465565b905092915050565b600260055414156136a5576040517f08c379a000000000000000000000000000000000000000000000000000000000815260040161369c906152de565b60405180910390fd5b6002600581905550565b6136b761239c565b60078190555060065460075410613703576040517f08c379a00000000000000000000000000000000000000000000000000000000081526004016136fa906151fe565b60405180910390fd5b60008211613746576040517f08c379a000000000000000000000000000000000000000000000000000000000815260040161373d9061531e565b60405180910390fd5b60006064600854846137589190615496565b6137629190615465565b90503073ffffffffffffffffffffffffffffffffffffffff166323b872dd8688848761378e91906154f0565b6040518463ffffffff1660e01b81526004016137ac93929190614f48565b602060405180830381600087803b1580156137c657600080fd5b505af11580156137da573d6000803e3d6000fd5b505050506040513d601f19601f820116820180604052508101906137fe91906148ca565b506000600c60009054906101000a900473ffffffffffffffffffffffffffffffffffffffff1673ffffffffffffffffffffffffffffffffffffffff1663feaf968c6040518163ffffffff1660e01b815260040160a06040518083038186803b15801561386957600080fd5b505afa15801561387d573d6000803e3d6000fd5b505050506040513d601f19601f820116820180604052508101906138a1919061491c565b5050509150506000600f60008773ffffffffffffffffffffffffffffffffffffffff1673ffffffffffffffffffffffffffffffffffffffff16815260200190815260200160002060040160009054906101000a900473ffffffffffffffffffffffffffffffffffffffff1673ffffffffffffffffffffffffffffffffffffffff1663feaf968c6040518163ffffffff1660e01b815260040160a06040518083038186803b15801561395157600080fd5b505afa158015613965573d6000803e3d6000fd5b505050506040513d601f19601f82011682018060405250810190613989919061491c565b50505091505060006139a682876139a09190615496565b84612f67565b905085600e60003373ffffffffffffffffffffffffffffffffffffffff1673ffffffffffffffffffffffffffffffffffffffff16815260200190815260200160002060008973ffffffffffffffffffffffffffffffffffffffff1673ffffffffffffffffffffffffffffffffffffffff1681526020019081526020016000206004016000828254613a3791906154f0565b9250508190555080600e60003373ffffffffffffffffffffffffffffffffffffffff1673ffffffffffffffffffffffffffffffffffffffff16815260200190815260200160002060008973ffffffffffffffffffffffffffffffffffffffff1673ffffffffffffffffffffffffffffffffffffffff1681526020019081526020016000206003016000828254613acd91906154f0565b92505081905550613ade8686613f11565b600073ffffffffffffffffffffffffffffffffffffffff168773ffffffffffffffffffffffffffffffffffffffff161415613bc55760008873ffffffffffffffffffffffffffffffffffffffff1682604051613b3990614eef565b60006040518083038185875af1925050503d8060008114613b76576040519150601f19603f3d011682016040523d82523d6000602084013e613b7b565b606091505b5050905080613bbf576040517f08c379a0000000000000000000000000000000000000000000000000000000008152600401613bb6906152be565b60405180910390fd5b50613c5c565b8673ffffffffffffffffffffffffffffffffffffffff1663a9059cbb89836040518363ffffffff1660e01b8152600401613c00929190614f7f565b602060405180830381600087803b158015613c1a57600080fd5b505af1158015613c2e573d6000803e3d6000fd5b505050506040513d601f19601f82011682018060405250810190613c5291906148ca565b613c5b57600080fd5b5b8873ffffffffffffffffffffffffffffffffffffffff168873ffffffffffffffffffffffffffffffffffffffff167fde0aa27286f5cb3a4ed853dc4823ead62d63e92cdf13de09d6aece56970721a488604051613cb99190615379565b60405180910390a3505050505050505050565b6001600581905550565b600080821480613cfe575082828385613cef9190615496565b925082613cfc9190615465565b145b613d3d576040517f08c379a0000000000000000000000000000000000000000000000000000000008152600401613d349061515e565b60405180910390fd5b92915050565b600073ffffffffffffffffffffffffffffffffffffffff168273ffffffffffffffffffffffffffffffffffffffff161415613db3576040517f08c379a0000000000000000000000000000000000000000000000000000000008152600401613daa9061521e565b60405180910390fd5b613dbf826000836145a0565b60008060008473ffffffffffffffffffffffffffffffffffffffff1673ffffffffffffffffffffffffffffffffffffffff16815260200190815260200160002054905081811015613e45576040517f08c379a0000000000000000000000000000000000000000000000000000000008152600401613e3c9061511e565b60405180910390fd5b8181036000808573ffffffffffffffffffffffffffffffffffffffff1673ffffffffffffffffffffffffffffffffffffffff1681526020019081526020016000208190555081600260008282540392505081905550600073ffffffffffffffffffffffffffffffffffffffff168373ffffffffffffffffffffffffffffffffffffffff167fddf252ad1be2c89b69c2b068fc378daa952ba7f163c4a11628f55a4df523b3ef84604051613ef89190615379565b60405180910390a3613f0c836000846145a5565b505050565b600060016010600084815260200190815260200160002054613f3391906154f0565b9050600060118281548110613f71577f4e487b7100000000000000000000000000000000000000000000000000000000600052603260045260246000fd5b90600052602060002090600502016040518060a0016040529081600082015481526020016001820160009054906101000a900473ffffffffffffffffffffffffffffffffffffffff1673ffffffffffffffffffffffffffffffffffffffff1673ffffffffffffffffffffffffffffffffffffffff1681526020016002820160009054906101000a900473ffffffffffffffffffffffffffffffffffffffff1673ffffffffffffffffffffffffffffffffffffffff1673ffffffffffffffffffffffffffffffffffffffff168152602001600382015481526020016004820154815250509050806080015184106142ad576011600160118054905061407591906154f0565b815481106140ac577f4e487b7100000000000000000000000000000000000000000000000000000000600052603260045260246000fd5b9060005260206000209060050201601183815481106140f4577f4e487b7100000000000000000000000000000000000000000000000000000000600052603260045260246000fd5b9060005260206000209060050201600082015481600001556001820160009054906101000a900473ffffffffffffffffffffffffffffffffffffffff168160010160006101000a81548173ffffffffffffffffffffffffffffffffffffffff021916908373ffffffffffffffffffffffffffffffffffffffff1602179055506002820160009054906101000a900473ffffffffffffffffffffffffffffffffffffffff168160020160006101000a81548173ffffffffffffffffffffffffffffffffffffffff021916908373ffffffffffffffffffffffffffffffffffffffff16021790555060038201548160030155600482015481600401559050506011805480614229577f4e487b7100000000000000000000000000000000000000000000000000000000600052603160045260246000fd5b60019003818190600052602060002090600502016000808201600090556001820160006101000a81549073ffffffffffffffffffffffffffffffffffffffff02191690556002820160006101000a81549073ffffffffffffffffffffffffffffffffffffffff02191690556003820160009055600482016000905550509055614310565b83601183815481106142e8577f4e487b7100000000000000000000000000000000000000000000000000000000600052603260045260246000fd5b9060005260206000209060050201600401600082825461430891906154f0565b925050819055505b50505050565b6009839080600181540180825580915050600190039060005260206000200160009091909190916101000a81548173ffffffffffffffffffffffffffffffffffffffff021916908373ffffffffffffffffffffffffffffffffffffffff1602179055506001600f60008573ffffffffffffffffffffffffffffffffffffffff1673ffffffffffffffffffffffffffffffffffffffff16815260200190815260200160002060000160006101000a81548160ff02191690831515021790555081600f60008573ffffffffffffffffffffffffffffffffffffffff1673ffffffffffffffffffffffffffffffffffffffff1681526020019081526020016000206003018190555080600f60008573ffffffffffffffffffffffffffffffffffffffff1673ffffffffffffffffffffffffffffffffffffffff16815260200190815260200160002060040160006101000a81548173ffffffffffffffffffffffffffffffffffffffff021916908373ffffffffffffffffffffffffffffffffffffffff1602179055508273ffffffffffffffffffffffffffffffffffffffff167fc5747b084113a45fa0db9ee3450f0fdf2cac58e149aeb924b9cc46499bf9e95460405160405180910390a2505050565b6000808311829061452b576040517f08c379a000000000000000000000000000000000000000000000000000000000815260040161452291906150dc565b60405180910390fd5b506000838561453a9190615465565b9050809150509392505050565b6000828284614556919061540f565b915081101561459a576040517f08c379a00000000000000000000000000000000000000000000000000000000081526004016145919061517e565b60405180910390fd5b92915050565b505050565b505050565b6040518060a0016040528060008019168152602001600073ffffffffffffffffffffffffffffffffffffffff168152602001600073ffffffffffffffffffffffffffffffffffffffff16815260200160008152602001600081525090565b60008135905061461781615c6c565b92915050565b60008151905061462c81615c6c565b92915050565b60008151905061464181615c83565b92915050565b60008135905061465681615c9a565b92915050565b60008151905061466b81615cb1565b92915050565b60008135905061468081615cc8565b92915050565b60008151905061469581615cc8565b92915050565b6000815190506146aa81615cdf565b92915050565b6000602082840312156146c257600080fd5b60006146d084828501614608565b91505092915050565b6000602082840312156146eb57600080fd5b60006146f98482850161461d565b91505092915050565b6000806040838503121561471557600080fd5b600061472385828601614608565b925050602061473485828601614608565b9150509250929050565b60008060006060848603121561475357600080fd5b600061476186828701614608565b935050602061477286828701614608565b925050604061478386828701614671565b9150509250925092565b600080600080608085870312156147a357600080fd5b60006147b187828801614608565b94505060206147c287828801614608565b93505060406147d387828801614671565b92505060606147e487828801614647565b91505092959194509250565b6000806040838503121561480357600080fd5b600061481185828601614608565b925050602061482285828601614671565b9150509250929050565b60008060006060848603121561484157600080fd5b600061484f86828701614608565b935050602061486086828701614671565b925050604061487186828701614608565b9150509250925092565b60008060006060848603121561489057600080fd5b600061489e86828701614608565b93505060206148af86828701614671565b92505060406148c086828701614647565b9150509250925092565b6000602082840312156148dc57600080fd5b60006148ea84828501614632565b91505092915050565b60006020828403121561490557600080fd5b600061491384828501614671565b91505092915050565b600080600080600060a0868803121561493457600080fd5b60006149428882890161469b565b95505060206149538882890161465c565b945050604061496488828901614686565b935050606061497588828901614686565b92505060806149868882890161469b565b9150509295509295909350565b600061499f8383614d8d565b60a08301905092915050565b6149b481615524565b82525050565b6149c381615524565b82525050565b6149da6149d582615524565b6156bd565b82525050565b60006149eb826153bf565b6149f581856153e2565b9350614a00836153af565b8060005b83811015614a31578151614a188882614993565b9750614a23836153d5565b925050600181019050614a04565b5085935050505092915050565b614a4781615536565b82525050565b614a5681615542565b82525050565b614a6581615542565b82525050565b614a74816155a3565b82525050565b614a83816155c7565b82525050565b614a92816155eb565b82525050565b6000614aa3826153ca565b614aad81856153fe565b9350614abd81856020860161560f565b614ac681615778565b840191505092915050565b6000614ade6023836153fe565b9150614ae982615796565b604082019050919050565b6000614b016022836153fe565b9150614b0c826157e5565b604082019050919050565b6000614b246022836153fe565b9150614b2f82615834565b604082019050919050565b6000614b476014836153fe565b9150614b5282615883565b602082019050919050565b6000614b6a6014836153fe565b9150614b75826158ac565b602082019050919050565b6000614b8d601d836153fe565b9150614b98826158d5565b602082019050919050565b6000614bb06026836153fe565b9150614bbb826158fe565b604082019050919050565b6000614bd36013836153fe565b9150614bde8261594d565b602082019050919050565b6000614bf66019836153fe565b9150614c0182615976565b602082019050919050565b6000614c196021836153fe565b9150614c248261599f565b604082019050919050565b6000614c3c6025836153fe565b9150614c47826159ee565b604082019050919050565b6000614c5f6025836153fe565b9150614c6a82615a3d565b604082019050919050565b6000614c826000836153f3565b9150614c8d82615a8c565b600082019050919050565b6000614ca56024836153fe565b9150614cb082615a8f565b604082019050919050565b6000614cc86024836153fe565b9150614cd382615ade565b604082019050919050565b6000614ceb602b836153fe565b9150614cf682615b2d565b604082019050919050565b6000614d0e601f836153fe565b9150614d1982615b7c565b602082019050919050565b6000614d316025836153fe565b9150614d3c82615ba5565b604082019050919050565b6000614d546022836153fe565b9150614d5f82615bf4565b604082019050919050565b6000614d77601f836153fe565b9150614d8282615c43565b602082019050919050565b60a082016000820151614da36000850182614a4d565b506020820151614db660208501826149ab565b506040820151614dc960408501826149ab565b506060820151614ddc6060850182614e5d565b506080820151614def6080850182614e5d565b50505050565b60a082016000820151614e0b6000850182614a4d565b506020820151614e1e60208501826149ab565b506040820151614e3160408501826149ab565b506060820151614e446060850182614e5d565b506080820151614e576080850182614e5d565b50505050565b614e6681615576565b82525050565b614e7581615576565b82525050565b614e8c614e8782615576565b6156e1565b82525050565b614e9b81615580565b82525050565b6000614ead82876149c9565b601482019150614ebd8286614e7b565b602082019150614ecd8285614e7b565b602082019150614edd8284614e7b565b60208201915081905095945050505050565b6000614efa82614c75565b9150819050919050565b6000602082019050614f1960008301846149ba565b92915050565b6000604082019050614f3460008301856149ba565b614f4160208301846149ba565b9392505050565b6000606082019050614f5d60008301866149ba565b614f6a60208301856149ba565b614f776040830184614e6c565b949350505050565b6000604082019050614f9460008301856149ba565b614fa16020830184614e6c565b9392505050565b60006020820190508181036000830152614fc281846149e0565b905092915050565b6000602082019050614fdf6000830184614a3e565b92915050565b600060a082019050614ffa6000830188614a3e565b6150076020830187614e6c565b6150146040830186614e6c565b6150216060830185614e6c565b61502e6080830184614a6b565b9695505050505050565b600060a08201905061504d6000830188614a5c565b61505a60208301876149ba565b61506760408301866149ba565b6150746060830185614e6c565b6150816080830184614e6c565b9695505050505050565b60006020820190506150a06000830184614a6b565b92915050565b60006020820190506150bb6000830184614a7a565b92915050565b60006020820190506150d66000830184614a89565b92915050565b600060208201905081810360008301526150f68184614a98565b905092915050565b6000602082019050818103600083015261511781614ad1565b9050919050565b6000602082019050818103600083015261513781614af4565b9050919050565b6000602082019050818103600083015261515781614b17565b9050919050565b6000602082019050818103600083015261517781614b3a565b9050919050565b6000602082019050818103600083015261519781614b5d565b9050919050565b600060208201905081810360008301526151b781614b80565b9050919050565b600060208201905081810360008301526151d781614ba3565b9050919050565b600060208201905081810360008301526151f781614bc6565b9050919050565b6000602082019050818103600083015261521781614be9565b9050919050565b6000602082019050818103600083015261523781614c0c565b9050919050565b6000602082019050818103600083015261525781614c2f565b9050919050565b6000602082019050818103600083015261527781614c52565b9050919050565b6000602082019050818103600083015261529781614c98565b9050919050565b600060208201905081810360008301526152b781614cbb565b9050919050565b600060208201905081810360008301526152d781614cde565b9050919050565b600060208201905081810360008301526152f781614d01565b9050919050565b6000602082019050818103600083015261531781614d24565b9050919050565b6000602082019050818103600083015261533781614d47565b9050919050565b6000602082019050818103600083015261535781614d6a565b9050919050565b600060a0820190506153736000830184614df5565b92915050565b600060208201905061538e6000830184614e6c565b92915050565b60006020820190506153a96000830184614e92565b92915050565b6000819050602082019050919050565b600081519050919050565b600081519050919050565b6000602082019050919050565b600082825260208201905092915050565b600081905092915050565b600082825260208201905092915050565b600061541a82615576565b915061542583615576565b9250827fffffffffffffffffffffffffffffffffffffffffffffffffffffffffffffffff0382111561545a576154596156eb565b5b828201905092915050565b600061547082615576565b915061547b83615576565b92508261548b5761548a61571a565b5b828204905092915050565b60006154a182615576565b91506154ac83615576565b9250817fffffffffffffffffffffffffffffffffffffffffffffffffffffffffffffffff04831182151516156154e5576154e46156eb565b5b828202905092915050565b60006154fb82615576565b915061550683615576565b925082821015615519576155186156eb565b5b828203905092915050565b600061552f82615556565b9050919050565b60008115159050919050565b6000819050919050565b6000819050919050565b600073ffffffffffffffffffffffffffffffffffffffff82169050919050565b6000819050919050565b600060ff82169050919050565b600069ffffffffffffffffffff82169050919050565b60006155ae826155b5565b9050919050565b60006155c082615556565b9050919050565b60006155d2826155d9565b9050919050565b60006155e482615556565b9050919050565b60006155f6826155fd565b9050919050565b600061560882615556565b9050919050565b60005b8381101561562d578082015181840152602081019050615612565b8381111561563c576000848401525b50505050565b6000600282049050600182168061565a57607f821691505b6020821081141561566e5761566d615749565b5b50919050565b600061567f82615576565b91507fffffffffffffffffffffffffffffffffffffffffffffffffffffffffffffffff8214156156b2576156b16156eb565b5b600182019050919050565b60006156c8826156cf565b9050919050565b60006156da82615789565b9050919050565b6000819050919050565b7f4e487b7100000000000000000000000000000000000000000000000000000000600052601160045260246000fd5b7f4e487b7100000000000000000000000000000000000000000000000000000000600052601260045260246000fd5b7f4e487b7100000000000000000000000000000000000000000000000000000000600052602260045260246000fd5b6000601f19601f8301169050919050565b60008160601b9050919050565b7f45524332303a207472616e7366657220746f20746865207a65726f206164647260008201527f6573730000000000000000000000000000000000000000000000000000000000602082015250565b7f45524332303a206275726e20616d6f756e7420657863656564732062616c616e60008201527f6365000000000000000000000000000000000000000000000000000000000000602082015250565b7f45524332303a20617070726f766520746f20746865207a65726f20616464726560008201527f7373000000000000000000000000000000000000000000000000000000000000602082015250565b7f64732d6d6174682d6d756c2d6f766572666c6f77000000000000000000000000600082015250565b7f64732d6d6174682d6164642d6f766572666c6f77000000000000000000000000600082015250565b7f45524332303a20696e73756666696369656e7420616c6c6f77616e6365000000600082015250565b7f45524332303a207472616e7366657220616d6f756e742065786365656473206260008201527f616c616e63650000000000000000000000000000000000000000000000000000602082015250565b7f616d6f756e742063616e206e6f74206265203000000000000000000000000000600082015250565b7f63616e6e6f74206c697175696461746520706f736974696f6e00000000000000600082015250565b7f45524332303a206275726e2066726f6d20746865207a65726f2061646472657360008201527f7300000000000000000000000000000000000000000000000000000000000000602082015250565b7f7468697320636f6c6c61746572616c207479706520616c72656164792061707060008201527f726f766564000000000000000000000000000000000000000000000000000000602082015250565b7f45524332303a207472616e736665722066726f6d20746865207a65726f20616460008201527f6472657373000000000000000000000000000000000000000000000000000000602082015250565b50565b7f45524332303a20617070726f76652066726f6d20746865207a65726f2061646460008201527f7265737300000000000000000000000000000000000000000000000000000000602082015250565b7f63616e206f6e6c792062652063616c6c65642062792043475420676f7665726e60008201527f616e636500000000000000000000000000000000000000000000000000000000602082015250565b7f72657475726e206f6620657468657220636f6c6c61746572616c20776173207560008201527f6e7375636365737366756c000000000000000000000000000000000000000000602082015250565b7f5265656e7472616e637947756172643a207265656e7472616e742063616c6c00600082015250565b7f45524332303a2064656372656173656420616c6c6f77616e63652062656c6f7760008201527f207a65726f000000000000000000000000000000000000000000000000000000602082015250565b7f7573657220686173206e6f20706f736974696f6e7320746f206c69717569646160008201527f7465000000000000000000000000000000000000000000000000000000000000602082015250565b7f45524332303a206d696e7420746f20746865207a65726f206164647265737300600082015250565b615c7581615524565b8114615c8057600080fd5b50565b615c8c81615536565b8114615c9757600080fd5b50565b615ca381615542565b8114615cae57600080fd5b50565b615cba8161554c565b8114615cc557600080fd5b50565b615cd181615576565b8114615cdc57600080fd5b50565b615ce88161558d565b8114615cf357600080fd5b5056fea2646970667358221220bfc3a77c3783ea4c29c79b18ae465fc444154d1bab0c6c3784920acb706a540d64736f6c63430008040033",
  "linkReferences": {},
  "deployedLinkReferences": {}
}