{
  "_format": "hh-sol-artifact-1",
  "contractName": "Chrysus",
  "sourceName": "contracts/Chrysus.sol",
  "abi": [
    {
      "inputs": [
        {
          "components": [
            {
              "internalType": "address",
              "name": "daiAddress",
              "type": "address"
            },
            {
              "internalType": "address",
              "name": "oracleDAI",
              "type": "address"
            },
            {
              "internalType": "address",
              "name": "oracleETH",
              "type": "address"
            },
            {
              "internalType": "address",
              "name": "oracleCHC",
              "type": "address"
            },
            {
              "internalType": "address",
              "name": "oracleXAU",
              "type": "address"
            },
            {
              "internalType": "address",
              "name": "governance",
              "type": "address"
            },
            {
              "internalType": "address",
              "name": "treasury",
              "type": "address"
            },
            {
              "internalType": "address",
              "name": "swapSolution",
              "type": "address"
            },
            {
              "internalType": "address",
              "name": "stabilityModule",
              "type": "address"
            }
          ],
          "internalType": "struct Chrysus.AddressBook",
          "name": "_ab",
          "type": "tuple"
        },
        {
          "internalType": "uint256",
          "name": "_liquidationReward",
          "type": "uint256"
        }
      ],
      "stateMutability": "nonpayable",
      "type": "constructor"
    },
    {
      "inputs": [],
      "name": "ZeroAddress",
      "type": "error"
    },
    {
      "anonymous": false,
      "inputs": [
        {
          "indexed": true,
          "internalType": "address",
          "name": "collateralToken",
          "type": "address"
        }
      ],
      "name": "AddedCollateralType",
      "type": "event"
    },
    {
      "anonymous": false,
      "inputs": [
        {
          "indexed": true,
          "internalType": "address",
          "name": "owner",
          "type": "address"
        },
        {
          "indexed": true,
          "internalType": "address",
          "name": "spender",
          "type": "address"
        },
        {
          "indexed": false,
          "internalType": "uint256",
          "name": "value",
          "type": "uint256"
        }
      ],
      "name": "Approval",
      "type": "event"
    },
    {
      "anonymous": false,
      "inputs": [
        {
          "indexed": true,
          "internalType": "address",
          "name": "user",
          "type": "address"
        },
        {
          "indexed": false,
          "internalType": "uint256",
          "name": "amount",
          "type": "uint256"
        }
      ],
      "name": "CollateralDeposited",
      "type": "event"
    },
    {
      "anonymous": false,
      "inputs": [
        {
          "indexed": true,
          "internalType": "address",
          "name": "user",
          "type": "address"
        },
        {
          "indexed": false,
          "internalType": "uint256",
          "name": "amount",
          "type": "uint256"
        }
      ],
      "name": "CollateralWithdrawn",
      "type": "event"
    },
    {
      "anonymous": false,
      "inputs": [
        {
          "indexed": true,
          "internalType": "uint256",
          "name": "treasuryFees",
          "type": "uint256"
        },
        {
          "indexed": true,
          "internalType": "uint256",
          "name": "swapSolutionFees",
          "type": "uint256"
        },
        {
          "indexed": true,
          "internalType": "uint256",
          "name": "stabilityModuleFees",
          "type": "uint256"
        }
      ],
      "name": "FeesWithdrawn",
      "type": "event"
    },
    {
      "anonymous": false,
      "inputs": [
        {
          "indexed": true,
          "internalType": "address",
          "name": "liquidator",
          "type": "address"
        },
        {
          "indexed": true,
          "internalType": "address",
          "name": "user",
          "type": "address"
        },
        {
          "indexed": false,
          "internalType": "uint256",
          "name": "amountLiquidated",
          "type": "uint256"
        }
      ],
      "name": "Liquidated",
      "type": "event"
    },
    {
      "anonymous": false,
      "inputs": [
        {
          "indexed": false,
          "internalType": "uint256",
          "name": "newReward",
          "type": "uint256"
        }
      ],
      "name": "LiquidationRewardUpdated",
      "type": "event"
    },
    {
      "anonymous": false,
      "inputs": [
        {
          "indexed": true,
          "internalType": "address",
          "name": "from",
          "type": "address"
        },
        {
          "indexed": true,
          "internalType": "address",
          "name": "to",
          "type": "address"
        },
        {
          "indexed": false,
          "internalType": "uint256",
          "name": "value",
          "type": "uint256"
        }
      ],
      "name": "Transfer",
      "type": "event"
    },
    {
      "inputs": [
        {
          "internalType": "address",
          "name": "_collateralType",
          "type": "address"
        },
        {
          "internalType": "uint256",
          "name": "_minCollateral",
          "type": "uint256"
        },
        {
          "internalType": "address",
          "name": "_oracleAddress",
          "type": "address"
        }
      ],
      "name": "addCollateralType",
      "outputs": [],
      "stateMutability": "nonpayable",
      "type": "function"
    },
    {
      "inputs": [
        {
          "internalType": "address",
          "name": "owner",
          "type": "address"
        },
        {
          "internalType": "address",
          "name": "spender",
          "type": "address"
        }
      ],
      "name": "allowance",
      "outputs": [
        {
          "internalType": "uint256",
          "name": "",
          "type": "uint256"
        }
      ],
      "stateMutability": "view",
      "type": "function"
    },
    {
      "inputs": [
        {
          "internalType": "address",
          "name": "spender",
          "type": "address"
        },
        {
          "internalType": "uint256",
          "name": "amount",
          "type": "uint256"
        }
      ],
      "name": "approve",
      "outputs": [
        {
          "internalType": "bool",
          "name": "",
          "type": "bool"
        }
      ],
      "stateMutability": "nonpayable",
      "type": "function"
    },
    {
      "inputs": [
        {
          "internalType": "address",
          "name": "",
          "type": "address"
        }
      ],
      "name": "approvedCollateral",
      "outputs": [
        {
          "internalType": "bool",
          "name": "approved",
          "type": "bool"
        },
        {
          "internalType": "uint256",
          "name": "balance",
          "type": "uint256"
        },
        {
          "internalType": "uint256",
          "name": "fees",
          "type": "uint256"
        },
        {
          "internalType": "uint256",
          "name": "minCollateral",
          "type": "uint256"
        },
        {
          "internalType": "contract AggregatorV3Interface",
          "name": "oracle",
          "type": "address"
        }
      ],
      "stateMutability": "view",
      "type": "function"
    },
    {
      "inputs": [
        {
          "internalType": "uint256",
          "name": "",
          "type": "uint256"
        }
      ],
      "name": "approvedTokens",
      "outputs": [
        {
          "internalType": "address",
          "name": "",
          "type": "address"
        }
      ],
      "stateMutability": "view",
      "type": "function"
    },
    {
      "inputs": [
        {
          "internalType": "address",
          "name": "account",
          "type": "address"
        }
      ],
      "name": "balanceOf",
      "outputs": [
        {
          "internalType": "uint256",
          "name": "",
          "type": "uint256"
        }
      ],
      "stateMutability": "view",
      "type": "function"
    },
    {
      "inputs": [],
      "name": "collateralizationRatio",
      "outputs": [
        {
          "internalType": "uint256",
          "name": "",
          "type": "uint256"
        }
      ],
      "stateMutability": "view",
      "type": "function"
    },
    {
      "inputs": [],
      "name": "decimals",
      "outputs": [
        {
          "internalType": "uint8",
          "name": "",
          "type": "uint8"
        }
      ],
      "stateMutability": "view",
      "type": "function"
    },
    {
      "inputs": [
        {
          "internalType": "address",
          "name": "spender",
          "type": "address"
        },
        {
          "internalType": "uint256",
          "name": "subtractedValue",
          "type": "uint256"
        }
      ],
      "name": "decreaseAllowance",
      "outputs": [
        {
          "internalType": "bool",
          "name": "",
          "type": "bool"
        }
      ],
      "stateMutability": "nonpayable",
      "type": "function"
    },
    {
      "inputs": [
        {
          "internalType": "address",
          "name": "_collateralType",
          "type": "address"
        },
        {
          "internalType": "uint256",
          "name": "_amount",
          "type": "uint256"
        }
      ],
      "name": "depositCollateral",
      "outputs": [],
      "stateMutability": "payable",
      "type": "function"
    },
    {
      "inputs": [],
      "name": "getCdpCounter",
      "outputs": [
        {
          "internalType": "uint256",
          "name": "",
          "type": "uint256"
        }
      ],
      "stateMutability": "view",
      "type": "function"
    },
    {
      "inputs": [],
      "name": "getCollateralizationRatio",
      "outputs": [
        {
          "internalType": "uint256",
          "name": "",
          "type": "uint256"
        }
      ],
      "stateMutability": "view",
      "type": "function"
    },
    {
      "inputs": [],
      "name": "getPositions",
      "outputs": [
        {
          "components": [
            {
              "internalType": "bytes32",
              "name": "id",
              "type": "bytes32"
            },
            {
              "internalType": "address",
              "name": "user",
              "type": "address"
            },
            {
              "internalType": "address",
              "name": "collateral",
              "type": "address"
            },
            {
              "internalType": "uint256",
              "name": "deposited",
              "type": "uint256"
            },
            {
              "internalType": "uint256",
              "name": "minted",
              "type": "uint256"
            }
          ],
          "internalType": "struct Chrysus.Position[]",
          "name": "",
          "type": "tuple[]"
        }
      ],
      "stateMutability": "view",
      "type": "function"
    },
    {
      "inputs": [
        {
          "internalType": "address",
          "name": "user",
          "type": "address"
        }
      ],
      "name": "getUserPositions",
      "outputs": [
        {
          "components": [
            {
              "internalType": "bytes32",
              "name": "id",
              "type": "bytes32"
            },
            {
              "internalType": "address",
              "name": "user",
              "type": "address"
            },
            {
              "internalType": "address",
              "name": "collateral",
              "type": "address"
            },
            {
              "internalType": "uint256",
              "name": "deposited",
              "type": "uint256"
            },
            {
              "internalType": "uint256",
              "name": "minted",
              "type": "uint256"
            }
          ],
          "internalType": "struct Chrysus.Position[]",
          "name": "",
          "type": "tuple[]"
        }
      ],
      "stateMutability": "view",
      "type": "function"
    },
    {
      "inputs": [],
      "name": "governance",
      "outputs": [
        {
          "internalType": "address",
          "name": "",
          "type": "address"
        }
      ],
      "stateMutability": "view",
      "type": "function"
    },
    {
      "inputs": [
        {
          "internalType": "address",
          "name": "spender",
          "type": "address"
        },
        {
          "internalType": "uint256",
          "name": "addedValue",
          "type": "uint256"
        }
      ],
      "name": "increaseAllowance",
      "outputs": [
        {
          "internalType": "bool",
          "name": "",
          "type": "bool"
        }
      ],
      "stateMutability": "nonpayable",
      "type": "function"
    },
    {
      "inputs": [
        {
          "internalType": "address",
          "name": "_userToliquidate",
          "type": "address"
        },
        {
          "internalType": "address",
          "name": "_collateralType",
          "type": "address"
        },
        {
          "internalType": "uint256",
          "name": "_amount",
          "type": "uint256"
        },
        {
          "internalType": "bytes32",
          "name": "_positionId",
          "type": "bytes32"
        }
      ],
      "name": "liquidate",
      "outputs": [],
      "stateMutability": "nonpayable",
      "type": "function"
    },
    {
      "inputs": [],
      "name": "liquidationRatio",
      "outputs": [
        {
          "internalType": "uint256",
          "name": "",
          "type": "uint256"
        }
      ],
      "stateMutability": "view",
      "type": "function"
    },
    {
      "inputs": [],
      "name": "name",
      "outputs": [
        {
          "internalType": "string",
          "name": "",
          "type": "string"
        }
      ],
      "stateMutability": "view",
      "type": "function"
    },
    {
      "inputs": [],
      "name": "oracleCHC",
      "outputs": [
        {
          "internalType": "contract AggregatorV3Interface",
          "name": "",
          "type": "address"
        }
      ],
      "stateMutability": "view",
      "type": "function"
    },
    {
      "inputs": [],
      "name": "oracleXAU",
      "outputs": [
        {
          "internalType": "contract AggregatorV3Interface",
          "name": "",
          "type": "address"
        }
      ],
      "stateMutability": "view",
      "type": "function"
    },
    {
      "inputs": [
        {
          "internalType": "uint256",
          "name": "",
          "type": "uint256"
        }
      ],
      "name": "positions",
      "outputs": [
        {
          "internalType": "bytes32",
          "name": "id",
          "type": "bytes32"
        },
        {
          "internalType": "address",
          "name": "user",
          "type": "address"
        },
        {
          "internalType": "address",
          "name": "collateral",
          "type": "address"
        },
        {
          "internalType": "uint256",
          "name": "deposited",
          "type": "uint256"
        },
        {
          "internalType": "uint256",
          "name": "minted",
          "type": "uint256"
        }
      ],
      "stateMutability": "view",
      "type": "function"
    },
    {
      "inputs": [],
      "name": "stabilityModule",
      "outputs": [
        {
          "internalType": "contract IStabilityModule",
          "name": "",
          "type": "address"
        }
      ],
      "stateMutability": "view",
      "type": "function"
    },
    {
      "inputs": [],
      "name": "swapSolution",
      "outputs": [
        {
          "internalType": "contract ISwap",
          "name": "",
          "type": "address"
        }
      ],
      "stateMutability": "view",
      "type": "function"
    },
    {
      "inputs": [],
      "name": "symbol",
      "outputs": [
        {
          "internalType": "string",
          "name": "",
          "type": "string"
        }
      ],
      "stateMutability": "view",
      "type": "function"
    },
    {
      "inputs": [],
      "name": "totalSupply",
      "outputs": [
        {
          "internalType": "uint256",
          "name": "",
          "type": "uint256"
        }
      ],
      "stateMutability": "view",
      "type": "function"
    },
    {
      "inputs": [
        {
          "internalType": "address",
          "name": "to",
          "type": "address"
        },
        {
          "internalType": "uint256",
          "name": "amount",
          "type": "uint256"
        }
      ],
      "name": "transfer",
      "outputs": [
        {
          "internalType": "bool",
          "name": "",
          "type": "bool"
        }
      ],
      "stateMutability": "nonpayable",
      "type": "function"
    },
    {
      "inputs": [
        {
          "internalType": "address",
          "name": "from",
          "type": "address"
        },
        {
          "internalType": "address",
          "name": "to",
          "type": "address"
        },
        {
          "internalType": "uint256",
          "name": "amount",
          "type": "uint256"
        }
      ],
      "name": "transferFrom",
      "outputs": [
        {
          "internalType": "bool",
          "name": "",
          "type": "bool"
        }
      ],
      "stateMutability": "nonpayable",
      "type": "function"
    },
    {
      "inputs": [],
      "name": "treasury",
      "outputs": [
        {
          "internalType": "address",
          "name": "",
          "type": "address"
        }
      ],
      "stateMutability": "view",
      "type": "function"
    },
    {
      "inputs": [
        {
          "internalType": "uint256",
          "name": "_newReward",
          "type": "uint256"
        }
      ],
      "name": "updateLiquidatorReward",
      "outputs": [],
      "stateMutability": "nonpayable",
      "type": "function"
    },
    {
      "inputs": [
        {
          "internalType": "address",
          "name": "",
          "type": "address"
        },
        {
          "internalType": "address",
          "name": "",
          "type": "address"
        }
      ],
      "name": "userDeposits",
      "outputs": [
        {
          "internalType": "bytes32",
          "name": "id",
          "type": "bytes32"
        },
        {
          "internalType": "address",
          "name": "user",
          "type": "address"
        },
        {
          "internalType": "address",
          "name": "collateral",
          "type": "address"
        },
        {
          "internalType": "uint256",
          "name": "deposited",
          "type": "uint256"
        },
        {
          "internalType": "uint256",
          "name": "minted",
          "type": "uint256"
        }
      ],
      "stateMutability": "view",
      "type": "function"
    },
    {
      "inputs": [
        {
          "internalType": "address",
          "name": "_collateralType",
          "type": "address"
        },
        {
          "internalType": "uint256",
          "name": "_amount",
          "type": "uint256"
        },
        {
          "internalType": "bytes32",
          "name": "_positionId",
          "type": "bytes32"
        }
      ],
      "name": "withdrawCollateral",
      "outputs": [],
      "stateMutability": "nonpayable",
      "type": "function"
    },
    {
      "inputs": [],
      "name": "withdrawFees",
      "outputs": [],
      "stateMutability": "nonpayable",
      "type": "function"
    },
    {
      "stateMutability": "payable",
      "type": "receive"
    }
  ],
  "bytecode": "0x60c06040523480156200001157600080fd5b5060405162006bb638038062006bb6833981810160405281019062000037919062000a24565b6040518060400160405280600781526020017f43687279737573000000000000000000000000000000000000000000000000008152506040518060400160405280600381526020017f43484300000000000000000000000000000000000000000000000000000000008152508160039080519060200190620000bb92919062000855565b508060049080519060200190620000d492919062000855565b5050506001600581905550600073ffffffffffffffffffffffffffffffffffffffff16826000015173ffffffffffffffffffffffffffffffffffffffff1614156200014b576040517fd92e233d00000000000000000000000000000000000000000000000000000000815260040160405180910390fd5b600073ffffffffffffffffffffffffffffffffffffffff16826020015173ffffffffffffffffffffffffffffffffffffffff161415620001b7576040517fd92e233d00000000000000000000000000000000000000000000000000000000815260040160405180910390fd5b600073ffffffffffffffffffffffffffffffffffffffff16826040015173ffffffffffffffffffffffffffffffffffffffff16141562000223576040517fd92e233d00000000000000000000000000000000000000000000000000000000815260040160405180910390fd5b600073ffffffffffffffffffffffffffffffffffffffff16826060015173ffffffffffffffffffffffffffffffffffffffff1614156200028f576040517fd92e233d00000000000000000000000000000000000000000000000000000000815260040160405180910390fd5b600073ffffffffffffffffffffffffffffffffffffffff16826080015173ffffffffffffffffffffffffffffffffffffffff161415620002fb576040517fd92e233d00000000000000000000000000000000000000000000000000000000815260040160405180910390fd5b600073ffffffffffffffffffffffffffffffffffffffff168260a0015173ffffffffffffffffffffffffffffffffffffffff16141562000367576040517fd92e233d00000000000000000000000000000000000000000000000000000000815260040160405180910390fd5b600073ffffffffffffffffffffffffffffffffffffffff168260c0015173ffffffffffffffffffffffffffffffffffffffff161415620003d3576040517fd92e233d00000000000000000000000000000000000000000000000000000000815260040160405180910390fd5b600073ffffffffffffffffffffffffffffffffffffffff168260e0015173ffffffffffffffffffffffffffffffffffffffff1614156200043f576040517fd92e233d00000000000000000000000000000000000000000000000000000000815260040160405180910390fd5b600073ffffffffffffffffffffffffffffffffffffffff1682610100015173ffffffffffffffffffffffffffffffffffffffff161415620004ac576040517fd92e233d00000000000000000000000000000000000000000000000000000000815260040160405180910390fd5b63068e778060068190555080600881905550620004db826000015161010b84602001516200068760201b60201c565b620004f46000607884604001516200068760201b60201c565b8160600151600c60006101000a81548173ffffffffffffffffffffffffffffffffffffffff021916908373ffffffffffffffffffffffffffffffffffffffff1602179055508160800151600d60006101000a81548173ffffffffffffffffffffffffffffffffffffffff021916908373ffffffffffffffffffffffffffffffffffffffff1602179055508160a00151600a60006101000a81548173ffffffffffffffffffffffffffffffffffffffff021916908373ffffffffffffffffffffffffffffffffffffffff1602179055508160c00151600b60006101000a81548173ffffffffffffffffffffffffffffffffffffffff021916908373ffffffffffffffffffffffffffffffffffffffff1602179055508160e0015173ffffffffffffffffffffffffffffffffffffffff1660808173ffffffffffffffffffffffffffffffffffffffff1660601b8152505081610100015173ffffffffffffffffffffffffffffffffffffffff1660a08173ffffffffffffffffffffffffffffffffffffffff1660601b81525050505062000bdd565b6009839080600181540180825580915050600190039060005260206000200160009091909190916101000a81548173ffffffffffffffffffffffffffffffffffffffff021916908373ffffffffffffffffffffffffffffffffffffffff1602179055506001600f60008573ffffffffffffffffffffffffffffffffffffffff1673ffffffffffffffffffffffffffffffffffffffff16815260200190815260200160002060000160006101000a81548160ff02191690831515021790555081600f60008573ffffffffffffffffffffffffffffffffffffffff1673ffffffffffffffffffffffffffffffffffffffff1681526020019081526020016000206003018190555080600f60008573ffffffffffffffffffffffffffffffffffffffff1673ffffffffffffffffffffffffffffffffffffffff16815260200190815260200160002060040160006101000a81548173ffffffffffffffffffffffffffffffffffffffff021916908373ffffffffffffffffffffffffffffffffffffffff1602179055508273ffffffffffffffffffffffffffffffffffffffff167fc5747b084113a45fa0db9ee3450f0fdf2cac58e149aeb924b9cc46499bf9e95460405160405180910390a2505050565b828054620008639062000ace565b90600052602060002090601f016020900481019282620008875760008555620008d3565b82601f10620008a257805160ff1916838001178555620008d3565b82800160010185558215620008d3579182015b82811115620008d2578251825591602001919060010190620008b5565b5b509050620008e29190620008e6565b5090565b5b8082111562000901576000816000905550600101620008e7565b5090565b600081519050620009168162000ba9565b92915050565b600061012082840312156200093057600080fd5b6200093d61012062000a67565b905060006200094f8482850162000905565b6000830152506020620009658482850162000905565b60208301525060406200097b8482850162000905565b6040830152506060620009918482850162000905565b6060830152506080620009a78482850162000905565b60808301525060a0620009bd8482850162000905565b60a08301525060c0620009d38482850162000905565b60c08301525060e0620009e98482850162000905565b60e08301525061010062000a008482850162000905565b6101008301525092915050565b60008151905062000a1e8162000bc3565b92915050565b600080610140838503121562000a3957600080fd5b600062000a49858286016200091c565b92505061012062000a5d8582860162000a0d565b9150509250929050565b600062000a7362000a86565b905062000a81828262000b04565b919050565b6000604051905090565b600062000a9d8262000aa4565b9050919050565b600073ffffffffffffffffffffffffffffffffffffffff82169050919050565b6000819050919050565b6000600282049050600182168062000ae757607f821691505b6020821081141562000afe5762000afd62000b3a565b5b50919050565b62000b0f8262000b98565b810181811067ffffffffffffffff8211171562000b315762000b3062000b69565b5b80604052505050565b7f4e487b7100000000000000000000000000000000000000000000000000000000600052602260045260246000fd5b7f4e487b7100000000000000000000000000000000000000000000000000000000600052604160045260246000fd5b6000601f19601f8301169050919050565b62000bb48162000a90565b811462000bc057600080fd5b50565b62000bce8162000ac4565b811462000bda57600080fd5b50565b60805160601c60a05160601c615f8a62000c2c60003960008181611aa401528181611f4b01526130f0015260008181611a0e01528181611ca001528181611d55015261239d0152615f8a6000f3fe6080604052600436106101f25760003560e01c806361d027b31161010d578063a457c2d7116100a0578063dcaf9c441161006f578063dcaf9c4414610766578063dd62ed3e14610791578063e11a3ab3146107ce578063ea061ad4146107f9578063ef048a781461082457610204565b8063a457c2d71461068f578063a5d5db0c146106cc578063a9059cbb146106e8578063b050b6721461072557610204565b806386ef5738116100dc57806386ef5738146105cf5780638ebeece5146105fa57806395d89b411461062357806399fbab881461064e57610204565b806361d027b314610511578063694c755f1461053c57806370a082311461056757806380275860146105a457610204565b8063313ce567116101855780634a08e688116101545780634a08e688146104695780635319faa5146104945780635aa6e675146104bd578063619a53aa146104e857610204565b8063313ce567146103a957806339509351146103d4578063436d803914610411578063476343ee1461045257610204565b80631ac55a0a116101c15780631ac55a0a146102c75780631dafede0146102f257806323b872dd1461032f5780632a6bc2dd1461036c57610204565b806306fdde0314610209578063095ea7b3146102345780631775765f1461027157806318160ddd1461029c57610204565b366102045761020260003461084d565b005b600080fd5b34801561021557600080fd5b5061021e6110e2565b60405161022b9190615355565b60405180910390f35b34801561024057600080fd5b5061025b60048036038101906102569190614ad1565b611174565b6040516102689190615243565b60405180910390f35b34801561027d57600080fd5b50610286611197565b60405161029391906155d7565b60405180910390f35b3480156102a857600080fd5b506102b161119d565b6040516102be91906155d7565b60405180910390f35b3480156102d357600080fd5b506102dc6111a7565b6040516102e99190615304565b60405180910390f35b3480156102fe57600080fd5b5061031960048036038101906103149190614bd4565b6111cd565b604051610326919061517d565b60405180910390f35b34801561033b57600080fd5b5061035660048036038101906103519190614a1f565b61120c565b6040516103639190615243565b60405180910390f35b34801561037857600080fd5b50610393600480360381019061038e9190614991565b61123b565b6040516103a09190615221565b60405180910390f35b3480156103b557600080fd5b506103be61167d565b6040516103cb91906155f2565b60405180910390f35b3480156103e057600080fd5b506103fb60048036038101906103f69190614ad1565b611686565b6040516104089190615243565b60405180910390f35b34801561041d57600080fd5b50610438600480360381019061043391906149e3565b6116bd565b6040516104499594939291906152b1565b60405180910390f35b34801561045e57600080fd5b50610467611740565b005b34801561047557600080fd5b5061047e61205c565b60405161048b9190615304565b60405180910390f35b3480156104a057600080fd5b506104bb60048036038101906104b69190614bd4565b612082565b005b3480156104c957600080fd5b506104d2612153565b6040516104df919061517d565b60405180910390f35b3480156104f457600080fd5b5061050f600480360381019061050a9190614a6e565b612179565b005b34801561051d57600080fd5b50610526612375565b604051610533919061517d565b60405180910390f35b34801561054857600080fd5b5061055161239b565b60405161055e919061533a565b60405180910390f35b34801561057357600080fd5b5061058e60048036038101906105899190614991565b6123bf565b60405161059b91906155d7565b60405180910390f35b3480156105b057600080fd5b506105b9612407565b6040516105c69190615221565b60405180910390f35b3480156105db57600080fd5b506105e461267d565b6040516105f191906155d7565b60405180910390f35b34801561060657600080fd5b50610621600480360381019061061c9190614b5c565b612959565b005b34801561062f57600080fd5b50610638612e3f565b6040516106459190615355565b60405180910390f35b34801561065a57600080fd5b5061067560048036038101906106709190614bd4565b612ed1565b6040516106869594939291906152b1565b60405180910390f35b34801561069b57600080fd5b506106b660048036038101906106b19190614ad1565b612f57565b6040516106c39190615243565b60405180910390f35b6106e660048036038101906106e19190614ad1565b61084d565b005b3480156106f457600080fd5b5061070f600480360381019061070a9190614ad1565b612fce565b60405161071c9190615243565b60405180910390f35b34801561073157600080fd5b5061074c60048036038101906107479190614991565b612ff1565b60405161075d95949392919061525e565b60405180910390f35b34801561077257600080fd5b5061077b613054565b60405161078891906155d7565b60405180910390f35b34801561079d57600080fd5b506107b860048036038101906107b391906149e3565b61305a565b6040516107c591906155d7565b60405180910390f35b3480156107da57600080fd5b506107e36130e1565b6040516107f091906155d7565b60405180910390f35b34801561080557600080fd5b5061080e6130ee565b60405161081b919061531f565b60405180910390f35b34801561083057600080fd5b5061084b60048036038101906108469190614b0d565b613112565b005b600061085a34600a613248565b9050600061086983600a613248565b9050600073ffffffffffffffffffffffffffffffffffffffff168473ffffffffffffffffffffffffffffffffffffffff1614156108fd5781600f60008073ffffffffffffffffffffffffffffffffffffffff1673ffffffffffffffffffffffffffffffffffffffff16815260200190815260200160002060020160008282546108f2919061566d565b925050819055610956565b80600f60008673ffffffffffffffffffffffffffffffffffffffff1673ffffffffffffffffffffffffffffffffffffffff168152602001908152602001600020600201600082825461094f919061566d565b9250508190555b508083610963919061574e565b600f60008673ffffffffffffffffffffffffffffffffffffffff1673ffffffffffffffffffffffffffffffffffffffff16815260200190815260200160002060010160008282546109b4919061566d565b925050819055506000600c60009054906101000a900473ffffffffffffffffffffffffffffffffffffffff1673ffffffffffffffffffffffffffffffffffffffff1663feaf968c6040518163ffffffff1660e01b815260040160a06040518083038186803b158015610a2557600080fd5b505afa158015610a39573d6000803e3d6000fd5b505050506040513d601f19601f82011682018060405250810190610a5d9190614bfd565b5050509150506000600d60009054906101000a900473ffffffffffffffffffffffffffffffffffffffff1673ffffffffffffffffffffffffffffffffffffffff1663feaf968c6040518163ffffffff1660e01b815260040160a06040518083038186803b158015610acd57600080fd5b505afa158015610ae1573d6000803e3d6000fd5b505050506040513d601f19601f82011682018060405250810190610b059190614bfd565b5050509150506000610b178383613248565b90506000600f60008973ffffffffffffffffffffffffffffffffffffffff1673ffffffffffffffffffffffffffffffffffffffff16815260200190815260200160002060040160009054906101000a900473ffffffffffffffffffffffffffffffffffffffff1673ffffffffffffffffffffffffffffffffffffffff1663feaf968c6040518163ffffffff1660e01b815260040160a06040518083038186803b158015610bc357600080fd5b505afa158015610bd7573d6000803e3d6000fd5b505050506040513d601f19601f82011682018060405250810190610bfb9190614bfd565b5050509150506000610c2382878a610c13919061574e565b610c1d91906156f4565b86613292565b9050610c8961271082610c3691906156f4565b600f60008c73ffffffffffffffffffffffffffffffffffffffff1673ffffffffffffffffffffffffffffffffffffffff1681526020019081526020016000206003015485610c8491906156f4565b613248565b9050610c9361267d565b600781905550600033898342604051602001610cb2949392919061511a565b60405160208183030381529060405280519060200120905060116040518060a001604052808381526020013373ffffffffffffffffffffffffffffffffffffffff1681526020018c73ffffffffffffffffffffffffffffffffffffffff1681526020018b81526020018481525090806001815401808255809150506001900390600052602060002090600502016000909190919091506000820151816000015560208201518160010160006101000a81548173ffffffffffffffffffffffffffffffffffffffff021916908373ffffffffffffffffffffffffffffffffffffffff16021790555060408201518160020160006101000a81548173ffffffffffffffffffffffffffffffffffffffff021916908373ffffffffffffffffffffffffffffffffffffffff1602179055506060820151816003015560808201518160040155505060006001601180549050610e0a919061574e565b9050600181610e19919061566d565b601060008481526020019081526020016000208190555089600e60003373ffffffffffffffffffffffffffffffffffffffff1673ffffffffffffffffffffffffffffffffffffffff16815260200190815260200160002060008d73ffffffffffffffffffffffffffffffffffffffff1673ffffffffffffffffffffffffffffffffffffffff1681526020019081526020016000206003016000828254610ebf919061566d565b9250508190555082600e60003373ffffffffffffffffffffffffffffffffffffffff1673ffffffffffffffffffffffffffffffffffffffff16815260200190815260200160002060008d73ffffffffffffffffffffffffffffffffffffffff1673ffffffffffffffffffffffffffffffffffffffff1681526020019081526020016000206004016000828254610f55919061566d565b92505081905550610f6633846132ce565b600073ffffffffffffffffffffffffffffffffffffffff168b73ffffffffffffffffffffffffffffffffffffffff16146110875760008b73ffffffffffffffffffffffffffffffffffffffff166323b872dd33308e6040518463ffffffff1660e01b8152600401610fd9939291906151c1565b602060405180830381600087803b158015610ff357600080fd5b505af1158015611007573d6000803e3d6000fd5b505050506040513d601f19601f8201168201806040525081019061102b9190614bab565b90508061103757600080fd5b3373ffffffffffffffffffffffffffffffffffffffff167fd7243f6f8212d5188fd054141cf6ea89cfc0d91facb8c3afe2f88a13584801428c60405161107d91906155d7565b60405180910390a2505b3373ffffffffffffffffffffffffffffffffffffffff167fd7243f6f8212d5188fd054141cf6ea89cfc0d91facb8c3afe2f88a1358480142346040516110cd91906155d7565b60405180910390a25050505050505050505050565b6060600380546110f1906158a0565b80601f016020809104026020016040519081016040528092919081815260200182805461111d906158a0565b801561116a5780601f1061113f5761010080835404028352916020019161116a565b820191906000526020600020905b81548152906001019060200180831161114d57829003601f168201915b5050505050905090565b60008061117f613425565b905061118c81858561342d565b600191505092915050565b60065481565b6000600254905090565b600d60009054906101000a900473ffffffffffffffffffffffffffffffffffffffff1681565b600981815481106111dd57600080fd5b906000526020600020016000915054906101000a900473ffffffffffffffffffffffffffffffffffffffff1681565b600080611217613425565b90506112248582856135f8565b61122f858585613684565b60019150509392505050565b60606000805b6011805490508110156113665760006011828154811061128a577f4e487b7100000000000000000000000000000000000000000000000000000000600052603260045260246000fd5b90600052602060002090600502016004015411801561133f57508373ffffffffffffffffffffffffffffffffffffffff16601182815481106112f5577f4e487b7100000000000000000000000000000000000000000000000000000000600052603260045260246000fd5b906000526020600020906005020160010160009054906101000a900473ffffffffffffffffffffffffffffffffffffffff1673ffffffffffffffffffffffffffffffffffffffff16145b1561135357818061134f906158d2565b9250505b808061135e906158d2565b915050611241565b5060008167ffffffffffffffff8111156113a9577f4e487b7100000000000000000000000000000000000000000000000000000000600052604160045260246000fd5b6040519080825280602002602001820160405280156113e257816020015b6113cf61488b565b8152602001906001900390816113c75790505b5090506000915060005b60118054905081101561167257600060118281548110611435577f4e487b7100000000000000000000000000000000000000000000000000000000600052603260045260246000fd5b9060005260206000209060050201600401541180156114ea57508473ffffffffffffffffffffffffffffffffffffffff16601182815481106114a0577f4e487b7100000000000000000000000000000000000000000000000000000000600052603260045260246000fd5b906000526020600020906005020160010160009054906101000a900473ffffffffffffffffffffffffffffffffffffffff1673ffffffffffffffffffffffffffffffffffffffff16145b1561165f5760118181548110611529577f4e487b7100000000000000000000000000000000000000000000000000000000600052603260045260246000fd5b90600052602060002090600502016040518060a0016040529081600082015481526020016001820160009054906101000a900473ffffffffffffffffffffffffffffffffffffffff1673ffffffffffffffffffffffffffffffffffffffff1673ffffffffffffffffffffffffffffffffffffffff1681526020016002820160009054906101000a900473ffffffffffffffffffffffffffffffffffffffff1673ffffffffffffffffffffffffffffffffffffffff1673ffffffffffffffffffffffffffffffffffffffff16815260200160038201548152602001600482015481525050828481518110611645577f4e487b7100000000000000000000000000000000000000000000000000000000600052603260045260246000fd5b6020026020010181905250828061165b906158d2565b9350505b808061166a906158d2565b9150506113ec565b508092505050919050565b60006012905090565b600080611691613425565b90506116b28185856116a3858961305a565b6116ad919061566d565b61342d565b600191505092915050565b600e602052816000526040600020602052806000526040600020600091509150508060000154908060010160009054906101000a900473ffffffffffffffffffffffffffffffffffffffff16908060020160009054906101000a900473ffffffffffffffffffffffffffffffffffffffff16908060030154908060040154905085565b6000600a60009054906101000a900473ffffffffffffffffffffffffffffffffffffffff1673ffffffffffffffffffffffffffffffffffffffff166385f2aef26040518163ffffffff1660e01b8152600401602060405180830381600087803b1580156117ac57600080fd5b505af11580156117c0573d6000803e3d6000fd5b505050506040513d601f19601f820116820180604052508101906117e491906149ba565b90508073ffffffffffffffffffffffffffffffffffffffff163373ffffffffffffffffffffffffffffffffffffffff161461181e57600080fd5b600080600090505b600980549050811015612057576009818154811061186d577f4e487b7100000000000000000000000000000000000000000000000000000000600052603260045260246000fd5b9060005260206000200160009054906101000a900473ffffffffffffffffffffffffffffffffffffffff1691506000600f60008473ffffffffffffffffffffffffffffffffffffffff1673ffffffffffffffffffffffffffffffffffffffff1681526020019081526020016000206002015490506000600f60008573ffffffffffffffffffffffffffffffffffffffff1673ffffffffffffffffffffffffffffffffffffffff16815260200190815260200160002060020181905550600073ffffffffffffffffffffffffffffffffffffffff168373ffffffffffffffffffffffffffffffffffffffff161415611baf576000600b60009054906101000a900473ffffffffffffffffffffffffffffffffffffffff1673ffffffffffffffffffffffffffffffffffffffff166119b06119a884610bb86138fc565b612710613292565b6040516119bc90615168565b60006040518083038185875af1925050503d80600081146119f9576040519150601f19603f3d011682016040523d82523d6000602084013e6119fe565b606091505b5050905080611a0c57600080fd5b7f000000000000000000000000000000000000000000000000000000000000000073ffffffffffffffffffffffffffffffffffffffff16611a4e836005613248565b604051611a5a90615168565b60006040518083038185875af1925050503d8060008114611a97576040519150601f19603f3d011682016040523d82523d6000602084013e611a9c565b606091505b5050809150507f000000000000000000000000000000000000000000000000000000000000000073ffffffffffffffffffffffffffffffffffffffff16611af0611ae8846113886138fc565b612710613292565b604051611afc90615168565b60006040518083038185875af1925050503d8060008114611b39576040519150601f19603f3d011682016040523d82523d6000602084013e611b3e565b606091505b505080915050611b5b611b53836113886138fc565b612710613292565b611b66836005613248565b611b7d611b7585610bb86138fc565b612710613292565b7f367dce06545b3114ffaefdced869369312566226939540f24d07e35d6216fb7760405160405180910390a450612043565b60008373ffffffffffffffffffffffffffffffffffffffff1663a9059cbb600b60009054906101000a900473ffffffffffffffffffffffffffffffffffffffff16611c07611bff86610bb86138fc565b612710613292565b6040518363ffffffff1660e01b8152600401611c249291906151f8565b602060405180830381600087803b158015611c3e57600080fd5b505af1158015611c52573d6000803e3d6000fd5b505050506040513d601f19601f82011682018060405250810190611c769190614bab565b905080611c8257600080fd5b8373ffffffffffffffffffffffffffffffffffffffff1663095ea7b37f0000000000000000000000000000000000000000000000000000000000000000611cd6611cce866107d06138fc565b612710613292565b6040518363ffffffff1660e01b8152600401611cf39291906151f8565b602060405180830381600087803b158015611d0d57600080fd5b505af1158015611d21573d6000803e3d6000fd5b505050506040513d601f19601f82011682018060405250810190611d459190614bab565b905080611d5157600080fd5b60007f000000000000000000000000000000000000000000000000000000000000000073ffffffffffffffffffffffffffffffffffffffff1663e6a4390586306040518363ffffffff1660e01b8152600401611dae929190615198565b60206040518083038186803b158015611dc657600080fd5b505afa158015611dda573d6000803e3d6000fd5b505050506040513d601f19601f82011682018060405250810190611dfe91906149ba565b90506000611e0d846005613248565b90508573ffffffffffffffffffffffffffffffffffffffff1663095ea7b383836040518363ffffffff1660e01b8152600401611e4a9291906151f8565b602060405180830381600087803b158015611e6457600080fd5b505af1158015611e78573d6000803e3d6000fd5b505050506040513d601f19601f82011682018060405250810190611e9c9190614bab565b508573ffffffffffffffffffffffffffffffffffffffff166323b872dd3084846040518463ffffffff1660e01b8152600401611eda939291906151c1565b602060405180830381600087803b158015611ef457600080fd5b505af1158015611f08573d6000803e3d6000fd5b505050506040513d601f19601f82011682018060405250810190611f2c9190614bab565b508573ffffffffffffffffffffffffffffffffffffffff1663a9059cbb7f0000000000000000000000000000000000000000000000000000000000000000611f75876002613248565b6040518363ffffffff1660e01b8152600401611f929291906151f8565b602060405180830381600087803b158015611fac57600080fd5b505af1158015611fc0573d6000803e3d6000fd5b505050506040513d601f19601f82011682018060405250810190611fe49190614bab565b9250611ff1846002613248565b611ffc856005613248565b61201361200b87610bb86138fc565b612710613292565b7f367dce06545b3114ffaefdced869369312566226939540f24d07e35d6216fb7760405160405180910390a45050505b50808061204f906158d2565b915050611826565b505050565b600c60009054906101000a900473ffffffffffffffffffffffffffffffffffffffff1681565b600a60009054906101000a900473ffffffffffffffffffffffffffffffffffffffff1673ffffffffffffffffffffffffffffffffffffffff163373ffffffffffffffffffffffffffffffffffffffff1614612112576040517f08c379a000000000000000000000000000000000000000000000000000000000815260040161210990615517565b60405180910390fd5b806008819055507fc28da06ddf710a5cd48fc295c25d1619f92ae27da86a6255cac789193fbf18cb8160405161214891906155d7565b60405180910390a150565b600a60009054906101000a900473ffffffffffffffffffffffffffffffffffffffff1681565b612181613940565b600073ffffffffffffffffffffffffffffffffffffffff168473ffffffffffffffffffffffffffffffffffffffff1614156121e8576040517fd92e233d00000000000000000000000000000000000000000000000000000000815260040160405180910390fd5b600073ffffffffffffffffffffffffffffffffffffffff168373ffffffffffffffffffffffffffffffffffffffff16141561224f576040517fd92e233d00000000000000000000000000000000000000000000000000000000815260040160405180910390fd5b60008211612292576040517f08c379a000000000000000000000000000000000000000000000000000000000815260040161228990615457565b60405180910390fd5b6000600e60008673ffffffffffffffffffffffffffffffffffffffff1673ffffffffffffffffffffffffffffffffffffffff16815260200190815260200160002060008573ffffffffffffffffffffffffffffffffffffffff1673ffffffffffffffffffffffffffffffffffffffff16815260200190815260200160002060040154905060008111612359576040517f08c379a000000000000000000000000000000000000000000000000000000000815260040161235090615597565b60405180910390fd5b6123668533868686613990565b5061236f613fad565b50505050565b600b60009054906101000a900473ffffffffffffffffffffffffffffffffffffffff1681565b7f000000000000000000000000000000000000000000000000000000000000000081565b60008060008373ffffffffffffffffffffffffffffffffffffffff1673ffffffffffffffffffffffffffffffffffffffff168152602001908152602001600020549050919050565b6060600060118054905067ffffffffffffffff811115612450577f4e487b7100000000000000000000000000000000000000000000000000000000600052604160045260246000fd5b60405190808252806020026020018201604052801561248957816020015b61247661488b565b81526020019060019003908161246e5790505b5090506000805b601180549050811015612674576000601182815481106124d9577f4e487b7100000000000000000000000000000000000000000000000000000000600052603260045260246000fd5b9060005260206000209060050201600401541115612661576011818154811061252b577f4e487b7100000000000000000000000000000000000000000000000000000000600052603260045260246000fd5b90600052602060002090600502016040518060a0016040529081600082015481526020016001820160009054906101000a900473ffffffffffffffffffffffffffffffffffffffff1673ffffffffffffffffffffffffffffffffffffffff1673ffffffffffffffffffffffffffffffffffffffff1681526020016002820160009054906101000a900473ffffffffffffffffffffffffffffffffffffffff1673ffffffffffffffffffffffffffffffffffffffff1673ffffffffffffffffffffffffffffffffffffffff16815260200160038201548152602001600482015481525050838381518110612647577f4e487b7100000000000000000000000000000000000000000000000000000000600052603260045260246000fd5b6020026020010181905250818061265d906158d2565b9250505b808061266c906158d2565b915050612490565b50819250505090565b600080600c60009054906101000a900473ffffffffffffffffffffffffffffffffffffffff1673ffffffffffffffffffffffffffffffffffffffff1663feaf968c6040518163ffffffff1660e01b815260040160a06040518083038186803b1580156126e857600080fd5b505afa1580156126fc573d6000803e3d6000fd5b505050506040513d601f19601f820116820180604052508101906127209190614bfd565b505050915050600061273061119d565b8261273b91906156f4565b905060008114156127545763068e778092505050612956565b60008060008060005b60098054905081101561293157600981815481106127a4577f4e487b7100000000000000000000000000000000000000000000000000000000600052603260045260246000fd5b9060005260206000200160009054906101000a900473ffffffffffffffffffffffffffffffffffffffff169450600f60008673ffffffffffffffffffffffffffffffffffffffff1673ffffffffffffffffffffffffffffffffffffffff16815260200190815260200160002060040160009054906101000a900473ffffffffffffffffffffffffffffffffffffffff1673ffffffffffffffffffffffffffffffffffffffff1663feaf968c6040518163ffffffff1660e01b815260040160a06040518083038186803b15801561287957600080fd5b505afa15801561288d573d6000803e3d6000fd5b505050506040513d601f19601f820116820180604052508101906128b19190614bfd565b90919293509091509050508094505083600f60008773ffffffffffffffffffffffffffffffffffffffff1673ffffffffffffffffffffffffffffffffffffffff1681526020019081526020016000206001015461290e91906156f4565b9150818361291c919061566d565b92508080612929906158d2565b91505061275d565b5061294d61294783670de0b6b3a7640000613fb7565b86613248565b96505050505050505b90565b612961613940565b61296b3083612fce565b506000600c60009054906101000a900473ffffffffffffffffffffffffffffffffffffffff1673ffffffffffffffffffffffffffffffffffffffff1663feaf968c6040518163ffffffff1660e01b815260040160a06040518083038186803b1580156129d657600080fd5b505afa1580156129ea573d6000803e3d6000fd5b505050506040513d601f19601f82011682018060405250810190612a0e9190614bfd565b5050509150506000600f60008673ffffffffffffffffffffffffffffffffffffffff1673ffffffffffffffffffffffffffffffffffffffff16815260200190815260200160002060040160009054906101000a900473ffffffffffffffffffffffffffffffffffffffff1673ffffffffffffffffffffffffffffffffffffffff1663feaf968c6040518163ffffffff1660e01b815260040160a06040518083038186803b158015612abe57600080fd5b505afa158015612ad2573d6000803e3d6000fd5b505050506040513d601f19601f82011682018060405250810190612af69190614bfd565b5050509150506000612b138286612b0d91906156f4565b84613248565b905084600e60003373ffffffffffffffffffffffffffffffffffffffff1673ffffffffffffffffffffffffffffffffffffffff16815260200190815260200160002060008873ffffffffffffffffffffffffffffffffffffffff1673ffffffffffffffffffffffffffffffffffffffff1681526020019081526020016000206004016000828254612ba4919061574e565b9250508190555080600e60003373ffffffffffffffffffffffffffffffffffffffff1673ffffffffffffffffffffffffffffffffffffffff16815260200190815260200160002060008873ffffffffffffffffffffffffffffffffffffffff1673ffffffffffffffffffffffffffffffffffffffff1681526020019081526020016000206003016000828254612c3a919061574e565b92505081905550612c4b3086614024565b612c5361267d565b600781905550612c6385856141f2565b600073ffffffffffffffffffffffffffffffffffffffff168673ffffffffffffffffffffffffffffffffffffffff161415612d4a5760003373ffffffffffffffffffffffffffffffffffffffff1682604051612cbe90615168565b60006040518083038185875af1925050503d8060008114612cfb576040519150601f19603f3d011682016040523d82523d6000602084013e612d00565b606091505b5050905080612d44576040517f08c379a0000000000000000000000000000000000000000000000000000000008152600401612d3b90615537565b60405180910390fd5b50612de1565b8573ffffffffffffffffffffffffffffffffffffffff1663a9059cbb33836040518363ffffffff1660e01b8152600401612d859291906151f8565b602060405180830381600087803b158015612d9f57600080fd5b505af1158015612db3573d6000803e3d6000fd5b505050506040513d601f19601f82011682018060405250810190612dd79190614bab565b612de057600080fd5b5b3373ffffffffffffffffffffffffffffffffffffffff167fc30fcfbcaac9e0deffa719714eaa82396ff506a0d0d0eebe170830177288715d86604051612e2791906155d7565b60405180910390a2505050612e3a613fad565b505050565b606060048054612e4e906158a0565b80601f0160208091040260200160405190810160405280929190818152602001828054612e7a906158a0565b8015612ec75780601f10612e9c57610100808354040283529160200191612ec7565b820191906000526020600020905b815481529060010190602001808311612eaa57829003601f168201915b5050505050905090565b60118181548110612ee157600080fd5b90600052602060002090600502016000915090508060000154908060010160009054906101000a900473ffffffffffffffffffffffffffffffffffffffff16908060020160009054906101000a900473ffffffffffffffffffffffffffffffffffffffff16908060030154908060040154905085565b600080612f62613425565b90506000612f70828661305a565b905083811015612fb5576040517f08c379a0000000000000000000000000000000000000000000000000000000008152600401612fac90615577565b60405180910390fd5b612fc2828686840361342d565b60019250505092915050565b600080612fd9613425565b9050612fe6818585613684565b600191505092915050565b600f6020528060005260406000206000915090508060000160009054906101000a900460ff16908060010154908060020154908060030154908060040160009054906101000a900473ffffffffffffffffffffffffffffffffffffffff16905085565b60075481565b6000600160008473ffffffffffffffffffffffffffffffffffffffff1673ffffffffffffffffffffffffffffffffffffffff16815260200190815260200160002060008373ffffffffffffffffffffffffffffffffffffffff1673ffffffffffffffffffffffffffffffffffffffff16815260200190815260200160002054905092915050565b6000601180549050905090565b7f000000000000000000000000000000000000000000000000000000000000000081565b600a60009054906101000a900473ffffffffffffffffffffffffffffffffffffffff1673ffffffffffffffffffffffffffffffffffffffff163373ffffffffffffffffffffffffffffffffffffffff16146131a2576040517f08c379a000000000000000000000000000000000000000000000000000000000815260040161319990615517565b60405180910390fd5b60001515600f60008573ffffffffffffffffffffffffffffffffffffffff1673ffffffffffffffffffffffffffffffffffffffff16815260200190815260200160002060000160009054906101000a900460ff16151514613238576040517f08c379a000000000000000000000000000000000000000000000000000000000815260040161322f906154b7565b60405180910390fd5b6132438383836145f7565b505050565b600061328a83836040518060400160405280601a81526020017f536166654d6174683a206469766973696f6e206279207a65726f0000000000008152506147c5565b905092915050565b6000816132bc6132aa85670de0b6b3a7640000613fb7565b6002856132b791906156c3565b614828565b6132c691906156c3565b905092915050565b600073ffffffffffffffffffffffffffffffffffffffff168273ffffffffffffffffffffffffffffffffffffffff16141561333e576040517f08c379a0000000000000000000000000000000000000000000000000000000008152600401613335906155b7565b60405180910390fd5b61334a60008383614881565b806002600082825461335c919061566d565b92505081905550806000808473ffffffffffffffffffffffffffffffffffffffff1673ffffffffffffffffffffffffffffffffffffffff168152602001908152602001600020600082825401925050819055508173ffffffffffffffffffffffffffffffffffffffff16600073ffffffffffffffffffffffffffffffffffffffff167fddf252ad1be2c89b69c2b068fc378daa952ba7f163c4a11628f55a4df523b3ef8360405161340d91906155d7565b60405180910390a361342160008383614886565b5050565b600033905090565b600073ffffffffffffffffffffffffffffffffffffffff168373ffffffffffffffffffffffffffffffffffffffff16141561349d576040517f08c379a0000000000000000000000000000000000000000000000000000000008152600401613494906154f7565b60405180910390fd5b600073ffffffffffffffffffffffffffffffffffffffff168273ffffffffffffffffffffffffffffffffffffffff16141561350d576040517f08c379a0000000000000000000000000000000000000000000000000000000008152600401613504906153b7565b60405180910390fd5b80600160008573ffffffffffffffffffffffffffffffffffffffff1673ffffffffffffffffffffffffffffffffffffffff16815260200190815260200160002060008473ffffffffffffffffffffffffffffffffffffffff1673ffffffffffffffffffffffffffffffffffffffff168152602001908152602001600020819055508173ffffffffffffffffffffffffffffffffffffffff168373ffffffffffffffffffffffffffffffffffffffff167f8c5be1e5ebec7d5bd14f71427d1e84f3dd0314c0f7b2291e5b200ac8c7c3b925836040516135eb91906155d7565b60405180910390a3505050565b6000613604848461305a565b90507fffffffffffffffffffffffffffffffffffffffffffffffffffffffffffffffff811461367e5781811015613670576040517f08c379a000000000000000000000000000000000000000000000000000000000815260040161366790615417565b60405180910390fd5b61367d848484840361342d565b5b50505050565b600073ffffffffffffffffffffffffffffffffffffffff168373ffffffffffffffffffffffffffffffffffffffff1614156136f4576040517f08c379a00000000000000000000000000000000000000000000000000000000081526004016136eb906154d7565b60405180910390fd5b600073ffffffffffffffffffffffffffffffffffffffff168273ffffffffffffffffffffffffffffffffffffffff161415613764576040517f08c379a000000000000000000000000000000000000000000000000000000000815260040161375b90615377565b60405180910390fd5b61376f838383614881565b60008060008573ffffffffffffffffffffffffffffffffffffffff1673ffffffffffffffffffffffffffffffffffffffff168152602001908152602001600020549050818110156137f5576040517f08c379a00000000000000000000000000000000000000000000000000000000081526004016137ec90615437565b60405180910390fd5b8181036000808673ffffffffffffffffffffffffffffffffffffffff1673ffffffffffffffffffffffffffffffffffffffff16815260200190815260200160002081905550816000808573ffffffffffffffffffffffffffffffffffffffff1673ffffffffffffffffffffffffffffffffffffffff168152602001908152602001600020600082825401925050819055508273ffffffffffffffffffffffffffffffffffffffff168473ffffffffffffffffffffffffffffffffffffffff167fddf252ad1be2c89b69c2b068fc378daa952ba7f163c4a11628f55a4df523b3ef846040516138e391906155d7565b60405180910390a36138f6848484614886565b50505050565b6000670de0b6b3a764000061392e6139148585613fb7565b6002670de0b6b3a764000061392991906156c3565b614828565b61393891906156c3565b905092915050565b60026005541415613986576040517f08c379a000000000000000000000000000000000000000000000000000000000815260040161397d90615557565b60405180910390fd5b6002600581905550565b61399861267d565b600781905550600654600754106139e4576040517f08c379a00000000000000000000000000000000000000000000000000000000081526004016139db90615477565b60405180910390fd5b60008211613a27576040517f08c379a0000000000000000000000000000000000000000000000000000000008152600401613a1e90615597565b60405180910390fd5b6000606460085484613a3991906156f4565b613a4391906156c3565b90503073ffffffffffffffffffffffffffffffffffffffff166323b872dd86888487613a6f919061574e565b6040518463ffffffff1660e01b8152600401613a8d939291906151c1565b602060405180830381600087803b158015613aa757600080fd5b505af1158015613abb573d6000803e3d6000fd5b505050506040513d601f19601f82011682018060405250810190613adf9190614bab565b506000600c60009054906101000a900473ffffffffffffffffffffffffffffffffffffffff1673ffffffffffffffffffffffffffffffffffffffff1663feaf968c6040518163ffffffff1660e01b815260040160a06040518083038186803b158015613b4a57600080fd5b505afa158015613b5e573d6000803e3d6000fd5b505050506040513d601f19601f82011682018060405250810190613b829190614bfd565b5050509150506000600f60008773ffffffffffffffffffffffffffffffffffffffff1673ffffffffffffffffffffffffffffffffffffffff16815260200190815260200160002060040160009054906101000a900473ffffffffffffffffffffffffffffffffffffffff1673ffffffffffffffffffffffffffffffffffffffff1663feaf968c6040518163ffffffff1660e01b815260040160a06040518083038186803b158015613c3257600080fd5b505afa158015613c46573d6000803e3d6000fd5b505050506040513d601f19601f82011682018060405250810190613c6a9190614bfd565b5050509150506000613c878287613c8191906156f4565b84613248565b905085600e60003373ffffffffffffffffffffffffffffffffffffffff1673ffffffffffffffffffffffffffffffffffffffff16815260200190815260200160002060008973ffffffffffffffffffffffffffffffffffffffff1673ffffffffffffffffffffffffffffffffffffffff1681526020019081526020016000206004016000828254613d18919061574e565b9250508190555080600e60003373ffffffffffffffffffffffffffffffffffffffff1673ffffffffffffffffffffffffffffffffffffffff16815260200190815260200160002060008973ffffffffffffffffffffffffffffffffffffffff1673ffffffffffffffffffffffffffffffffffffffff1681526020019081526020016000206003016000828254613dae919061574e565b92505081905550613dbf86866141f2565b600073ffffffffffffffffffffffffffffffffffffffff168773ffffffffffffffffffffffffffffffffffffffff161415613ea65760008873ffffffffffffffffffffffffffffffffffffffff1682604051613e1a90615168565b60006040518083038185875af1925050503d8060008114613e57576040519150601f19603f3d011682016040523d82523d6000602084013e613e5c565b606091505b5050905080613ea0576040517f08c379a0000000000000000000000000000000000000000000000000000000008152600401613e9790615537565b60405180910390fd5b50613f3d565b8673ffffffffffffffffffffffffffffffffffffffff1663a9059cbb89836040518363ffffffff1660e01b8152600401613ee19291906151f8565b602060405180830381600087803b158015613efb57600080fd5b505af1158015613f0f573d6000803e3d6000fd5b505050506040513d601f19601f82011682018060405250810190613f339190614bab565b613f3c57600080fd5b5b8873ffffffffffffffffffffffffffffffffffffffff168873ffffffffffffffffffffffffffffffffffffffff167fde0aa27286f5cb3a4ed853dc4823ead62d63e92cdf13de09d6aece56970721a488604051613f9a91906155d7565b60405180910390a3505050505050505050565b6001600581905550565b600080821480613fdf575082828385613fd091906156f4565b925082613fdd91906156c3565b145b61401e576040517f08c379a0000000000000000000000000000000000000000000000000000000008152600401614015906153d7565b60405180910390fd5b92915050565b600073ffffffffffffffffffffffffffffffffffffffff168273ffffffffffffffffffffffffffffffffffffffff161415614094576040517f08c379a000000000000000000000000000000000000000000000000000000000815260040161408b90615497565b60405180910390fd5b6140a082600083614881565b60008060008473ffffffffffffffffffffffffffffffffffffffff1673ffffffffffffffffffffffffffffffffffffffff16815260200190815260200160002054905081811015614126576040517f08c379a000000000000000000000000000000000000000000000000000000000815260040161411d90615397565b60405180910390fd5b8181036000808573ffffffffffffffffffffffffffffffffffffffff1673ffffffffffffffffffffffffffffffffffffffff1681526020019081526020016000208190555081600260008282540392505081905550600073ffffffffffffffffffffffffffffffffffffffff168373ffffffffffffffffffffffffffffffffffffffff167fddf252ad1be2c89b69c2b068fc378daa952ba7f163c4a11628f55a4df523b3ef846040516141d991906155d7565b60405180910390a36141ed83600084614886565b505050565b600060016010600084815260200190815260200160002054614214919061574e565b9050600060118281548110614252577f4e487b7100000000000000000000000000000000000000000000000000000000600052603260045260246000fd5b90600052602060002090600502016040518060a0016040529081600082015481526020016001820160009054906101000a900473ffffffffffffffffffffffffffffffffffffffff1673ffffffffffffffffffffffffffffffffffffffff1673ffffffffffffffffffffffffffffffffffffffff1681526020016002820160009054906101000a900473ffffffffffffffffffffffffffffffffffffffff1673ffffffffffffffffffffffffffffffffffffffff1673ffffffffffffffffffffffffffffffffffffffff1681526020016003820154815260200160048201548152505090508060800151841061458e5760116001601180549050614356919061574e565b8154811061438d577f4e487b7100000000000000000000000000000000000000000000000000000000600052603260045260246000fd5b9060005260206000209060050201601183815481106143d5577f4e487b7100000000000000000000000000000000000000000000000000000000600052603260045260246000fd5b9060005260206000209060050201600082015481600001556001820160009054906101000a900473ffffffffffffffffffffffffffffffffffffffff168160010160006101000a81548173ffffffffffffffffffffffffffffffffffffffff021916908373ffffffffffffffffffffffffffffffffffffffff1602179055506002820160009054906101000a900473ffffffffffffffffffffffffffffffffffffffff168160020160006101000a81548173ffffffffffffffffffffffffffffffffffffffff021916908373ffffffffffffffffffffffffffffffffffffffff1602179055506003820154816003015560048201548160040155905050601180548061450a577f4e487b7100000000000000000000000000000000000000000000000000000000600052603160045260246000fd5b60019003818190600052602060002090600502016000808201600090556001820160006101000a81549073ffffffffffffffffffffffffffffffffffffffff02191690556002820160006101000a81549073ffffffffffffffffffffffffffffffffffffffff021916905560038201600090556004820160009055505090556145f1565b83601183815481106145c9577f4e487b7100000000000000000000000000000000000000000000000000000000600052603260045260246000fd5b906000526020600020906005020160040160008282546145e9919061574e565b925050819055505b50505050565b6009839080600181540180825580915050600190039060005260206000200160009091909190916101000a81548173ffffffffffffffffffffffffffffffffffffffff021916908373ffffffffffffffffffffffffffffffffffffffff1602179055506001600f60008573ffffffffffffffffffffffffffffffffffffffff1673ffffffffffffffffffffffffffffffffffffffff16815260200190815260200160002060000160006101000a81548160ff02191690831515021790555081600f60008573ffffffffffffffffffffffffffffffffffffffff1673ffffffffffffffffffffffffffffffffffffffff1681526020019081526020016000206003018190555080600f60008573ffffffffffffffffffffffffffffffffffffffff1673ffffffffffffffffffffffffffffffffffffffff16815260200190815260200160002060040160006101000a81548173ffffffffffffffffffffffffffffffffffffffff021916908373ffffffffffffffffffffffffffffffffffffffff1602179055508273ffffffffffffffffffffffffffffffffffffffff167fc5747b084113a45fa0db9ee3450f0fdf2cac58e149aeb924b9cc46499bf9e95460405160405180910390a2505050565b6000808311829061480c576040517f08c379a00000000000000000000000000000000000000000000000000000000081526004016148039190615355565b60405180910390fd5b506000838561481b91906156c3565b9050809150509392505050565b6000828284614837919061566d565b915081101561487b576040517f08c379a0000000000000000000000000000000000000000000000000000000008152600401614872906153f7565b60405180910390fd5b92915050565b505050565b505050565b6040518060a0016040528060008019168152602001600073ffffffffffffffffffffffffffffffffffffffff168152602001600073ffffffffffffffffffffffffffffffffffffffff16815260200160008152602001600081525090565b6000813590506148f881615eca565b92915050565b60008151905061490d81615eca565b92915050565b60008151905061492281615ee1565b92915050565b60008135905061493781615ef8565b92915050565b60008151905061494c81615f0f565b92915050565b60008135905061496181615f26565b92915050565b60008151905061497681615f26565b92915050565b60008151905061498b81615f3d565b92915050565b6000602082840312156149a357600080fd5b60006149b1848285016148e9565b91505092915050565b6000602082840312156149cc57600080fd5b60006149da848285016148fe565b91505092915050565b600080604083850312156149f657600080fd5b6000614a04858286016148e9565b9250506020614a15858286016148e9565b9150509250929050565b600080600060608486031215614a3457600080fd5b6000614a42868287016148e9565b9350506020614a53868287016148e9565b9250506040614a6486828701614952565b9150509250925092565b60008060008060808587031215614a8457600080fd5b6000614a92878288016148e9565b9450506020614aa3878288016148e9565b9350506040614ab487828801614952565b9250506060614ac587828801614928565b91505092959194509250565b60008060408385031215614ae457600080fd5b6000614af2858286016148e9565b9250506020614b0385828601614952565b9150509250929050565b600080600060608486031215614b2257600080fd5b6000614b30868287016148e9565b9350506020614b4186828701614952565b9250506040614b52868287016148e9565b9150509250925092565b600080600060608486031215614b7157600080fd5b6000614b7f868287016148e9565b9350506020614b9086828701614952565b9250506040614ba186828701614928565b9150509250925092565b600060208284031215614bbd57600080fd5b6000614bcb84828501614913565b91505092915050565b600060208284031215614be657600080fd5b6000614bf484828501614952565b91505092915050565b600080600080600060a08688031215614c1557600080fd5b6000614c238882890161497c565b9550506020614c348882890161493d565b9450506040614c4588828901614967565b9350506060614c5688828901614967565b9250506080614c678882890161497c565b9150509295509295909350565b6000614c80838361506e565b60a08301905092915050565b614c9581615782565b82525050565b614ca481615782565b82525050565b614cbb614cb682615782565b61591b565b82525050565b6000614ccc8261561d565b614cd68185615640565b9350614ce18361560d565b8060005b83811015614d12578151614cf98882614c74565b9750614d0483615633565b925050600181019050614ce5565b5085935050505092915050565b614d2881615794565b82525050565b614d37816157a0565b82525050565b614d46816157a0565b82525050565b614d5581615801565b82525050565b614d6481615825565b82525050565b614d7381615849565b82525050565b6000614d8482615628565b614d8e818561565c565b9350614d9e81856020860161586d565b614da7816159d6565b840191505092915050565b6000614dbf60238361565c565b9150614dca826159f4565b604082019050919050565b6000614de260228361565c565b9150614ded82615a43565b604082019050919050565b6000614e0560228361565c565b9150614e1082615a92565b604082019050919050565b6000614e2860148361565c565b9150614e3382615ae1565b602082019050919050565b6000614e4b60148361565c565b9150614e5682615b0a565b602082019050919050565b6000614e6e601d8361565c565b9150614e7982615b33565b602082019050919050565b6000614e9160268361565c565b9150614e9c82615b5c565b604082019050919050565b6000614eb460138361565c565b9150614ebf82615bab565b602082019050919050565b6000614ed760198361565c565b9150614ee282615bd4565b602082019050919050565b6000614efa60218361565c565b9150614f0582615bfd565b604082019050919050565b6000614f1d60258361565c565b9150614f2882615c4c565b604082019050919050565b6000614f4060258361565c565b9150614f4b82615c9b565b604082019050919050565b6000614f63600083615651565b9150614f6e82615cea565b600082019050919050565b6000614f8660248361565c565b9150614f9182615ced565b604082019050919050565b6000614fa960248361565c565b9150614fb482615d3c565b604082019050919050565b6000614fcc602b8361565c565b9150614fd782615d8b565b604082019050919050565b6000614fef601f8361565c565b9150614ffa82615dda565b602082019050919050565b600061501260258361565c565b915061501d82615e03565b604082019050919050565b600061503560228361565c565b915061504082615e52565b604082019050919050565b6000615058601f8361565c565b915061506382615ea1565b602082019050919050565b60a0820160008201516150846000850182614d2e565b5060208201516150976020850182614c8c565b5060408201516150aa6040850182614c8c565b5060608201516150bd60608501826150d6565b5060808201516150d060808501826150d6565b50505050565b6150df816157d4565b82525050565b6150ee816157d4565b82525050565b615105615100826157d4565b61593f565b82525050565b615114816157de565b82525050565b60006151268287614caa565b60148201915061513682866150f4565b60208201915061514682856150f4565b60208201915061515682846150f4565b60208201915081905095945050505050565b600061517382614f56565b9150819050919050565b60006020820190506151926000830184614c9b565b92915050565b60006040820190506151ad6000830185614c9b565b6151ba6020830184614c9b565b9392505050565b60006060820190506151d66000830186614c9b565b6151e36020830185614c9b565b6151f060408301846150e5565b949350505050565b600060408201905061520d6000830185614c9b565b61521a60208301846150e5565b9392505050565b6000602082019050818103600083015261523b8184614cc1565b905092915050565b60006020820190506152586000830184614d1f565b92915050565b600060a0820190506152736000830188614d1f565b61528060208301876150e5565b61528d60408301866150e5565b61529a60608301856150e5565b6152a76080830184614d4c565b9695505050505050565b600060a0820190506152c66000830188614d3d565b6152d36020830187614c9b565b6152e06040830186614c9b565b6152ed60608301856150e5565b6152fa60808301846150e5565b9695505050505050565b60006020820190506153196000830184614d4c565b92915050565b60006020820190506153346000830184614d5b565b92915050565b600060208201905061534f6000830184614d6a565b92915050565b6000602082019050818103600083015261536f8184614d79565b905092915050565b6000602082019050818103600083015261539081614db2565b9050919050565b600060208201905081810360008301526153b081614dd5565b9050919050565b600060208201905081810360008301526153d081614df8565b9050919050565b600060208201905081810360008301526153f081614e1b565b9050919050565b6000602082019050818103600083015261541081614e3e565b9050919050565b6000602082019050818103600083015261543081614e61565b9050919050565b6000602082019050818103600083015261545081614e84565b9050919050565b6000602082019050818103600083015261547081614ea7565b9050919050565b6000602082019050818103600083015261549081614eca565b9050919050565b600060208201905081810360008301526154b081614eed565b9050919050565b600060208201905081810360008301526154d081614f10565b9050919050565b600060208201905081810360008301526154f081614f33565b9050919050565b6000602082019050818103600083015261551081614f79565b9050919050565b6000602082019050818103600083015261553081614f9c565b9050919050565b6000602082019050818103600083015261555081614fbf565b9050919050565b6000602082019050818103600083015261557081614fe2565b9050919050565b6000602082019050818103600083015261559081615005565b9050919050565b600060208201905081810360008301526155b081615028565b9050919050565b600060208201905081810360008301526155d08161504b565b9050919050565b60006020820190506155ec60008301846150e5565b92915050565b6000602082019050615607600083018461510b565b92915050565b6000819050602082019050919050565b600081519050919050565b600081519050919050565b6000602082019050919050565b600082825260208201905092915050565b600081905092915050565b600082825260208201905092915050565b6000615678826157d4565b9150615683836157d4565b9250827fffffffffffffffffffffffffffffffffffffffffffffffffffffffffffffffff038211156156b8576156b7615949565b5b828201905092915050565b60006156ce826157d4565b91506156d9836157d4565b9250826156e9576156e8615978565b5b828204905092915050565b60006156ff826157d4565b915061570a836157d4565b9250817fffffffffffffffffffffffffffffffffffffffffffffffffffffffffffffffff048311821515161561574357615742615949565b5b828202905092915050565b6000615759826157d4565b9150615764836157d4565b92508282101561577757615776615949565b5b828203905092915050565b600061578d826157b4565b9050919050565b60008115159050919050565b6000819050919050565b6000819050919050565b600073ffffffffffffffffffffffffffffffffffffffff82169050919050565b6000819050919050565b600060ff82169050919050565b600069ffffffffffffffffffff82169050919050565b600061580c82615813565b9050919050565b600061581e826157b4565b9050919050565b600061583082615837565b9050919050565b6000615842826157b4565b9050919050565b60006158548261585b565b9050919050565b6000615866826157b4565b9050919050565b60005b8381101561588b578082015181840152602081019050615870565b8381111561589a576000848401525b50505050565b600060028204905060018216806158b857607f821691505b602082108114156158cc576158cb6159a7565b5b50919050565b60006158dd826157d4565b91507fffffffffffffffffffffffffffffffffffffffffffffffffffffffffffffffff8214156159105761590f615949565b5b600182019050919050565b60006159268261592d565b9050919050565b6000615938826159e7565b9050919050565b6000819050919050565b7f4e487b7100000000000000000000000000000000000000000000000000000000600052601160045260246000fd5b7f4e487b7100000000000000000000000000000000000000000000000000000000600052601260045260246000fd5b7f4e487b7100000000000000000000000000000000000000000000000000000000600052602260045260246000fd5b6000601f19601f8301169050919050565b60008160601b9050919050565b7f45524332303a207472616e7366657220746f20746865207a65726f206164647260008201527f6573730000000000000000000000000000000000000000000000000000000000602082015250565b7f45524332303a206275726e20616d6f756e7420657863656564732062616c616e60008201527f6365000000000000000000000000000000000000000000000000000000000000602082015250565b7f45524332303a20617070726f766520746f20746865207a65726f20616464726560008201527f7373000000000000000000000000000000000000000000000000000000000000602082015250565b7f64732d6d6174682d6d756c2d6f766572666c6f77000000000000000000000000600082015250565b7f64732d6d6174682d6164642d6f766572666c6f77000000000000000000000000600082015250565b7f45524332303a20696e73756666696369656e7420616c6c6f77616e6365000000600082015250565b7f45524332303a207472616e7366657220616d6f756e742065786365656473206260008201527f616c616e63650000000000000000000000000000000000000000000000000000602082015250565b7f616d6f756e742063616e206e6f74206265203000000000000000000000000000600082015250565b7f63616e6e6f74206c697175696461746520706f736974696f6e00000000000000600082015250565b7f45524332303a206275726e2066726f6d20746865207a65726f2061646472657360008201527f7300000000000000000000000000000000000000000000000000000000000000602082015250565b7f7468697320636f6c6c61746572616c207479706520616c72656164792061707060008201527f726f766564000000000000000000000000000000000000000000000000000000602082015250565b7f45524332303a207472616e736665722066726f6d20746865207a65726f20616460008201527f6472657373000000000000000000000000000000000000000000000000000000602082015250565b50565b7f45524332303a20617070726f76652066726f6d20746865207a65726f2061646460008201527f7265737300000000000000000000000000000000000000000000000000000000602082015250565b7f63616e206f6e6c792062652063616c6c65642062792043475420676f7665726e60008201527f616e636500000000000000000000000000000000000000000000000000000000602082015250565b7f72657475726e206f6620657468657220636f6c6c61746572616c20776173207560008201527f6e7375636365737366756c000000000000000000000000000000000000000000602082015250565b7f5265656e7472616e637947756172643a207265656e7472616e742063616c6c00600082015250565b7f45524332303a2064656372656173656420616c6c6f77616e63652062656c6f7760008201527f207a65726f000000000000000000000000000000000000000000000000000000602082015250565b7f7573657220686173206e6f20706f736974696f6e7320746f206c69717569646160008201527f7465000000000000000000000000000000000000000000000000000000000000602082015250565b7f45524332303a206d696e7420746f20746865207a65726f206164647265737300600082015250565b615ed381615782565b8114615ede57600080fd5b50565b615eea81615794565b8114615ef557600080fd5b50565b615f01816157a0565b8114615f0c57600080fd5b50565b615f18816157aa565b8114615f2357600080fd5b50565b615f2f816157d4565b8114615f3a57600080fd5b50565b615f46816157eb565b8114615f5157600080fd5b5056fea2646970667358221220bc8343692fe76f763fcb5d5c6081be5f374da03322bceb5f4277d971a51fba4064736f6c63430008040033",
  "linkReferences": {},
  "deployedLinkReferences": {}
}