{
  "_format": "hh-sol-artifact-1",
  "contractName": "Chrysus",
  "sourceName": "contracts/Chrysus.sol",
  "abi": [
    {
      "inputs": [
        {
          "components": [
            {
              "internalType": "address",
              "name": "daiAddress",
              "type": "address"
            },
            {
              "internalType": "address",
              "name": "oracleDAI",
              "type": "address"
            },
            {
              "internalType": "address",
              "name": "oracleETH",
              "type": "address"
            },
            {
              "internalType": "address",
              "name": "oracleCHC",
              "type": "address"
            },
            {
              "internalType": "address",
              "name": "oracleXAU",
              "type": "address"
            },
            {
              "internalType": "address",
              "name": "governance",
              "type": "address"
            },
            {
              "internalType": "address",
              "name": "treasury",
              "type": "address"
            },
            {
              "internalType": "address",
              "name": "swapSolution",
              "type": "address"
            },
            {
              "internalType": "address",
              "name": "stabilityModule",
              "type": "address"
            }
          ],
          "internalType": "struct Chrysus.AddressBook",
          "name": "_ab",
          "type": "tuple"
        },
        {
          "internalType": "uint256",
          "name": "_liquidationReward",
          "type": "uint256"
        }
      ],
      "stateMutability": "nonpayable",
      "type": "constructor"
    },
    {
      "inputs": [],
      "name": "ZeroAddress",
      "type": "error"
    },
    {
      "anonymous": false,
      "inputs": [
        {
          "indexed": true,
          "internalType": "address",
          "name": "collateralToken",
          "type": "address"
        }
      ],
      "name": "AddedCollateralType",
      "type": "event"
    },
    {
      "anonymous": false,
      "inputs": [
        {
          "indexed": true,
          "internalType": "address",
          "name": "owner",
          "type": "address"
        },
        {
          "indexed": true,
          "internalType": "address",
          "name": "spender",
          "type": "address"
        },
        {
          "indexed": false,
          "internalType": "uint256",
          "name": "value",
          "type": "uint256"
        }
      ],
      "name": "Approval",
      "type": "event"
    },
    {
      "anonymous": false,
      "inputs": [
        {
          "indexed": true,
          "internalType": "address",
          "name": "user",
          "type": "address"
        },
        {
          "indexed": false,
          "internalType": "uint256",
          "name": "amount",
          "type": "uint256"
        }
      ],
      "name": "CollateralDeposited",
      "type": "event"
    },
    {
      "anonymous": false,
      "inputs": [
        {
          "indexed": true,
          "internalType": "address",
          "name": "user",
          "type": "address"
        },
        {
          "indexed": false,
          "internalType": "uint256",
          "name": "amount",
          "type": "uint256"
        }
      ],
      "name": "CollateralWithdrawn",
      "type": "event"
    },
    {
      "anonymous": false,
      "inputs": [
        {
          "indexed": true,
          "internalType": "uint256",
          "name": "treasuryFees",
          "type": "uint256"
        },
        {
          "indexed": true,
          "internalType": "uint256",
          "name": "swapSolutionFees",
          "type": "uint256"
        },
        {
          "indexed": true,
          "internalType": "uint256",
          "name": "stabilityModuleFees",
          "type": "uint256"
        }
      ],
      "name": "FeesWithdrawn",
      "type": "event"
    },
    {
      "anonymous": false,
      "inputs": [
        {
          "indexed": true,
          "internalType": "address",
          "name": "liquidator",
          "type": "address"
        },
        {
          "indexed": true,
          "internalType": "address",
          "name": "user",
          "type": "address"
        },
        {
          "indexed": false,
          "internalType": "uint256",
          "name": "amountLiquidated",
          "type": "uint256"
        }
      ],
      "name": "Liquidated",
      "type": "event"
    },
    {
      "anonymous": false,
      "inputs": [
        {
          "indexed": false,
          "internalType": "uint256",
          "name": "newReward",
          "type": "uint256"
        }
      ],
      "name": "LiquidationRewardUpdated",
      "type": "event"
    },
    {
      "anonymous": false,
      "inputs": [
        {
          "indexed": true,
          "internalType": "address",
          "name": "from",
          "type": "address"
        },
        {
          "indexed": true,
          "internalType": "address",
          "name": "to",
          "type": "address"
        },
        {
          "indexed": false,
          "internalType": "uint256",
          "name": "value",
          "type": "uint256"
        }
      ],
      "name": "Transfer",
      "type": "event"
    },
    {
      "inputs": [
        {
          "internalType": "address",
          "name": "_collateralType",
          "type": "address"
        },
        {
          "internalType": "uint256",
          "name": "_minCollateral",
          "type": "uint256"
        },
        {
          "internalType": "address",
          "name": "_oracleAddress",
          "type": "address"
        }
      ],
      "name": "addCollateralType",
      "outputs": [],
      "stateMutability": "nonpayable",
      "type": "function"
    },
    {
      "inputs": [
        {
          "internalType": "address",
          "name": "owner",
          "type": "address"
        },
        {
          "internalType": "address",
          "name": "spender",
          "type": "address"
        }
      ],
      "name": "allowance",
      "outputs": [
        {
          "internalType": "uint256",
          "name": "",
          "type": "uint256"
        }
      ],
      "stateMutability": "view",
      "type": "function"
    },
    {
      "inputs": [
        {
          "internalType": "address",
          "name": "spender",
          "type": "address"
        },
        {
          "internalType": "uint256",
          "name": "amount",
          "type": "uint256"
        }
      ],
      "name": "approve",
      "outputs": [
        {
          "internalType": "bool",
          "name": "",
          "type": "bool"
        }
      ],
      "stateMutability": "nonpayable",
      "type": "function"
    },
    {
      "inputs": [
        {
          "internalType": "address",
          "name": "",
          "type": "address"
        }
      ],
      "name": "approvedCollateral",
      "outputs": [
        {
          "internalType": "bool",
          "name": "approved",
          "type": "bool"
        },
        {
          "internalType": "uint256",
          "name": "balance",
          "type": "uint256"
        },
        {
          "internalType": "uint256",
          "name": "fees",
          "type": "uint256"
        },
        {
          "internalType": "uint256",
          "name": "minCollateral",
          "type": "uint256"
        },
        {
          "internalType": "contract AggregatorV3Interface",
          "name": "oracle",
          "type": "address"
        }
      ],
      "stateMutability": "view",
      "type": "function"
    },
    {
      "inputs": [
        {
          "internalType": "uint256",
          "name": "",
          "type": "uint256"
        }
      ],
      "name": "approvedTokens",
      "outputs": [
        {
          "internalType": "address",
          "name": "",
          "type": "address"
        }
      ],
      "stateMutability": "view",
      "type": "function"
    },
    {
      "inputs": [
        {
          "internalType": "address",
          "name": "account",
          "type": "address"
        }
      ],
      "name": "balanceOf",
      "outputs": [
        {
          "internalType": "uint256",
          "name": "",
          "type": "uint256"
        }
      ],
      "stateMutability": "view",
      "type": "function"
    },
    {
      "inputs": [],
      "name": "collateralizationRatio",
      "outputs": [
        {
          "internalType": "uint256",
          "name": "",
          "type": "uint256"
        }
      ],
      "stateMutability": "view",
      "type": "function"
    },
    {
      "inputs": [],
      "name": "decimals",
      "outputs": [
        {
          "internalType": "uint8",
          "name": "",
          "type": "uint8"
        }
      ],
      "stateMutability": "view",
      "type": "function"
    },
    {
      "inputs": [
        {
          "internalType": "address",
          "name": "spender",
          "type": "address"
        },
        {
          "internalType": "uint256",
          "name": "subtractedValue",
          "type": "uint256"
        }
      ],
      "name": "decreaseAllowance",
      "outputs": [
        {
          "internalType": "bool",
          "name": "",
          "type": "bool"
        }
      ],
      "stateMutability": "nonpayable",
      "type": "function"
    },
    {
      "inputs": [
        {
          "internalType": "address",
          "name": "_collateralType",
          "type": "address"
        },
        {
          "internalType": "uint256",
          "name": "_amount",
          "type": "uint256"
        }
      ],
      "name": "depositCollateral",
      "outputs": [],
      "stateMutability": "payable",
      "type": "function"
    },
    {
      "inputs": [],
      "name": "getCdpCounter",
      "outputs": [
        {
          "internalType": "uint256",
          "name": "",
          "type": "uint256"
        }
      ],
      "stateMutability": "view",
      "type": "function"
    },
    {
      "inputs": [],
      "name": "getCollateralizationRatio",
      "outputs": [
        {
          "internalType": "uint256",
          "name": "",
          "type": "uint256"
        }
      ],
      "stateMutability": "view",
      "type": "function"
    },
    {
      "inputs": [],
      "name": "getPositions",
      "outputs": [
        {
          "components": [
            {
              "internalType": "address",
              "name": "user",
              "type": "address"
            },
            {
              "internalType": "address",
              "name": "collateral",
              "type": "address"
            },
            {
              "internalType": "uint256",
              "name": "deposited",
              "type": "uint256"
            },
            {
              "internalType": "uint256",
              "name": "minted",
              "type": "uint256"
            }
          ],
          "internalType": "struct Chrysus.Position[]",
          "name": "",
          "type": "tuple[]"
        }
      ],
      "stateMutability": "view",
      "type": "function"
    },
    {
      "inputs": [
        {
          "internalType": "address",
          "name": "user",
          "type": "address"
        }
      ],
      "name": "getUserPositions",
      "outputs": [
        {
          "components": [
            {
              "internalType": "address",
              "name": "user",
              "type": "address"
            },
            {
              "internalType": "address",
              "name": "collateral",
              "type": "address"
            },
            {
              "internalType": "uint256",
              "name": "deposited",
              "type": "uint256"
            },
            {
              "internalType": "uint256",
              "name": "minted",
              "type": "uint256"
            }
          ],
          "internalType": "struct Chrysus.Position[]",
          "name": "",
          "type": "tuple[]"
        }
      ],
      "stateMutability": "view",
      "type": "function"
    },
    {
      "inputs": [],
      "name": "governance",
      "outputs": [
        {
          "internalType": "address",
          "name": "",
          "type": "address"
        }
      ],
      "stateMutability": "view",
      "type": "function"
    },
    {
      "inputs": [
        {
          "internalType": "address",
          "name": "spender",
          "type": "address"
        },
        {
          "internalType": "uint256",
          "name": "addedValue",
          "type": "uint256"
        }
      ],
      "name": "increaseAllowance",
      "outputs": [
        {
          "internalType": "bool",
          "name": "",
          "type": "bool"
        }
      ],
      "stateMutability": "nonpayable",
      "type": "function"
    },
    {
      "inputs": [
        {
          "internalType": "address",
          "name": "_userToliquidate",
          "type": "address"
        },
        {
          "internalType": "address",
          "name": "_collateralType",
          "type": "address"
        },
        {
          "internalType": "uint256",
          "name": "_amount",
          "type": "uint256"
        }
      ],
      "name": "liquidate",
      "outputs": [],
      "stateMutability": "nonpayable",
      "type": "function"
    },
    {
      "inputs": [],
      "name": "liquidationRatio",
      "outputs": [
        {
          "internalType": "uint256",
          "name": "",
          "type": "uint256"
        }
      ],
      "stateMutability": "view",
      "type": "function"
    },
    {
      "inputs": [],
      "name": "name",
      "outputs": [
        {
          "internalType": "string",
          "name": "",
          "type": "string"
        }
      ],
      "stateMutability": "view",
      "type": "function"
    },
    {
      "inputs": [],
      "name": "oracleCHC",
      "outputs": [
        {
          "internalType": "contract AggregatorV3Interface",
          "name": "",
          "type": "address"
        }
      ],
      "stateMutability": "view",
      "type": "function"
    },
    {
      "inputs": [],
      "name": "oracleXAU",
      "outputs": [
        {
          "internalType": "contract AggregatorV3Interface",
          "name": "",
          "type": "address"
        }
      ],
      "stateMutability": "view",
      "type": "function"
    },
    {
      "inputs": [
        {
          "internalType": "uint256",
          "name": "",
          "type": "uint256"
        }
      ],
      "name": "positions",
      "outputs": [
        {
          "internalType": "address",
          "name": "user",
          "type": "address"
        },
        {
          "internalType": "address",
          "name": "collateral",
          "type": "address"
        },
        {
          "internalType": "uint256",
          "name": "deposited",
          "type": "uint256"
        },
        {
          "internalType": "uint256",
          "name": "minted",
          "type": "uint256"
        }
      ],
      "stateMutability": "view",
      "type": "function"
    },
    {
      "inputs": [],
      "name": "stabilityModule",
      "outputs": [
        {
          "internalType": "contract IStabilityModule",
          "name": "",
          "type": "address"
        }
      ],
      "stateMutability": "view",
      "type": "function"
    },
    {
      "inputs": [],
      "name": "swapSolution",
      "outputs": [
        {
          "internalType": "contract ISwap",
          "name": "",
          "type": "address"
        }
      ],
      "stateMutability": "view",
      "type": "function"
    },
    {
      "inputs": [],
      "name": "symbol",
      "outputs": [
        {
          "internalType": "string",
          "name": "",
          "type": "string"
        }
      ],
      "stateMutability": "view",
      "type": "function"
    },
    {
      "inputs": [],
      "name": "totalSupply",
      "outputs": [
        {
          "internalType": "uint256",
          "name": "",
          "type": "uint256"
        }
      ],
      "stateMutability": "view",
      "type": "function"
    },
    {
      "inputs": [
        {
          "internalType": "address",
          "name": "to",
          "type": "address"
        },
        {
          "internalType": "uint256",
          "name": "amount",
          "type": "uint256"
        }
      ],
      "name": "transfer",
      "outputs": [
        {
          "internalType": "bool",
          "name": "",
          "type": "bool"
        }
      ],
      "stateMutability": "nonpayable",
      "type": "function"
    },
    {
      "inputs": [
        {
          "internalType": "address",
          "name": "from",
          "type": "address"
        },
        {
          "internalType": "address",
          "name": "to",
          "type": "address"
        },
        {
          "internalType": "uint256",
          "name": "amount",
          "type": "uint256"
        }
      ],
      "name": "transferFrom",
      "outputs": [
        {
          "internalType": "bool",
          "name": "",
          "type": "bool"
        }
      ],
      "stateMutability": "nonpayable",
      "type": "function"
    },
    {
      "inputs": [],
      "name": "treasury",
      "outputs": [
        {
          "internalType": "address",
          "name": "",
          "type": "address"
        }
      ],
      "stateMutability": "view",
      "type": "function"
    },
    {
      "inputs": [
        {
          "internalType": "uint256",
          "name": "_newReward",
          "type": "uint256"
        }
      ],
      "name": "updateLiquidatorReward",
      "outputs": [],
      "stateMutability": "nonpayable",
      "type": "function"
    },
    {
      "inputs": [
        {
          "internalType": "address",
          "name": "",
          "type": "address"
        },
        {
          "internalType": "address",
          "name": "",
          "type": "address"
        }
      ],
      "name": "userDeposits",
      "outputs": [
        {
          "internalType": "address",
          "name": "user",
          "type": "address"
        },
        {
          "internalType": "address",
          "name": "collateral",
          "type": "address"
        },
        {
          "internalType": "uint256",
          "name": "deposited",
          "type": "uint256"
        },
        {
          "internalType": "uint256",
          "name": "minted",
          "type": "uint256"
        }
      ],
      "stateMutability": "view",
      "type": "function"
    },
    {
      "inputs": [
        {
          "internalType": "address",
          "name": "_collateralType",
          "type": "address"
        },
        {
          "internalType": "uint256",
          "name": "_amount",
          "type": "uint256"
        }
      ],
      "name": "withdrawCollateral",
      "outputs": [],
      "stateMutability": "nonpayable",
      "type": "function"
    },
    {
      "inputs": [],
      "name": "withdrawFees",
      "outputs": [],
      "stateMutability": "nonpayable",
      "type": "function"
    },
    {
      "stateMutability": "payable",
      "type": "receive"
    }
  ],
  "bytecode": "0x60c06040523480156200001157600080fd5b506040516200688d3803806200688d833981810160405281019062000037919062000a24565b6040518060400160405280600781526020017f43687279737573000000000000000000000000000000000000000000000000008152506040518060400160405280600381526020017f43484300000000000000000000000000000000000000000000000000000000008152508160039080519060200190620000bb92919062000855565b508060049080519060200190620000d492919062000855565b5050506001600581905550600073ffffffffffffffffffffffffffffffffffffffff16826000015173ffffffffffffffffffffffffffffffffffffffff1614156200014b576040517fd92e233d00000000000000000000000000000000000000000000000000000000815260040160405180910390fd5b600073ffffffffffffffffffffffffffffffffffffffff16826020015173ffffffffffffffffffffffffffffffffffffffff161415620001b7576040517fd92e233d00000000000000000000000000000000000000000000000000000000815260040160405180910390fd5b600073ffffffffffffffffffffffffffffffffffffffff16826040015173ffffffffffffffffffffffffffffffffffffffff16141562000223576040517fd92e233d00000000000000000000000000000000000000000000000000000000815260040160405180910390fd5b600073ffffffffffffffffffffffffffffffffffffffff16826060015173ffffffffffffffffffffffffffffffffffffffff1614156200028f576040517fd92e233d00000000000000000000000000000000000000000000000000000000815260040160405180910390fd5b600073ffffffffffffffffffffffffffffffffffffffff16826080015173ffffffffffffffffffffffffffffffffffffffff161415620002fb576040517fd92e233d00000000000000000000000000000000000000000000000000000000815260040160405180910390fd5b600073ffffffffffffffffffffffffffffffffffffffff168260a0015173ffffffffffffffffffffffffffffffffffffffff16141562000367576040517fd92e233d00000000000000000000000000000000000000000000000000000000815260040160405180910390fd5b600073ffffffffffffffffffffffffffffffffffffffff168260c0015173ffffffffffffffffffffffffffffffffffffffff161415620003d3576040517fd92e233d00000000000000000000000000000000000000000000000000000000815260040160405180910390fd5b600073ffffffffffffffffffffffffffffffffffffffff168260e0015173ffffffffffffffffffffffffffffffffffffffff1614156200043f576040517fd92e233d00000000000000000000000000000000000000000000000000000000815260040160405180910390fd5b600073ffffffffffffffffffffffffffffffffffffffff1682610100015173ffffffffffffffffffffffffffffffffffffffff161415620004ac576040517fd92e233d00000000000000000000000000000000000000000000000000000000815260040160405180910390fd5b63068e778060068190555080600881905550620004db826000015161010b84602001516200068760201b60201c565b620004f46000607884604001516200068760201b60201c565b8160600151600c60006101000a81548173ffffffffffffffffffffffffffffffffffffffff021916908373ffffffffffffffffffffffffffffffffffffffff1602179055508160800151600d60006101000a81548173ffffffffffffffffffffffffffffffffffffffff021916908373ffffffffffffffffffffffffffffffffffffffff1602179055508160a00151600a60006101000a81548173ffffffffffffffffffffffffffffffffffffffff021916908373ffffffffffffffffffffffffffffffffffffffff1602179055508160c00151600b60006101000a81548173ffffffffffffffffffffffffffffffffffffffff021916908373ffffffffffffffffffffffffffffffffffffffff1602179055508160e0015173ffffffffffffffffffffffffffffffffffffffff1660808173ffffffffffffffffffffffffffffffffffffffff1660601b8152505081610100015173ffffffffffffffffffffffffffffffffffffffff1660a08173ffffffffffffffffffffffffffffffffffffffff1660601b81525050505062000bdd565b6009839080600181540180825580915050600190039060005260206000200160009091909190916101000a81548173ffffffffffffffffffffffffffffffffffffffff021916908373ffffffffffffffffffffffffffffffffffffffff1602179055506001600f60008573ffffffffffffffffffffffffffffffffffffffff1673ffffffffffffffffffffffffffffffffffffffff16815260200190815260200160002060000160006101000a81548160ff02191690831515021790555081600f60008573ffffffffffffffffffffffffffffffffffffffff1673ffffffffffffffffffffffffffffffffffffffff1681526020019081526020016000206003018190555080600f60008573ffffffffffffffffffffffffffffffffffffffff1673ffffffffffffffffffffffffffffffffffffffff16815260200190815260200160002060040160006101000a81548173ffffffffffffffffffffffffffffffffffffffff021916908373ffffffffffffffffffffffffffffffffffffffff1602179055508273ffffffffffffffffffffffffffffffffffffffff167fc5747b084113a45fa0db9ee3450f0fdf2cac58e149aeb924b9cc46499bf9e95460405160405180910390a2505050565b828054620008639062000ace565b90600052602060002090601f016020900481019282620008875760008555620008d3565b82601f10620008a257805160ff1916838001178555620008d3565b82800160010185558215620008d3579182015b82811115620008d2578251825591602001919060010190620008b5565b5b509050620008e29190620008e6565b5090565b5b8082111562000901576000816000905550600101620008e7565b5090565b600081519050620009168162000ba9565b92915050565b600061012082840312156200093057600080fd5b6200093d61012062000a67565b905060006200094f8482850162000905565b6000830152506020620009658482850162000905565b60208301525060406200097b8482850162000905565b6040830152506060620009918482850162000905565b6060830152506080620009a78482850162000905565b60808301525060a0620009bd8482850162000905565b60a08301525060c0620009d38482850162000905565b60c08301525060e0620009e98482850162000905565b60e08301525061010062000a008482850162000905565b6101008301525092915050565b60008151905062000a1e8162000bc3565b92915050565b600080610140838503121562000a3957600080fd5b600062000a49858286016200091c565b92505061012062000a5d8582860162000a0d565b9150509250929050565b600062000a7362000a86565b905062000a81828262000b04565b919050565b6000604051905090565b600062000a9d8262000aa4565b9050919050565b600073ffffffffffffffffffffffffffffffffffffffff82169050919050565b6000819050919050565b6000600282049050600182168062000ae757607f821691505b6020821081141562000afe5762000afd62000b3a565b5b50919050565b62000b0f8262000b98565b810181811067ffffffffffffffff8211171562000b315762000b3062000b69565b5b80604052505050565b7f4e487b7100000000000000000000000000000000000000000000000000000000600052602260045260246000fd5b7f4e487b7100000000000000000000000000000000000000000000000000000000600052604160045260246000fd5b6000601f19601f8301169050919050565b62000bb48162000a90565b811462000bc057600080fd5b50565b62000bce8162000ac4565b811462000bda57600080fd5b50565b60805160601c60a05160601c615c6162000c2c60003960008181612102015281816125a9015261305c01526000818161206c015281816122fe015281816123b301526127ff0152615c616000f3fe6080604052600436106101f25760003560e01c80635aa6e6751161010d578063a457c2d7116100a0578063dcaf9c441161006f578063dcaf9c4414610764578063dd62ed3e1461078f578063e11a3ab3146107cc578063ea061ad4146107f7578063ef048a781461082257610204565b8063a457c2d71461068d578063a5d5db0c146106ca578063a9059cbb146106e6578063b050b6721461072357610204565b806380275860116100dc57806380275860146105cc57806386ef5738146105f757806395d89b411461062257806399fbab881461064d57610204565b80635aa6e6751461050e57806361d027b314610539578063694c755f1461056457806370a082311461058f57610204565b80632a6bc2dd11610185578063436d803911610154578063436d803914610463578063476343ee146104a35780634a08e688146104ba5780635319faa5146104e557610204565b80632a6bc2dd14610395578063313ce567146103d2578063350c35e9146103fd578063395093511461042657610204565b80631ac55a0a116101c15780631ac55a0a146102c75780631dafede0146102f257806323b872dd1461032f57806326c013031461036c57610204565b806306fdde0314610209578063095ea7b3146102345780631775765f1461027157806318160ddd1461029c57610204565b366102045761020260003461084b565b005b600080fd5b34801561021557600080fd5b5061021e611071565b60405161022b9190615088565b60405180910390f35b34801561024057600080fd5b5061025b6004803603810190610256919061490e565b611103565b6040516102689190614fc9565b60405180910390f35b34801561027d57600080fd5b50610286611126565b604051610293919061530a565b60405180910390f35b3480156102a857600080fd5b506102b161112c565b6040516102be919061530a565b60405180910390f35b3480156102d357600080fd5b506102dc611136565b6040516102e99190615037565b60405180910390f35b3480156102fe57600080fd5b50610319600480360381019061031491906149c2565b61115c565b6040516103269190614ebe565b60405180910390f35b34801561033b57600080fd5b50610356600480360381019061035191906148bf565b61119b565b6040516103639190614fc9565b60405180910390f35b34801561037857600080fd5b50610393600480360381019061038e91906148bf565b6111ca565b005b3480156103a157600080fd5b506103bc60048036038101906103b79190614831565b6113c4565b6040516103c99190614fa7565b60405180910390f35b3480156103de57600080fd5b506103e76117fc565b6040516103f49190615325565b60405180910390f35b34801561040957600080fd5b50610424600480360381019061041f919061490e565b611805565b005b34801561043257600080fd5b5061044d6004803603810190610448919061490e565b611cea565b60405161045a9190614fc9565b60405180910390f35b34801561046f57600080fd5b5061048a60048036038101906104859190614883565b611d21565b60405161049a9493929190614f39565b60405180910390f35b3480156104af57600080fd5b506104b8611d9e565b005b3480156104c657600080fd5b506104cf6126ba565b6040516104dc9190615037565b60405180910390f35b3480156104f157600080fd5b5061050c600480360381019061050791906149c2565b6126e0565b005b34801561051a57600080fd5b506105236127b1565b6040516105309190614ebe565b60405180910390f35b34801561054557600080fd5b5061054e6127d7565b60405161055b9190614ebe565b60405180910390f35b34801561057057600080fd5b506105796127fd565b604051610586919061506d565b60405180910390f35b34801561059b57600080fd5b506105b660048036038101906105b19190614831565b612821565b6040516105c3919061530a565b60405180910390f35b3480156105d857600080fd5b506105e1612869565b6040516105ee9190614fa7565b60405180910390f35b34801561060357600080fd5b5061060c612ad5565b604051610619919061530a565b60405180910390f35b34801561062e57600080fd5b50610637612db1565b6040516106449190615088565b60405180910390f35b34801561065957600080fd5b50610674600480360381019061066f91906149c2565b612e43565b6040516106849493929190614f39565b60405180910390f35b34801561069957600080fd5b506106b460048036038101906106af919061490e565b612ec3565b6040516106c19190614fc9565b60405180910390f35b6106e460048036038101906106df919061490e565b61084b565b005b3480156106f257600080fd5b5061070d6004803603810190610708919061490e565b612f3a565b60405161071a9190614fc9565b60405180910390f35b34801561072f57600080fd5b5061074a60048036038101906107459190614831565b612f5d565b60405161075b959493929190614fe4565b60405180910390f35b34801561077057600080fd5b50610779612fc0565b604051610786919061530a565b60405180910390f35b34801561079b57600080fd5b506107b660048036038101906107b19190614883565b612fc6565b6040516107c3919061530a565b60405180910390f35b3480156107d857600080fd5b506107e161304d565b6040516107ee919061530a565b60405180910390f35b34801561080357600080fd5b5061080c61305a565b6040516108199190615052565b60405180910390f35b34801561082e57600080fd5b506108496004803603810190610844919061494a565b61307e565b005b600061085834600a6131b4565b9050600061086783600a6131b4565b9050600073ffffffffffffffffffffffffffffffffffffffff168473ffffffffffffffffffffffffffffffffffffffff1614156108fb5781600f60008073ffffffffffffffffffffffffffffffffffffffff1673ffffffffffffffffffffffffffffffffffffffff16815260200190815260200160002060020160008282546108f091906153a0565b925050819055610954565b80600f60008673ffffffffffffffffffffffffffffffffffffffff1673ffffffffffffffffffffffffffffffffffffffff168152602001908152602001600020600201600082825461094d91906153a0565b9250508190555b5080836109619190615481565b600f60008673ffffffffffffffffffffffffffffffffffffffff1673ffffffffffffffffffffffffffffffffffffffff16815260200190815260200160002060010160008282546109b291906153a0565b925050819055506000600c60009054906101000a900473ffffffffffffffffffffffffffffffffffffffff1673ffffffffffffffffffffffffffffffffffffffff1663feaf968c6040518163ffffffff1660e01b815260040160a06040518083038186803b158015610a2357600080fd5b505afa158015610a37573d6000803e3d6000fd5b505050506040513d601f19601f82011682018060405250810190610a5b91906149eb565b5050509150506000600d60009054906101000a900473ffffffffffffffffffffffffffffffffffffffff1673ffffffffffffffffffffffffffffffffffffffff1663feaf968c6040518163ffffffff1660e01b815260040160a06040518083038186803b158015610acb57600080fd5b505afa158015610adf573d6000803e3d6000fd5b505050506040513d601f19601f82011682018060405250810190610b0391906149eb565b5050509150506000610b1583836131b4565b90506000600f60008973ffffffffffffffffffffffffffffffffffffffff1673ffffffffffffffffffffffffffffffffffffffff16815260200190815260200160002060040160009054906101000a900473ffffffffffffffffffffffffffffffffffffffff1673ffffffffffffffffffffffffffffffffffffffff1663feaf968c6040518163ffffffff1660e01b815260040160a06040518083038186803b158015610bc157600080fd5b505afa158015610bd5573d6000803e3d6000fd5b505050506040513d601f19601f82011682018060405250810190610bf991906149eb565b5050509150506000610c2182878a610c119190615481565b610c1b9190615427565b866131fe565b9050610c8761271082610c349190615427565b600f60008c73ffffffffffffffffffffffffffffffffffffffff1673ffffffffffffffffffffffffffffffffffffffff1681526020019081526020016000206003015485610c829190615427565b6131b4565b9050610c91612ad5565b600781905550600060405180608001604052803373ffffffffffffffffffffffffffffffffffffffff1681526020018b73ffffffffffffffffffffffffffffffffffffffff1681526020018a8152602001838152509050601081908060018154018082558091505060019003906000526020600020906004020160009091909190915060008201518160000160006101000a81548173ffffffffffffffffffffffffffffffffffffffff021916908373ffffffffffffffffffffffffffffffffffffffff16021790555060208201518160010160006101000a81548173ffffffffffffffffffffffffffffffffffffffff021916908373ffffffffffffffffffffffffffffffffffffffff160217905550604082015181600201556060820151816003015550508060400151600e60003373ffffffffffffffffffffffffffffffffffffffff1673ffffffffffffffffffffffffffffffffffffffff16815260200190815260200160002060008c73ffffffffffffffffffffffffffffffffffffffff1673ffffffffffffffffffffffffffffffffffffffff1681526020019081526020016000206002016000828254610e4b91906153a0565b925050819055508060600151600e60003373ffffffffffffffffffffffffffffffffffffffff1673ffffffffffffffffffffffffffffffffffffffff16815260200190815260200160002060008c73ffffffffffffffffffffffffffffffffffffffff1673ffffffffffffffffffffffffffffffffffffffff1681526020019081526020016000206003016000828254610ee591906153a0565b92505081905550610ef6338361323a565b600073ffffffffffffffffffffffffffffffffffffffff168a73ffffffffffffffffffffffffffffffffffffffff16146110175760008a73ffffffffffffffffffffffffffffffffffffffff166323b872dd33308d6040518463ffffffff1660e01b8152600401610f6993929190614f02565b602060405180830381600087803b158015610f8357600080fd5b505af1158015610f97573d6000803e3d6000fd5b505050506040513d601f19601f82011682018060405250810190610fbb9190614999565b905080610fc757600080fd5b3373ffffffffffffffffffffffffffffffffffffffff167fd7243f6f8212d5188fd054141cf6ea89cfc0d91facb8c3afe2f88a13584801428b60405161100d919061530a565b60405180910390a2505b3373ffffffffffffffffffffffffffffffffffffffff167fd7243f6f8212d5188fd054141cf6ea89cfc0d91facb8c3afe2f88a13584801423460405161105d919061530a565b60405180910390a250505050505050505050565b606060038054611080906155c9565b80601f01602080910402602001604051908101604052809291908181526020018280546110ac906155c9565b80156110f95780601f106110ce576101008083540402835291602001916110f9565b820191906000526020600020905b8154815290600101906020018083116110dc57829003601f168201915b5050505050905090565b60008061110e613391565b905061111b818585613399565b600191505092915050565b60065481565b6000600254905090565b600d60009054906101000a900473ffffffffffffffffffffffffffffffffffffffff1681565b6009818154811061116c57600080fd5b906000526020600020016000915054906101000a900473ffffffffffffffffffffffffffffffffffffffff1681565b6000806111a6613391565b90506111b3858285613564565b6111be8585856135f0565b60019150509392505050565b6111d2613868565b600073ffffffffffffffffffffffffffffffffffffffff168373ffffffffffffffffffffffffffffffffffffffff161415611239576040517fd92e233d00000000000000000000000000000000000000000000000000000000815260040160405180910390fd5b600073ffffffffffffffffffffffffffffffffffffffff168273ffffffffffffffffffffffffffffffffffffffff1614156112a0576040517fd92e233d00000000000000000000000000000000000000000000000000000000815260040160405180910390fd5b600081116112e3576040517f08c379a00000000000000000000000000000000000000000000000000000000081526004016112da9061518a565b60405180910390fd5b6000600e60008573ffffffffffffffffffffffffffffffffffffffff1673ffffffffffffffffffffffffffffffffffffffff16815260200190815260200160002060008473ffffffffffffffffffffffffffffffffffffffff1673ffffffffffffffffffffffffffffffffffffffff168152602001908152602001600020600301549050600081116113aa576040517f08c379a00000000000000000000000000000000000000000000000000000000081526004016113a1906152ca565b60405180910390fd5b6113b6843385856138b8565b506113bf613ed4565b505050565b60606000805b6010805490508110156114ef57600060108281548110611413577f4e487b7100000000000000000000000000000000000000000000000000000000600052603260045260246000fd5b9060005260206000209060040201600301541180156114c857508373ffffffffffffffffffffffffffffffffffffffff166010828154811061147e577f4e487b7100000000000000000000000000000000000000000000000000000000600052603260045260246000fd5b906000526020600020906004020160000160009054906101000a900473ffffffffffffffffffffffffffffffffffffffff1673ffffffffffffffffffffffffffffffffffffffff16145b156114dc5781806114d8906155fb565b9250505b80806114e7906155fb565b9150506113ca565b5060008167ffffffffffffffff811115611532577f4e487b7100000000000000000000000000000000000000000000000000000000600052604160045260246000fd5b60405190808252806020026020018201604052801561156b57816020015b61155861474a565b8152602001906001900390816115505790505b5090506000915060005b6010805490508110156117f1576000601082815481106115be577f4e487b7100000000000000000000000000000000000000000000000000000000600052603260045260246000fd5b90600052602060002090600402016003015411801561167357508473ffffffffffffffffffffffffffffffffffffffff1660108281548110611629577f4e487b7100000000000000000000000000000000000000000000000000000000600052603260045260246000fd5b906000526020600020906004020160000160009054906101000a900473ffffffffffffffffffffffffffffffffffffffff1673ffffffffffffffffffffffffffffffffffffffff16145b156117de57601081815481106116b2577f4e487b7100000000000000000000000000000000000000000000000000000000600052603260045260246000fd5b90600052602060002090600402016040518060800160405290816000820160009054906101000a900473ffffffffffffffffffffffffffffffffffffffff1673ffffffffffffffffffffffffffffffffffffffff1673ffffffffffffffffffffffffffffffffffffffff1681526020016001820160009054906101000a900473ffffffffffffffffffffffffffffffffffffffff1673ffffffffffffffffffffffffffffffffffffffff1673ffffffffffffffffffffffffffffffffffffffff168152602001600282015481526020016003820154815250508284815181106117c4577f4e487b7100000000000000000000000000000000000000000000000000000000600052603260045260246000fd5b602002602001018190525082806117da906155fb565b9350505b80806117e9906155fb565b915050611575565b508092505050919050565b60006012905090565b61180d613868565b6118173082612f3a565b506000600c60009054906101000a900473ffffffffffffffffffffffffffffffffffffffff1673ffffffffffffffffffffffffffffffffffffffff1663feaf968c6040518163ffffffff1660e01b815260040160a06040518083038186803b15801561188257600080fd5b505afa158015611896573d6000803e3d6000fd5b505050506040513d601f19601f820116820180604052508101906118ba91906149eb565b5050509150506000600f60008573ffffffffffffffffffffffffffffffffffffffff1673ffffffffffffffffffffffffffffffffffffffff16815260200190815260200160002060040160009054906101000a900473ffffffffffffffffffffffffffffffffffffffff1673ffffffffffffffffffffffffffffffffffffffff1663feaf968c6040518163ffffffff1660e01b815260040160a06040518083038186803b15801561196a57600080fd5b505afa15801561197e573d6000803e3d6000fd5b505050506040513d601f19601f820116820180604052508101906119a291906149eb565b50505091505060006119bf82856119b99190615427565b846131b4565b905083600e60003373ffffffffffffffffffffffffffffffffffffffff1673ffffffffffffffffffffffffffffffffffffffff16815260200190815260200160002060008773ffffffffffffffffffffffffffffffffffffffff1673ffffffffffffffffffffffffffffffffffffffff1681526020019081526020016000206003016000828254611a509190615481565b9250508190555080600e60003373ffffffffffffffffffffffffffffffffffffffff1673ffffffffffffffffffffffffffffffffffffffff16815260200190815260200160002060008773ffffffffffffffffffffffffffffffffffffffff1673ffffffffffffffffffffffffffffffffffffffff1681526020019081526020016000206002016000828254611ae69190615481565b92505081905550611af73085613ede565b611aff612ad5565b600781905550611b0f33856140ac565b600073ffffffffffffffffffffffffffffffffffffffff168573ffffffffffffffffffffffffffffffffffffffff161415611bf65760003373ffffffffffffffffffffffffffffffffffffffff1682604051611b6a90614ea9565b60006040518083038185875af1925050503d8060008114611ba7576040519150601f19603f3d011682016040523d82523d6000602084013e611bac565b606091505b5050905080611bf0576040517f08c379a0000000000000000000000000000000000000000000000000000000008152600401611be79061526a565b60405180910390fd5b50611c8d565b8473ffffffffffffffffffffffffffffffffffffffff1663a9059cbb33836040518363ffffffff1660e01b8152600401611c31929190614f7e565b602060405180830381600087803b158015611c4b57600080fd5b505af1158015611c5f573d6000803e3d6000fd5b505050506040513d601f19601f82011682018060405250810190611c839190614999565b611c8c57600080fd5b5b3373ffffffffffffffffffffffffffffffffffffffff167fc30fcfbcaac9e0deffa719714eaa82396ff506a0d0d0eebe170830177288715d85604051611cd3919061530a565b60405180910390a2505050611ce6613ed4565b5050565b600080611cf5613391565b9050611d16818585611d078589612fc6565b611d1191906153a0565b613399565b600191505092915050565b600e602052816000526040600020602052806000526040600020600091509150508060000160009054906101000a900473ffffffffffffffffffffffffffffffffffffffff16908060010160009054906101000a900473ffffffffffffffffffffffffffffffffffffffff16908060020154908060030154905084565b6000600a60009054906101000a900473ffffffffffffffffffffffffffffffffffffffff1673ffffffffffffffffffffffffffffffffffffffff166385f2aef26040518163ffffffff1660e01b8152600401602060405180830381600087803b158015611e0a57600080fd5b505af1158015611e1e573d6000803e3d6000fd5b505050506040513d601f19601f82011682018060405250810190611e42919061485a565b90508073ffffffffffffffffffffffffffffffffffffffff163373ffffffffffffffffffffffffffffffffffffffff1614611e7c57600080fd5b600080600090505b6009805490508110156126b55760098181548110611ecb577f4e487b7100000000000000000000000000000000000000000000000000000000600052603260045260246000fd5b9060005260206000200160009054906101000a900473ffffffffffffffffffffffffffffffffffffffff1691506000600f60008473ffffffffffffffffffffffffffffffffffffffff1673ffffffffffffffffffffffffffffffffffffffff1681526020019081526020016000206002015490506000600f60008573ffffffffffffffffffffffffffffffffffffffff1673ffffffffffffffffffffffffffffffffffffffff16815260200190815260200160002060020181905550600073ffffffffffffffffffffffffffffffffffffffff168373ffffffffffffffffffffffffffffffffffffffff16141561220d576000600b60009054906101000a900473ffffffffffffffffffffffffffffffffffffffff1673ffffffffffffffffffffffffffffffffffffffff1661200e61200684610bb8614405565b6127106131fe565b60405161201a90614ea9565b60006040518083038185875af1925050503d8060008114612057576040519150601f19603f3d011682016040523d82523d6000602084013e61205c565b606091505b505090508061206a57600080fd5b7f000000000000000000000000000000000000000000000000000000000000000073ffffffffffffffffffffffffffffffffffffffff166120ac8360056131b4565b6040516120b890614ea9565b60006040518083038185875af1925050503d80600081146120f5576040519150601f19603f3d011682016040523d82523d6000602084013e6120fa565b606091505b5050809150507f000000000000000000000000000000000000000000000000000000000000000073ffffffffffffffffffffffffffffffffffffffff1661214e61214684611388614405565b6127106131fe565b60405161215a90614ea9565b60006040518083038185875af1925050503d8060008114612197576040519150601f19603f3d011682016040523d82523d6000602084013e61219c565b606091505b5050809150506121b96121b183611388614405565b6127106131fe565b6121c48360056131b4565b6121db6121d385610bb8614405565b6127106131fe565b7f367dce06545b3114ffaefdced869369312566226939540f24d07e35d6216fb7760405160405180910390a4506126a1565b60008373ffffffffffffffffffffffffffffffffffffffff1663a9059cbb600b60009054906101000a900473ffffffffffffffffffffffffffffffffffffffff1661226561225d86610bb8614405565b6127106131fe565b6040518363ffffffff1660e01b8152600401612282929190614f7e565b602060405180830381600087803b15801561229c57600080fd5b505af11580156122b0573d6000803e3d6000fd5b505050506040513d601f19601f820116820180604052508101906122d49190614999565b9050806122e057600080fd5b8373ffffffffffffffffffffffffffffffffffffffff1663095ea7b37f000000000000000000000000000000000000000000000000000000000000000061233461232c866107d0614405565b6127106131fe565b6040518363ffffffff1660e01b8152600401612351929190614f7e565b602060405180830381600087803b15801561236b57600080fd5b505af115801561237f573d6000803e3d6000fd5b505050506040513d601f19601f820116820180604052508101906123a39190614999565b9050806123af57600080fd5b60007f000000000000000000000000000000000000000000000000000000000000000073ffffffffffffffffffffffffffffffffffffffff1663e6a4390586306040518363ffffffff1660e01b815260040161240c929190614ed9565b60206040518083038186803b15801561242457600080fd5b505afa158015612438573d6000803e3d6000fd5b505050506040513d601f19601f8201168201806040525081019061245c919061485a565b9050600061246b8460056131b4565b90508573ffffffffffffffffffffffffffffffffffffffff1663095ea7b383836040518363ffffffff1660e01b81526004016124a8929190614f7e565b602060405180830381600087803b1580156124c257600080fd5b505af11580156124d6573d6000803e3d6000fd5b505050506040513d601f19601f820116820180604052508101906124fa9190614999565b508573ffffffffffffffffffffffffffffffffffffffff166323b872dd3084846040518463ffffffff1660e01b815260040161253893929190614f02565b602060405180830381600087803b15801561255257600080fd5b505af1158015612566573d6000803e3d6000fd5b505050506040513d601f19601f8201168201806040525081019061258a9190614999565b508573ffffffffffffffffffffffffffffffffffffffff1663a9059cbb7f00000000000000000000000000000000000000000000000000000000000000006125d38760026131b4565b6040518363ffffffff1660e01b81526004016125f0929190614f7e565b602060405180830381600087803b15801561260a57600080fd5b505af115801561261e573d6000803e3d6000fd5b505050506040513d601f19601f820116820180604052508101906126429190614999565b925061264f8460026131b4565b61265a8560056131b4565b61267161266987610bb8614405565b6127106131fe565b7f367dce06545b3114ffaefdced869369312566226939540f24d07e35d6216fb7760405160405180910390a45050505b5080806126ad906155fb565b915050611e84565b505050565b600c60009054906101000a900473ffffffffffffffffffffffffffffffffffffffff1681565b600a60009054906101000a900473ffffffffffffffffffffffffffffffffffffffff1673ffffffffffffffffffffffffffffffffffffffff163373ffffffffffffffffffffffffffffffffffffffff1614612770576040517f08c379a00000000000000000000000000000000000000000000000000000000081526004016127679061524a565b60405180910390fd5b806008819055507fc28da06ddf710a5cd48fc295c25d1619f92ae27da86a6255cac789193fbf18cb816040516127a6919061530a565b60405180910390a150565b600a60009054906101000a900473ffffffffffffffffffffffffffffffffffffffff1681565b600b60009054906101000a900473ffffffffffffffffffffffffffffffffffffffff1681565b7f000000000000000000000000000000000000000000000000000000000000000081565b60008060008373ffffffffffffffffffffffffffffffffffffffff1673ffffffffffffffffffffffffffffffffffffffff168152602001908152602001600020549050919050565b6060600060108054905067ffffffffffffffff8111156128b2577f4e487b7100000000000000000000000000000000000000000000000000000000600052604160045260246000fd5b6040519080825280602002602001820160405280156128eb57816020015b6128d861474a565b8152602001906001900390816128d05790505b5090506000805b601080549050811015612acc5760006010828154811061293b577f4e487b7100000000000000000000000000000000000000000000000000000000600052603260045260246000fd5b9060005260206000209060040201600301541115612ab9576010818154811061298d577f4e487b7100000000000000000000000000000000000000000000000000000000600052603260045260246000fd5b90600052602060002090600402016040518060800160405290816000820160009054906101000a900473ffffffffffffffffffffffffffffffffffffffff1673ffffffffffffffffffffffffffffffffffffffff1673ffffffffffffffffffffffffffffffffffffffff1681526020016001820160009054906101000a900473ffffffffffffffffffffffffffffffffffffffff1673ffffffffffffffffffffffffffffffffffffffff1673ffffffffffffffffffffffffffffffffffffffff16815260200160028201548152602001600382015481525050838381518110612a9f577f4e487b7100000000000000000000000000000000000000000000000000000000600052603260045260246000fd5b60200260200101819052508180612ab5906155fb565b9250505b8080612ac4906155fb565b9150506128f2565b50819250505090565b600080600c60009054906101000a900473ffffffffffffffffffffffffffffffffffffffff1673ffffffffffffffffffffffffffffffffffffffff1663feaf968c6040518163ffffffff1660e01b815260040160a06040518083038186803b158015612b4057600080fd5b505afa158015612b54573d6000803e3d6000fd5b505050506040513d601f19601f82011682018060405250810190612b7891906149eb565b5050509150506000612b8861112c565b82612b939190615427565b90506000811415612bac5763068e778092505050612dae565b60008060008060005b600980549050811015612d895760098181548110612bfc577f4e487b7100000000000000000000000000000000000000000000000000000000600052603260045260246000fd5b9060005260206000200160009054906101000a900473ffffffffffffffffffffffffffffffffffffffff169450600f60008673ffffffffffffffffffffffffffffffffffffffff1673ffffffffffffffffffffffffffffffffffffffff16815260200190815260200160002060040160009054906101000a900473ffffffffffffffffffffffffffffffffffffffff1673ffffffffffffffffffffffffffffffffffffffff1663feaf968c6040518163ffffffff1660e01b815260040160a06040518083038186803b158015612cd157600080fd5b505afa158015612ce5573d6000803e3d6000fd5b505050506040513d601f19601f82011682018060405250810190612d0991906149eb565b90919293509091509050508094505083600f60008773ffffffffffffffffffffffffffffffffffffffff1673ffffffffffffffffffffffffffffffffffffffff16815260200190815260200160002060010154612d669190615427565b91508183612d7491906153a0565b92508080612d81906155fb565b915050612bb5565b50612da5612d9f83670de0b6b3a7640000614449565b866131b4565b96505050505050505b90565b606060048054612dc0906155c9565b80601f0160208091040260200160405190810160405280929190818152602001828054612dec906155c9565b8015612e395780601f10612e0e57610100808354040283529160200191612e39565b820191906000526020600020905b815481529060010190602001808311612e1c57829003601f168201915b5050505050905090565b60108181548110612e5357600080fd5b90600052602060002090600402016000915090508060000160009054906101000a900473ffffffffffffffffffffffffffffffffffffffff16908060010160009054906101000a900473ffffffffffffffffffffffffffffffffffffffff16908060020154908060030154905084565b600080612ece613391565b90506000612edc8286612fc6565b905083811015612f21576040517f08c379a0000000000000000000000000000000000000000000000000000000008152600401612f18906152aa565b60405180910390fd5b612f2e8286868403613399565b60019250505092915050565b600080612f45613391565b9050612f528185856135f0565b600191505092915050565b600f6020528060005260406000206000915090508060000160009054906101000a900460ff16908060010154908060020154908060030154908060040160009054906101000a900473ffffffffffffffffffffffffffffffffffffffff16905085565b60075481565b6000600160008473ffffffffffffffffffffffffffffffffffffffff1673ffffffffffffffffffffffffffffffffffffffff16815260200190815260200160002060008373ffffffffffffffffffffffffffffffffffffffff1673ffffffffffffffffffffffffffffffffffffffff16815260200190815260200160002054905092915050565b6000601080549050905090565b7f000000000000000000000000000000000000000000000000000000000000000081565b600a60009054906101000a900473ffffffffffffffffffffffffffffffffffffffff1673ffffffffffffffffffffffffffffffffffffffff163373ffffffffffffffffffffffffffffffffffffffff161461310e576040517f08c379a00000000000000000000000000000000000000000000000000000000081526004016131059061524a565b60405180910390fd5b60001515600f60008573ffffffffffffffffffffffffffffffffffffffff1673ffffffffffffffffffffffffffffffffffffffff16815260200190815260200160002060000160009054906101000a900460ff161515146131a4576040517f08c379a000000000000000000000000000000000000000000000000000000000815260040161319b906151ea565b60405180910390fd5b6131af8383836144b6565b505050565b60006131f683836040518060400160405280601a81526020017f536166654d6174683a206469766973696f6e206279207a65726f000000000000815250614684565b905092915050565b60008161322861321685670de0b6b3a7640000614449565b60028561322391906153f6565b6146e7565b61323291906153f6565b905092915050565b600073ffffffffffffffffffffffffffffffffffffffff168273ffffffffffffffffffffffffffffffffffffffff1614156132aa576040517f08c379a00000000000000000000000000000000000000000000000000000000081526004016132a1906152ea565b60405180910390fd5b6132b660008383614740565b80600260008282546132c891906153a0565b92505081905550806000808473ffffffffffffffffffffffffffffffffffffffff1673ffffffffffffffffffffffffffffffffffffffff168152602001908152602001600020600082825401925050819055508173ffffffffffffffffffffffffffffffffffffffff16600073ffffffffffffffffffffffffffffffffffffffff167fddf252ad1be2c89b69c2b068fc378daa952ba7f163c4a11628f55a4df523b3ef83604051613379919061530a565b60405180910390a361338d60008383614745565b5050565b600033905090565b600073ffffffffffffffffffffffffffffffffffffffff168373ffffffffffffffffffffffffffffffffffffffff161415613409576040517f08c379a00000000000000000000000000000000000000000000000000000000081526004016134009061522a565b60405180910390fd5b600073ffffffffffffffffffffffffffffffffffffffff168273ffffffffffffffffffffffffffffffffffffffff161415613479576040517f08c379a0000000000000000000000000000000000000000000000000000000008152600401613470906150ea565b60405180910390fd5b80600160008573ffffffffffffffffffffffffffffffffffffffff1673ffffffffffffffffffffffffffffffffffffffff16815260200190815260200160002060008473ffffffffffffffffffffffffffffffffffffffff1673ffffffffffffffffffffffffffffffffffffffff168152602001908152602001600020819055508173ffffffffffffffffffffffffffffffffffffffff168373ffffffffffffffffffffffffffffffffffffffff167f8c5be1e5ebec7d5bd14f71427d1e84f3dd0314c0f7b2291e5b200ac8c7c3b92583604051613557919061530a565b60405180910390a3505050565b60006135708484612fc6565b90507fffffffffffffffffffffffffffffffffffffffffffffffffffffffffffffffff81146135ea57818110156135dc576040517f08c379a00000000000000000000000000000000000000000000000000000000081526004016135d39061514a565b60405180910390fd5b6135e98484848403613399565b5b50505050565b600073ffffffffffffffffffffffffffffffffffffffff168373ffffffffffffffffffffffffffffffffffffffff161415613660576040517f08c379a00000000000000000000000000000000000000000000000000000000081526004016136579061520a565b60405180910390fd5b600073ffffffffffffffffffffffffffffffffffffffff168273ffffffffffffffffffffffffffffffffffffffff1614156136d0576040517f08c379a00000000000000000000000000000000000000000000000000000000081526004016136c7906150aa565b60405180910390fd5b6136db838383614740565b60008060008573ffffffffffffffffffffffffffffffffffffffff1673ffffffffffffffffffffffffffffffffffffffff16815260200190815260200160002054905081811015613761576040517f08c379a00000000000000000000000000000000000000000000000000000000081526004016137589061516a565b60405180910390fd5b8181036000808673ffffffffffffffffffffffffffffffffffffffff1673ffffffffffffffffffffffffffffffffffffffff16815260200190815260200160002081905550816000808573ffffffffffffffffffffffffffffffffffffffff1673ffffffffffffffffffffffffffffffffffffffff168152602001908152602001600020600082825401925050819055508273ffffffffffffffffffffffffffffffffffffffff168473ffffffffffffffffffffffffffffffffffffffff167fddf252ad1be2c89b69c2b068fc378daa952ba7f163c4a11628f55a4df523b3ef8460405161384f919061530a565b60405180910390a3613862848484614745565b50505050565b600260055414156138ae576040517f08c379a00000000000000000000000000000000000000000000000000000000081526004016138a59061528a565b60405180910390fd5b6002600581905550565b6138c0612ad5565b6007819055506006546007541061390c576040517f08c379a0000000000000000000000000000000000000000000000000000000008152600401613903906151aa565b60405180910390fd5b6000811161394f576040517f08c379a0000000000000000000000000000000000000000000000000000000008152600401613946906152ca565b60405180910390fd5b60006064600854836139619190615427565b61396b91906153f6565b90503073ffffffffffffffffffffffffffffffffffffffff166323b872dd858784866139979190615481565b6040518463ffffffff1660e01b81526004016139b593929190614f02565b602060405180830381600087803b1580156139cf57600080fd5b505af11580156139e3573d6000803e3d6000fd5b505050506040513d601f19601f82011682018060405250810190613a079190614999565b506000600c60009054906101000a900473ffffffffffffffffffffffffffffffffffffffff1673ffffffffffffffffffffffffffffffffffffffff1663feaf968c6040518163ffffffff1660e01b815260040160a06040518083038186803b158015613a7257600080fd5b505afa158015613a86573d6000803e3d6000fd5b505050506040513d601f19601f82011682018060405250810190613aaa91906149eb565b5050509150506000600f60008673ffffffffffffffffffffffffffffffffffffffff1673ffffffffffffffffffffffffffffffffffffffff16815260200190815260200160002060040160009054906101000a900473ffffffffffffffffffffffffffffffffffffffff1673ffffffffffffffffffffffffffffffffffffffff1663feaf968c6040518163ffffffff1660e01b815260040160a06040518083038186803b158015613b5a57600080fd5b505afa158015613b6e573d6000803e3d6000fd5b505050506040513d601f19601f82011682018060405250810190613b9291906149eb565b5050509150506000613baf8286613ba99190615427565b846131b4565b905084600e60003373ffffffffffffffffffffffffffffffffffffffff1673ffffffffffffffffffffffffffffffffffffffff16815260200190815260200160002060008873ffffffffffffffffffffffffffffffffffffffff1673ffffffffffffffffffffffffffffffffffffffff1681526020019081526020016000206003016000828254613c409190615481565b9250508190555080600e60003373ffffffffffffffffffffffffffffffffffffffff1673ffffffffffffffffffffffffffffffffffffffff16815260200190815260200160002060008873ffffffffffffffffffffffffffffffffffffffff1673ffffffffffffffffffffffffffffffffffffffff1681526020019081526020016000206002016000828254613cd69190615481565b92505081905550613ce788866140ac565b600073ffffffffffffffffffffffffffffffffffffffff168673ffffffffffffffffffffffffffffffffffffffff161415613dce5760008773ffffffffffffffffffffffffffffffffffffffff1682604051613d4290614ea9565b60006040518083038185875af1925050503d8060008114613d7f576040519150601f19603f3d011682016040523d82523d6000602084013e613d84565b606091505b5050905080613dc8576040517f08c379a0000000000000000000000000000000000000000000000000000000008152600401613dbf9061526a565b60405180910390fd5b50613e65565b8573ffffffffffffffffffffffffffffffffffffffff1663a9059cbb88836040518363ffffffff1660e01b8152600401613e09929190614f7e565b602060405180830381600087803b158015613e2357600080fd5b505af1158015613e37573d6000803e3d6000fd5b505050506040513d601f19601f82011682018060405250810190613e5b9190614999565b613e6457600080fd5b5b8773ffffffffffffffffffffffffffffffffffffffff168773ffffffffffffffffffffffffffffffffffffffff167fde0aa27286f5cb3a4ed853dc4823ead62d63e92cdf13de09d6aece56970721a487604051613ec2919061530a565b60405180910390a35050505050505050565b6001600581905550565b600073ffffffffffffffffffffffffffffffffffffffff168273ffffffffffffffffffffffffffffffffffffffff161415613f4e576040517f08c379a0000000000000000000000000000000000000000000000000000000008152600401613f45906151ca565b60405180910390fd5b613f5a82600083614740565b60008060008473ffffffffffffffffffffffffffffffffffffffff1673ffffffffffffffffffffffffffffffffffffffff16815260200190815260200160002054905081811015613fe0576040517f08c379a0000000000000000000000000000000000000000000000000000000008152600401613fd7906150ca565b60405180910390fd5b8181036000808573ffffffffffffffffffffffffffffffffffffffff1673ffffffffffffffffffffffffffffffffffffffff1681526020019081526020016000208190555081600260008282540392505081905550600073ffffffffffffffffffffffffffffffffffffffff168373ffffffffffffffffffffffffffffffffffffffff167fddf252ad1be2c89b69c2b068fc378daa952ba7f163c4a11628f55a4df523b3ef84604051614093919061530a565b60405180910390a36140a783600084614745565b505050565b60005b6010805490508110156143ff578273ffffffffffffffffffffffffffffffffffffffff166010828154811061410d577f4e487b7100000000000000000000000000000000000000000000000000000000600052603260045260246000fd5b906000526020600020906004020160000160009054906101000a900473ffffffffffffffffffffffffffffffffffffffff1673ffffffffffffffffffffffffffffffffffffffff161480156141ac57508160108281548110614198577f4e487b7100000000000000000000000000000000000000000000000000000000600052603260045260246000fd5b906000526020600020906004020160030154145b156143ec57601060016010805490506141c59190615481565b815481106141fc577f4e487b7100000000000000000000000000000000000000000000000000000000600052603260045260246000fd5b906000526020600020906004020160108281548110614244577f4e487b7100000000000000000000000000000000000000000000000000000000600052603260045260246000fd5b90600052602060002090600402016000820160009054906101000a900473ffffffffffffffffffffffffffffffffffffffff168160000160006101000a81548173ffffffffffffffffffffffffffffffffffffffff021916908373ffffffffffffffffffffffffffffffffffffffff1602179055506001820160009054906101000a900473ffffffffffffffffffffffffffffffffffffffff168160010160006101000a81548173ffffffffffffffffffffffffffffffffffffffff021916908373ffffffffffffffffffffffffffffffffffffffff1602179055506002820154816002015560038201548160030155905050601080548061436f577f4e487b7100000000000000000000000000000000000000000000000000000000600052603160045260246000fd5b6001900381819060005260206000209060040201600080820160006101000a81549073ffffffffffffffffffffffffffffffffffffffff02191690556001820160006101000a81549073ffffffffffffffffffffffffffffffffffffffff0219169055600282016000905560038201600090555050905550614401565b80806143f7906155fb565b9150506140af565b505b5050565b6000670de0b6b3a764000061443761441d8585614449565b6002670de0b6b3a764000061443291906153f6565b6146e7565b61444191906153f6565b905092915050565b6000808214806144715750828283856144629190615427565b92508261446f91906153f6565b145b6144b0576040517f08c379a00000000000000000000000000000000000000000000000000000000081526004016144a79061510a565b60405180910390fd5b92915050565b6009839080600181540180825580915050600190039060005260206000200160009091909190916101000a81548173ffffffffffffffffffffffffffffffffffffffff021916908373ffffffffffffffffffffffffffffffffffffffff1602179055506001600f60008573ffffffffffffffffffffffffffffffffffffffff1673ffffffffffffffffffffffffffffffffffffffff16815260200190815260200160002060000160006101000a81548160ff02191690831515021790555081600f60008573ffffffffffffffffffffffffffffffffffffffff1673ffffffffffffffffffffffffffffffffffffffff1681526020019081526020016000206003018190555080600f60008573ffffffffffffffffffffffffffffffffffffffff1673ffffffffffffffffffffffffffffffffffffffff16815260200190815260200160002060040160006101000a81548173ffffffffffffffffffffffffffffffffffffffff021916908373ffffffffffffffffffffffffffffffffffffffff1602179055508273ffffffffffffffffffffffffffffffffffffffff167fc5747b084113a45fa0db9ee3450f0fdf2cac58e149aeb924b9cc46499bf9e95460405160405180910390a2505050565b600080831182906146cb576040517f08c379a00000000000000000000000000000000000000000000000000000000081526004016146c29190615088565b60405180910390fd5b50600083856146da91906153f6565b9050809150509392505050565b60008282846146f691906153a0565b915081101561473a576040517f08c379a00000000000000000000000000000000000000000000000000000000081526004016147319061512a565b60405180910390fd5b92915050565b505050565b505050565b6040518060800160405280600073ffffffffffffffffffffffffffffffffffffffff168152602001600073ffffffffffffffffffffffffffffffffffffffff16815260200160008152602001600081525090565b6000813590506147ad81615bb8565b92915050565b6000815190506147c281615bb8565b92915050565b6000815190506147d781615bcf565b92915050565b6000815190506147ec81615be6565b92915050565b60008135905061480181615bfd565b92915050565b60008151905061481681615bfd565b92915050565b60008151905061482b81615c14565b92915050565b60006020828403121561484357600080fd5b60006148518482850161479e565b91505092915050565b60006020828403121561486c57600080fd5b600061487a848285016147b3565b91505092915050565b6000806040838503121561489657600080fd5b60006148a48582860161479e565b92505060206148b58582860161479e565b9150509250929050565b6000806000606084860312156148d457600080fd5b60006148e28682870161479e565b93505060206148f38682870161479e565b9250506040614904868287016147f2565b9150509250925092565b6000806040838503121561492157600080fd5b600061492f8582860161479e565b9250506020614940858286016147f2565b9150509250929050565b60008060006060848603121561495f57600080fd5b600061496d8682870161479e565b935050602061497e868287016147f2565b925050604061498f8682870161479e565b9150509250925092565b6000602082840312156149ab57600080fd5b60006149b9848285016147c8565b91505092915050565b6000602082840312156149d457600080fd5b60006149e2848285016147f2565b91505092915050565b600080600080600060a08688031215614a0357600080fd5b6000614a118882890161481c565b9550506020614a22888289016147dd565b9450506040614a3388828901614807565b9350506060614a4488828901614807565b9250506080614a558882890161481c565b9150509295509295909350565b6000614a6e8383614e27565b60808301905092915050565b614a83816154b5565b82525050565b614a92816154b5565b82525050565b6000614aa382615350565b614aad8185615373565b9350614ab883615340565b8060005b83811015614ae9578151614ad08882614a62565b9750614adb83615366565b925050600181019050614abc565b5085935050505092915050565b614aff816154c7565b82525050565b614b0e8161552a565b82525050565b614b1d8161554e565b82525050565b614b2c81615572565b82525050565b6000614b3d8261535b565b614b47818561538f565b9350614b57818560208601615596565b614b60816156d1565b840191505092915050565b6000614b7860238361538f565b9150614b83826156e2565b604082019050919050565b6000614b9b60228361538f565b9150614ba682615731565b604082019050919050565b6000614bbe60228361538f565b9150614bc982615780565b604082019050919050565b6000614be160148361538f565b9150614bec826157cf565b602082019050919050565b6000614c0460148361538f565b9150614c0f826157f8565b602082019050919050565b6000614c27601d8361538f565b9150614c3282615821565b602082019050919050565b6000614c4a60268361538f565b9150614c558261584a565b604082019050919050565b6000614c6d60138361538f565b9150614c7882615899565b602082019050919050565b6000614c9060198361538f565b9150614c9b826158c2565b602082019050919050565b6000614cb360218361538f565b9150614cbe826158eb565b604082019050919050565b6000614cd660258361538f565b9150614ce18261593a565b604082019050919050565b6000614cf960258361538f565b9150614d0482615989565b604082019050919050565b6000614d1c600083615384565b9150614d27826159d8565b600082019050919050565b6000614d3f60248361538f565b9150614d4a826159db565b604082019050919050565b6000614d6260248361538f565b9150614d6d82615a2a565b604082019050919050565b6000614d85602b8361538f565b9150614d9082615a79565b604082019050919050565b6000614da8601f8361538f565b9150614db382615ac8565b602082019050919050565b6000614dcb60258361538f565b9150614dd682615af1565b604082019050919050565b6000614dee60228361538f565b9150614df982615b40565b604082019050919050565b6000614e11601f8361538f565b9150614e1c82615b8f565b602082019050919050565b608082016000820151614e3d6000850182614a7a565b506020820151614e506020850182614a7a565b506040820151614e636040850182614e7c565b506060820151614e766060850182614e7c565b50505050565b614e85816154fd565b82525050565b614e94816154fd565b82525050565b614ea381615507565b82525050565b6000614eb482614d0f565b9150819050919050565b6000602082019050614ed36000830184614a89565b92915050565b6000604082019050614eee6000830185614a89565b614efb6020830184614a89565b9392505050565b6000606082019050614f176000830186614a89565b614f246020830185614a89565b614f316040830184614e8b565b949350505050565b6000608082019050614f4e6000830187614a89565b614f5b6020830186614a89565b614f686040830185614e8b565b614f756060830184614e8b565b95945050505050565b6000604082019050614f936000830185614a89565b614fa06020830184614e8b565b9392505050565b60006020820190508181036000830152614fc18184614a98565b905092915050565b6000602082019050614fde6000830184614af6565b92915050565b600060a082019050614ff96000830188614af6565b6150066020830187614e8b565b6150136040830186614e8b565b6150206060830185614e8b565b61502d6080830184614b05565b9695505050505050565b600060208201905061504c6000830184614b05565b92915050565b60006020820190506150676000830184614b14565b92915050565b60006020820190506150826000830184614b23565b92915050565b600060208201905081810360008301526150a28184614b32565b905092915050565b600060208201905081810360008301526150c381614b6b565b9050919050565b600060208201905081810360008301526150e381614b8e565b9050919050565b6000602082019050818103600083015261510381614bb1565b9050919050565b6000602082019050818103600083015261512381614bd4565b9050919050565b6000602082019050818103600083015261514381614bf7565b9050919050565b6000602082019050818103600083015261516381614c1a565b9050919050565b6000602082019050818103600083015261518381614c3d565b9050919050565b600060208201905081810360008301526151a381614c60565b9050919050565b600060208201905081810360008301526151c381614c83565b9050919050565b600060208201905081810360008301526151e381614ca6565b9050919050565b6000602082019050818103600083015261520381614cc9565b9050919050565b6000602082019050818103600083015261522381614cec565b9050919050565b6000602082019050818103600083015261524381614d32565b9050919050565b6000602082019050818103600083015261526381614d55565b9050919050565b6000602082019050818103600083015261528381614d78565b9050919050565b600060208201905081810360008301526152a381614d9b565b9050919050565b600060208201905081810360008301526152c381614dbe565b9050919050565b600060208201905081810360008301526152e381614de1565b9050919050565b6000602082019050818103600083015261530381614e04565b9050919050565b600060208201905061531f6000830184614e8b565b92915050565b600060208201905061533a6000830184614e9a565b92915050565b6000819050602082019050919050565b600081519050919050565b600081519050919050565b6000602082019050919050565b600082825260208201905092915050565b600081905092915050565b600082825260208201905092915050565b60006153ab826154fd565b91506153b6836154fd565b9250827fffffffffffffffffffffffffffffffffffffffffffffffffffffffffffffffff038211156153eb576153ea615644565b5b828201905092915050565b6000615401826154fd565b915061540c836154fd565b92508261541c5761541b615673565b5b828204905092915050565b6000615432826154fd565b915061543d836154fd565b9250817fffffffffffffffffffffffffffffffffffffffffffffffffffffffffffffffff048311821515161561547657615475615644565b5b828202905092915050565b600061548c826154fd565b9150615497836154fd565b9250828210156154aa576154a9615644565b5b828203905092915050565b60006154c0826154dd565b9050919050565b60008115159050919050565b6000819050919050565b600073ffffffffffffffffffffffffffffffffffffffff82169050919050565b6000819050919050565b600060ff82169050919050565b600069ffffffffffffffffffff82169050919050565b60006155358261553c565b9050919050565b6000615547826154dd565b9050919050565b600061555982615560565b9050919050565b600061556b826154dd565b9050919050565b600061557d82615584565b9050919050565b600061558f826154dd565b9050919050565b60005b838110156155b4578082015181840152602081019050615599565b838111156155c3576000848401525b50505050565b600060028204905060018216806155e157607f821691505b602082108114156155f5576155f46156a2565b5b50919050565b6000615606826154fd565b91507fffffffffffffffffffffffffffffffffffffffffffffffffffffffffffffffff82141561563957615638615644565b5b600182019050919050565b7f4e487b7100000000000000000000000000000000000000000000000000000000600052601160045260246000fd5b7f4e487b7100000000000000000000000000000000000000000000000000000000600052601260045260246000fd5b7f4e487b7100000000000000000000000000000000000000000000000000000000600052602260045260246000fd5b6000601f19601f8301169050919050565b7f45524332303a207472616e7366657220746f20746865207a65726f206164647260008201527f6573730000000000000000000000000000000000000000000000000000000000602082015250565b7f45524332303a206275726e20616d6f756e7420657863656564732062616c616e60008201527f6365000000000000000000000000000000000000000000000000000000000000602082015250565b7f45524332303a20617070726f766520746f20746865207a65726f20616464726560008201527f7373000000000000000000000000000000000000000000000000000000000000602082015250565b7f64732d6d6174682d6d756c2d6f766572666c6f77000000000000000000000000600082015250565b7f64732d6d6174682d6164642d6f766572666c6f77000000000000000000000000600082015250565b7f45524332303a20696e73756666696369656e7420616c6c6f77616e6365000000600082015250565b7f45524332303a207472616e7366657220616d6f756e742065786365656473206260008201527f616c616e63650000000000000000000000000000000000000000000000000000602082015250565b7f616d6f756e742063616e206e6f74206265203000000000000000000000000000600082015250565b7f63616e6e6f74206c697175696461746520706f736974696f6e00000000000000600082015250565b7f45524332303a206275726e2066726f6d20746865207a65726f2061646472657360008201527f7300000000000000000000000000000000000000000000000000000000000000602082015250565b7f7468697320636f6c6c61746572616c207479706520616c72656164792061707060008201527f726f766564000000000000000000000000000000000000000000000000000000602082015250565b7f45524332303a207472616e736665722066726f6d20746865207a65726f20616460008201527f6472657373000000000000000000000000000000000000000000000000000000602082015250565b50565b7f45524332303a20617070726f76652066726f6d20746865207a65726f2061646460008201527f7265737300000000000000000000000000000000000000000000000000000000602082015250565b7f63616e206f6e6c792062652063616c6c65642062792043475420676f7665726e60008201527f616e636500000000000000000000000000000000000000000000000000000000602082015250565b7f72657475726e206f6620657468657220636f6c6c61746572616c20776173207560008201527f6e7375636365737366756c000000000000000000000000000000000000000000602082015250565b7f5265656e7472616e637947756172643a207265656e7472616e742063616c6c00600082015250565b7f45524332303a2064656372656173656420616c6c6f77616e63652062656c6f7760008201527f207a65726f000000000000000000000000000000000000000000000000000000602082015250565b7f7573657220686173206e6f20706f736974696f6e7320746f206c69717569646160008201527f7465000000000000000000000000000000000000000000000000000000000000602082015250565b7f45524332303a206d696e7420746f20746865207a65726f206164647265737300600082015250565b615bc1816154b5565b8114615bcc57600080fd5b50565b615bd8816154c7565b8114615be357600080fd5b50565b615bef816154d3565b8114615bfa57600080fd5b50565b615c06816154fd565b8114615c1157600080fd5b50565b615c1d81615514565b8114615c2857600080fd5b5056fea2646970667358221220b55f865388d868e6c910c6c2bc0e2c122f8b7f2d8d55a51692ad29805a40a0d064736f6c63430008040033",
  "linkReferences": {},
  "deployedLinkReferences": {}
}