{
  "_format": "hh-sol-artifact-1",
  "contractName": "Chrysus",
  "sourceName": "contracts/Chrysus.sol",
  "abi": [
    {
      "inputs": [
        {
          "components": [
            {
              "internalType": "address",
              "name": "daiAddress",
              "type": "address"
            },
            {
              "internalType": "address",
              "name": "oracleDAI",
              "type": "address"
            },
            {
              "internalType": "address",
              "name": "oracleETH",
              "type": "address"
            },
            {
              "internalType": "address",
              "name": "oracleCHC",
              "type": "address"
            },
            {
              "internalType": "address",
              "name": "oracleXAU",
              "type": "address"
            },
            {
              "internalType": "address",
              "name": "governance",
              "type": "address"
            },
            {
              "internalType": "address",
              "name": "treasury",
              "type": "address"
            },
            {
              "internalType": "address",
              "name": "auction",
              "type": "address"
            },
            {
              "internalType": "address",
              "name": "swapRouter",
              "type": "address"
            },
            {
              "internalType": "address",
              "name": "swapSolution",
              "type": "address"
            },
            {
              "internalType": "address",
              "name": "stabilityModule",
              "type": "address"
            }
          ],
          "internalType": "struct Chrysus.AddressBook",
          "name": "_ab",
          "type": "tuple"
        },
        {
          "internalType": "uint256",
          "name": "_liquidationReward",
          "type": "uint256"
        }
      ],
      "stateMutability": "nonpayable",
      "type": "constructor"
    },
    {
      "inputs": [],
      "name": "ZeroAddress",
      "type": "error"
    },
    {
      "anonymous": false,
      "inputs": [
        {
          "indexed": true,
          "internalType": "address",
          "name": "collateralToken",
          "type": "address"
        }
      ],
      "name": "AddedCollateralType",
      "type": "event"
    },
    {
      "anonymous": false,
      "inputs": [
        {
          "indexed": true,
          "internalType": "address",
          "name": "owner",
          "type": "address"
        },
        {
          "indexed": true,
          "internalType": "address",
          "name": "spender",
          "type": "address"
        },
        {
          "indexed": false,
          "internalType": "uint256",
          "name": "value",
          "type": "uint256"
        }
      ],
      "name": "Approval",
      "type": "event"
    },
    {
      "anonymous": false,
      "inputs": [
        {
          "indexed": true,
          "internalType": "address",
          "name": "user",
          "type": "address"
        },
        {
          "indexed": false,
          "internalType": "uint256",
          "name": "amount",
          "type": "uint256"
        }
      ],
      "name": "CollateralDeposited",
      "type": "event"
    },
    {
      "anonymous": false,
      "inputs": [
        {
          "indexed": true,
          "internalType": "address",
          "name": "user",
          "type": "address"
        },
        {
          "indexed": false,
          "internalType": "uint256",
          "name": "amount",
          "type": "uint256"
        }
      ],
      "name": "CollateralWithdrawn",
      "type": "event"
    },
    {
      "anonymous": false,
      "inputs": [
        {
          "indexed": true,
          "internalType": "uint256",
          "name": "treasuryFees",
          "type": "uint256"
        },
        {
          "indexed": true,
          "internalType": "uint256",
          "name": "swapSolutionFees",
          "type": "uint256"
        },
        {
          "indexed": true,
          "internalType": "uint256",
          "name": "stabilityModuleFees",
          "type": "uint256"
        }
      ],
      "name": "FeesWithdrawn",
      "type": "event"
    },
    {
      "anonymous": false,
      "inputs": [
        {
          "indexed": true,
          "internalType": "address",
          "name": "liquidator",
          "type": "address"
        },
        {
          "indexed": true,
          "internalType": "address",
          "name": "user",
          "type": "address"
        },
        {
          "indexed": false,
          "internalType": "uint256",
          "name": "amountLiquidated",
          "type": "uint256"
        }
      ],
      "name": "Liquidated",
      "type": "event"
    },
    {
      "anonymous": false,
      "inputs": [
        {
          "indexed": false,
          "internalType": "uint256",
          "name": "newReward",
          "type": "uint256"
        }
      ],
      "name": "LiquidationRewardUpdated",
      "type": "event"
    },
    {
      "anonymous": false,
      "inputs": [
        {
          "indexed": true,
          "internalType": "address",
          "name": "from",
          "type": "address"
        },
        {
          "indexed": true,
          "internalType": "address",
          "name": "to",
          "type": "address"
        },
        {
          "indexed": false,
          "internalType": "uint256",
          "name": "value",
          "type": "uint256"
        }
      ],
      "name": "Transfer",
      "type": "event"
    },
    {
      "inputs": [
        {
          "internalType": "address",
          "name": "_collateralType",
          "type": "address"
        },
        {
          "internalType": "uint256",
          "name": "_minCollateral",
          "type": "uint256"
        },
        {
          "internalType": "address",
          "name": "_oracleAddress",
          "type": "address"
        }
      ],
      "name": "addCollateralType",
      "outputs": [],
      "stateMutability": "nonpayable",
      "type": "function"
    },
    {
      "inputs": [
        {
          "internalType": "address",
          "name": "owner",
          "type": "address"
        },
        {
          "internalType": "address",
          "name": "spender",
          "type": "address"
        }
      ],
      "name": "allowance",
      "outputs": [
        {
          "internalType": "uint256",
          "name": "",
          "type": "uint256"
        }
      ],
      "stateMutability": "view",
      "type": "function"
    },
    {
      "inputs": [
        {
          "internalType": "address",
          "name": "spender",
          "type": "address"
        },
        {
          "internalType": "uint256",
          "name": "amount",
          "type": "uint256"
        }
      ],
      "name": "approve",
      "outputs": [
        {
          "internalType": "bool",
          "name": "",
          "type": "bool"
        }
      ],
      "stateMutability": "nonpayable",
      "type": "function"
    },
    {
      "inputs": [
        {
          "internalType": "address",
          "name": "",
          "type": "address"
        }
      ],
      "name": "approvedCollateral",
      "outputs": [
        {
          "internalType": "bool",
          "name": "approved",
          "type": "bool"
        },
        {
          "internalType": "uint256",
          "name": "balance",
          "type": "uint256"
        },
        {
          "internalType": "uint256",
          "name": "fees",
          "type": "uint256"
        },
        {
          "internalType": "uint256",
          "name": "minCollateral",
          "type": "uint256"
        },
        {
          "internalType": "contract AggregatorV3Interface",
          "name": "oracle",
          "type": "address"
        }
      ],
      "stateMutability": "view",
      "type": "function"
    },
    {
      "inputs": [
        {
          "internalType": "uint256",
          "name": "",
          "type": "uint256"
        }
      ],
      "name": "approvedTokens",
      "outputs": [
        {
          "internalType": "address",
          "name": "",
          "type": "address"
        }
      ],
      "stateMutability": "view",
      "type": "function"
    },
    {
      "inputs": [],
      "name": "auction",
      "outputs": [
        {
          "internalType": "address",
          "name": "",
          "type": "address"
        }
      ],
      "stateMutability": "view",
      "type": "function"
    },
    {
      "inputs": [
        {
          "internalType": "address",
          "name": "account",
          "type": "address"
        }
      ],
      "name": "balanceOf",
      "outputs": [
        {
          "internalType": "uint256",
          "name": "",
          "type": "uint256"
        }
      ],
      "stateMutability": "view",
      "type": "function"
    },
    {
      "inputs": [],
      "name": "collateralizationRatio",
      "outputs": [
        {
          "internalType": "uint256",
          "name": "",
          "type": "uint256"
        }
      ],
      "stateMutability": "view",
      "type": "function"
    },
    {
      "inputs": [],
      "name": "decimals",
      "outputs": [
        {
          "internalType": "uint8",
          "name": "",
          "type": "uint8"
        }
      ],
      "stateMutability": "view",
      "type": "function"
    },
    {
      "inputs": [
        {
          "internalType": "address",
          "name": "spender",
          "type": "address"
        },
        {
          "internalType": "uint256",
          "name": "subtractedValue",
          "type": "uint256"
        }
      ],
      "name": "decreaseAllowance",
      "outputs": [
        {
          "internalType": "bool",
          "name": "",
          "type": "bool"
        }
      ],
      "stateMutability": "nonpayable",
      "type": "function"
    },
    {
      "inputs": [
        {
          "internalType": "address",
          "name": "_collateralType",
          "type": "address"
        },
        {
          "internalType": "uint256",
          "name": "_amount",
          "type": "uint256"
        }
      ],
      "name": "depositCollateral",
      "outputs": [],
      "stateMutability": "payable",
      "type": "function"
    },
    {
      "inputs": [],
      "name": "getCollateralizationRatio",
      "outputs": [
        {
          "internalType": "uint256",
          "name": "",
          "type": "uint256"
        }
      ],
      "stateMutability": "view",
      "type": "function"
    },
    {
      "inputs": [],
      "name": "governance",
      "outputs": [
        {
          "internalType": "address",
          "name": "",
          "type": "address"
        }
      ],
      "stateMutability": "view",
      "type": "function"
    },
    {
      "inputs": [
        {
          "internalType": "address",
          "name": "spender",
          "type": "address"
        },
        {
          "internalType": "uint256",
          "name": "addedValue",
          "type": "uint256"
        }
      ],
      "name": "increaseAllowance",
      "outputs": [
        {
          "internalType": "bool",
          "name": "",
          "type": "bool"
        }
      ],
      "stateMutability": "nonpayable",
      "type": "function"
    },
    {
      "inputs": [
        {
          "internalType": "address",
          "name": "_userToliquidate",
          "type": "address"
        },
        {
          "internalType": "address",
          "name": "_collateralType",
          "type": "address"
        },
        {
          "internalType": "uint256",
          "name": "_amount",
          "type": "uint256"
        }
      ],
      "name": "liquidate",
      "outputs": [],
      "stateMutability": "nonpayable",
      "type": "function"
    },
    {
      "inputs": [],
      "name": "liquidationRatio",
      "outputs": [
        {
          "internalType": "uint256",
          "name": "",
          "type": "uint256"
        }
      ],
      "stateMutability": "view",
      "type": "function"
    },
    {
      "inputs": [],
      "name": "name",
      "outputs": [
        {
          "internalType": "string",
          "name": "",
          "type": "string"
        }
      ],
      "stateMutability": "view",
      "type": "function"
    },
    {
      "inputs": [],
      "name": "oracleCHC",
      "outputs": [
        {
          "internalType": "contract AggregatorV3Interface",
          "name": "",
          "type": "address"
        }
      ],
      "stateMutability": "view",
      "type": "function"
    },
    {
      "inputs": [],
      "name": "oracleXAU",
      "outputs": [
        {
          "internalType": "contract AggregatorV3Interface",
          "name": "",
          "type": "address"
        }
      ],
      "stateMutability": "view",
      "type": "function"
    },
    {
      "inputs": [],
      "name": "pair",
      "outputs": [
        {
          "internalType": "contract IUniswapV2Pair",
          "name": "",
          "type": "address"
        }
      ],
      "stateMutability": "view",
      "type": "function"
    },
    {
      "inputs": [],
      "name": "stabilityModule",
      "outputs": [
        {
          "internalType": "contract IStabilityModule",
          "name": "",
          "type": "address"
        }
      ],
      "stateMutability": "view",
      "type": "function"
    },
    {
      "inputs": [],
      "name": "swapRouter",
      "outputs": [
        {
          "internalType": "contract ISwapRouter",
          "name": "",
          "type": "address"
        }
      ],
      "stateMutability": "view",
      "type": "function"
    },
    {
      "inputs": [],
      "name": "swapSolution",
      "outputs": [
        {
          "internalType": "contract ISwap",
          "name": "",
          "type": "address"
        }
      ],
      "stateMutability": "view",
      "type": "function"
    },
    {
      "inputs": [],
      "name": "symbol",
      "outputs": [
        {
          "internalType": "string",
          "name": "",
          "type": "string"
        }
      ],
      "stateMutability": "view",
      "type": "function"
    },
    {
      "inputs": [],
      "name": "totalSupply",
      "outputs": [
        {
          "internalType": "uint256",
          "name": "",
          "type": "uint256"
        }
      ],
      "stateMutability": "view",
      "type": "function"
    },
    {
      "inputs": [
        {
          "internalType": "address",
          "name": "to",
          "type": "address"
        },
        {
          "internalType": "uint256",
          "name": "amount",
          "type": "uint256"
        }
      ],
      "name": "transfer",
      "outputs": [
        {
          "internalType": "bool",
          "name": "",
          "type": "bool"
        }
      ],
      "stateMutability": "nonpayable",
      "type": "function"
    },
    {
      "inputs": [
        {
          "internalType": "address",
          "name": "from",
          "type": "address"
        },
        {
          "internalType": "address",
          "name": "to",
          "type": "address"
        },
        {
          "internalType": "uint256",
          "name": "amount",
          "type": "uint256"
        }
      ],
      "name": "transferFrom",
      "outputs": [
        {
          "internalType": "bool",
          "name": "",
          "type": "bool"
        }
      ],
      "stateMutability": "nonpayable",
      "type": "function"
    },
    {
      "inputs": [],
      "name": "treasury",
      "outputs": [
        {
          "internalType": "address",
          "name": "",
          "type": "address"
        }
      ],
      "stateMutability": "view",
      "type": "function"
    },
    {
      "inputs": [
        {
          "internalType": "uint256",
          "name": "_newReward",
          "type": "uint256"
        }
      ],
      "name": "updateLiquidatorReward",
      "outputs": [],
      "stateMutability": "nonpayable",
      "type": "function"
    },
    {
      "inputs": [
        {
          "internalType": "address",
          "name": "",
          "type": "address"
        },
        {
          "internalType": "address",
          "name": "",
          "type": "address"
        }
      ],
      "name": "userDeposits",
      "outputs": [
        {
          "internalType": "uint256",
          "name": "deposited",
          "type": "uint256"
        },
        {
          "internalType": "uint256",
          "name": "minted",
          "type": "uint256"
        }
      ],
      "stateMutability": "view",
      "type": "function"
    },
    {
      "inputs": [
        {
          "internalType": "address",
          "name": "_collateralType",
          "type": "address"
        },
        {
          "internalType": "uint256",
          "name": "_amount",
          "type": "uint256"
        }
      ],
      "name": "withdrawCollateral",
      "outputs": [],
      "stateMutability": "nonpayable",
      "type": "function"
    },
    {
      "inputs": [],
      "name": "withdrawFees",
      "outputs": [],
      "stateMutability": "nonpayable",
      "type": "function"
    },
    {
      "stateMutability": "payable",
      "type": "receive"
    }
  ],
  "bytecode": "0x60e06040523480156200001157600080fd5b5060405162006b3938038062006b39833981810160405281019062000037919062000b43565b6040518060400160405280600781526020017f43687279737573000000000000000000000000000000000000000000000000008152506040518060400160405280600381526020017f43484300000000000000000000000000000000000000000000000000000000008152508160039080519060200190620000bb92919062000944565b508060049080519060200190620000d492919062000944565b5050506001600581905550600073ffffffffffffffffffffffffffffffffffffffff16826000015173ffffffffffffffffffffffffffffffffffffffff1614156200014b576040517fd92e233d00000000000000000000000000000000000000000000000000000000815260040160405180910390fd5b600073ffffffffffffffffffffffffffffffffffffffff16826020015173ffffffffffffffffffffffffffffffffffffffff161415620001b7576040517fd92e233d00000000000000000000000000000000000000000000000000000000815260040160405180910390fd5b600073ffffffffffffffffffffffffffffffffffffffff16826040015173ffffffffffffffffffffffffffffffffffffffff16141562000223576040517fd92e233d00000000000000000000000000000000000000000000000000000000815260040160405180910390fd5b600073ffffffffffffffffffffffffffffffffffffffff16826060015173ffffffffffffffffffffffffffffffffffffffff1614156200028f576040517fd92e233d00000000000000000000000000000000000000000000000000000000815260040160405180910390fd5b600073ffffffffffffffffffffffffffffffffffffffff16826080015173ffffffffffffffffffffffffffffffffffffffff161415620002fb576040517fd92e233d00000000000000000000000000000000000000000000000000000000815260040160405180910390fd5b600073ffffffffffffffffffffffffffffffffffffffff168260a0015173ffffffffffffffffffffffffffffffffffffffff16141562000367576040517fd92e233d00000000000000000000000000000000000000000000000000000000815260040160405180910390fd5b600073ffffffffffffffffffffffffffffffffffffffff168260c0015173ffffffffffffffffffffffffffffffffffffffff161415620003d3576040517fd92e233d00000000000000000000000000000000000000000000000000000000815260040160405180910390fd5b600073ffffffffffffffffffffffffffffffffffffffff168260e0015173ffffffffffffffffffffffffffffffffffffffff1614156200043f576040517fd92e233d00000000000000000000000000000000000000000000000000000000815260040160405180910390fd5b600073ffffffffffffffffffffffffffffffffffffffff1682610120015173ffffffffffffffffffffffffffffffffffffffff161415620004ac576040517fd92e233d00000000000000000000000000000000000000000000000000000000815260040160405180910390fd5b600073ffffffffffffffffffffffffffffffffffffffff1682610140015173ffffffffffffffffffffffffffffffffffffffff16141562000519576040517fd92e233d00000000000000000000000000000000000000000000000000000000815260040160405180910390fd5b63068e77806006819055508060088190555062000548826000015161010b84602001516200077660201b60201c565b620005616000607884604001516200077660201b60201c565b8160600151600e60006101000a81548173ffffffffffffffffffffffffffffffffffffffff021916908373ffffffffffffffffffffffffffffffffffffffff1602179055508160800151600f60006101000a81548173ffffffffffffffffffffffffffffffffffffffff021916908373ffffffffffffffffffffffffffffffffffffffff1602179055508160a00151600a60006101000a81548173ffffffffffffffffffffffffffffffffffffffff021916908373ffffffffffffffffffffffffffffffffffffffff1602179055508160c00151600b60006101000a81548173ffffffffffffffffffffffffffffffffffffffff021916908373ffffffffffffffffffffffffffffffffffffffff1602179055508160e00151600c60006101000a81548173ffffffffffffffffffffffffffffffffffffffff021916908373ffffffffffffffffffffffffffffffffffffffff16021790555081610100015173ffffffffffffffffffffffffffffffffffffffff1660808173ffffffffffffffffffffffffffffffffffffffff1660601b8152505081610120015173ffffffffffffffffffffffffffffffffffffffff1660a08173ffffffffffffffffffffffffffffffffffffffff1660601b8152505081610140015173ffffffffffffffffffffffffffffffffffffffff1660c08173ffffffffffffffffffffffffffffffffffffffff1660601b81525050505062000cfc565b6009839080600181540180825580915050600190039060005260206000200160009091909190916101000a81548173ffffffffffffffffffffffffffffffffffffffff021916908373ffffffffffffffffffffffffffffffffffffffff1602179055506001601260008573ffffffffffffffffffffffffffffffffffffffff1673ffffffffffffffffffffffffffffffffffffffff16815260200190815260200160002060000160006101000a81548160ff02191690831515021790555081601260008573ffffffffffffffffffffffffffffffffffffffff1673ffffffffffffffffffffffffffffffffffffffff1681526020019081526020016000206003018190555080601260008573ffffffffffffffffffffffffffffffffffffffff1673ffffffffffffffffffffffffffffffffffffffff16815260200190815260200160002060040160006101000a81548173ffffffffffffffffffffffffffffffffffffffff021916908373ffffffffffffffffffffffffffffffffffffffff1602179055508273ffffffffffffffffffffffffffffffffffffffff167fc5747b084113a45fa0db9ee3450f0fdf2cac58e149aeb924b9cc46499bf9e95460405160405180910390a2505050565b828054620009529062000bed565b90600052602060002090601f016020900481019282620009765760008555620009c2565b82601f106200099157805160ff1916838001178555620009c2565b82800160010185558215620009c2579182015b82811115620009c1578251825591602001919060010190620009a4565b5b509050620009d19190620009d5565b5090565b5b80821115620009f0576000816000905550600101620009d6565b5090565b60008151905062000a058162000cc8565b92915050565b6000610160828403121562000a1f57600080fd5b62000a2c61016062000b86565b9050600062000a3e84828501620009f4565b600083015250602062000a5484828501620009f4565b602083015250604062000a6a84828501620009f4565b604083015250606062000a8084828501620009f4565b606083015250608062000a9684828501620009f4565b60808301525060a062000aac84828501620009f4565b60a08301525060c062000ac284828501620009f4565b60c08301525060e062000ad884828501620009f4565b60e08301525061010062000aef84828501620009f4565b6101008301525061012062000b0784828501620009f4565b6101208301525061014062000b1f84828501620009f4565b6101408301525092915050565b60008151905062000b3d8162000ce2565b92915050565b600080610180838503121562000b5857600080fd5b600062000b688582860162000a0b565b92505061016062000b7c8582860162000b2c565b9150509250929050565b600062000b9262000ba5565b905062000ba0828262000c23565b919050565b6000604051905090565b600062000bbc8262000bc3565b9050919050565b600073ffffffffffffffffffffffffffffffffffffffff82169050919050565b6000819050919050565b6000600282049050600182168062000c0657607f821691505b6020821081141562000c1d5762000c1c62000c59565b5b50919050565b62000c2e8262000cb7565b810181811067ffffffffffffffff8211171562000c505762000c4f62000c88565b5b80604052505050565b7f4e487b7100000000000000000000000000000000000000000000000000000000600052602260045260246000fd5b7f4e487b7100000000000000000000000000000000000000000000000000000000600052604160045260246000fd5b6000601f19601f8301169050919050565b62000cd38162000baf565b811462000cdf57600080fd5b50565b62000ced8162000be3565b811462000cf957600080fd5b50565b60805160601c60a05160601c60c05160601c615dbe62000d7b60003960008181611b660152818161200d0152612837015260008181611ad001528181611d6201528181611e17015281816122630152818161334201526133ef0152600081816127860152818161383a015281816139b20152613a6b0152615dbe6000f3fe6080604052600436106101e75760003560e01c806361d027b311610102578063a8aa1b3111610095578063dcaf9c4411610064578063dcaf9c4414610730578063dd62ed3e1461075b578063ea061ad414610798578063ef048a78146107c3576101f9565b8063a8aa1b311461065c578063a9059cbb14610687578063b050b672146106c4578063c31c9c0714610705576101f9565b806386ef5738116100d157806386ef5738146105ad57806395d89b41146105d8578063a457c2d714610603578063a5d5db0c14610640576101f9565b806361d027b3146104ef578063694c755f1461051a57806370a08231146105455780637d9f6db514610582576101f9565b8063313ce5671161017a578063476343ee11610149578063476343ee146104595780634a08e688146104705780635319faa51461049b5780635aa6e675146104c4576101f9565b8063313ce5671461038a578063350c35e9146103b557806339509351146103de578063436d80391461041b576101f9565b80631ac55a0a116101b65780631ac55a0a146102bc5780631dafede0146102e757806323b872dd1461032457806326c0130314610361576101f9565b806306fdde03146101fe578063095ea7b3146102295780631775765f1461026657806318160ddd14610291576101f9565b366101f9576101f76000346107ec565b005b600080fd5b34801561020a57600080fd5b50610213610ef3565b6040516102209190615048565b60405180910390f35b34801561023557600080fd5b50610250600480360381019061024b91906147b9565b610f85565b60405161025d9190614f53565b60405180910390f35b34801561027257600080fd5b5061027b610fa8565b6040516102889190615356565b60405180910390f35b34801561029d57600080fd5b506102a6610fae565b6040516102b39190615356565b60405180910390f35b3480156102c857600080fd5b506102d1610fb8565b6040516102de9190614fc1565b60405180910390f35b3480156102f357600080fd5b5061030e6004803603810190610309919061486d565b610fde565b60405161031b9190614e65565b60405180910390f35b34801561033057600080fd5b5061034b6004803603810190610346919061476a565b61101d565b6040516103589190614f53565b60405180910390f35b34801561036d57600080fd5b506103886004803603810190610383919061476a565b61104c565b005b34801561039657600080fd5b5061039f6112b6565b6040516103ac91906153e4565b60405180910390f35b3480156103c157600080fd5b506103dc60048036038101906103d791906147b9565b6112bf565b005b3480156103ea57600080fd5b50610405600480360381019061040091906147b9565b61179a565b6040516104129190614f53565b60405180910390f35b34801561042757600080fd5b50610442600480360381019061043d919061472e565b6117d1565b6040516104509291906153bb565b60405180910390f35b34801561046557600080fd5b5061046e611802565b005b34801561047c57600080fd5b5061048561211e565b6040516104929190614fc1565b60405180910390f35b3480156104a757600080fd5b506104c260048036038101906104bd919061486d565b612144565b005b3480156104d057600080fd5b506104d9612215565b6040516104e69190614e65565b60405180910390f35b3480156104fb57600080fd5b5061050461223b565b6040516105119190614e65565b60405180910390f35b34801561052657600080fd5b5061052f612261565b60405161053c9190615012565b60405180910390f35b34801561055157600080fd5b5061056c600480360381019061056791906146dc565b612285565b6040516105799190615356565b60405180910390f35b34801561058e57600080fd5b506105976122cd565b6040516105a49190614e65565b60405180910390f35b3480156105b957600080fd5b506105c26122f3565b6040516105cf9190615356565b60405180910390f35b3480156105e457600080fd5b506105ed6125cf565b6040516105fa9190615048565b60405180910390f35b34801561060f57600080fd5b5061062a600480360381019061062591906147b9565b612661565b6040516106379190614f53565b60405180910390f35b61065a600480360381019061065591906147b9565b6107ec565b005b34801561066857600080fd5b506106716126d8565b60405161067e919061502d565b60405180910390f35b34801561069357600080fd5b506106ae60048036038101906106a991906147b9565b6126fe565b6040516106bb9190614f53565b60405180910390f35b3480156106d057600080fd5b506106eb60048036038101906106e691906146dc565b612721565b6040516106fc959493929190614f6e565b60405180910390f35b34801561071157600080fd5b5061071a612784565b6040516107279190614ff7565b60405180910390f35b34801561073c57600080fd5b506107456127a8565b6040516107529190615356565b60405180910390f35b34801561076757600080fd5b50610782600480360381019061077d919061472e565b6127ae565b60405161078f9190615356565b60405180910390f35b3480156107a457600080fd5b506107ad612835565b6040516107ba9190614fdc565b60405180910390f35b3480156107cf57600080fd5b506107ea60048036038101906107e591906147f5565b612859565b005b60006107f934600a61298f565b9050600061080883600a61298f565b9050600073ffffffffffffffffffffffffffffffffffffffff168473ffffffffffffffffffffffffffffffffffffffff16141561089c5781601260008073ffffffffffffffffffffffffffffffffffffffff1673ffffffffffffffffffffffffffffffffffffffff16815260200190815260200160002060020160008282546108919190615442565b9250508190556108f5565b80601260008673ffffffffffffffffffffffffffffffffffffffff1673ffffffffffffffffffffffffffffffffffffffff16815260200190815260200160002060020160008282546108ee9190615442565b9250508190555b5080836109029190615523565b601160003373ffffffffffffffffffffffffffffffffffffffff1673ffffffffffffffffffffffffffffffffffffffff16815260200190815260200160002060008673ffffffffffffffffffffffffffffffffffffffff1673ffffffffffffffffffffffffffffffffffffffff16815260200190815260200160002060000160008282546109909190615442565b9250508190555080836109a39190615523565b601260008673ffffffffffffffffffffffffffffffffffffffff1673ffffffffffffffffffffffffffffffffffffffff16815260200190815260200160002060010160008282546109f49190615442565b925050819055506000600e60009054906101000a900473ffffffffffffffffffffffffffffffffffffffff1673ffffffffffffffffffffffffffffffffffffffff1663feaf968c6040518163ffffffff1660e01b815260040160a06040518083038186803b158015610a6557600080fd5b505afa158015610a79573d6000803e3d6000fd5b505050506040513d601f19601f82011682018060405250810190610a9d91906148bf565b5050509150506000600f60009054906101000a900473ffffffffffffffffffffffffffffffffffffffff1673ffffffffffffffffffffffffffffffffffffffff1663feaf968c6040518163ffffffff1660e01b815260040160a06040518083038186803b158015610b0d57600080fd5b505afa158015610b21573d6000803e3d6000fd5b505050506040513d601f19601f82011682018060405250810190610b4591906148bf565b5050509150506000610b57838361298f565b90506000601260008973ffffffffffffffffffffffffffffffffffffffff1673ffffffffffffffffffffffffffffffffffffffff16815260200190815260200160002060040160009054906101000a900473ffffffffffffffffffffffffffffffffffffffff1673ffffffffffffffffffffffffffffffffffffffff1663feaf968c6040518163ffffffff1660e01b815260040160a06040518083038186803b158015610c0357600080fd5b505afa158015610c17573d6000803e3d6000fd5b505050506040513d601f19601f82011682018060405250810190610c3b91906148bf565b5050509150506000610c6382878a610c539190615523565b610c5d91906154c9565b866129d9565b9050610cc961271082610c7691906154c9565b601260008c73ffffffffffffffffffffffffffffffffffffffff1673ffffffffffffffffffffffffffffffffffffffff1681526020019081526020016000206003015485610cc491906154c9565b61298f565b9050610cd36122f3565b60078190555080601160003373ffffffffffffffffffffffffffffffffffffffff1673ffffffffffffffffffffffffffffffffffffffff16815260200190815260200160002060008b73ffffffffffffffffffffffffffffffffffffffff1673ffffffffffffffffffffffffffffffffffffffff1681526020019081526020016000206001016000828254610d689190615442565b92505081905550610d793382612a15565b600073ffffffffffffffffffffffffffffffffffffffff168973ffffffffffffffffffffffffffffffffffffffff1614610e9a5760008973ffffffffffffffffffffffffffffffffffffffff166323b872dd33308c6040518463ffffffff1660e01b8152600401610dec93929190614ea9565b602060405180830381600087803b158015610e0657600080fd5b505af1158015610e1a573d6000803e3d6000fd5b505050506040513d601f19601f82011682018060405250810190610e3e9190614844565b905080610e4a57600080fd5b3373ffffffffffffffffffffffffffffffffffffffff167fd7243f6f8212d5188fd054141cf6ea89cfc0d91facb8c3afe2f88a13584801428a604051610e909190615356565b60405180910390a2505b3373ffffffffffffffffffffffffffffffffffffffff167fd7243f6f8212d5188fd054141cf6ea89cfc0d91facb8c3afe2f88a135848014234604051610ee09190615356565b60405180910390a2505050505050505050565b606060038054610f02906156d4565b80601f0160208091040260200160405190810160405280929190818152602001828054610f2e906156d4565b8015610f7b5780601f10610f5057610100808354040283529160200191610f7b565b820191906000526020600020905b815481529060010190602001808311610f5e57829003601f168201915b5050505050905090565b600080610f90612b6c565b9050610f9d818585612b74565b600191505092915050565b60065481565b6000600254905090565b600f60009054906101000a900473ffffffffffffffffffffffffffffffffffffffff1681565b60098181548110610fee57600080fd5b906000526020600020016000915054906101000a900473ffffffffffffffffffffffffffffffffffffffff1681565b600080611028612b6c565b9050611035858285612d3f565b611040858585612dcb565b60019150509392505050565b611054613043565b600073ffffffffffffffffffffffffffffffffffffffff168373ffffffffffffffffffffffffffffffffffffffff1614156110bb576040517fd92e233d00000000000000000000000000000000000000000000000000000000815260040160405180910390fd5b600073ffffffffffffffffffffffffffffffffffffffff168273ffffffffffffffffffffffffffffffffffffffff161415611122576040517fd92e233d00000000000000000000000000000000000000000000000000000000815260040160405180910390fd5b60008111611165576040517f08c379a000000000000000000000000000000000000000000000000000000000815260040161115c9061519a565b60405180910390fd5b6000601160008573ffffffffffffffffffffffffffffffffffffffff1673ffffffffffffffffffffffffffffffffffffffff16815260200190815260200160002060008473ffffffffffffffffffffffffffffffffffffffff1673ffffffffffffffffffffffffffffffffffffffff1681526020019081526020016000206000015490508082111561122c576040517f08c379a0000000000000000000000000000000000000000000000000000000008152600401611223906152fa565b60405180910390fd5b600c60149054906101000a900460ff1661129d576001600c60146101000a81548160ff02191690831515021790555033600d60006101000a81548173ffffffffffffffffffffffffffffffffffffffff021916908373ffffffffffffffffffffffffffffffffffffffff1602179055505b6112a8848484613093565b506112b1613d24565b505050565b60006012905090565b6112c7613043565b6112d130826126fe565b506000600e60009054906101000a900473ffffffffffffffffffffffffffffffffffffffff1673ffffffffffffffffffffffffffffffffffffffff1663feaf968c6040518163ffffffff1660e01b815260040160a06040518083038186803b15801561133c57600080fd5b505afa158015611350573d6000803e3d6000fd5b505050506040513d601f19601f8201168201806040525081019061137491906148bf565b5050509150506000601260008573ffffffffffffffffffffffffffffffffffffffff1673ffffffffffffffffffffffffffffffffffffffff16815260200190815260200160002060040160009054906101000a900473ffffffffffffffffffffffffffffffffffffffff1673ffffffffffffffffffffffffffffffffffffffff1663feaf968c6040518163ffffffff1660e01b815260040160a06040518083038186803b15801561142457600080fd5b505afa158015611438573d6000803e3d6000fd5b505050506040513d601f19601f8201168201806040525081019061145c91906148bf565b5050509150506000611479828561147391906154c9565b8461298f565b905083601160003373ffffffffffffffffffffffffffffffffffffffff1673ffffffffffffffffffffffffffffffffffffffff16815260200190815260200160002060008773ffffffffffffffffffffffffffffffffffffffff1673ffffffffffffffffffffffffffffffffffffffff168152602001908152602001600020600001600082825461150a9190615523565b9250508190555080601160003373ffffffffffffffffffffffffffffffffffffffff1673ffffffffffffffffffffffffffffffffffffffff16815260200190815260200160002060008773ffffffffffffffffffffffffffffffffffffffff1673ffffffffffffffffffffffffffffffffffffffff16815260200190815260200160002060010160008282546115a09190615523565b925050819055506115b13085613d2e565b6115b96122f3565b600781905550600073ffffffffffffffffffffffffffffffffffffffff168573ffffffffffffffffffffffffffffffffffffffff1614156116a65760003373ffffffffffffffffffffffffffffffffffffffff168260405161161a90614e50565b60006040518083038185875af1925050503d8060008114611657576040519150601f19603f3d011682016040523d82523d6000602084013e61165c565b606091505b50509050806116a0576040517f08c379a00000000000000000000000000000000000000000000000000000000081526004016116979061529a565b60405180910390fd5b5061173d565b8473ffffffffffffffffffffffffffffffffffffffff1663a9059cbb33836040518363ffffffff1660e01b81526004016116e1929190614f2a565b602060405180830381600087803b1580156116fb57600080fd5b505af115801561170f573d6000803e3d6000fd5b505050506040513d601f19601f820116820180604052508101906117339190614844565b61173c57600080fd5b5b3373ffffffffffffffffffffffffffffffffffffffff167fc30fcfbcaac9e0deffa719714eaa82396ff506a0d0d0eebe170830177288715d856040516117839190615356565b60405180910390a2505050611796613d24565b5050565b6000806117a5612b6c565b90506117c68185856117b785896127ae565b6117c19190615442565b612b74565b600191505092915050565b6011602052816000526040600020602052806000526040600020600091509150508060000154908060010154905082565b6000600a60009054906101000a900473ffffffffffffffffffffffffffffffffffffffff1673ffffffffffffffffffffffffffffffffffffffff166385f2aef26040518163ffffffff1660e01b8152600401602060405180830381600087803b15801561186e57600080fd5b505af1158015611882573d6000803e3d6000fd5b505050506040513d601f19601f820116820180604052508101906118a69190614705565b90508073ffffffffffffffffffffffffffffffffffffffff163373ffffffffffffffffffffffffffffffffffffffff16146118e057600080fd5b600080600090505b600980549050811015612119576009818154811061192f577f4e487b7100000000000000000000000000000000000000000000000000000000600052603260045260246000fd5b9060005260206000200160009054906101000a900473ffffffffffffffffffffffffffffffffffffffff1691506000601260008473ffffffffffffffffffffffffffffffffffffffff1673ffffffffffffffffffffffffffffffffffffffff1681526020019081526020016000206002015490506000601260008573ffffffffffffffffffffffffffffffffffffffff1673ffffffffffffffffffffffffffffffffffffffff16815260200190815260200160002060020181905550600073ffffffffffffffffffffffffffffffffffffffff168373ffffffffffffffffffffffffffffffffffffffff161415611c71576000600b60009054906101000a900473ffffffffffffffffffffffffffffffffffffffff1673ffffffffffffffffffffffffffffffffffffffff16611a72611a6a84610bb8613efc565b6127106129d9565b604051611a7e90614e50565b60006040518083038185875af1925050503d8060008114611abb576040519150601f19603f3d011682016040523d82523d6000602084013e611ac0565b606091505b5050905080611ace57600080fd5b7f000000000000000000000000000000000000000000000000000000000000000073ffffffffffffffffffffffffffffffffffffffff16611b1083600561298f565b604051611b1c90614e50565b60006040518083038185875af1925050503d8060008114611b59576040519150601f19603f3d011682016040523d82523d6000602084013e611b5e565b606091505b5050809150507f000000000000000000000000000000000000000000000000000000000000000073ffffffffffffffffffffffffffffffffffffffff16611bb2611baa84611388613efc565b6127106129d9565b604051611bbe90614e50565b60006040518083038185875af1925050503d8060008114611bfb576040519150601f19603f3d011682016040523d82523d6000602084013e611c00565b606091505b505080915050611c1d611c1583611388613efc565b6127106129d9565b611c2883600561298f565b611c3f611c3785610bb8613efc565b6127106129d9565b7f367dce06545b3114ffaefdced869369312566226939540f24d07e35d6216fb7760405160405180910390a450612105565b60008373ffffffffffffffffffffffffffffffffffffffff1663a9059cbb600b60009054906101000a900473ffffffffffffffffffffffffffffffffffffffff16611cc9611cc186610bb8613efc565b6127106129d9565b6040518363ffffffff1660e01b8152600401611ce6929190614f2a565b602060405180830381600087803b158015611d0057600080fd5b505af1158015611d14573d6000803e3d6000fd5b505050506040513d601f19601f82011682018060405250810190611d389190614844565b905080611d4457600080fd5b8373ffffffffffffffffffffffffffffffffffffffff1663095ea7b37f0000000000000000000000000000000000000000000000000000000000000000611d98611d90866107d0613efc565b6127106129d9565b6040518363ffffffff1660e01b8152600401611db5929190614f2a565b602060405180830381600087803b158015611dcf57600080fd5b505af1158015611de3573d6000803e3d6000fd5b505050506040513d601f19601f82011682018060405250810190611e079190614844565b905080611e1357600080fd5b60007f000000000000000000000000000000000000000000000000000000000000000073ffffffffffffffffffffffffffffffffffffffff1663e6a4390586306040518363ffffffff1660e01b8152600401611e70929190614e80565b60206040518083038186803b158015611e8857600080fd5b505afa158015611e9c573d6000803e3d6000fd5b505050506040513d601f19601f82011682018060405250810190611ec09190614705565b90506000611ecf84600561298f565b90508573ffffffffffffffffffffffffffffffffffffffff1663095ea7b383836040518363ffffffff1660e01b8152600401611f0c929190614f2a565b602060405180830381600087803b158015611f2657600080fd5b505af1158015611f3a573d6000803e3d6000fd5b505050506040513d601f19601f82011682018060405250810190611f5e9190614844565b508573ffffffffffffffffffffffffffffffffffffffff166323b872dd3084846040518463ffffffff1660e01b8152600401611f9c93929190614ea9565b602060405180830381600087803b158015611fb657600080fd5b505af1158015611fca573d6000803e3d6000fd5b505050506040513d601f19601f82011682018060405250810190611fee9190614844565b508573ffffffffffffffffffffffffffffffffffffffff1663a9059cbb7f000000000000000000000000000000000000000000000000000000000000000061203787600261298f565b6040518363ffffffff1660e01b8152600401612054929190614f2a565b602060405180830381600087803b15801561206e57600080fd5b505af1158015612082573d6000803e3d6000fd5b505050506040513d601f19601f820116820180604052508101906120a69190614844565b92506120b384600261298f565b6120be85600561298f565b6120d56120cd87610bb8613efc565b6127106129d9565b7f367dce06545b3114ffaefdced869369312566226939540f24d07e35d6216fb7760405160405180910390a45050505b50808061211190615706565b9150506118e8565b505050565b600e60009054906101000a900473ffffffffffffffffffffffffffffffffffffffff1681565b600a60009054906101000a900473ffffffffffffffffffffffffffffffffffffffff1673ffffffffffffffffffffffffffffffffffffffff163373ffffffffffffffffffffffffffffffffffffffff16146121d4576040517f08c379a00000000000000000000000000000000000000000000000000000000081526004016121cb9061527a565b60405180910390fd5b806008819055507fc28da06ddf710a5cd48fc295c25d1619f92ae27da86a6255cac789193fbf18cb8160405161220a9190615356565b60405180910390a150565b600a60009054906101000a900473ffffffffffffffffffffffffffffffffffffffff1681565b600b60009054906101000a900473ffffffffffffffffffffffffffffffffffffffff1681565b7f000000000000000000000000000000000000000000000000000000000000000081565b60008060008373ffffffffffffffffffffffffffffffffffffffff1673ffffffffffffffffffffffffffffffffffffffff168152602001908152602001600020549050919050565b600c60009054906101000a900473ffffffffffffffffffffffffffffffffffffffff1681565b600080600e60009054906101000a900473ffffffffffffffffffffffffffffffffffffffff1673ffffffffffffffffffffffffffffffffffffffff1663feaf968c6040518163ffffffff1660e01b815260040160a06040518083038186803b15801561235e57600080fd5b505afa158015612372573d6000803e3d6000fd5b505050506040513d601f19601f8201168201806040525081019061239691906148bf565b50505091505060006123a6610fae565b826123b191906154c9565b905060008114156123ca5763068e7780925050506125cc565b60008060008060005b6009805490508110156125a7576009818154811061241a577f4e487b7100000000000000000000000000000000000000000000000000000000600052603260045260246000fd5b9060005260206000200160009054906101000a900473ffffffffffffffffffffffffffffffffffffffff169450601260008673ffffffffffffffffffffffffffffffffffffffff1673ffffffffffffffffffffffffffffffffffffffff16815260200190815260200160002060040160009054906101000a900473ffffffffffffffffffffffffffffffffffffffff1673ffffffffffffffffffffffffffffffffffffffff1663feaf968c6040518163ffffffff1660e01b815260040160a06040518083038186803b1580156124ef57600080fd5b505afa158015612503573d6000803e3d6000fd5b505050506040513d601f19601f8201168201806040525081019061252791906148bf565b90919293509091509050508094505083601260008773ffffffffffffffffffffffffffffffffffffffff1673ffffffffffffffffffffffffffffffffffffffff1681526020019081526020016000206001015461258491906154c9565b915081836125929190615442565b9250808061259f90615706565b9150506123d3565b506125c36125bd83670de0b6b3a7640000613f40565b8661298f565b96505050505050505b90565b6060600480546125de906156d4565b80601f016020809104026020016040519081016040528092919081815260200182805461260a906156d4565b80156126575780601f1061262c57610100808354040283529160200191612657565b820191906000526020600020905b81548152906001019060200180831161263a57829003601f168201915b5050505050905090565b60008061266c612b6c565b9050600061267a82866127ae565b9050838110156126bf576040517f08c379a00000000000000000000000000000000000000000000000000000000081526004016126b6906152da565b60405180910390fd5b6126cc8286868403612b74565b60019250505092915050565b601060009054906101000a900473ffffffffffffffffffffffffffffffffffffffff1681565b600080612709612b6c565b9050612716818585612dcb565b600191505092915050565b60126020528060005260406000206000915090508060000160009054906101000a900460ff16908060010154908060020154908060030154908060040160009054906101000a900473ffffffffffffffffffffffffffffffffffffffff16905085565b7f000000000000000000000000000000000000000000000000000000000000000081565b60075481565b6000600160008473ffffffffffffffffffffffffffffffffffffffff1673ffffffffffffffffffffffffffffffffffffffff16815260200190815260200160002060008373ffffffffffffffffffffffffffffffffffffffff1673ffffffffffffffffffffffffffffffffffffffff16815260200190815260200160002054905092915050565b7f000000000000000000000000000000000000000000000000000000000000000081565b600a60009054906101000a900473ffffffffffffffffffffffffffffffffffffffff1673ffffffffffffffffffffffffffffffffffffffff163373ffffffffffffffffffffffffffffffffffffffff16146128e9576040517f08c379a00000000000000000000000000000000000000000000000000000000081526004016128e09061527a565b60405180910390fd5b60001515601260008573ffffffffffffffffffffffffffffffffffffffff1673ffffffffffffffffffffffffffffffffffffffff16815260200190815260200160002060000160009054906101000a900460ff1615151461297f576040517f08c379a00000000000000000000000000000000000000000000000000000000081526004016129769061521a565b60405180910390fd5b61298a838383613fad565b505050565b60006129d183836040518060400160405280601a81526020017f536166654d6174683a206469766973696f6e206279207a65726f00000000000081525061417b565b905092915050565b600081612a036129f185670de0b6b3a7640000613f40565b6002856129fe9190615498565b6141de565b612a0d9190615498565b905092915050565b600073ffffffffffffffffffffffffffffffffffffffff168273ffffffffffffffffffffffffffffffffffffffff161415612a85576040517f08c379a0000000000000000000000000000000000000000000000000000000008152600401612a7c9061531a565b60405180910390fd5b612a9160008383614237565b8060026000828254612aa39190615442565b92505081905550806000808473ffffffffffffffffffffffffffffffffffffffff1673ffffffffffffffffffffffffffffffffffffffff168152602001908152602001600020600082825401925050819055508173ffffffffffffffffffffffffffffffffffffffff16600073ffffffffffffffffffffffffffffffffffffffff167fddf252ad1be2c89b69c2b068fc378daa952ba7f163c4a11628f55a4df523b3ef83604051612b549190615356565b60405180910390a3612b686000838361423c565b5050565b600033905090565b600073ffffffffffffffffffffffffffffffffffffffff168373ffffffffffffffffffffffffffffffffffffffff161415612be4576040517f08c379a0000000000000000000000000000000000000000000000000000000008152600401612bdb9061525a565b60405180910390fd5b600073ffffffffffffffffffffffffffffffffffffffff168273ffffffffffffffffffffffffffffffffffffffff161415612c54576040517f08c379a0000000000000000000000000000000000000000000000000000000008152600401612c4b906150fa565b60405180910390fd5b80600160008573ffffffffffffffffffffffffffffffffffffffff1673ffffffffffffffffffffffffffffffffffffffff16815260200190815260200160002060008473ffffffffffffffffffffffffffffffffffffffff1673ffffffffffffffffffffffffffffffffffffffff168152602001908152602001600020819055508173ffffffffffffffffffffffffffffffffffffffff168373ffffffffffffffffffffffffffffffffffffffff167f8c5be1e5ebec7d5bd14f71427d1e84f3dd0314c0f7b2291e5b200ac8c7c3b92583604051612d329190615356565b60405180910390a3505050565b6000612d4b84846127ae565b90507fffffffffffffffffffffffffffffffffffffffffffffffffffffffffffffffff8114612dc55781811015612db7576040517f08c379a0000000000000000000000000000000000000000000000000000000008152600401612dae9061515a565b60405180910390fd5b612dc48484848403612b74565b5b50505050565b600073ffffffffffffffffffffffffffffffffffffffff168373ffffffffffffffffffffffffffffffffffffffff161415612e3b576040517f08c379a0000000000000000000000000000000000000000000000000000000008152600401612e329061523a565b60405180910390fd5b600073ffffffffffffffffffffffffffffffffffffffff168273ffffffffffffffffffffffffffffffffffffffff161415612eab576040517f08c379a0000000000000000000000000000000000000000000000000000000008152600401612ea29061509a565b60405180910390fd5b612eb6838383614237565b60008060008573ffffffffffffffffffffffffffffffffffffffff1673ffffffffffffffffffffffffffffffffffffffff16815260200190815260200160002054905081811015612f3c576040517f08c379a0000000000000000000000000000000000000000000000000000000008152600401612f339061517a565b60405180910390fd5b8181036000808673ffffffffffffffffffffffffffffffffffffffff1673ffffffffffffffffffffffffffffffffffffffff16815260200190815260200160002081905550816000808573ffffffffffffffffffffffffffffffffffffffff1673ffffffffffffffffffffffffffffffffffffffff168152602001908152602001600020600082825401925050819055508273ffffffffffffffffffffffffffffffffffffffff168473ffffffffffffffffffffffffffffffffffffffff167fddf252ad1be2c89b69c2b068fc378daa952ba7f163c4a11628f55a4df523b3ef8460405161302a9190615356565b60405180910390a361303d84848461423c565b50505050565b60026005541415613089576040517f08c379a0000000000000000000000000000000000000000000000000000000008152600401613080906152ba565b60405180910390fd5b6002600581905550565b61309b6122f3565b600781905550600654600754106130e7576040517f08c379a00000000000000000000000000000000000000000000000000000000081526004016130de906151ba565b60405180910390fd5b6000601260008473ffffffffffffffffffffffffffffffffffffffff1673ffffffffffffffffffffffffffffffffffffffff16815260200190815260200160002060040160009054906101000a900473ffffffffffffffffffffffffffffffffffffffff1673ffffffffffffffffffffffffffffffffffffffff1663feaf968c6040518163ffffffff1660e01b815260040160a06040518083038186803b15801561319157600080fd5b505afa1580156131a5573d6000803e3d6000fd5b505050506040513d601f19601f820116820180604052508101906131c991906148bf565b5050509150506000600f60009054906101000a900473ffffffffffffffffffffffffffffffffffffffff1673ffffffffffffffffffffffffffffffffffffffff1663feaf968c6040518163ffffffff1660e01b815260040160a06040518083038186803b15801561323957600080fd5b505afa15801561324d573d6000803e3d6000fd5b505050506040513d601f19601f8201168201806040525081019061327191906148bf565b5050509150506000601160008773ffffffffffffffffffffffffffffffffffffffff1673ffffffffffffffffffffffffffffffffffffffff16815260200190815260200160002060008673ffffffffffffffffffffffffffffffffffffffff1673ffffffffffffffffffffffffffffffffffffffff1681526020019081526020016000206001015490506000811161333e576040517f08c379a0000000000000000000000000000000000000000000000000000000008152600401613335906152fa565b60405180910390fd5b60007f000000000000000000000000000000000000000000000000000000000000000073ffffffffffffffffffffffffffffffffffffffff1663e6a4390530886040518363ffffffff1660e01b815260040161339b929190614e80565b60206040518083038186803b1580156133b357600080fd5b505afa1580156133c7573d6000803e3d6000fd5b505050506040513d601f19601f820116820180604052508101906133eb9190614705565b90507f000000000000000000000000000000000000000000000000000000000000000073ffffffffffffffffffffffffffffffffffffffff166310d1e85c826000886040518463ffffffff1660e01b815260040161344b93929190614ee0565b602060405180830381600087803b15801561346557600080fd5b505af1158015613479573d6000803e3d6000fd5b505050506040513d601f19601f8201168201806040525081019061349d9190614844565b6134a657600080fd5b60006305f5e1006064600654886134bd91906154c9565b6134c79190615498565b6134d19190615498565b90506135256040518060400160405280601781526020017f6c697175696461746f724f6e6554696d65526577617264000000000000000000815250670de0b6b3a7640000836135209190615498565b614241565b6135776040518060400160405280600781526020017f5f616d6f756e7400000000000000000000000000000000000000000000000000815250670de0b6b3a7640000886135729190615498565b614241565b6135b56040518060400160405280600681526020017f73776170203100000000000000000000000000000000000000000000000000008152506142dd565b6136106040518060400160405280600b81526020017f616c6c6f77616e63653a20000000000000000000000000000000000000000000815250670de0b6b3a76400006136018b306127ae565b61360b9190615498565b614241565b61366a6040518060400160405280600d81526020017f4348432062616c616e63653a2000000000000000000000000000000000000000815250670de0b6b3a764000061365b8b612285565b6136659190615498565b614241565b600061367583612285565b90508273ffffffffffffffffffffffffffffffffffffffff1663022c0d9f838961369f9190615523565b60008c6040518463ffffffff1660e01b81526004016136c093929190615371565b600060405180830381600087803b1580156136da57600080fd5b505af11580156136ee573d6000803e3d6000fd5b505050503073ffffffffffffffffffffffffffffffffffffffff166323b872dd8a858a6040518463ffffffff1660e01b815260040161372f93929190614ea9565b602060405180830381600087803b15801561374957600080fd5b505af115801561375d573d6000803e3d6000fd5b505050506040513d601f19601f820116820180604052508101906137819190614844565b508273ffffffffffffffffffffffffffffffffffffffff1663022c0d9f836000600d60009054906101000a900473ffffffffffffffffffffffffffffffffffffffff166040518463ffffffff1660e01b81526004016137e293929190615371565b600060405180830381600087803b1580156137fc57600080fd5b505af1158015613810573d6000803e3d6000fd5b5050505060008161382085612285565b61382a9190615523565b905087811015613d185761385f307f00000000000000000000000000000000000000000000000000000000000000008a614376565b61271086606489601160008f73ffffffffffffffffffffffffffffffffffffffff1673ffffffffffffffffffffffffffffffffffffffff16815260200190815260200160002060008e73ffffffffffffffffffffffffffffffffffffffff1673ffffffffffffffffffffffffffffffffffffffff168152602001908152602001600020600101546138f091906154c9565b6138fa91906154c9565b6139049190615498565b61390e9190615498565b945060006040518061010001604052803073ffffffffffffffffffffffffffffffffffffffff1681526020018b73ffffffffffffffffffffffffffffffffffffffff168152602001610bb862ffffff1681526020018c73ffffffffffffffffffffffffffffffffffffffff1681526020014281526020018781526020018a8152602001600073ffffffffffffffffffffffffffffffffffffffff16815250905060007f000000000000000000000000000000000000000000000000000000000000000073ffffffffffffffffffffffffffffffffffffffff1663db3e2198836040518263ffffffff1660e01b8152600401613a09919061533a565b602060405180830381600087803b158015613a2357600080fd5b505af1158015613a37573d6000803e3d6000fd5b505050506040513d601f19601f82011682018060405250810190613a5b9190614896565b905089811015613aab57613a918b7f00000000000000000000000000000000000000000000000000000000000000006000614376565b613aa7308d838d613aa29190615523565b6144cb565b8099505b89601160008e73ffffffffffffffffffffffffffffffffffffffff1673ffffffffffffffffffffffffffffffffffffffff16815260200190815260200160002060008d73ffffffffffffffffffffffffffffffffffffffff1673ffffffffffffffffffffffffffffffffffffffff1681526020019081526020016000206001016000828254613b3a9190615523565b925050819055506000601160008e73ffffffffffffffffffffffffffffffffffffffff1673ffffffffffffffffffffffffffffffffffffffff16815260200190815260200160002060008d73ffffffffffffffffffffffffffffffffffffffff1673ffffffffffffffffffffffffffffffffffffffff1681526020019081526020016000206001015490506000811115613c2a57613bfa600c60009054906101000a900473ffffffffffffffffffffffffffffffffffffffff1682610f85565b50613c288d600c60009054906101000a900473ffffffffffffffffffffffffffffffffffffffff168361101d565b505b6000601160008f73ffffffffffffffffffffffffffffffffffffffff1673ffffffffffffffffffffffffffffffffffffffff16815260200190815260200160002060008e73ffffffffffffffffffffffffffffffffffffffff1673ffffffffffffffffffffffffffffffffffffffff168152602001908152602001600020600101819055508c73ffffffffffffffffffffffffffffffffffffffff168773ffffffffffffffffffffffffffffffffffffffff167fde0aa27286f5cb3a4ed853dc4823ead62d63e92cdf13de09d6aece56970721a48d604051613d0c9190615356565b60405180910390a35050505b50505050505050505050565b6001600581905550565b600073ffffffffffffffffffffffffffffffffffffffff168273ffffffffffffffffffffffffffffffffffffffff161415613d9e576040517f08c379a0000000000000000000000000000000000000000000000000000000008152600401613d95906151fa565b60405180910390fd5b613daa82600083614237565b60008060008473ffffffffffffffffffffffffffffffffffffffff1673ffffffffffffffffffffffffffffffffffffffff16815260200190815260200160002054905081811015613e30576040517f08c379a0000000000000000000000000000000000000000000000000000000008152600401613e27906150da565b60405180910390fd5b8181036000808573ffffffffffffffffffffffffffffffffffffffff1673ffffffffffffffffffffffffffffffffffffffff1681526020019081526020016000208190555081600260008282540392505081905550600073ffffffffffffffffffffffffffffffffffffffff168373ffffffffffffffffffffffffffffffffffffffff167fddf252ad1be2c89b69c2b068fc378daa952ba7f163c4a11628f55a4df523b3ef84604051613ee39190615356565b60405180910390a3613ef78360008461423c565b505050565b6000670de0b6b3a7640000613f2e613f148585613f40565b6002670de0b6b3a7640000613f299190615498565b6141de565b613f389190615498565b905092915050565b600080821480613f68575082828385613f5991906154c9565b925082613f669190615498565b145b613fa7576040517f08c379a0000000000000000000000000000000000000000000000000000000008152600401613f9e9061511a565b60405180910390fd5b92915050565b6009839080600181540180825580915050600190039060005260206000200160009091909190916101000a81548173ffffffffffffffffffffffffffffffffffffffff021916908373ffffffffffffffffffffffffffffffffffffffff1602179055506001601260008573ffffffffffffffffffffffffffffffffffffffff1673ffffffffffffffffffffffffffffffffffffffff16815260200190815260200160002060000160006101000a81548160ff02191690831515021790555081601260008573ffffffffffffffffffffffffffffffffffffffff1673ffffffffffffffffffffffffffffffffffffffff1681526020019081526020016000206003018190555080601260008573ffffffffffffffffffffffffffffffffffffffff1673ffffffffffffffffffffffffffffffffffffffff16815260200190815260200160002060040160006101000a81548173ffffffffffffffffffffffffffffffffffffffff021916908373ffffffffffffffffffffffffffffffffffffffff1602179055508273ffffffffffffffffffffffffffffffffffffffff167fc5747b084113a45fa0db9ee3450f0fdf2cac58e149aeb924b9cc46499bf9e95460405160405180910390a2505050565b600080831182906141c2576040517f08c379a00000000000000000000000000000000000000000000000000000000081526004016141b99190615048565b60405180910390fd5b50600083856141d19190615498565b9050809150509392505050565b60008282846141ed9190615442565b9150811015614231576040517f08c379a00000000000000000000000000000000000000000000000000000000081526004016142289061513a565b60405180910390fd5b92915050565b505050565b505050565b6142d9828260405160240161425792919061506a565b6040516020818303038152906040527fb60e72cc000000000000000000000000000000000000000000000000000000007bffffffffffffffffffffffffffffffffffffffffffffffffffffffff19166020820180517bffffffffffffffffffffffffffffffffffffffffffffffffffffffff8381831617835250505050614620565b5050565b614373816040516024016142f19190615048565b6040516020818303038152906040527f41304fac000000000000000000000000000000000000000000000000000000007bffffffffffffffffffffffffffffffffffffffffffffffffffffffff19166020820180517bffffffffffffffffffffffffffffffffffffffffffffffffffffffff8381831617835250505050614620565b50565b6000808473ffffffffffffffffffffffffffffffffffffffff1663095ea7b360e01b85856040516024016143ab929190614f2a565b604051602081830303815290604052907bffffffffffffffffffffffffffffffffffffffffffffffffffffffff19166020820180517bffffffffffffffffffffffffffffffffffffffffffffffffffffffff83818316178352505050506040516144159190614e39565b6000604051808303816000865af19150503d8060008114614452576040519150601f19603f3d011682016040523d82523d6000602084013e614457565b606091505b509150915081801561448557506000815114806144845750808060200190518101906144839190614844565b5b5b6144c4576040517f08c379a00000000000000000000000000000000000000000000000000000000081526004016144bb906150ba565b60405180910390fd5b5050505050565b6000808473ffffffffffffffffffffffffffffffffffffffff1663a9059cbb60e01b8585604051602401614500929190614f2a565b604051602081830303815290604052907bffffffffffffffffffffffffffffffffffffffffffffffffffffffff19166020820180517bffffffffffffffffffffffffffffffffffffffffffffffffffffffff838183161783525050505060405161456a9190614e39565b6000604051808303816000865af19150503d80600081146145a7576040519150601f19603f3d011682016040523d82523d6000602084013e6145ac565b606091505b50915091508180156145da57506000815114806145d95750808060200190518101906145d89190614844565b5b5b614619576040517f08c379a0000000000000000000000000000000000000000000000000000000008152600401614610906151da565b60405180910390fd5b5050505050565b60008151905060006a636f6e736f6c652e6c6f679050602083016000808483855afa5050505050565b60008135905061465881615d15565b92915050565b60008151905061466d81615d15565b92915050565b60008151905061468281615d2c565b92915050565b60008151905061469781615d43565b92915050565b6000813590506146ac81615d5a565b92915050565b6000815190506146c181615d5a565b92915050565b6000815190506146d681615d71565b92915050565b6000602082840312156146ee57600080fd5b60006146fc84828501614649565b91505092915050565b60006020828403121561471757600080fd5b60006147258482850161465e565b91505092915050565b6000806040838503121561474157600080fd5b600061474f85828601614649565b925050602061476085828601614649565b9150509250929050565b60008060006060848603121561477f57600080fd5b600061478d86828701614649565b935050602061479e86828701614649565b92505060406147af8682870161469d565b9150509250925092565b600080604083850312156147cc57600080fd5b60006147da85828601614649565b92505060206147eb8582860161469d565b9150509250929050565b60008060006060848603121561480a57600080fd5b600061481886828701614649565b93505060206148298682870161469d565b925050604061483a86828701614649565b9150509250925092565b60006020828403121561485657600080fd5b600061486484828501614673565b91505092915050565b60006020828403121561487f57600080fd5b600061488d8482850161469d565b91505092915050565b6000602082840312156148a857600080fd5b60006148b6848285016146b2565b91505092915050565b600080600080600060a086880312156148d757600080fd5b60006148e5888289016146c7565b95505060206148f688828901614688565b9450506040614907888289016146b2565b9350506060614918888289016146b2565b9250506080614929888289016146c7565b9150509295509295909350565b61493f81615557565b82525050565b61494e81615557565b82525050565b61495d81615569565b82525050565b600061496e826153ff565b6149788185615426565b93506149888185602086016156a1565b80840191505092915050565b61499d816155db565b82525050565b6149ac816155ff565b82525050565b6149bb81615623565b82525050565b6149ca81615647565b82525050565b6149d98161566b565b82525050565b6149e88161568f565b82525050565b60006149f98261540a565b614a038185615431565b9350614a138185602086016156a1565b614a1c816157dc565b840191505092915050565b6000614a34602383615431565b9150614a3f826157ed565b604082019050919050565b6000614a57600283615431565b9150614a628261583c565b602082019050919050565b6000614a7a602283615431565b9150614a8582615865565b604082019050919050565b6000614a9d602283615431565b9150614aa8826158b4565b604082019050919050565b6000614ac0601483615431565b9150614acb82615903565b602082019050919050565b6000614ae3601483615431565b9150614aee8261592c565b602082019050919050565b6000614b06601d83615431565b9150614b1182615955565b602082019050919050565b6000614b29602683615431565b9150614b348261597e565b604082019050919050565b6000614b4c601383615431565b9150614b57826159cd565b602082019050919050565b6000614b6f601983615431565b9150614b7a826159f6565b602082019050919050565b6000614b92600283615431565b9150614b9d82615a1f565b602082019050919050565b6000614bb5602183615431565b9150614bc082615a48565b604082019050919050565b6000614bd8602583615431565b9150614be382615a97565b604082019050919050565b6000614bfb602583615431565b9150614c0682615ae6565b604082019050919050565b6000614c1e600083615415565b9150614c2982615b35565b600082019050919050565b6000614c41600083615426565b9150614c4c82615b35565b600082019050919050565b6000614c64602483615431565b9150614c6f82615b38565b604082019050919050565b6000614c87602483615431565b9150614c9282615b87565b604082019050919050565b6000614caa602b83615431565b9150614cb582615bd6565b604082019050919050565b6000614ccd601f83615431565b9150614cd882615c25565b602082019050919050565b6000614cf0602583615431565b9150614cfb82615c4e565b604082019050919050565b6000614d13602283615431565b9150614d1e82615c9d565b604082019050919050565b6000614d36601f83615431565b9150614d4182615cec565b602082019050919050565b61010082016000820151614d636000850182614936565b506020820151614d766020850182614936565b506040820151614d896040850182614dfd565b506060820151614d9c6060850182614936565b506080820151614daf6080850182614e0c565b5060a0820151614dc260a0850182614e0c565b5060c0820151614dd560c0850182614e0c565b5060e0820151614de860e0850182614dee565b50505050565b614df78161557f565b82525050565b614e068161559f565b82525050565b614e15816155ae565b82525050565b614e24816155ae565b82525050565b614e33816155b8565b82525050565b6000614e458284614963565b915081905092915050565b6000614e5b82614c34565b9150819050919050565b6000602082019050614e7a6000830184614945565b92915050565b6000604082019050614e956000830185614945565b614ea26020830184614945565b9392505050565b6000606082019050614ebe6000830186614945565b614ecb6020830185614945565b614ed86040830184614e1b565b949350505050565b6000608082019050614ef56000830186614945565b614f0260208301856149df565b614f0f6040830184614e1b565b8181036060830152614f2081614c11565b9050949350505050565b6000604082019050614f3f6000830185614945565b614f4c6020830184614e1b565b9392505050565b6000602082019050614f686000830184614954565b92915050565b600060a082019050614f836000830188614954565b614f906020830187614e1b565b614f9d6040830186614e1b565b614faa6060830185614e1b565b614fb76080830184614994565b9695505050505050565b6000602082019050614fd66000830184614994565b92915050565b6000602082019050614ff160008301846149a3565b92915050565b600060208201905061500c60008301846149b2565b92915050565b600060208201905061502760008301846149c1565b92915050565b600060208201905061504260008301846149d0565b92915050565b6000602082019050818103600083015261506281846149ee565b905092915050565b6000604082019050818103600083015261508481856149ee565b90506150936020830184614e1b565b9392505050565b600060208201905081810360008301526150b381614a27565b9050919050565b600060208201905081810360008301526150d381614a4a565b9050919050565b600060208201905081810360008301526150f381614a6d565b9050919050565b6000602082019050818103600083015261511381614a90565b9050919050565b6000602082019050818103600083015261513381614ab3565b9050919050565b6000602082019050818103600083015261515381614ad6565b9050919050565b6000602082019050818103600083015261517381614af9565b9050919050565b6000602082019050818103600083015261519381614b1c565b9050919050565b600060208201905081810360008301526151b381614b3f565b9050919050565b600060208201905081810360008301526151d381614b62565b9050919050565b600060208201905081810360008301526151f381614b85565b9050919050565b6000602082019050818103600083015261521381614ba8565b9050919050565b6000602082019050818103600083015261523381614bcb565b9050919050565b6000602082019050818103600083015261525381614bee565b9050919050565b6000602082019050818103600083015261527381614c57565b9050919050565b6000602082019050818103600083015261529381614c7a565b9050919050565b600060208201905081810360008301526152b381614c9d565b9050919050565b600060208201905081810360008301526152d381614cc0565b9050919050565b600060208201905081810360008301526152f381614ce3565b9050919050565b6000602082019050818103600083015261531381614d06565b9050919050565b6000602082019050818103600083015261533381614d29565b9050919050565b6000610100820190506153506000830184614d4c565b92915050565b600060208201905061536b6000830184614e1b565b92915050565b60006080820190506153866000830186614e1b565b61539360208301856149df565b6153a06040830184614945565b81810360608301526153b181614c11565b9050949350505050565b60006040820190506153d06000830185614e1b565b6153dd6020830184614e1b565b9392505050565b60006020820190506153f96000830184614e2a565b92915050565b600081519050919050565b600081519050919050565b600082825260208201905092915050565b600081905092915050565b600082825260208201905092915050565b600061544d826155ae565b9150615458836155ae565b9250827fffffffffffffffffffffffffffffffffffffffffffffffffffffffffffffffff0382111561548d5761548c61574f565b5b828201905092915050565b60006154a3826155ae565b91506154ae836155ae565b9250826154be576154bd61577e565b5b828204905092915050565b60006154d4826155ae565b91506154df836155ae565b9250817fffffffffffffffffffffffffffffffffffffffffffffffffffffffffffffffff04831182151516156155185761551761574f565b5b828202905092915050565b600061552e826155ae565b9150615539836155ae565b92508282101561554c5761554b61574f565b5b828203905092915050565b60006155628261557f565b9050919050565b60008115159050919050565b6000819050919050565b600073ffffffffffffffffffffffffffffffffffffffff82169050919050565b600062ffffff82169050919050565b6000819050919050565b600060ff82169050919050565b600069ffffffffffffffffffff82169050919050565b60006155e6826155ed565b9050919050565b60006155f88261557f565b9050919050565b600061560a82615611565b9050919050565b600061561c8261557f565b9050919050565b600061562e82615635565b9050919050565b60006156408261557f565b9050919050565b600061565282615659565b9050919050565b60006156648261557f565b9050919050565b60006156768261567d565b9050919050565b60006156888261557f565b9050919050565b600061569a826155ae565b9050919050565b60005b838110156156bf5780820151818401526020810190506156a4565b838111156156ce576000848401525b50505050565b600060028204905060018216806156ec57607f821691505b60208210811415615700576156ff6157ad565b5b50919050565b6000615711826155ae565b91507fffffffffffffffffffffffffffffffffffffffffffffffffffffffffffffffff8214156157445761574361574f565b5b600182019050919050565b7f4e487b7100000000000000000000000000000000000000000000000000000000600052601160045260246000fd5b7f4e487b7100000000000000000000000000000000000000000000000000000000600052601260045260246000fd5b7f4e487b7100000000000000000000000000000000000000000000000000000000600052602260045260246000fd5b6000601f19601f8301169050919050565b7f45524332303a207472616e7366657220746f20746865207a65726f206164647260008201527f6573730000000000000000000000000000000000000000000000000000000000602082015250565b7f5341000000000000000000000000000000000000000000000000000000000000600082015250565b7f45524332303a206275726e20616d6f756e7420657863656564732062616c616e60008201527f6365000000000000000000000000000000000000000000000000000000000000602082015250565b7f45524332303a20617070726f766520746f20746865207a65726f20616464726560008201527f7373000000000000000000000000000000000000000000000000000000000000602082015250565b7f64732d6d6174682d6d756c2d6f766572666c6f77000000000000000000000000600082015250565b7f64732d6d6174682d6164642d6f766572666c6f77000000000000000000000000600082015250565b7f45524332303a20696e73756666696369656e7420616c6c6f77616e6365000000600082015250565b7f45524332303a207472616e7366657220616d6f756e742065786365656473206260008201527f616c616e63650000000000000000000000000000000000000000000000000000602082015250565b7f616d6f756e742063616e206e6f74206265203000000000000000000000000000600082015250565b7f63616e6e6f74206c697175696461746520706f736974696f6e00000000000000600082015250565b7f5354000000000000000000000000000000000000000000000000000000000000600082015250565b7f45524332303a206275726e2066726f6d20746865207a65726f2061646472657360008201527f7300000000000000000000000000000000000000000000000000000000000000602082015250565b7f7468697320636f6c6c61746572616c207479706520616c72656164792061707060008201527f726f766564000000000000000000000000000000000000000000000000000000602082015250565b7f45524332303a207472616e736665722066726f6d20746865207a65726f20616460008201527f6472657373000000000000000000000000000000000000000000000000000000602082015250565b50565b7f45524332303a20617070726f76652066726f6d20746865207a65726f2061646460008201527f7265737300000000000000000000000000000000000000000000000000000000602082015250565b7f63616e206f6e6c792062652063616c6c65642062792043475420676f7665726e60008201527f616e636500000000000000000000000000000000000000000000000000000000602082015250565b7f72657475726e206f6620657468657220636f6c6c61746572616c20776173207560008201527f6e7375636365737366756c000000000000000000000000000000000000000000602082015250565b7f5265656e7472616e637947756172643a207265656e7472616e742063616c6c00600082015250565b7f45524332303a2064656372656173656420616c6c6f77616e63652062656c6f7760008201527f207a65726f000000000000000000000000000000000000000000000000000000602082015250565b7f7573657220686173206e6f20706f736974696f6e7320746f206c69717569646160008201527f7465000000000000000000000000000000000000000000000000000000000000602082015250565b7f45524332303a206d696e7420746f20746865207a65726f206164647265737300600082015250565b615d1e81615557565b8114615d2957600080fd5b50565b615d3581615569565b8114615d4057600080fd5b50565b615d4c81615575565b8114615d5757600080fd5b50565b615d63816155ae565b8114615d6e57600080fd5b50565b615d7a816155c5565b8114615d8557600080fd5b5056fea264697066735822122043bfca8a961ccca1cb46df69657a96dfec5948c171e59bdfb50b2204135a8ad764736f6c63430008040033",
  "linkReferences": {},
  "deployedLinkReferences": {}
}