{
  "_format": "hh-sol-artifact-1",
  "contractName": "MockLending",
  "sourceName": "contracts/mocks/MockLending.sol",
  "abi": [
    {
      "inputs": [
        {
          "internalType": "address",
          "name": "_team",
          "type": "address"
        },
        {
          "internalType": "address",
          "name": "_governance",
          "type": "address"
        },
        {
          "internalType": "address",
          "name": "_chc",
          "type": "address"
        }
      ],
      "stateMutability": "nonpayable",
      "type": "constructor"
    },
    {
      "anonymous": false,
      "inputs": [
        {
          "indexed": false,
          "internalType": "address",
          "name": "user",
          "type": "address"
        },
        {
          "indexed": false,
          "internalType": "uint256",
          "name": "amount0",
          "type": "uint256"
        },
        {
          "indexed": false,
          "internalType": "uint256",
          "name": "amount1",
          "type": "uint256"
        },
        {
          "indexed": false,
          "internalType": "uint256",
          "name": "incentive",
          "type": "uint256"
        }
      ],
      "name": "Borrow",
      "type": "event"
    },
    {
      "anonymous": false,
      "inputs": [
        {
          "indexed": false,
          "internalType": "address",
          "name": "user",
          "type": "address"
        },
        {
          "indexed": false,
          "internalType": "uint256",
          "name": "amount",
          "type": "uint256"
        },
        {
          "indexed": false,
          "internalType": "uint256",
          "name": "incentive",
          "type": "uint256"
        }
      ],
      "name": "Lend",
      "type": "event"
    },
    {
      "anonymous": false,
      "inputs": [
        {
          "indexed": true,
          "internalType": "address",
          "name": "liquidator",
          "type": "address"
        },
        {
          "indexed": true,
          "internalType": "address",
          "name": "borrower",
          "type": "address"
        },
        {
          "indexed": false,
          "internalType": "uint256",
          "name": "amountLiquidated",
          "type": "uint256"
        }
      ],
      "name": "Liquidate",
      "type": "event"
    },
    {
      "anonymous": false,
      "inputs": [
        {
          "indexed": false,
          "internalType": "address",
          "name": "user",
          "type": "address"
        },
        {
          "indexed": false,
          "internalType": "uint256",
          "name": "amount",
          "type": "uint256"
        },
        {
          "indexed": false,
          "internalType": "uint256",
          "name": "collateralAmount",
          "type": "uint256"
        }
      ],
      "name": "Repay",
      "type": "event"
    },
    {
      "anonymous": false,
      "inputs": [
        {
          "indexed": false,
          "internalType": "address",
          "name": "user",
          "type": "address"
        },
        {
          "indexed": false,
          "internalType": "uint256",
          "name": "amount",
          "type": "uint256"
        }
      ],
      "name": "Withdraw",
      "type": "event"
    },
    {
      "inputs": [],
      "name": "LOWER_BOUND_INTEREST_RATE",
      "outputs": [
        {
          "internalType": "uint256",
          "name": "",
          "type": "uint256"
        }
      ],
      "stateMutability": "view",
      "type": "function"
    },
    {
      "inputs": [],
      "name": "TARGET_UTILIZATION_RATE",
      "outputs": [
        {
          "internalType": "uint256",
          "name": "",
          "type": "uint256"
        }
      ],
      "stateMutability": "view",
      "type": "function"
    },
    {
      "inputs": [
        {
          "internalType": "uint256",
          "name": "borrowAmount",
          "type": "uint256"
        },
        {
          "internalType": "address",
          "name": "_collateral",
          "type": "address"
        }
      ],
      "name": "borrow",
      "outputs": [],
      "stateMutability": "payable",
      "type": "function"
    },
    {
      "inputs": [
        {
          "internalType": "uint256",
          "name": "_amount",
          "type": "uint256"
        },
        {
          "internalType": "address",
          "name": "_collateral",
          "type": "address"
        }
      ],
      "name": "calculateCollateralAmount",
      "outputs": [
        {
          "internalType": "uint256",
          "name": "",
          "type": "uint256"
        }
      ],
      "stateMutability": "view",
      "type": "function"
    },
    {
      "inputs": [],
      "name": "calculateInterestRate",
      "outputs": [
        {
          "internalType": "uint256",
          "name": "",
          "type": "uint256"
        }
      ],
      "stateMutability": "view",
      "type": "function"
    },
    {
      "inputs": [],
      "name": "calculateUtilizationRate",
      "outputs": [
        {
          "internalType": "uint256",
          "name": "",
          "type": "uint256"
        }
      ],
      "stateMutability": "view",
      "type": "function"
    },
    {
      "inputs": [],
      "name": "getPositions",
      "outputs": [
        {
          "components": [
            {
              "internalType": "bytes32",
              "name": "id",
              "type": "bytes32"
            },
            {
              "internalType": "address",
              "name": "user",
              "type": "address"
            },
            {
              "internalType": "address",
              "name": "collateral",
              "type": "address"
            },
            {
              "internalType": "uint256",
              "name": "borrowedAmount",
              "type": "uint256"
            }
          ],
          "internalType": "struct MockLending.Position[]",
          "name": "",
          "type": "tuple[]"
        }
      ],
      "stateMutability": "view",
      "type": "function"
    },
    {
      "inputs": [
        {
          "internalType": "address",
          "name": "user",
          "type": "address"
        }
      ],
      "name": "getUserPositions",
      "outputs": [
        {
          "components": [
            {
              "internalType": "bytes32",
              "name": "id",
              "type": "bytes32"
            },
            {
              "internalType": "address",
              "name": "user",
              "type": "address"
            },
            {
              "internalType": "address",
              "name": "collateral",
              "type": "address"
            },
            {
              "internalType": "uint256",
              "name": "borrowedAmount",
              "type": "uint256"
            }
          ],
          "internalType": "struct MockLending.Position[]",
          "name": "",
          "type": "tuple[]"
        }
      ],
      "stateMutability": "view",
      "type": "function"
    },
    {
      "inputs": [
        {
          "internalType": "uint256",
          "name": "_amount",
          "type": "uint256"
        }
      ],
      "name": "lend",
      "outputs": [],
      "stateMutability": "nonpayable",
      "type": "function"
    },
    {
      "inputs": [
        {
          "internalType": "address",
          "name": "_borrower",
          "type": "address"
        },
        {
          "internalType": "address",
          "name": "_collateral",
          "type": "address"
        },
        {
          "internalType": "uint256",
          "name": "_amount",
          "type": "uint256"
        },
        {
          "internalType": "bytes32",
          "name": "_positionId",
          "type": "bytes32"
        }
      ],
      "name": "liquidate",
      "outputs": [],
      "stateMutability": "nonpayable",
      "type": "function"
    },
    {
      "inputs": [
        {
          "internalType": "uint256",
          "name": "",
          "type": "uint256"
        }
      ],
      "name": "positions",
      "outputs": [
        {
          "internalType": "bytes32",
          "name": "id",
          "type": "bytes32"
        },
        {
          "internalType": "address",
          "name": "user",
          "type": "address"
        },
        {
          "internalType": "address",
          "name": "collateral",
          "type": "address"
        },
        {
          "internalType": "uint256",
          "name": "borrowedAmount",
          "type": "uint256"
        }
      ],
      "stateMutability": "view",
      "type": "function"
    },
    {
      "inputs": [],
      "name": "rebalanceInterestRate",
      "outputs": [],
      "stateMutability": "nonpayable",
      "type": "function"
    },
    {
      "inputs": [
        {
          "internalType": "address",
          "name": "_collateral",
          "type": "address"
        },
        {
          "internalType": "uint256",
          "name": "amount",
          "type": "uint256"
        },
        {
          "internalType": "bytes32",
          "name": "_positionId",
          "type": "bytes32"
        }
      ],
      "name": "repay",
      "outputs": [],
      "stateMutability": "nonpayable",
      "type": "function"
    },
    {
      "inputs": [],
      "name": "totalBorrowed",
      "outputs": [
        {
          "internalType": "uint256",
          "name": "",
          "type": "uint256"
        }
      ],
      "stateMutability": "view",
      "type": "function"
    },
    {
      "inputs": [],
      "name": "totalSupplied",
      "outputs": [
        {
          "internalType": "uint256",
          "name": "",
          "type": "uint256"
        }
      ],
      "stateMutability": "view",
      "type": "function"
    },
    {
      "inputs": [],
      "name": "upperBoundInterestRate",
      "outputs": [
        {
          "internalType": "uint256",
          "name": "",
          "type": "uint256"
        }
      ],
      "stateMutability": "view",
      "type": "function"
    },
    {
      "inputs": [
        {
          "internalType": "address",
          "name": "",
          "type": "address"
        },
        {
          "internalType": "address",
          "name": "",
          "type": "address"
        }
      ],
      "name": "users",
      "outputs": [
        {
          "internalType": "bytes32",
          "name": "id",
          "type": "bytes32"
        },
        {
          "internalType": "address",
          "name": "user",
          "type": "address"
        },
        {
          "internalType": "address",
          "name": "collateral",
          "type": "address"
        },
        {
          "internalType": "uint256",
          "name": "borrowedAmount",
          "type": "uint256"
        }
      ],
      "stateMutability": "view",
      "type": "function"
    },
    {
      "inputs": [
        {
          "internalType": "uint256",
          "name": "_amount",
          "type": "uint256"
        }
      ],
      "name": "withdraw",
      "outputs": [],
      "stateMutability": "nonpayable",
      "type": "function"
    },
    {
      "stateMutability": "payable",
      "type": "receive"
    }
  ],
  "bytecode": "0x60806040526706f05b59d3b200006003553480156200001d57600080fd5b5060405162003cdb38038062003cdb833981810160405281019062000043919062000125565b816000806101000a81548173ffffffffffffffffffffffffffffffffffffffff021916908373ffffffffffffffffffffffffffffffffffffffff16021790555080600160006101000a81548173ffffffffffffffffffffffffffffffffffffffff021916908373ffffffffffffffffffffffffffffffffffffffff16021790555082600260006101000a81548173ffffffffffffffffffffffffffffffffffffffff021916908373ffffffffffffffffffffffffffffffffffffffff160217905550505050620001c9565b6000815190506200011f81620001af565b92915050565b6000806000606084860312156200013b57600080fd5b60006200014b868287016200010e565b93505060206200015e868287016200010e565b925050604062000171868287016200010e565b9150509250925092565b600062000188826200018f565b9050919050565b600073ffffffffffffffffffffffffffffffffffffffff82169050919050565b620001ba816200017b565b8114620001c657600080fd5b50565b613b0280620001d96000396000f3fe60806040526004361061010c5760003560e01c8063630fd0ac11610095578063a6aa57ce11610064578063a6aa57ce1461038d578063a8b0d2fc146103b6578063bda736b8146103cd578063c183495b146103f8578063d10747fe146104215761011e565b8063630fd0ac146102cc57806380275860146102f757806399fbab88146103225780639d226d0b146103625761011e565b80633a082d8e116100dc5780633a082d8e146101f15780634b3fd1481461021c5780634c19386c146102385780635e80536a14610263578063619a53aa146102a35761011e565b8062fc9080146101235780630f234302146101605780632a6bc2dd1461018b5780632e1a7d4d146101c85761011e565b3661011e5761011c34600061044c565b005b600080fd5b34801561012f57600080fd5b5061014a60048036038101906101459190612cca565b610a83565b604051610157919061336a565b60405180910390f35b34801561016c57600080fd5b50610175610d08565b604051610182919061336a565b60405180910390f35b34801561019757600080fd5b506101b260048036038101906101ad9190612a98565b610d0e565b6040516101bf91906131c1565b60405180910390f35b3480156101d457600080fd5b506101ef60048036038101906101ea9190612c78565b611146565b005b3480156101fd57600080fd5b50610206611362565b604051610213919061336a565b60405180910390f35b61023660048036038101906102319190612cca565b61044c565b005b34801561024457600080fd5b5061024d6113d0565b60405161025a919061336a565b60405180910390f35b34801561026f57600080fd5b5061028a60048036038101906102859190612aea565b6113d6565b60405161029a94939291906131e3565b60405180910390f35b3480156102af57600080fd5b506102ca60048036038101906102c59190612b26565b611453565b005b3480156102d857600080fd5b506102e1611a8a565b6040516102ee919061336a565b60405180910390f35b34801561030357600080fd5b5061030c611a90565b60405161031991906131c1565b60405180910390f35b34801561032e57600080fd5b5061034960048036038101906103449190612c78565b611cfc565b60405161035994939291906131e3565b60405180910390f35b34801561036e57600080fd5b50610377611d7c565b604051610384919061336a565b60405180910390f35b34801561039957600080fd5b506103b460048036038101906103af9190612c78565b611d88565b005b3480156103c257600080fd5b506103cb611fb7565b005b3480156103d957600080fd5b506103e261207d565b6040516103ef919061336a565b60405180910390f35b34801561040457600080fd5b5061041f600480360381019061041a9190612b89565b6120bb565b005b34801561042d57600080fd5b506104366124f8565b604051610443919061336a565b60405180910390f35b6000821161048f576040517f08c379a0000000000000000000000000000000000000000000000000000000008152600401610486906132aa565b60405180910390fd5b81600160009054906101000a900473ffffffffffffffffffffffffffffffffffffffff1673ffffffffffffffffffffffffffffffffffffffff166370a08231306040518263ffffffff1660e01b81526004016104eb91906130ca565b60206040518083038186803b15801561050357600080fd5b505afa158015610517573d6000803e3d6000fd5b505050506040513d601f19601f8201168201806040525081019061053b9190612ca1565b101561057c576040517f08c379a00000000000000000000000000000000000000000000000000000000081526004016105739061332a565b60405180910390fd5b60006105888383610a83565b9050600060045460055461059c91906133e5565b846105a7919061343b565b693f870857a3e0e38000006105bc91906135dd565b905083600460008282546105d09190613637565b9250508190555083600560008282546105e991906133e5565b925050819055506000338584426040516020016106099493929190613067565b604051602081830303815290604052805190602001209050600860405180608001604052808381526020013373ffffffffffffffffffffffffffffffffffffffff1681526020018673ffffffffffffffffffffffffffffffffffffffff1681526020018781525090806001815401808255809150506001900390600052602060002090600402016000909190919091506000820151816000015560208201518160010160006101000a81548173ffffffffffffffffffffffffffffffffffffffff021916908373ffffffffffffffffffffffffffffffffffffffff16021790555060408201518160020160006101000a81548173ffffffffffffffffffffffffffffffffffffffff021916908373ffffffffffffffffffffffffffffffffffffffff160217905550606082015181600301555050600060016008805490506107519190613637565b905060018161076091906133e5565b600760008481526020019081526020016000208190555085600660003373ffffffffffffffffffffffffffffffffffffffff1673ffffffffffffffffffffffffffffffffffffffff16815260200190815260200160002060008773ffffffffffffffffffffffffffffffffffffffff1673ffffffffffffffffffffffffffffffffffffffff168152602001908152602001600020600301600082825461080691906133e5565b92505081905550600073ffffffffffffffffffffffffffffffffffffffff168573ffffffffffffffffffffffffffffffffffffffff16146108e05760008573ffffffffffffffffffffffffffffffffffffffff166323b872dd3330886040518463ffffffff1660e01b8152600401610880939291906130e5565b602060405180830381600087803b15801561089a57600080fd5b505af11580156108ae573d6000803e3d6000fd5b505050506040513d601f19601f820116820180604052508101906108d29190612bd8565b9050806108de57600080fd5b505b600160009054906101000a900473ffffffffffffffffffffffffffffffffffffffff1673ffffffffffffffffffffffffffffffffffffffff1663a9059cbb33886040518363ffffffff1660e01b815260040161093d92919061311c565b602060405180830381600087803b15801561095757600080fd5b505af115801561096b573d6000803e3d6000fd5b505050506040513d601f19601f8201168201806040525081019061098f9190612bd8565b5060008054906101000a900473ffffffffffffffffffffffffffffffffffffffff1673ffffffffffffffffffffffffffffffffffffffff1663a9059cbb33856040518363ffffffff1660e01b81526004016109eb92919061311c565b602060405180830381600087803b158015610a0557600080fd5b505af1158015610a19573d6000803e3d6000fd5b505050506040513d601f19601f82011682018060405250810190610a3d9190612bd8565b507f13ed6866d4e1ee6da46f845c46d7e54120883d75c5ea9a2dacc1c4ca8984ab8033878686604051610a73949392919061317c565b60405180910390a1505050505050565b600080600160009054906101000a900473ffffffffffffffffffffffffffffffffffffffff1673ffffffffffffffffffffffffffffffffffffffff16634a08e6886040518163ffffffff1660e01b815260040160206040518083038186803b158015610aee57600080fd5b505afa158015610b02573d6000803e3d6000fd5b505050506040513d601f19601f82011682018060405250810190610b269190612ac1565b73ffffffffffffffffffffffffffffffffffffffff1663feaf968c6040518163ffffffff1660e01b815260040160a06040518083038186803b158015610b6b57600080fd5b505afa158015610b7f573d6000803e3d6000fd5b505050506040513d601f19601f82011682018060405250810190610ba39190612d06565b5050509150506000600160009054906101000a900473ffffffffffffffffffffffffffffffffffffffff1673ffffffffffffffffffffffffffffffffffffffff1663b050b672856040518263ffffffff1660e01b8152600401610c0691906130ca565b60a06040518083038186803b158015610c1e57600080fd5b505afa158015610c32573d6000803e3d6000fd5b505050506040513d601f19601f82011682018060405250810190610c569190612c01565b94505050505060008173ffffffffffffffffffffffffffffffffffffffff1663feaf968c6040518163ffffffff1660e01b815260040160a06040518083038186803b158015610ca457600080fd5b505afa158015610cb8573d6000803e3d6000fd5b505050506040513d601f19601f82011682018060405250810190610cdc9190612d06565b5050509150506000610cf98288610cf391906135dd565b85612503565b90508094505050505092915050565b60035481565b60606000805b600880549050811015610e3957600060088281548110610d5d577f4e487b7100000000000000000000000000000000000000000000000000000000600052603260045260246000fd5b906000526020600020906004020160030154118015610e1257508373ffffffffffffffffffffffffffffffffffffffff1660088281548110610dc8577f4e487b7100000000000000000000000000000000000000000000000000000000600052603260045260246000fd5b906000526020600020906004020160010160009054906101000a900473ffffffffffffffffffffffffffffffffffffffff1673ffffffffffffffffffffffffffffffffffffffff16145b15610e26578180610e2290613710565b9250505b8080610e3190613710565b915050610d14565b5060008167ffffffffffffffff811115610e7c577f4e487b7100000000000000000000000000000000000000000000000000000000600052604160045260246000fd5b604051908082528060200260200182016040528015610eb557816020015b610ea2612999565b815260200190600190039081610e9a5790505b5090506000915060005b60088054905081101561113b57600060088281548110610f08577f4e487b7100000000000000000000000000000000000000000000000000000000600052603260045260246000fd5b906000526020600020906004020160030154118015610fbd57508473ffffffffffffffffffffffffffffffffffffffff1660088281548110610f73577f4e487b7100000000000000000000000000000000000000000000000000000000600052603260045260246000fd5b906000526020600020906004020160010160009054906101000a900473ffffffffffffffffffffffffffffffffffffffff1673ffffffffffffffffffffffffffffffffffffffff16145b156111285760088181548110610ffc577f4e487b7100000000000000000000000000000000000000000000000000000000600052603260045260246000fd5b9060005260206000209060040201604051806080016040529081600082015481526020016001820160009054906101000a900473ffffffffffffffffffffffffffffffffffffffff1673ffffffffffffffffffffffffffffffffffffffff1673ffffffffffffffffffffffffffffffffffffffff1681526020016002820160009054906101000a900473ffffffffffffffffffffffffffffffffffffffff1673ffffffffffffffffffffffffffffffffffffffff1673ffffffffffffffffffffffffffffffffffffffff16815260200160038201548152505082848151811061110e577f4e487b7100000000000000000000000000000000000000000000000000000000600052603260045260246000fd5b6020026020010181905250828061112490613710565b9350505b808061113390613710565b915050610ebf565b508092505050919050565b60008111611189576040517f08c379a00000000000000000000000000000000000000000000000000000000081526004016111809061324a565b60405180910390fd5b80600160009054906101000a900473ffffffffffffffffffffffffffffffffffffffff1673ffffffffffffffffffffffffffffffffffffffff166370a08231306040518263ffffffff1660e01b81526004016111e591906130ca565b60206040518083038186803b1580156111fd57600080fd5b505afa158015611211573d6000803e3d6000fd5b505050506040513d601f19601f820116820180604052508101906112359190612ca1565b1015611276576040517f08c379a000000000000000000000000000000000000000000000000000000000815260040161126d9061332a565b60405180910390fd5b600160009054906101000a900473ffffffffffffffffffffffffffffffffffffffff1673ffffffffffffffffffffffffffffffffffffffff1663a9059cbb33836040518363ffffffff1660e01b81526004016112d392919061311c565b602060405180830381600087803b1580156112ed57600080fd5b505af1158015611301573d6000803e3d6000fd5b505050506040513d601f19601f820116820180604052508101906113259190612bd8565b507f884edad9ce6fa2440d8a54cc123490eb96d2768479d49ff9c7366125a9424364338260405161135792919061311c565b60405180910390a150565b60008061136d61207d565b90506000670de0b6b3a7640000600354600284600261138c91906134bf565b611396919061343b565b6113a091906135dd565b6113aa919061343b565b905066038d7ea4c6800081116113c75766038d7ea4c680006113c9565b805b9250505090565b60055481565b6006602052816000526040600020602052806000526040600020600091509150508060000154908060010160009054906101000a900473ffffffffffffffffffffffffffffffffffffffff16908060020160009054906101000a900473ffffffffffffffffffffffffffffffffffffffff16908060030154905084565b600160009054906101000a900473ffffffffffffffffffffffffffffffffffffffff1673ffffffffffffffffffffffffffffffffffffffff16631775765f6040518163ffffffff1660e01b815260040160206040518083038186803b1580156114bb57600080fd5b505afa1580156114cf573d6000803e3d6000fd5b505050506040513d601f19601f820116820180604052508101906114f39190612ca1565b600160009054906101000a900473ffffffffffffffffffffffffffffffffffffffff1673ffffffffffffffffffffffffffffffffffffffff1663dcaf9c446040518163ffffffff1660e01b815260040160206040518083038186803b15801561155b57600080fd5b505afa15801561156f573d6000803e3d6000fd5b505050506040513d601f19601f820116820180604052508101906115939190612ca1565b106115d3576040517f08c379a00000000000000000000000000000000000000000000000000000000081526004016115ca9061328a565b60405180910390fd5b6000600660008673ffffffffffffffffffffffffffffffffffffffff1673ffffffffffffffffffffffffffffffffffffffff16815260200190815260200160002060008573ffffffffffffffffffffffffffffffffffffffff1673ffffffffffffffffffffffffffffffffffffffff1681526020019081526020016000206003015490506000811161169a576040517f08c379a00000000000000000000000000000000000000000000000000000000081526004016116919061334a565b60405180910390fd5b60006064600160009054906101000a900473ffffffffffffffffffffffffffffffffffffffff1673ffffffffffffffffffffffffffffffffffffffff1663b339b3686040518163ffffffff1660e01b815260040160206040518083038186803b15801561170657600080fd5b505afa15801561171a573d6000803e3d6000fd5b505050506040513d601f19601f8201168201806040525081019061173e9190612ca1565b8561174991906135dd565b611753919061343b565b90503073ffffffffffffffffffffffffffffffffffffffff166323b872dd3388848861177f9190613637565b6040518463ffffffff1660e01b815260040161179d939291906130e5565b602060405180830381600087803b1580156117b757600080fd5b505af11580156117cb573d6000803e3d6000fd5b505050506040513d601f19601f820116820180604052508101906117ef9190612bd8565b5060006117fc8587610a83565b905084600660003373ffffffffffffffffffffffffffffffffffffffff1673ffffffffffffffffffffffffffffffffffffffff16815260200190815260200160002060008873ffffffffffffffffffffffffffffffffffffffff1673ffffffffffffffffffffffffffffffffffffffff168152602001908152602001600020600301600082825461188d9190613637565b9250508190555061189e858561254d565b600073ffffffffffffffffffffffffffffffffffffffff168673ffffffffffffffffffffffffffffffffffffffff1614156119855760003373ffffffffffffffffffffffffffffffffffffffff16826040516118f9906130b5565b60006040518083038185875af1925050503d8060008114611936576040519150601f19603f3d011682016040523d82523d6000602084013e61193b565b606091505b505090508061197f576040517f08c379a00000000000000000000000000000000000000000000000000000000081526004016119769061330a565b60405180910390fd5b50611a1c565b8573ffffffffffffffffffffffffffffffffffffffff1663a9059cbb33836040518363ffffffff1660e01b81526004016119c092919061311c565b602060405180830381600087803b1580156119da57600080fd5b505af11580156119ee573d6000803e3d6000fd5b505050506040513d601f19601f82011682018060405250810190611a129190612bd8565b611a1b57600080fd5b5b8673ffffffffffffffffffffffffffffffffffffffff163373ffffffffffffffffffffffffffffffffffffffff167faef3faf684172084346f7dc2cc3bb1328d1cc23caec12dd9a82d4a4e56c00b1787604051611a79919061336a565b60405180910390a350505050505050565b60045481565b6060600060088054905067ffffffffffffffff811115611ad9577f4e487b7100000000000000000000000000000000000000000000000000000000600052604160045260246000fd5b604051908082528060200260200182016040528015611b1257816020015b611aff612999565b815260200190600190039081611af75790505b5090506000805b600880549050811015611cf357600060088281548110611b62577f4e487b7100000000000000000000000000000000000000000000000000000000600052603260045260246000fd5b9060005260206000209060040201600301541115611ce05760088181548110611bb4577f4e487b7100000000000000000000000000000000000000000000000000000000600052603260045260246000fd5b9060005260206000209060040201604051806080016040529081600082015481526020016001820160009054906101000a900473ffffffffffffffffffffffffffffffffffffffff1673ffffffffffffffffffffffffffffffffffffffff1673ffffffffffffffffffffffffffffffffffffffff1681526020016002820160009054906101000a900473ffffffffffffffffffffffffffffffffffffffff1673ffffffffffffffffffffffffffffffffffffffff1673ffffffffffffffffffffffffffffffffffffffff168152602001600382015481525050838381518110611cc6577f4e487b7100000000000000000000000000000000000000000000000000000000600052603260045260246000fd5b60200260200101819052508180611cdc90613710565b9250505b8080611ceb90613710565b915050611b19565b50819250505090565b60088181548110611d0c57600080fd5b90600052602060002090600402016000915090508060000154908060010160009054906101000a900473ffffffffffffffffffffffffffffffffffffffff16908060020160009054906101000a900473ffffffffffffffffffffffffffffffffffffffff16908060030154905084565b670b1a2bc2ec50000081565b60008111611dcb576040517f08c379a0000000000000000000000000000000000000000000000000000000008152600401611dc29061324a565b60405180910390fd5b6000600454600554611ddd91906133e5565b82611de8919061343b565b693f870857a3e0e3800000611dfd91906135dd565b90508160046000828254611e1191906133e5565b92505081905550600160009054906101000a900473ffffffffffffffffffffffffffffffffffffffff1673ffffffffffffffffffffffffffffffffffffffff166323b872dd3330856040518463ffffffff1660e01b8152600401611e77939291906130e5565b602060405180830381600087803b158015611e9157600080fd5b505af1158015611ea5573d6000803e3d6000fd5b505050506040513d601f19601f82011682018060405250810190611ec99190612bd8565b5060008054906101000a900473ffffffffffffffffffffffffffffffffffffffff1673ffffffffffffffffffffffffffffffffffffffff1663a9059cbb33836040518363ffffffff1660e01b8152600401611f2592919061311c565b602060405180830381600087803b158015611f3f57600080fd5b505af1158015611f53573d6000803e3d6000fd5b505050506040513d601f19601f82011682018060405250810190611f779190612bd8565b507f8fff79b574da9a93d7a5408c2fc00c4a9b2b462321c1659b2fbbb9ff3dd221ff338383604051611fab93929190613145565b60405180910390a15050565b600260009054906101000a900473ffffffffffffffffffffffffffffffffffffffff1673ffffffffffffffffffffffffffffffffffffffff163373ffffffffffffffffffffffffffffffffffffffff1614612047576040517f08c379a000000000000000000000000000000000000000000000000000000000815260040161203e906132ca565b60405180910390fd5b600061205161207d565b905080670b1a2bc2ec500000612067919061343b565b60035461207491906135dd565b60038190555050565b600080600454141561209257600090506120b8565b670de0b6b3a76400006004546120a8919061343b565b6005546120b5919061343b565b90505b90565b600082116120fe576040517f08c379a00000000000000000000000000000000000000000000000000000000081526004016120f59061326a565b60405180910390fd5b81600660003373ffffffffffffffffffffffffffffffffffffffff1673ffffffffffffffffffffffffffffffffffffffff16815260200190815260200160002060008573ffffffffffffffffffffffffffffffffffffffff1673ffffffffffffffffffffffffffffffffffffffff1681526020019081526020016000206003015411156121c0576040517f08c379a00000000000000000000000000000000000000000000000000000000081526004016121b7906132ea565b60405180910390fd5b60006121cc8385610a83565b905082600560008282546121e09190613637565b9250508190555082600660003373ffffffffffffffffffffffffffffffffffffffff1673ffffffffffffffffffffffffffffffffffffffff16815260200190815260200160002060008673ffffffffffffffffffffffffffffffffffffffff1673ffffffffffffffffffffffffffffffffffffffff16815260200190815260200160002060030160008282546122769190613637565b92505081905550600160009054906101000a900473ffffffffffffffffffffffffffffffffffffffff1673ffffffffffffffffffffffffffffffffffffffff166323b872dd3330866040518463ffffffff1660e01b81526004016122dc939291906130e5565b602060405180830381600087803b1580156122f657600080fd5b505af115801561230a573d6000803e3d6000fd5b505050506040513d601f19601f8201168201806040525081019061232e9190612bd8565b50612339838361254d565b600073ffffffffffffffffffffffffffffffffffffffff168473ffffffffffffffffffffffffffffffffffffffff1614156124205760003373ffffffffffffffffffffffffffffffffffffffff1682604051612394906130b5565b60006040518083038185875af1925050503d80600081146123d1576040519150601f19603f3d011682016040523d82523d6000602084013e6123d6565b606091505b505090508061241a576040517f08c379a00000000000000000000000000000000000000000000000000000000081526004016124119061330a565b60405180910390fd5b506124b7565b8373ffffffffffffffffffffffffffffffffffffffff1663a9059cbb33836040518363ffffffff1660e01b815260040161245b92919061311c565b602060405180830381600087803b15801561247557600080fd5b505af1158015612489573d6000803e3d6000fd5b505050506040513d601f19601f820116820180604052508101906124ad9190612bd8565b6124b657600080fd5b5b7f77c6871227e5d2dec8dadd5354f78453203e22e669cd0ec4c19d9a8c5edb31d03384836040516124ea93929190613145565b60405180910390a150505050565b66038d7ea4c6800081565b600061254583836040518060400160405280601a81526020017f536166654d6174683a206469766973696f6e206279207a65726f000000000000815250612936565b905092915050565b60006001600760008481526020019081526020016000205461256f9190613637565b90506000600882815481106125ad577f4e487b7100000000000000000000000000000000000000000000000000000000600052603260045260246000fd5b9060005260206000209060040201604051806080016040529081600082015481526020016001820160009054906101000a900473ffffffffffffffffffffffffffffffffffffffff1673ffffffffffffffffffffffffffffffffffffffff1673ffffffffffffffffffffffffffffffffffffffff1681526020016002820160009054906101000a900473ffffffffffffffffffffffffffffffffffffffff1673ffffffffffffffffffffffffffffffffffffffff1673ffffffffffffffffffffffffffffffffffffffff1681526020016003820154815250509050806060015184106128cd57600860016008805490506126a79190613637565b815481106126de577f4e487b7100000000000000000000000000000000000000000000000000000000600052603260045260246000fd5b906000526020600020906004020160088381548110612726577f4e487b7100000000000000000000000000000000000000000000000000000000600052603260045260246000fd5b9060005260206000209060040201600082015481600001556001820160009054906101000a900473ffffffffffffffffffffffffffffffffffffffff168160010160006101000a81548173ffffffffffffffffffffffffffffffffffffffff021916908373ffffffffffffffffffffffffffffffffffffffff1602179055506002820160009054906101000a900473ffffffffffffffffffffffffffffffffffffffff168160020160006101000a81548173ffffffffffffffffffffffffffffffffffffffff021916908373ffffffffffffffffffffffffffffffffffffffff160217905550600382015481600301559050506008805480612851577f4e487b7100000000000000000000000000000000000000000000000000000000600052603160045260246000fd5b60019003818190600052602060002090600402016000808201600090556001820160006101000a81549073ffffffffffffffffffffffffffffffffffffffff02191690556002820160006101000a81549073ffffffffffffffffffffffffffffffffffffffff0219169055600382016000905550509055612930565b8360088381548110612908577f4e487b7100000000000000000000000000000000000000000000000000000000600052603260045260246000fd5b906000526020600020906004020160030160008282546129289190613637565b925050819055505b50505050565b6000808311829061297d576040517f08c379a00000000000000000000000000000000000000000000000000000000081526004016129749190613228565b60405180910390fd5b506000838561298c919061343b565b9050809150509392505050565b604051806080016040528060008019168152602001600073ffffffffffffffffffffffffffffffffffffffff168152602001600073ffffffffffffffffffffffffffffffffffffffff168152602001600081525090565b6000813590506129ff81613a42565b92915050565b600081519050612a1481613a42565b92915050565b600081519050612a2981613a59565b92915050565b600081359050612a3e81613a70565b92915050565b600081519050612a5381613a87565b92915050565b600081359050612a6881613a9e565b92915050565b600081519050612a7d81613a9e565b92915050565b600081519050612a9281613ab5565b92915050565b600060208284031215612aaa57600080fd5b6000612ab8848285016129f0565b91505092915050565b600060208284031215612ad357600080fd5b6000612ae184828501612a05565b91505092915050565b60008060408385031215612afd57600080fd5b6000612b0b858286016129f0565b9250506020612b1c858286016129f0565b9150509250929050565b60008060008060808587031215612b3c57600080fd5b6000612b4a878288016129f0565b9450506020612b5b878288016129f0565b9350506040612b6c87828801612a59565b9250506060612b7d87828801612a2f565b91505092959194509250565b600080600060608486031215612b9e57600080fd5b6000612bac868287016129f0565b9350506020612bbd86828701612a59565b9250506040612bce86828701612a2f565b9150509250925092565b600060208284031215612bea57600080fd5b6000612bf884828501612a1a565b91505092915050565b600080600080600060a08688031215612c1957600080fd5b6000612c2788828901612a1a565b9550506020612c3888828901612a6e565b9450506040612c4988828901612a6e565b9350506060612c5a88828901612a6e565b9250506080612c6b88828901612a05565b9150509295509295909350565b600060208284031215612c8a57600080fd5b6000612c9884828501612a59565b91505092915050565b600060208284031215612cb357600080fd5b6000612cc184828501612a6e565b91505092915050565b60008060408385031215612cdd57600080fd5b6000612ceb85828601612a59565b9250506020612cfc858286016129f0565b9150509250929050565b600080600080600060a08688031215612d1e57600080fd5b6000612d2c88828901612a83565b9550506020612d3d88828901612a44565b9450506040612d4e88828901612a6e565b9350506060612d5f88828901612a6e565b9250506080612d7088828901612a83565b9150509295509295909350565b6000612d898383612fdd565b60808301905092915050565b612d9e8161366b565b82525050565b612dad8161366b565b82525050565b612dc4612dbf8261366b565b613759565b82525050565b6000612dd582613395565b612ddf81856133b8565b9350612dea83613385565b8060005b83811015612e1b578151612e028882612d7d565b9750612e0d836133ab565b925050600181019050612dee565b5085935050505092915050565b612e3181613689565b82525050565b612e4081613689565b82525050565b6000612e51826133a0565b612e5b81856133d4565b9350612e6b8185602086016136dd565b612e74816137e5565b840191505092915050565b6000612e8c600e836133d4565b9150612e9782613810565b602082019050919050565b6000612eaf601d836133d4565b9150612eba82613839565b602082019050919050565b6000612ed26019836133d4565b9150612edd82613862565b602082019050919050565b6000612ef56021836133d4565b9150612f008261388b565b604082019050919050565b6000612f186000836133c9565b9150612f23826138da565b600082019050919050565b6000612f3b6024836133d4565b9150612f46826138dd565b604082019050919050565b6000612f5e6024836133d4565b9150612f698261392c565b604082019050919050565b6000612f81602b836133d4565b9150612f8c8261397b565b604082019050919050565b6000612fa46015836133d4565b9150612faf826139ca565b602082019050919050565b6000612fc76022836133d4565b9150612fd2826139f3565b604082019050919050565b608082016000820151612ff36000850182612e28565b5060208201516130066020850182612d95565b5060408201516130196040850182612d95565b50606082015161302c6060850182613032565b50505050565b61303b816136bd565b82525050565b61304a816136bd565b82525050565b61306161305c826136bd565b61377d565b82525050565b60006130738287612db3565b6014820191506130838286613050565b6020820191506130938285613050565b6020820191506130a38284613050565b60208201915081905095945050505050565b60006130c082612f0b565b9150819050919050565b60006020820190506130df6000830184612da4565b92915050565b60006060820190506130fa6000830186612da4565b6131076020830185612da4565b6131146040830184613041565b949350505050565b60006040820190506131316000830185612da4565b61313e6020830184613041565b9392505050565b600060608201905061315a6000830186612da4565b6131676020830185613041565b6131746040830184613041565b949350505050565b60006080820190506131916000830187612da4565b61319e6020830186613041565b6131ab6040830185613041565b6131b86060830184613041565b95945050505050565b600060208201905081810360008301526131db8184612dca565b905092915050565b60006080820190506131f86000830187612e37565b6132056020830186612da4565b6132126040830185612da4565b61321f6060830184613041565b95945050505050565b600060208201905081810360008301526132428184612e46565b905092915050565b6000602082019050818103600083015261326381612e7f565b9050919050565b6000602082019050818103600083015261328381612ea2565b9050919050565b600060208201905081810360008301526132a381612ec5565b9050919050565b600060208201905081810360008301526132c381612ee8565b9050919050565b600060208201905081810360008301526132e381612f2e565b9050919050565b6000602082019050818103600083015261330381612f51565b9050919050565b6000602082019050818103600083015261332381612f74565b9050919050565b6000602082019050818103600083015261334381612f97565b9050919050565b6000602082019050818103600083015261336381612fba565b9050919050565b600060208201905061337f6000830184613041565b92915050565b6000819050602082019050919050565b600081519050919050565b600081519050919050565b6000602082019050919050565b600082825260208201905092915050565b600081905092915050565b600082825260208201905092915050565b60006133f0826136bd565b91506133fb836136bd565b9250827fffffffffffffffffffffffffffffffffffffffffffffffffffffffffffffffff038211156134305761342f613787565b5b828201905092915050565b6000613446826136bd565b9150613451836136bd565b925082613461576134606137b6565b5b828204905092915050565b6000808291508390505b60018511156134b65780860481111561349257613491613787565b5b60018516156134a15780820291505b80810290506134af85613803565b9450613476565b94509492505050565b60006134ca826136bd565b91506134d5836136bd565b92506135027fffffffffffffffffffffffffffffffffffffffffffffffffffffffffffffffff848461350a565b905092915050565b60008261351a57600190506135d6565b8161352857600090506135d6565b816001811461353e576002811461354857613577565b60019150506135d6565b60ff84111561355a57613559613787565b5b8360020a91508482111561357157613570613787565b5b506135d6565b5060208310610133831016604e8410600b84101617156135ac5782820a9050838111156135a7576135a6613787565b5b6135d6565b6135b9848484600161346c565b925090508184048111156135d0576135cf613787565b5b81810290505b9392505050565b60006135e8826136bd565b91506135f3836136bd565b9250817fffffffffffffffffffffffffffffffffffffffffffffffffffffffffffffffff048311821515161561362c5761362b613787565b5b828202905092915050565b6000613642826136bd565b915061364d836136bd565b9250828210156136605761365f613787565b5b828203905092915050565b60006136768261369d565b9050919050565b60008115159050919050565b6000819050919050565b6000819050919050565b600073ffffffffffffffffffffffffffffffffffffffff82169050919050565b6000819050919050565b600069ffffffffffffffffffff82169050919050565b60005b838110156136fb5780820151818401526020810190506136e0565b8381111561370a576000848401525b50505050565b600061371b826136bd565b91507fffffffffffffffffffffffffffffffffffffffffffffffffffffffffffffffff82141561374e5761374d613787565b5b600182019050919050565b60006137648261376b565b9050919050565b6000613776826137f6565b9050919050565b6000819050919050565b7f4e487b7100000000000000000000000000000000000000000000000000000000600052601160045260246000fd5b7f4e487b7100000000000000000000000000000000000000000000000000000000600052601260045260246000fd5b6000601f19601f8301169050919050565b60008160601b9050919050565b60008160011c9050919050565b7f496e76616c696420616d6f756e74000000000000000000000000000000000000600082015250565b7f416d6f756e74206d7573742062652067726561746572207468616e2030000000600082015250565b7f63616e6e6f74206c697175696461746520706f736974696f6e00000000000000600082015250565b7f436f6c6c61746572616c206d7573742062652067726561746572207468616e2060008201527f3000000000000000000000000000000000000000000000000000000000000000602082015250565b50565b7f63616e206f6e6c792062652063616c6c65642062792043475420676f7665726e60008201527f616e636500000000000000000000000000000000000000000000000000000000602082015250565b7f526570617920616d6f756e74206578636565647320626f72726f77656420616d60008201527f6f756e7400000000000000000000000000000000000000000000000000000000602082015250565b7f72657475726e206f6620657468657220636f6c6c61746572616c20776173207560008201527f6e7375636365737366756c000000000000000000000000000000000000000000602082015250565b7f496e73756666696369656e74202062616c616e63650000000000000000000000600082015250565b7f7573657220686173206e6f20706f736974696f6e7320746f206c69717569646160008201527f7465000000000000000000000000000000000000000000000000000000000000602082015250565b613a4b8161366b565b8114613a5657600080fd5b50565b613a628161367d565b8114613a6d57600080fd5b50565b613a7981613689565b8114613a8457600080fd5b50565b613a9081613693565b8114613a9b57600080fd5b50565b613aa7816136bd565b8114613ab257600080fd5b50565b613abe816136c7565b8114613ac957600080fd5b5056fea264697066735822122054a9ad6c3940fe14add6d5d08f24baa50e22852b8a6aad21ae2520193dbd1c5c64736f6c63430008040033",
  "linkReferences": {},
  "deployedLinkReferences": {}
}