{
  "_format": "hh-sol-artifact-1",
  "contractName": "MockLending",
  "sourceName": "contracts/mocks/MockLending.sol",
  "abi": [
    {
      "inputs": [
        {
          "internalType": "address",
          "name": "_team",
          "type": "address"
        },
        {
          "internalType": "address",
          "name": "_governance",
          "type": "address"
        },
        {
          "internalType": "address",
          "name": "_chc",
          "type": "address"
        }
      ],
      "stateMutability": "nonpayable",
      "type": "constructor"
    },
    {
      "anonymous": false,
      "inputs": [
        {
          "indexed": false,
          "internalType": "address",
          "name": "user",
          "type": "address"
        },
        {
          "indexed": false,
          "internalType": "uint256",
          "name": "amount0",
          "type": "uint256"
        },
        {
          "indexed": false,
          "internalType": "uint256",
          "name": "amount1",
          "type": "uint256"
        }
      ],
      "name": "Borrow",
      "type": "event"
    },
    {
      "anonymous": false,
      "inputs": [
        {
          "indexed": false,
          "internalType": "address",
          "name": "user",
          "type": "address"
        },
        {
          "indexed": false,
          "internalType": "uint256",
          "name": "amount",
          "type": "uint256"
        }
      ],
      "name": "Lend",
      "type": "event"
    },
    {
      "anonymous": false,
      "inputs": [
        {
          "indexed": true,
          "internalType": "address",
          "name": "liquidator",
          "type": "address"
        },
        {
          "indexed": true,
          "internalType": "address",
          "name": "borrower",
          "type": "address"
        },
        {
          "indexed": false,
          "internalType": "uint256",
          "name": "amountLiquidated",
          "type": "uint256"
        }
      ],
      "name": "Liquidate",
      "type": "event"
    },
    {
      "anonymous": false,
      "inputs": [
        {
          "indexed": false,
          "internalType": "address",
          "name": "user",
          "type": "address"
        },
        {
          "indexed": false,
          "internalType": "uint256",
          "name": "amount",
          "type": "uint256"
        },
        {
          "indexed": false,
          "internalType": "uint256",
          "name": "collateralAmount",
          "type": "uint256"
        }
      ],
      "name": "Repay",
      "type": "event"
    },
    {
      "anonymous": false,
      "inputs": [
        {
          "indexed": false,
          "internalType": "address",
          "name": "user",
          "type": "address"
        },
        {
          "indexed": false,
          "internalType": "uint256",
          "name": "amount",
          "type": "uint256"
        }
      ],
      "name": "Withdraw",
      "type": "event"
    },
    {
      "inputs": [],
      "name": "LOWER_BOUND_INTEREST_RATE",
      "outputs": [
        {
          "internalType": "uint256",
          "name": "",
          "type": "uint256"
        }
      ],
      "stateMutability": "view",
      "type": "function"
    },
    {
      "inputs": [],
      "name": "TARGET_UTILIZATION_RATE",
      "outputs": [
        {
          "internalType": "uint256",
          "name": "",
          "type": "uint256"
        }
      ],
      "stateMutability": "view",
      "type": "function"
    },
    {
      "inputs": [],
      "name": "UPPER_BOUND_INTEREST_RATE",
      "outputs": [
        {
          "internalType": "uint256",
          "name": "",
          "type": "uint256"
        }
      ],
      "stateMutability": "view",
      "type": "function"
    },
    {
      "inputs": [
        {
          "internalType": "uint256",
          "name": "borrowAmount",
          "type": "uint256"
        },
        {
          "internalType": "address",
          "name": "_collateral",
          "type": "address"
        }
      ],
      "name": "borrow",
      "outputs": [],
      "stateMutability": "payable",
      "type": "function"
    },
    {
      "inputs": [
        {
          "internalType": "uint256",
          "name": "_amount",
          "type": "uint256"
        },
        {
          "internalType": "address",
          "name": "_collateral",
          "type": "address"
        }
      ],
      "name": "calculateCollateralAmount",
      "outputs": [
        {
          "internalType": "uint256",
          "name": "",
          "type": "uint256"
        }
      ],
      "stateMutability": "view",
      "type": "function"
    },
    {
      "inputs": [],
      "name": "calculateInterestRate",
      "outputs": [
        {
          "internalType": "uint256",
          "name": "",
          "type": "uint256"
        }
      ],
      "stateMutability": "view",
      "type": "function"
    },
    {
      "inputs": [],
      "name": "calculateUtilizationRate",
      "outputs": [
        {
          "internalType": "uint256",
          "name": "",
          "type": "uint256"
        }
      ],
      "stateMutability": "view",
      "type": "function"
    },
    {
      "inputs": [
        {
          "internalType": "uint256",
          "name": "",
          "type": "uint256"
        }
      ],
      "name": "dailyParticipants",
      "outputs": [
        {
          "internalType": "address",
          "name": "",
          "type": "address"
        }
      ],
      "stateMutability": "view",
      "type": "function"
    },
    {
      "inputs": [
        {
          "internalType": "address",
          "name": "",
          "type": "address"
        }
      ],
      "name": "dailyParticipation",
      "outputs": [
        {
          "internalType": "uint256",
          "name": "",
          "type": "uint256"
        }
      ],
      "stateMutability": "view",
      "type": "function"
    },
    {
      "inputs": [],
      "name": "distributeRewards",
      "outputs": [],
      "stateMutability": "nonpayable",
      "type": "function"
    },
    {
      "inputs": [
        {
          "internalType": "address",
          "name": "user",
          "type": "address"
        }
      ],
      "name": "getLending",
      "outputs": [
        {
          "internalType": "uint256",
          "name": "",
          "type": "uint256"
        }
      ],
      "stateMutability": "view",
      "type": "function"
    },
    {
      "inputs": [],
      "name": "getPositions",
      "outputs": [
        {
          "components": [
            {
              "internalType": "bytes32",
              "name": "id",
              "type": "bytes32"
            },
            {
              "internalType": "address",
              "name": "user",
              "type": "address"
            },
            {
              "internalType": "address",
              "name": "collateral",
              "type": "address"
            },
            {
              "internalType": "uint256",
              "name": "borrowedAmount",
              "type": "uint256"
            }
          ],
          "internalType": "struct MockLending.Position[]",
          "name": "",
          "type": "tuple[]"
        }
      ],
      "stateMutability": "view",
      "type": "function"
    },
    {
      "inputs": [
        {
          "internalType": "address",
          "name": "user",
          "type": "address"
        },
        {
          "internalType": "address",
          "name": "_collateral",
          "type": "address"
        }
      ],
      "name": "getUserPositions",
      "outputs": [
        {
          "components": [
            {
              "internalType": "bytes32",
              "name": "id",
              "type": "bytes32"
            },
            {
              "internalType": "address",
              "name": "user",
              "type": "address"
            },
            {
              "internalType": "address",
              "name": "collateral",
              "type": "address"
            },
            {
              "internalType": "uint256",
              "name": "borrowedAmount",
              "type": "uint256"
            }
          ],
          "internalType": "struct MockLending.Position",
          "name": "",
          "type": "tuple"
        }
      ],
      "stateMutability": "view",
      "type": "function"
    },
    {
      "inputs": [],
      "name": "lastRewardDistribution",
      "outputs": [
        {
          "internalType": "uint256",
          "name": "",
          "type": "uint256"
        }
      ],
      "stateMutability": "view",
      "type": "function"
    },
    {
      "inputs": [
        {
          "internalType": "uint256",
          "name": "_amount",
          "type": "uint256"
        }
      ],
      "name": "lend",
      "outputs": [],
      "stateMutability": "nonpayable",
      "type": "function"
    },
    {
      "inputs": [
        {
          "internalType": "address",
          "name": "",
          "type": "address"
        }
      ],
      "name": "lendings",
      "outputs": [
        {
          "internalType": "uint256",
          "name": "",
          "type": "uint256"
        }
      ],
      "stateMutability": "view",
      "type": "function"
    },
    {
      "inputs": [
        {
          "internalType": "address",
          "name": "_borrower",
          "type": "address"
        },
        {
          "internalType": "address",
          "name": "_collateral",
          "type": "address"
        },
        {
          "internalType": "uint256",
          "name": "_amount",
          "type": "uint256"
        },
        {
          "internalType": "bytes32",
          "name": "_positionId",
          "type": "bytes32"
        }
      ],
      "name": "liquidate",
      "outputs": [],
      "stateMutability": "nonpayable",
      "type": "function"
    },
    {
      "inputs": [
        {
          "internalType": "uint256",
          "name": "",
          "type": "uint256"
        }
      ],
      "name": "positions",
      "outputs": [
        {
          "internalType": "bytes32",
          "name": "id",
          "type": "bytes32"
        },
        {
          "internalType": "address",
          "name": "user",
          "type": "address"
        },
        {
          "internalType": "address",
          "name": "collateral",
          "type": "address"
        },
        {
          "internalType": "uint256",
          "name": "borrowedAmount",
          "type": "uint256"
        }
      ],
      "stateMutability": "view",
      "type": "function"
    },
    {
      "inputs": [],
      "name": "rebalanceInterestRate",
      "outputs": [],
      "stateMutability": "nonpayable",
      "type": "function"
    },
    {
      "inputs": [
        {
          "internalType": "address",
          "name": "_collateral",
          "type": "address"
        },
        {
          "internalType": "uint256",
          "name": "amount",
          "type": "uint256"
        },
        {
          "internalType": "bytes32",
          "name": "_positionId",
          "type": "bytes32"
        }
      ],
      "name": "repay",
      "outputs": [],
      "stateMutability": "nonpayable",
      "type": "function"
    },
    {
      "inputs": [],
      "name": "totalBorrowed",
      "outputs": [
        {
          "internalType": "uint256",
          "name": "",
          "type": "uint256"
        }
      ],
      "stateMutability": "view",
      "type": "function"
    },
    {
      "inputs": [],
      "name": "totalDailyExposure",
      "outputs": [
        {
          "internalType": "uint256",
          "name": "",
          "type": "uint256"
        }
      ],
      "stateMutability": "view",
      "type": "function"
    },
    {
      "inputs": [],
      "name": "totalSupplied",
      "outputs": [
        {
          "internalType": "uint256",
          "name": "",
          "type": "uint256"
        }
      ],
      "stateMutability": "view",
      "type": "function"
    },
    {
      "inputs": [
        {
          "internalType": "address",
          "name": "",
          "type": "address"
        },
        {
          "internalType": "address",
          "name": "",
          "type": "address"
        }
      ],
      "name": "users",
      "outputs": [
        {
          "internalType": "bytes32",
          "name": "id",
          "type": "bytes32"
        },
        {
          "internalType": "address",
          "name": "user",
          "type": "address"
        },
        {
          "internalType": "address",
          "name": "collateral",
          "type": "address"
        },
        {
          "internalType": "uint256",
          "name": "borrowedAmount",
          "type": "uint256"
        }
      ],
      "stateMutability": "view",
      "type": "function"
    },
    {
      "inputs": [
        {
          "internalType": "uint256",
          "name": "_amount",
          "type": "uint256"
        }
      ],
      "name": "withdraw",
      "outputs": [],
      "stateMutability": "nonpayable",
      "type": "function"
    },
    {
      "stateMutability": "payable",
      "type": "receive"
    }
  ],
  "bytecode": "0x60806040526706f05b59d3b200006003553480156200001d57600080fd5b506040516200411a3803806200411a833981810160405281019062000043919062000125565b816000806101000a81548173ffffffffffffffffffffffffffffffffffffffff021916908373ffffffffffffffffffffffffffffffffffffffff16021790555080600160006101000a81548173ffffffffffffffffffffffffffffffffffffffff021916908373ffffffffffffffffffffffffffffffffffffffff16021790555082600260006101000a81548173ffffffffffffffffffffffffffffffffffffffff021916908373ffffffffffffffffffffffffffffffffffffffff160217905550505050620001c9565b6000815190506200011f81620001af565b92915050565b6000806000606084860312156200013b57600080fd5b60006200014b868287016200010e565b93505060206200015e868287016200010e565b925050604062000171868287016200010e565b9150509250925092565b600062000188826200018f565b9050919050565b600073ffffffffffffffffffffffffffffffffffffffff82169050919050565b620001ba816200017b565b8114620001c657600080fd5b50565b613f4180620001d96000396000f3fe6080604052600436106101695760003560e01c8063619a53aa116100d15780639d226d0b1161008a578063b0cd9cff11610064578063b0cd9cff14610555578063bda736b814610580578063c183495b146105ab578063d10747fe146105d457610170565b80639d226d0b146104ea578063a6aa57ce14610515578063a8b0d2fc1461053e57610170565b8063619a53aa146103d7578063630fd0ac146104005780636592bd7d1461042b5780636f4a2cd014610468578063802758601461047f57806399fbab88146104aa57610170565b80633676e44e116101235780633676e44e146102bd5780633a082d8e146102e85780634b3fd148146103135780634c19386c1461032f578063567f37f21461035a5780635e80536a1461039757610170565b8062fc90801461017557806303dac1ce146101b25780631e1fd1c1146101dd5780632e1a7d4d1461021a578063307a56b21461024357806331254b071461028057610170565b3661017057005b600080fd5b34801561018157600080fd5b5061019c6004803603810190610197919061308b565b6105ff565b6040516101a99190613799565b60405180910390f35b3480156101be57600080fd5b506101c7610884565b6040516101d49190613799565b60405180910390f35b3480156101e957600080fd5b5061020460048036038101906101ff9190612eab565b61088a565b604051610211919061377e565b60405180910390f35b34801561022657600080fd5b50610241600480360381019061023c9190613039565b6109e1565b005b34801561024f57600080fd5b5061026a60048036038101906102659190612e59565b610cd4565b6040516102779190613799565b60405180910390f35b34801561028c57600080fd5b506102a760048036038101906102a29190612e59565b610d1d565b6040516102b49190613799565b60405180910390f35b3480156102c957600080fd5b506102d2610d35565b6040516102df9190613799565b60405180910390f35b3480156102f457600080fd5b506102fd610d3b565b60405161030a9190613799565b60405180910390f35b61032d6004803603810190610328919061308b565b610db6565b005b34801561033b57600080fd5b5061034461142c565b6040516103519190613799565b60405180910390f35b34801561036657600080fd5b50610381600480360381019061037c9190613039565b611432565b60405161038e9190613503565b60405180910390f35b3480156103a357600080fd5b506103be60048036038101906103b99190612eab565b611471565b6040516103ce94939291906135d7565b60405180910390f35b3480156103e357600080fd5b506103fe60048036038101906103f99190612ee7565b6114ee565b005b34801561040c57600080fd5b50610415611b25565b6040516104229190613799565b60405180910390f35b34801561043757600080fd5b50610452600480360381019061044d9190612e59565b611b2b565b60405161045f9190613799565b60405180910390f35b34801561047457600080fd5b5061047d611b43565b005b34801561048b57600080fd5b50610494611e2d565b6040516104a191906135b5565b60405180910390f35b3480156104b657600080fd5b506104d160048036038101906104cc9190613039565b612099565b6040516104e194939291906135d7565b60405180910390f35b3480156104f657600080fd5b506104ff612119565b60405161050c9190613799565b60405180910390f35b34801561052157600080fd5b5061053c60048036038101906105379190613039565b612125565b005b34801561054a57600080fd5b506105536123e9565b005b34801561056157600080fd5b5061056a6124af565b6040516105779190613799565b60405180910390f35b34801561058c57600080fd5b506105956124b5565b6040516105a29190613799565b60405180910390f35b3480156105b757600080fd5b506105d260048036038101906105cd9190612f4a565b612500565b005b3480156105e057600080fd5b506105e961287b565b6040516105f69190613799565b60405180910390f35b600080600160009054906101000a900473ffffffffffffffffffffffffffffffffffffffff1673ffffffffffffffffffffffffffffffffffffffff16634a08e6886040518163ffffffff1660e01b815260040160206040518083038186803b15801561066a57600080fd5b505afa15801561067e573d6000803e3d6000fd5b505050506040513d601f19601f820116820180604052508101906106a29190612e82565b73ffffffffffffffffffffffffffffffffffffffff1663feaf968c6040518163ffffffff1660e01b815260040160a06040518083038186803b1580156106e757600080fd5b505afa1580156106fb573d6000803e3d6000fd5b505050506040513d601f19601f8201168201806040525081019061071f91906130c7565b5050509150506000600160009054906101000a900473ffffffffffffffffffffffffffffffffffffffff1673ffffffffffffffffffffffffffffffffffffffff1663b050b672856040518263ffffffff1660e01b81526004016107829190613503565b60a06040518083038186803b15801561079a57600080fd5b505afa1580156107ae573d6000803e3d6000fd5b505050506040513d601f19601f820116820180604052508101906107d29190612fc2565b94505050505060008173ffffffffffffffffffffffffffffffffffffffff1663feaf968c6040518163ffffffff1660e01b815260040160a06040518083038186803b15801561082057600080fd5b505afa158015610834573d6000803e3d6000fd5b505050506040513d601f19601f8201168201806040525081019061085891906130c7565b5050509150506000610875828861086f9190613a0c565b85612886565b90508094505050505092915050565b60065481565b610892612d1c565b600860008473ffffffffffffffffffffffffffffffffffffffff1673ffffffffffffffffffffffffffffffffffffffff16815260200190815260200160002060008373ffffffffffffffffffffffffffffffffffffffff1673ffffffffffffffffffffffffffffffffffffffff168152602001908152602001600020604051806080016040529081600082015481526020016001820160009054906101000a900473ffffffffffffffffffffffffffffffffffffffff1673ffffffffffffffffffffffffffffffffffffffff1673ffffffffffffffffffffffffffffffffffffffff1681526020016002820160009054906101000a900473ffffffffffffffffffffffffffffffffffffffff1673ffffffffffffffffffffffffffffffffffffffff1673ffffffffffffffffffffffffffffffffffffffff168152602001600382015481525050905092915050565b60008111610a24576040517f08c379a0000000000000000000000000000000000000000000000000000000008152600401610a1b9061363e565b60405180910390fd5b80600960003373ffffffffffffffffffffffffffffffffffffffff1673ffffffffffffffffffffffffffffffffffffffff1681526020019081526020016000205410610aa5576040517f08c379a0000000000000000000000000000000000000000000000000000000008152600401610a9c906136de565b60405180910390fd5b80600160009054906101000a900473ffffffffffffffffffffffffffffffffffffffff1673ffffffffffffffffffffffffffffffffffffffff166370a08231306040518263ffffffff1660e01b8152600401610b019190613503565b60206040518083038186803b158015610b1957600080fd5b505afa158015610b2d573d6000803e3d6000fd5b505050506040513d601f19601f82011682018060405250810190610b519190613062565b1015610b92576040517f08c379a0000000000000000000000000000000000000000000000000000000008152600401610b899061373e565b60405180910390fd5b80600960003373ffffffffffffffffffffffffffffffffffffffff1673ffffffffffffffffffffffffffffffffffffffff1681526020019081526020016000206000828254610be19190613a66565b92505081905550600160009054906101000a900473ffffffffffffffffffffffffffffffffffffffff1673ffffffffffffffffffffffffffffffffffffffff1663a9059cbb33836040518363ffffffff1660e01b8152600401610c45929190613555565b602060405180830381600087803b158015610c5f57600080fd5b505af1158015610c73573d6000803e3d6000fd5b505050506040513d601f19601f82011682018060405250810190610c979190612f99565b507f884edad9ce6fa2440d8a54cc123490eb96d2768479d49ff9c7366125a94243643382604051610cc9929190613555565b60405180910390a150565b6000600960008373ffffffffffffffffffffffffffffffffffffffff1673ffffffffffffffffffffffffffffffffffffffff168152602001908152602001600020549050919050565b600a6020528060005260406000206000915090505481565b60035481565b600080610d466124b5565b90506000670de0b6b3a764000060028084610d6191906138ee565b610d6b919061386a565b610d75919061386a565b905066038d7ea4c68000811015610d975766038d7ea4c6800092505050610db3565b600354811115610dad5760035492505050610db3565b80925050505b90565b60008211610df9576040517f08c379a0000000000000000000000000000000000000000000000000000000008152600401610df0906136be565b60405180910390fd5b81600160009054906101000a900473ffffffffffffffffffffffffffffffffffffffff1673ffffffffffffffffffffffffffffffffffffffff166370a08231306040518263ffffffff1660e01b8152600401610e559190613503565b60206040518083038186803b158015610e6d57600080fd5b505afa158015610e81573d6000803e3d6000fd5b505050506040513d601f19601f82011682018060405250810190610ea59190613062565b1015610ee6576040517f08c379a0000000000000000000000000000000000000000000000000000000008152600401610edd9061373e565b60405180910390fd5b6000610ef283836105ff565b90508260046000828254610f069190613a66565b925050819055508260056000828254610f1f9190613814565b92505081905550600033848342604051602001610f3f94939291906134a0565b604051602081830303815290604052805190602001209050600d60405180608001604052808381526020013373ffffffffffffffffffffffffffffffffffffffff1681526020018573ffffffffffffffffffffffffffffffffffffffff1681526020018681525090806001815401808255809150506001900390600052602060002090600402016000909190919091506000820151816000015560208201518160010160006101000a81548173ffffffffffffffffffffffffffffffffffffffff021916908373ffffffffffffffffffffffffffffffffffffffff16021790555060408201518160020160006101000a81548173ffffffffffffffffffffffffffffffffffffffff021916908373ffffffffffffffffffffffffffffffffffffffff16021790555060608201518160030155505060006001600d805490506110879190613a66565b90506001816110969190613814565b600b60008481526020019081526020016000208190555084600860003373ffffffffffffffffffffffffffffffffffffffff1673ffffffffffffffffffffffffffffffffffffffff16815260200190815260200160002060008673ffffffffffffffffffffffffffffffffffffffff1673ffffffffffffffffffffffffffffffffffffffff168152602001908152602001600020600301600082825461113c9190613814565b9250508190555084600a60003373ffffffffffffffffffffffffffffffffffffffff1673ffffffffffffffffffffffffffffffffffffffff16815260200190815260200160002060008282546111929190613814565b9250508190555084600660008282546111ab9190613814565b92505081905550600073ffffffffffffffffffffffffffffffffffffffff168473ffffffffffffffffffffffffffffffffffffffff16146112855760008473ffffffffffffffffffffffffffffffffffffffff166323b872dd3330876040518463ffffffff1660e01b81526004016112259392919061351e565b602060405180830381600087803b15801561123f57600080fd5b505af1158015611253573d6000803e3d6000fd5b505050506040513d601f19601f820116820180604052508101906112779190612f99565b90508061128357600080fd5b505b600c60003373ffffffffffffffffffffffffffffffffffffffff1673ffffffffffffffffffffffffffffffffffffffff16815260200190815260200160002060009054906101000a900460ff1661133a57600e339080600181540180825580915050600190039060005260206000200160009091909190916101000a81548173ffffffffffffffffffffffffffffffffffffffff021916908373ffffffffffffffffffffffffffffffffffffffff1602179055505b600160009054906101000a900473ffffffffffffffffffffffffffffffffffffffff1673ffffffffffffffffffffffffffffffffffffffff1663a9059cbb33876040518363ffffffff1660e01b8152600401611397929190613555565b602060405180830381600087803b1580156113b157600080fd5b505af11580156113c5573d6000803e3d6000fd5b505050506040513d601f19601f820116820180604052508101906113e99190612f99565b507fe1979fe4c35e0cef342fef5668e2c8e7a7e9f5d5d1ca8fee0ac6c427fa4153af33868560405161141d9392919061357e565b60405180910390a15050505050565b60055481565b600e818154811061144257600080fd5b906000526020600020016000915054906101000a900473ffffffffffffffffffffffffffffffffffffffff1681565b6008602052816000526040600020602052806000526040600020600091509150508060000154908060010160009054906101000a900473ffffffffffffffffffffffffffffffffffffffff16908060020160009054906101000a900473ffffffffffffffffffffffffffffffffffffffff16908060030154905084565b600160009054906101000a900473ffffffffffffffffffffffffffffffffffffffff1673ffffffffffffffffffffffffffffffffffffffff16631775765f6040518163ffffffff1660e01b815260040160206040518083038186803b15801561155657600080fd5b505afa15801561156a573d6000803e3d6000fd5b505050506040513d601f19601f8201168201806040525081019061158e9190613062565b600160009054906101000a900473ffffffffffffffffffffffffffffffffffffffff1673ffffffffffffffffffffffffffffffffffffffff1663dcaf9c446040518163ffffffff1660e01b815260040160206040518083038186803b1580156115f657600080fd5b505afa15801561160a573d6000803e3d6000fd5b505050506040513d601f19601f8201168201806040525081019061162e9190613062565b1061166e576040517f08c379a00000000000000000000000000000000000000000000000000000000081526004016116659061367e565b60405180910390fd5b6000600860008673ffffffffffffffffffffffffffffffffffffffff1673ffffffffffffffffffffffffffffffffffffffff16815260200190815260200160002060008573ffffffffffffffffffffffffffffffffffffffff1673ffffffffffffffffffffffffffffffffffffffff16815260200190815260200160002060030154905060008111611735576040517f08c379a000000000000000000000000000000000000000000000000000000000815260040161172c9061375e565b60405180910390fd5b60006064600160009054906101000a900473ffffffffffffffffffffffffffffffffffffffff1673ffffffffffffffffffffffffffffffffffffffff1663b339b3686040518163ffffffff1660e01b815260040160206040518083038186803b1580156117a157600080fd5b505afa1580156117b5573d6000803e3d6000fd5b505050506040513d601f19601f820116820180604052508101906117d99190613062565b856117e49190613a0c565b6117ee919061386a565b90503073ffffffffffffffffffffffffffffffffffffffff166323b872dd3388848861181a9190613a66565b6040518463ffffffff1660e01b81526004016118389392919061351e565b602060405180830381600087803b15801561185257600080fd5b505af1158015611866573d6000803e3d6000fd5b505050506040513d601f19601f8201168201806040525081019061188a9190612f99565b50600061189785876105ff565b905084600860003373ffffffffffffffffffffffffffffffffffffffff1673ffffffffffffffffffffffffffffffffffffffff16815260200190815260200160002060008873ffffffffffffffffffffffffffffffffffffffff1673ffffffffffffffffffffffffffffffffffffffff16815260200190815260200160002060030160008282546119289190613a66565b9250508190555061193985856128d0565b600073ffffffffffffffffffffffffffffffffffffffff168673ffffffffffffffffffffffffffffffffffffffff161415611a205760003373ffffffffffffffffffffffffffffffffffffffff1682604051611994906134ee565b60006040518083038185875af1925050503d80600081146119d1576040519150601f19603f3d011682016040523d82523d6000602084013e6119d6565b606091505b5050905080611a1a576040517f08c379a0000000000000000000000000000000000000000000000000000000008152600401611a119061371e565b60405180910390fd5b50611ab7565b8573ffffffffffffffffffffffffffffffffffffffff1663a9059cbb33836040518363ffffffff1660e01b8152600401611a5b929190613555565b602060405180830381600087803b158015611a7557600080fd5b505af1158015611a89573d6000803e3d6000fd5b505050506040513d601f19601f82011682018060405250810190611aad9190612f99565b611ab657600080fd5b5b8673ffffffffffffffffffffffffffffffffffffffff163373ffffffffffffffffffffffffffffffffffffffff167faef3faf684172084346f7dc2cc3bb1328d1cc23caec12dd9a82d4a4e56c00b1787604051611b149190613799565b60405180910390a350505050505050565b60045481565b60096020528060005260406000206000915090505481565b600260009054906101000a900473ffffffffffffffffffffffffffffffffffffffff1673ffffffffffffffffffffffffffffffffffffffff163373ffffffffffffffffffffffffffffffffffffffff1614611bd3576040517f08c379a0000000000000000000000000000000000000000000000000000000008152600401611bca906136fe565b60405180910390fd5b62015180600754611be49190613814565b421015611c26576040517f08c379a0000000000000000000000000000000000000000000000000000000008152600401611c1d9061369e565b60405180910390fd5b60005b600e80549050811015611e15576000600e8281548110611c72577f4e487b7100000000000000000000000000000000000000000000000000000000600052603260045260246000fd5b9060005260206000200160009054906101000a900473ffffffffffffffffffffffffffffffffffffffff1690506000600654600a60003373ffffffffffffffffffffffffffffffffffffffff1673ffffffffffffffffffffffffffffffffffffffff16815260200190815260200160002054693f870857a3e0e3800000611cf99190613a0c565b611d03919061386a565b905060008054906101000a900473ffffffffffffffffffffffffffffffffffffffff1673ffffffffffffffffffffffffffffffffffffffff1663a9059cbb83836040518363ffffffff1660e01b8152600401611d60929190613555565b602060405180830381600087803b158015611d7a57600080fd5b505af1158015611d8e573d6000803e3d6000fd5b505050506040513d601f19601f82011682018060405250810190611db29190612f99565b506000600a60003373ffffffffffffffffffffffffffffffffffffffff1673ffffffffffffffffffffffffffffffffffffffff16815260200190815260200160002081905550600060068190555050508080611e0d90613b4c565b915050611c29565b5042600781905550600e6000611e2b9190612d73565b565b60606000600d8054905067ffffffffffffffff811115611e76577f4e487b7100000000000000000000000000000000000000000000000000000000600052604160045260246000fd5b604051908082528060200260200182016040528015611eaf57816020015b611e9c612d1c565b815260200190600190039081611e945790505b5090506000805b600d80549050811015612090576000600d8281548110611eff577f4e487b7100000000000000000000000000000000000000000000000000000000600052603260045260246000fd5b906000526020600020906004020160030154111561207d57600d8181548110611f51577f4e487b7100000000000000000000000000000000000000000000000000000000600052603260045260246000fd5b9060005260206000209060040201604051806080016040529081600082015481526020016001820160009054906101000a900473ffffffffffffffffffffffffffffffffffffffff1673ffffffffffffffffffffffffffffffffffffffff1673ffffffffffffffffffffffffffffffffffffffff1681526020016002820160009054906101000a900473ffffffffffffffffffffffffffffffffffffffff1673ffffffffffffffffffffffffffffffffffffffff1673ffffffffffffffffffffffffffffffffffffffff168152602001600382015481525050838381518110612063577f4e487b7100000000000000000000000000000000000000000000000000000000600052603260045260246000fd5b6020026020010181905250818061207990613b4c565b9250505b808061208890613b4c565b915050611eb6565b50819250505090565b600d81815481106120a957600080fd5b90600052602060002090600402016000915090508060000154908060010160009054906101000a900473ffffffffffffffffffffffffffffffffffffffff16908060020160009054906101000a900473ffffffffffffffffffffffffffffffffffffffff16908060030154905084565b670b1a2bc2ec50000081565b60008111612168576040517f08c379a000000000000000000000000000000000000000000000000000000000815260040161215f9061363e565b60405180910390fd5b806004600082825461217a9190613814565b9250508190555080600960003373ffffffffffffffffffffffffffffffffffffffff1673ffffffffffffffffffffffffffffffffffffffff16815260200190815260200160002060008282546121d09190613814565b9250508190555080600a60003373ffffffffffffffffffffffffffffffffffffffff1673ffffffffffffffffffffffffffffffffffffffff16815260200190815260200160002060008282546122269190613814565b92505081905550806006600082825461223f9190613814565b92505081905550600c60003373ffffffffffffffffffffffffffffffffffffffff1673ffffffffffffffffffffffffffffffffffffffff16815260200190815260200160002060009054906101000a900460ff166122fb57600e339080600181540180825580915050600190039060005260206000200160009091909190916101000a81548173ffffffffffffffffffffffffffffffffffffffff021916908373ffffffffffffffffffffffffffffffffffffffff1602179055505b600160009054906101000a900473ffffffffffffffffffffffffffffffffffffffff1673ffffffffffffffffffffffffffffffffffffffff166323b872dd3330846040518463ffffffff1660e01b815260040161235a9392919061351e565b602060405180830381600087803b15801561237457600080fd5b505af1158015612388573d6000803e3d6000fd5b505050506040513d601f19601f820116820180604052508101906123ac9190612f99565b507f41b123d2493c7b2067b8b7f49cf71532523d83ead11494d793531ece1fd4d04633826040516123de929190613555565b60405180910390a150565b600260009054906101000a900473ffffffffffffffffffffffffffffffffffffffff1673ffffffffffffffffffffffffffffffffffffffff163373ffffffffffffffffffffffffffffffffffffffff1614612479576040517f08c379a0000000000000000000000000000000000000000000000000000000008152600401612470906136fe565b60405180910390fd5b60006124836124b5565b905080670b1a2bc2ec500000612499919061386a565b6003546124a69190613a0c565b60038190555050565b60075481565b60008060045414806124c957506000600454145b156124d757600090506124fd565b600454670de0b6b3a76400006005546124f09190613a0c565b6124fa919061386a565b90505b90565b60008211612543576040517f08c379a000000000000000000000000000000000000000000000000000000000815260040161253a9061365e565b60405180910390fd5b600061254f83856105ff565b905082600560008282546125639190613a66565b9250508190555082600860003373ffffffffffffffffffffffffffffffffffffffff1673ffffffffffffffffffffffffffffffffffffffff16815260200190815260200160002060008673ffffffffffffffffffffffffffffffffffffffff1673ffffffffffffffffffffffffffffffffffffffff16815260200190815260200160002060030160008282546125f99190613a66565b92505081905550600160009054906101000a900473ffffffffffffffffffffffffffffffffffffffff1673ffffffffffffffffffffffffffffffffffffffff166323b872dd3330866040518463ffffffff1660e01b815260040161265f9392919061351e565b602060405180830381600087803b15801561267957600080fd5b505af115801561268d573d6000803e3d6000fd5b505050506040513d601f19601f820116820180604052508101906126b19190612f99565b506126bc83836128d0565b600073ffffffffffffffffffffffffffffffffffffffff168473ffffffffffffffffffffffffffffffffffffffff1614156127a35760003373ffffffffffffffffffffffffffffffffffffffff1682604051612717906134ee565b60006040518083038185875af1925050503d8060008114612754576040519150601f19603f3d011682016040523d82523d6000602084013e612759565b606091505b505090508061279d576040517f08c379a00000000000000000000000000000000000000000000000000000000081526004016127949061371e565b60405180910390fd5b5061283a565b8373ffffffffffffffffffffffffffffffffffffffff1663a9059cbb33836040518363ffffffff1660e01b81526004016127de929190613555565b602060405180830381600087803b1580156127f857600080fd5b505af115801561280c573d6000803e3d6000fd5b505050506040513d601f19601f820116820180604052508101906128309190612f99565b61283957600080fd5b5b7f77c6871227e5d2dec8dadd5354f78453203e22e669cd0ec4c19d9a8c5edb31d033848360405161286d9392919061357e565b60405180910390a150505050565b66038d7ea4c6800081565b60006128c883836040518060400160405280601a81526020017f536166654d6174683a206469766973696f6e206279207a65726f000000000000815250612cb9565b905092915050565b60006001600b6000848152602001908152602001600020546128f29190613a66565b90506000600d8281548110612930577f4e487b7100000000000000000000000000000000000000000000000000000000600052603260045260246000fd5b9060005260206000209060040201604051806080016040529081600082015481526020016001820160009054906101000a900473ffffffffffffffffffffffffffffffffffffffff1673ffffffffffffffffffffffffffffffffffffffff1673ffffffffffffffffffffffffffffffffffffffff1681526020016002820160009054906101000a900473ffffffffffffffffffffffffffffffffffffffff1673ffffffffffffffffffffffffffffffffffffffff1673ffffffffffffffffffffffffffffffffffffffff168152602001600382015481525050905080606001518410612c5057600d6001600d80549050612a2a9190613a66565b81548110612a61577f4e487b7100000000000000000000000000000000000000000000000000000000600052603260045260246000fd5b9060005260206000209060040201600d8381548110612aa9577f4e487b7100000000000000000000000000000000000000000000000000000000600052603260045260246000fd5b9060005260206000209060040201600082015481600001556001820160009054906101000a900473ffffffffffffffffffffffffffffffffffffffff168160010160006101000a81548173ffffffffffffffffffffffffffffffffffffffff021916908373ffffffffffffffffffffffffffffffffffffffff1602179055506002820160009054906101000a900473ffffffffffffffffffffffffffffffffffffffff168160020160006101000a81548173ffffffffffffffffffffffffffffffffffffffff021916908373ffffffffffffffffffffffffffffffffffffffff16021790555060038201548160030155905050600d805480612bd4577f4e487b7100000000000000000000000000000000000000000000000000000000600052603160045260246000fd5b60019003818190600052602060002090600402016000808201600090556001820160006101000a81549073ffffffffffffffffffffffffffffffffffffffff02191690556002820160006101000a81549073ffffffffffffffffffffffffffffffffffffffff0219169055600382016000905550509055612cb3565b83600d8381548110612c8b577f4e487b7100000000000000000000000000000000000000000000000000000000600052603260045260246000fd5b90600052602060002090600402016003016000828254612cab9190613a66565b925050819055505b50505050565b60008083118290612d00576040517f08c379a0000000000000000000000000000000000000000000000000000000008152600401612cf7919061361c565b60405180910390fd5b5060008385612d0f919061386a565b9050809150509392505050565b604051806080016040528060008019168152602001600073ffffffffffffffffffffffffffffffffffffffff168152602001600073ffffffffffffffffffffffffffffffffffffffff168152602001600081525090565b5080546000825590600052602060002090810190612d919190612d94565b50565b5b80821115612dad576000816000905550600101612d95565b5090565b600081359050612dc081613e81565b92915050565b600081519050612dd581613e81565b92915050565b600081519050612dea81613e98565b92915050565b600081359050612dff81613eaf565b92915050565b600081519050612e1481613ec6565b92915050565b600081359050612e2981613edd565b92915050565b600081519050612e3e81613edd565b92915050565b600081519050612e5381613ef4565b92915050565b600060208284031215612e6b57600080fd5b6000612e7984828501612db1565b91505092915050565b600060208284031215612e9457600080fd5b6000612ea284828501612dc6565b91505092915050565b60008060408385031215612ebe57600080fd5b6000612ecc85828601612db1565b9250506020612edd85828601612db1565b9150509250929050565b60008060008060808587031215612efd57600080fd5b6000612f0b87828801612db1565b9450506020612f1c87828801612db1565b9350506040612f2d87828801612e1a565b9250506060612f3e87828801612df0565b91505092959194509250565b600080600060608486031215612f5f57600080fd5b6000612f6d86828701612db1565b9350506020612f7e86828701612e1a565b9250506040612f8f86828701612df0565b9150509250925092565b600060208284031215612fab57600080fd5b6000612fb984828501612ddb565b91505092915050565b600080600080600060a08688031215612fda57600080fd5b6000612fe888828901612ddb565b9550506020612ff988828901612e2f565b945050604061300a88828901612e2f565b935050606061301b88828901612e2f565b925050608061302c88828901612dc6565b9150509295509295909350565b60006020828403121561304b57600080fd5b600061305984828501612e1a565b91505092915050565b60006020828403121561307457600080fd5b600061308284828501612e2f565b91505092915050565b6000806040838503121561309e57600080fd5b60006130ac85828601612e1a565b92505060206130bd85828601612db1565b9150509250929050565b600080600080600060a086880312156130df57600080fd5b60006130ed88828901612e44565b95505060206130fe88828901612e05565b945050604061310f88828901612e2f565b935050606061312088828901612e2f565b925050608061313188828901612e44565b9150509295509295909350565b600061314a83836133c1565b60808301905092915050565b61315f81613a9a565b82525050565b61316e81613a9a565b82525050565b61318561318082613a9a565b613b95565b82525050565b6000613196826137c4565b6131a081856137e7565b93506131ab836137b4565b8060005b838110156131dc5781516131c3888261313e565b97506131ce836137da565b9250506001810190506131af565b5085935050505092915050565b6131f281613ab8565b82525050565b61320181613ab8565b82525050565b6000613212826137cf565b61321c8185613803565b935061322c818560208601613b19565b61323581613c21565b840191505092915050565b600061324d600e83613803565b915061325882613c4c565b602082019050919050565b6000613270601d83613803565b915061327b82613c75565b602082019050919050565b6000613293601983613803565b915061329e82613c9e565b602082019050919050565b60006132b6601983613803565b91506132c182613cc7565b602082019050919050565b60006132d9602183613803565b91506132e482613cf0565b604082019050919050565b60006132fc601383613803565b915061330782613d3f565b602082019050919050565b600061331f6000836137f8565b915061332a82613d68565b600082019050919050565b6000613342602483613803565b915061334d82613d6b565b604082019050919050565b6000613365602b83613803565b915061337082613dba565b604082019050919050565b6000613388601583613803565b915061339382613e09565b602082019050919050565b60006133ab602283613803565b91506133b682613e32565b604082019050919050565b6080820160008201516133d760008501826131e9565b5060208201516133ea6020850182613156565b5060408201516133fd6040850182613156565b506060820151613410606085018261346b565b50505050565b60808201600082015161342c60008501826131e9565b50602082015161343f6020850182613156565b5060408201516134526040850182613156565b506060820151613465606085018261346b565b50505050565b61347481613aec565b82525050565b61348381613aec565b82525050565b61349a61349582613aec565b613bb9565b82525050565b60006134ac8287613174565b6014820191506134bc8286613489565b6020820191506134cc8285613489565b6020820191506134dc8284613489565b60208201915081905095945050505050565b60006134f982613312565b9150819050919050565b60006020820190506135186000830184613165565b92915050565b60006060820190506135336000830186613165565b6135406020830185613165565b61354d604083018461347a565b949350505050565b600060408201905061356a6000830185613165565b613577602083018461347a565b9392505050565b60006060820190506135936000830186613165565b6135a0602083018561347a565b6135ad604083018461347a565b949350505050565b600060208201905081810360008301526135cf818461318b565b905092915050565b60006080820190506135ec60008301876131f8565b6135f96020830186613165565b6136066040830185613165565b613613606083018461347a565b95945050505050565b600060208201905081810360008301526136368184613207565b905092915050565b6000602082019050818103600083015261365781613240565b9050919050565b6000602082019050818103600083015261367781613263565b9050919050565b6000602082019050818103600083015261369781613286565b9050919050565b600060208201905081810360008301526136b7816132a9565b9050919050565b600060208201905081810360008301526136d7816132cc565b9050919050565b600060208201905081810360008301526136f7816132ef565b9050919050565b6000602082019050818103600083015261371781613335565b9050919050565b6000602082019050818103600083015261373781613358565b9050919050565b600060208201905081810360008301526137578161337b565b9050919050565b600060208201905081810360008301526137778161339e565b9050919050565b60006080820190506137936000830184613416565b92915050565b60006020820190506137ae600083018461347a565b92915050565b6000819050602082019050919050565b600081519050919050565b600081519050919050565b6000602082019050919050565b600082825260208201905092915050565b600081905092915050565b600082825260208201905092915050565b600061381f82613aec565b915061382a83613aec565b9250827fffffffffffffffffffffffffffffffffffffffffffffffffffffffffffffffff0382111561385f5761385e613bc3565b5b828201905092915050565b600061387582613aec565b915061388083613aec565b9250826138905761388f613bf2565b5b828204905092915050565b6000808291508390505b60018511156138e5578086048111156138c1576138c0613bc3565b5b60018516156138d05780820291505b80810290506138de85613c3f565b94506138a5565b94509492505050565b60006138f982613aec565b915061390483613af6565b92506139317fffffffffffffffffffffffffffffffffffffffffffffffffffffffffffffffff8484613939565b905092915050565b6000826139495760019050613a05565b816139575760009050613a05565b816001811461396d5760028114613977576139a6565b6001915050613a05565b60ff84111561398957613988613bc3565b5b8360020a9150848211156139a05761399f613bc3565b5b50613a05565b5060208310610133831016604e8410600b84101617156139db5782820a9050838111156139d6576139d5613bc3565b5b613a05565b6139e8848484600161389b565b925090508184048111156139ff576139fe613bc3565b5b81810290505b9392505050565b6000613a1782613aec565b9150613a2283613aec565b9250817fffffffffffffffffffffffffffffffffffffffffffffffffffffffffffffffff0483118215151615613a5b57613a5a613bc3565b5b828202905092915050565b6000613a7182613aec565b9150613a7c83613aec565b925082821015613a8f57613a8e613bc3565b5b828203905092915050565b6000613aa582613acc565b9050919050565b60008115159050919050565b6000819050919050565b6000819050919050565b600073ffffffffffffffffffffffffffffffffffffffff82169050919050565b6000819050919050565b600060ff82169050919050565b600069ffffffffffffffffffff82169050919050565b60005b83811015613b37578082015181840152602081019050613b1c565b83811115613b46576000848401525b50505050565b6000613b5782613aec565b91507fffffffffffffffffffffffffffffffffffffffffffffffffffffffffffffffff821415613b8a57613b89613bc3565b5b600182019050919050565b6000613ba082613ba7565b9050919050565b6000613bb282613c32565b9050919050565b6000819050919050565b7f4e487b7100000000000000000000000000000000000000000000000000000000600052601160045260246000fd5b7f4e487b7100000000000000000000000000000000000000000000000000000000600052601260045260246000fd5b6000601f19601f8301169050919050565b60008160601b9050919050565b60008160011c9050919050565b7f496e76616c696420616d6f756e74000000000000000000000000000000000000600082015250565b7f416d6f756e74206d7573742062652067726561746572207468616e2030000000600082015250565b7f63616e6e6f74206c697175696461746520706f736974696f6e00000000000000600082015250565b7f74696d6520696e74657276616c206e6f74207265616368656400000000000000600082015250565b7f436f6c6c61746572616c206d7573742062652067726561746572207468616e2060008201527f3000000000000000000000000000000000000000000000000000000000000000602082015250565b7f616d6f756e742065786365656473206c656e6400000000000000000000000000600082015250565b50565b7f63616e206f6e6c792062652063616c6c65642062792043475420676f7665726e60008201527f616e636500000000000000000000000000000000000000000000000000000000602082015250565b7f72657475726e206f6620657468657220636f6c6c61746572616c20776173207560008201527f6e7375636365737366756c000000000000000000000000000000000000000000602082015250565b7f496e73756666696369656e74202062616c616e63650000000000000000000000600082015250565b7f7573657220686173206e6f20706f736974696f6e7320746f206c69717569646160008201527f7465000000000000000000000000000000000000000000000000000000000000602082015250565b613e8a81613a9a565b8114613e9557600080fd5b50565b613ea181613aac565b8114613eac57600080fd5b50565b613eb881613ab8565b8114613ec357600080fd5b50565b613ecf81613ac2565b8114613eda57600080fd5b50565b613ee681613aec565b8114613ef157600080fd5b50565b613efd81613b03565b8114613f0857600080fd5b5056fea26469706673582212205ab0b63f394bfc493f984ed9c6d316419825db7190192e8800b19d591bbe9c4764736f6c63430008040033",
  "linkReferences": {},
  "deployedLinkReferences": {}
}