{
  "_format": "hh-sol-artifact-1",
  "contractName": "MockLending",
  "sourceName": "contracts/mocks/MockLending.sol",
  "abi": [
    {
      "inputs": [
        {
          "internalType": "address",
          "name": "_governance",
          "type": "address"
        },
        {
          "internalType": "address",
          "name": "_chc",
          "type": "address"
        }
      ],
      "stateMutability": "nonpayable",
      "type": "constructor"
    },
    {
      "inputs": [],
      "name": "LOWER_BOUND_INTEREST_RATE",
      "outputs": [
        {
          "internalType": "uint256",
          "name": "",
          "type": "uint256"
        }
      ],
      "stateMutability": "view",
      "type": "function"
    },
    {
      "inputs": [],
      "name": "TARGET_UTILIZATION_RATE",
      "outputs": [
        {
          "internalType": "uint256",
          "name": "",
          "type": "uint256"
        }
      ],
      "stateMutability": "view",
      "type": "function"
    },
    {
      "inputs": [
        {
          "internalType": "uint256",
          "name": "collateralAmount",
          "type": "uint256"
        },
        {
          "internalType": "uint256",
          "name": "borrowAmount",
          "type": "uint256"
        },
        {
          "internalType": "address",
          "name": "_collateralToken",
          "type": "address"
        }
      ],
      "name": "borrow",
      "outputs": [],
      "stateMutability": "nonpayable",
      "type": "function"
    },
    {
      "inputs": [
        {
          "internalType": "address",
          "name": "_collateral",
          "type": "address"
        }
      ],
      "name": "calculateInterestRate",
      "outputs": [
        {
          "internalType": "uint256",
          "name": "",
          "type": "uint256"
        }
      ],
      "stateMutability": "view",
      "type": "function"
    },
    {
      "inputs": [
        {
          "internalType": "address",
          "name": "user",
          "type": "address"
        },
        {
          "internalType": "address",
          "name": "collateral",
          "type": "address"
        }
      ],
      "name": "calculateUserReward",
      "outputs": [
        {
          "internalType": "uint256",
          "name": "",
          "type": "uint256"
        }
      ],
      "stateMutability": "view",
      "type": "function"
    },
    {
      "inputs": [
        {
          "internalType": "address",
          "name": "_collateral",
          "type": "address"
        }
      ],
      "name": "calculateUtilizationRate",
      "outputs": [
        {
          "internalType": "uint256",
          "name": "",
          "type": "uint256"
        }
      ],
      "stateMutability": "view",
      "type": "function"
    },
    {
      "inputs": [],
      "name": "getAssets",
      "outputs": [
        {
          "internalType": "address[]",
          "name": "",
          "type": "address[]"
        }
      ],
      "stateMutability": "view",
      "type": "function"
    },
    {
      "inputs": [
        {
          "internalType": "uint256",
          "name": "amount",
          "type": "uint256"
        },
        {
          "internalType": "address",
          "name": "_collateral",
          "type": "address"
        }
      ],
      "name": "loan",
      "outputs": [],
      "stateMutability": "payable",
      "type": "function"
    },
    {
      "inputs": [
        {
          "internalType": "address",
          "name": "_collateral",
          "type": "address"
        }
      ],
      "name": "rebalanceInterestRate",
      "outputs": [],
      "stateMutability": "nonpayable",
      "type": "function"
    },
    {
      "inputs": [
        {
          "internalType": "address",
          "name": "collateral",
          "type": "address"
        }
      ],
      "name": "redeemReward",
      "outputs": [],
      "stateMutability": "nonpayable",
      "type": "function"
    },
    {
      "inputs": [
        {
          "internalType": "address",
          "name": "_collateral",
          "type": "address"
        },
        {
          "internalType": "uint256",
          "name": "amount",
          "type": "uint256"
        }
      ],
      "name": "repay",
      "outputs": [],
      "stateMutability": "nonpayable",
      "type": "function"
    },
    {
      "inputs": [
        {
          "internalType": "address",
          "name": "",
          "type": "address"
        }
      ],
      "name": "totalBorrowed",
      "outputs": [
        {
          "internalType": "uint256",
          "name": "",
          "type": "uint256"
        }
      ],
      "stateMutability": "view",
      "type": "function"
    },
    {
      "inputs": [
        {
          "internalType": "address",
          "name": "",
          "type": "address"
        }
      ],
      "name": "totalSupplied",
      "outputs": [
        {
          "internalType": "uint256",
          "name": "",
          "type": "uint256"
        }
      ],
      "stateMutability": "view",
      "type": "function"
    },
    {
      "inputs": [],
      "name": "upperBoundInterestRate",
      "outputs": [
        {
          "internalType": "uint256",
          "name": "",
          "type": "uint256"
        }
      ],
      "stateMutability": "view",
      "type": "function"
    },
    {
      "inputs": [
        {
          "internalType": "address",
          "name": "",
          "type": "address"
        },
        {
          "internalType": "address",
          "name": "",
          "type": "address"
        }
      ],
      "name": "users",
      "outputs": [
        {
          "internalType": "uint256",
          "name": "suppliedAmount",
          "type": "uint256"
        },
        {
          "internalType": "uint256",
          "name": "borrowedAmount",
          "type": "uint256"
        },
        {
          "internalType": "uint256",
          "name": "rewardBalance",
          "type": "uint256"
        },
        {
          "internalType": "uint256",
          "name": "lastRewardUpdateBlock",
          "type": "uint256"
        }
      ],
      "stateMutability": "view",
      "type": "function"
    }
  ],
  "bytecode": "0x60806040526706f05b59d3b200006003553480156200001d57600080fd5b506040516200203b3803806200203b8339818101604052810190620000439190620000e3565b816000806101000a81548173ffffffffffffffffffffffffffffffffffffffff021916908373ffffffffffffffffffffffffffffffffffffffff16021790555080600160006101000a81548173ffffffffffffffffffffffffffffffffffffffff021916908373ffffffffffffffffffffffffffffffffffffffff160217905550505062000172565b600081519050620000dd8162000158565b92915050565b60008060408385031215620000f757600080fd5b60006200010785828601620000cc565b92505060206200011a85828601620000cc565b9150509250929050565b6000620001318262000138565b9050919050565b600073ffffffffffffffffffffffffffffffffffffffff82169050919050565b620001638162000124565b81146200016f57600080fd5b50565b611eb980620001826000396000f3fe6080604052600436106100e85760003560e01c80638b595dcf1161008a578063c92dae4f11610059578063c92dae4f1461031d578063d10747fe14610339578063d6bda0c014610364578063e2e1ca2b1461038d576100e8565b80638b595dcf146102635780639d226d0b1461028c578063b286de76146102b7578063c0d18843146102e0576100e8565b806341b8ce3d116100c657806341b8ce3d1461017e5780635e80536a146101bb57806367e4ac2c146101fb5780636bbe56cf14610226576100e8565b80630f234302146100ed57806322867d78146101185780632543715f14610141575b600080fd5b3480156100f957600080fd5b506101026103ca565b60405161010f91906118f3565b60405180910390f35b34801561012457600080fd5b5061013f600480360381019061013a919061154c565b6103d0565b005b34801561014d57600080fd5b5061016860048036038101906101639190611510565b610681565b60405161017591906118f3565b60405180910390f35b34801561018a57600080fd5b506101a560048036038101906101a091906114e7565b6107be565b6040516101b291906118f3565b60405180910390f35b3480156101c757600080fd5b506101e260048036038101906101dd9190611510565b6108b5565b6040516101f2949392919061190e565b60405180910390f35b34801561020757600080fd5b506102106108f2565b60405161021d9190611811565b60405180910390f35b34801561023257600080fd5b5061024d600480360381019061024891906114e7565b610980565b60405161025a91906118f3565b60405180910390f35b34801561026f57600080fd5b5061028a600480360381019061028591906114e7565b610998565b005b34801561029857600080fd5b506102a1610a5e565b6040516102ae91906118f3565b60405180910390f35b3480156102c357600080fd5b506102de60048036038101906102d991906114e7565b610a6a565b005b3480156102ec57600080fd5b50610307600480360381019061030291906114e7565b610c72565b60405161031491906118f3565b60405180910390f35b610337600480360381019061033291906115b1565b610ce3565b005b34801561034557600080fd5b5061034e610e6c565b60405161035b91906118f3565b60405180910390f35b34801561037057600080fd5b5061038b600480360381019061038691906115ed565b610e77565b005b34801561039957600080fd5b506103b460048036038101906103af91906114e7565b6112c9565b6040516103c191906118f3565b60405180910390f35b60035481565b60008111610413576040517f08c379a000000000000000000000000000000000000000000000000000000000815260040161040a90611853565b60405180910390fd5b80600660003373ffffffffffffffffffffffffffffffffffffffff1673ffffffffffffffffffffffffffffffffffffffff16815260200190815260200160002060008473ffffffffffffffffffffffffffffffffffffffff1673ffffffffffffffffffffffffffffffffffffffff1681526020019081526020016000206001015410156104d5576040517f08c379a00000000000000000000000000000000000000000000000000000000081526004016104cc906118b3565b60405180910390fd5b6104df33836112e1565b600160009054906101000a900473ffffffffffffffffffffffffffffffffffffffff1673ffffffffffffffffffffffffffffffffffffffff166323b872dd3330846040518463ffffffff1660e01b815260040161053e939291906117b1565b602060405180830381600087803b15801561055857600080fd5b505af115801561056c573d6000803e3d6000fd5b505050506040513d601f19601f820116820180604052508101906105909190611588565b5080600560008473ffffffffffffffffffffffffffffffffffffffff1673ffffffffffffffffffffffffffffffffffffffff16815260200190815260200160002060008282546105e09190611bef565b9250508190555080600660003373ffffffffffffffffffffffffffffffffffffffff1673ffffffffffffffffffffffffffffffffffffffff16815260200190815260200160002060008473ffffffffffffffffffffffffffffffffffffffff1673ffffffffffffffffffffffffffffffffffffffff16815260200190815260200160002060010160008282546106769190611bef565b925050819055505050565b600080600660008573ffffffffffffffffffffffffffffffffffffffff1673ffffffffffffffffffffffffffffffffffffffff16815260200190815260200160002060008473ffffffffffffffffffffffffffffffffffffffff1673ffffffffffffffffffffffffffffffffffffffff168152602001908152602001600020600301549050600061071184610c72565b824361071d9190611bef565b6107279190611b95565b905080600660008773ffffffffffffffffffffffffffffffffffffffff1673ffffffffffffffffffffffffffffffffffffffff16815260200190815260200160002060008673ffffffffffffffffffffffffffffffffffffffff1673ffffffffffffffffffffffffffffffffffffffff168152602001908152602001600020600201546107b4919061199d565b9250505092915050565b600080600460008473ffffffffffffffffffffffffffffffffffffffff1673ffffffffffffffffffffffffffffffffffffffff16815260200190815260200160002054141561081057600090506108b0565b670de0b6b3a7640000600460008473ffffffffffffffffffffffffffffffffffffffff1673ffffffffffffffffffffffffffffffffffffffff1681526020019081526020016000205461086391906119f3565b600560008473ffffffffffffffffffffffffffffffffffffffff1673ffffffffffffffffffffffffffffffffffffffff168152602001908152602001600020546108ad91906119f3565b90505b919050565b6006602052816000526040600020602052806000526040600020600091509150508060000154908060010154908060020154908060030154905084565b6060600280548060200260200160405190810160405280929190818152602001828054801561097657602002820191906000526020600020905b8160009054906101000a900473ffffffffffffffffffffffffffffffffffffffff1673ffffffffffffffffffffffffffffffffffffffff168152602001906001019080831161092c575b5050505050905090565b60046020528060005260406000206000915090505481565b60008054906101000a900473ffffffffffffffffffffffffffffffffffffffff1673ffffffffffffffffffffffffffffffffffffffff163373ffffffffffffffffffffffffffffffffffffffff1614610a26576040517f08c379a0000000000000000000000000000000000000000000000000000000008152600401610a1d90611893565b60405180910390fd5b6000610a31826107be565b905080670b1a2bc2ec500000610a4791906119f3565b600354610a549190611b95565b6003819055505050565b670b1a2bc2ec50000081565b610a7433826112e1565b6000600660003373ffffffffffffffffffffffffffffffffffffffff1673ffffffffffffffffffffffffffffffffffffffff16815260200190815260200160002060008373ffffffffffffffffffffffffffffffffffffffff1673ffffffffffffffffffffffffffffffffffffffff16815260200190815260200160002060020154905060008111610b3b576040517f08c379a0000000000000000000000000000000000000000000000000000000008152600401610b3290611873565b60405180910390fd5b6000600660003373ffffffffffffffffffffffffffffffffffffffff1673ffffffffffffffffffffffffffffffffffffffff16815260200190815260200160002060008473ffffffffffffffffffffffffffffffffffffffff1673ffffffffffffffffffffffffffffffffffffffff1681526020019081526020016000206002018190555060008054906101000a900473ffffffffffffffffffffffffffffffffffffffff1673ffffffffffffffffffffffffffffffffffffffff1663a9059cbb33836040518363ffffffff1660e01b8152600401610c1b9291906117e8565b602060405180830381600087803b158015610c3557600080fd5b505af1158015610c49573d6000803e3d6000fd5b505050506040513d601f19601f82011682018060405250810190610c6d9190611588565b505050565b600080610c7e836107be565b90506000670de0b6b3a76400006003546002846002610c9d9190611a77565b610ca791906119f3565b610cb19190611b95565b610cbb91906119f3565b905066038d7ea4c680008111610cd85766038d7ea4c68000610cda565b805b92505050919050565b81600460008373ffffffffffffffffffffffffffffffffffffffff1673ffffffffffffffffffffffffffffffffffffffff1681526020019081526020016000206000828254610d32919061199d565b9250508190555081600660003373ffffffffffffffffffffffffffffffffffffffff1673ffffffffffffffffffffffffffffffffffffffff16815260200190815260200160002060008373ffffffffffffffffffffffffffffffffffffffff1673ffffffffffffffffffffffffffffffffffffffff1681526020019081526020016000206000016000828254610dc8919061199d565b92505081905550610dd933826112e1565b600160009054906101000a900473ffffffffffffffffffffffffffffffffffffffff1673ffffffffffffffffffffffffffffffffffffffff1663a5d5db0c82846040518363ffffffff1660e01b8152600401610e369291906117e8565b600060405180830381600087803b158015610e5057600080fd5b505af1158015610e64573d6000803e3d6000fd5b505050505050565b66038d7ea4c6800081565b600083118015610e875750600082115b610ec6576040517f08c379a0000000000000000000000000000000000000000000000000000000008152600401610ebd906118d3565b60405180910390fd5b6000610ed182610c72565b84610edc9190611b95565b90508083600660003373ffffffffffffffffffffffffffffffffffffffff1673ffffffffffffffffffffffffffffffffffffffff16815260200190815260200160002060008573ffffffffffffffffffffffffffffffffffffffff1673ffffffffffffffffffffffffffffffffffffffff16815260200190815260200160002060010154610f6a919061199d565b1115610fab576040517f08c379a0000000000000000000000000000000000000000000000000000000008152600401610fa290611833565b60405180910390fd5b8173ffffffffffffffffffffffffffffffffffffffff166323b872dd3330876040518463ffffffff1660e01b8152600401610fe8939291906117b1565b602060405180830381600087803b15801561100257600080fd5b505af1158015611016573d6000803e3d6000fd5b505050506040513d601f19601f8201168201806040525081019061103a9190611588565b50600160009054906101000a900473ffffffffffffffffffffffffffffffffffffffff1673ffffffffffffffffffffffffffffffffffffffff1663a9059cbb33856040518363ffffffff1660e01b81526004016110989291906117e8565b602060405180830381600087803b1580156110b257600080fd5b505af11580156110c6573d6000803e3d6000fd5b505050506040513d601f19601f820116820180604052508101906110ea9190611588565b5083600460008473ffffffffffffffffffffffffffffffffffffffff1673ffffffffffffffffffffffffffffffffffffffff168152602001908152602001600020600082825461113a919061199d565b9250508190555082600560008473ffffffffffffffffffffffffffffffffffffffff1673ffffffffffffffffffffffffffffffffffffffff1681526020019081526020016000206000828254611190919061199d565b9250508190555083600660003373ffffffffffffffffffffffffffffffffffffffff1673ffffffffffffffffffffffffffffffffffffffff16815260200190815260200160002060008473ffffffffffffffffffffffffffffffffffffffff1673ffffffffffffffffffffffffffffffffffffffff1681526020019081526020016000206000016000828254611226919061199d565b9250508190555082600660003373ffffffffffffffffffffffffffffffffffffffff1673ffffffffffffffffffffffffffffffffffffffff16815260200190815260200160002060008473ffffffffffffffffffffffffffffffffffffffff1673ffffffffffffffffffffffffffffffffffffffff16815260200190815260200160002060010160008282546112bc919061199d565b9250508190555050505050565b60056020528060005260406000206000915090505481565b6000600660008473ffffffffffffffffffffffffffffffffffffffff1673ffffffffffffffffffffffffffffffffffffffff16815260200190815260200160002060008373ffffffffffffffffffffffffffffffffffffffff1673ffffffffffffffffffffffffffffffffffffffff168152602001908152602001600020600301549050600061137083610c72565b824361137c9190611bef565b6113869190611b95565b905080600660008673ffffffffffffffffffffffffffffffffffffffff1673ffffffffffffffffffffffffffffffffffffffff16815260200190815260200160002060008573ffffffffffffffffffffffffffffffffffffffff1673ffffffffffffffffffffffffffffffffffffffff1681526020019081526020016000206002016000828254611417919061199d565b9250508190555043600660008673ffffffffffffffffffffffffffffffffffffffff1673ffffffffffffffffffffffffffffffffffffffff16815260200190815260200160002060008573ffffffffffffffffffffffffffffffffffffffff1673ffffffffffffffffffffffffffffffffffffffff1681526020019081526020016000206003018190555050505050565b6000813590506114b781611e3e565b92915050565b6000815190506114cc81611e55565b92915050565b6000813590506114e181611e6c565b92915050565b6000602082840312156114f957600080fd5b6000611507848285016114a8565b91505092915050565b6000806040838503121561152357600080fd5b6000611531858286016114a8565b9250506020611542858286016114a8565b9150509250929050565b6000806040838503121561155f57600080fd5b600061156d858286016114a8565b925050602061157e858286016114d2565b9150509250929050565b60006020828403121561159a57600080fd5b60006115a8848285016114bd565b91505092915050565b600080604083850312156115c457600080fd5b60006115d2858286016114d2565b92505060206115e3858286016114a8565b9150509250929050565b60008060006060848603121561160257600080fd5b6000611610868287016114d2565b9350506020611621868287016114d2565b9250506040611632868287016114a8565b9150509250925092565b60006116488383611654565b60208301905092915050565b61165d81611c23565b82525050565b61166c81611c23565b82525050565b600061167d82611963565b611687818561197b565b935061169283611953565b8060005b838110156116c35781516116aa888261163c565b97506116b58361196e565b925050600181019050611696565b5085935050505092915050565b60006116dd601b8361198c565b91506116e882611cd6565b602082019050919050565b6000611700601d8361198c565b915061170b82611cff565b602082019050919050565b600061172360148361198c565b915061172e82611d28565b602082019050919050565b600061174660248361198c565b915061175182611d51565b604082019050919050565b600061176960248361198c565b915061177482611da0565b604082019050919050565b600061178c60348361198c565b915061179782611def565b604082019050919050565b6117ab81611c61565b82525050565b60006060820190506117c66000830186611663565b6117d36020830185611663565b6117e060408301846117a2565b949350505050565b60006040820190506117fd6000830185611663565b61180a60208301846117a2565b9392505050565b6000602082019050818103600083015261182b8184611672565b905092915050565b6000602082019050818103600083015261184c816116d0565b9050919050565b6000602082019050818103600083015261186c816116f3565b9050919050565b6000602082019050818103600083015261188c81611716565b9050919050565b600060208201905081810360008301526118ac81611739565b9050919050565b600060208201905081810360008301526118cc8161175c565b9050919050565b600060208201905081810360008301526118ec8161177f565b9050919050565b600060208201905061190860008301846117a2565b92915050565b600060808201905061192360008301876117a2565b61193060208301866117a2565b61193d60408301856117a2565b61194a60608301846117a2565b95945050505050565b6000819050602082019050919050565b600081519050919050565b6000602082019050919050565b600082825260208201905092915050565b600082825260208201905092915050565b60006119a882611c61565b91506119b383611c61565b9250827fffffffffffffffffffffffffffffffffffffffffffffffffffffffffffffffff038211156119e8576119e7611c6b565b5b828201905092915050565b60006119fe82611c61565b9150611a0983611c61565b925082611a1957611a18611c9a565b5b828204905092915050565b6000808291508390505b6001851115611a6e57808604811115611a4a57611a49611c6b565b5b6001851615611a595780820291505b8081029050611a6785611cc9565b9450611a2e565b94509492505050565b6000611a8282611c61565b9150611a8d83611c61565b9250611aba7fffffffffffffffffffffffffffffffffffffffffffffffffffffffffffffffff8484611ac2565b905092915050565b600082611ad25760019050611b8e565b81611ae05760009050611b8e565b8160018114611af65760028114611b0057611b2f565b6001915050611b8e565b60ff841115611b1257611b11611c6b565b5b8360020a915084821115611b2957611b28611c6b565b5b50611b8e565b5060208310610133831016604e8410600b8410161715611b645782820a905083811115611b5f57611b5e611c6b565b5b611b8e565b611b718484846001611a24565b92509050818404811115611b8857611b87611c6b565b5b81810290505b9392505050565b6000611ba082611c61565b9150611bab83611c61565b9250817fffffffffffffffffffffffffffffffffffffffffffffffffffffffffffffffff0483118215151615611be457611be3611c6b565b5b828202905092915050565b6000611bfa82611c61565b9150611c0583611c61565b925082821015611c1857611c17611c6b565b5b828203905092915050565b6000611c2e82611c41565b9050919050565b60008115159050919050565b600073ffffffffffffffffffffffffffffffffffffffff82169050919050565b6000819050919050565b7f4e487b7100000000000000000000000000000000000000000000000000000000600052601160045260246000fd5b7f4e487b7100000000000000000000000000000000000000000000000000000000600052601260045260246000fd5b60008160011c9050919050565b7f426f72726f7720616d6f756e742065786365656473206c696d69740000000000600082015250565b7f416d6f756e74206d7573742062652067726561746572207468616e2030000000600082015250565b7f4e6f207265776172647320617661696c61626c65000000000000000000000000600082015250565b7f63616e206f6e6c792062652063616c6c65642062792043475420676f7665726e60008201527f616e636500000000000000000000000000000000000000000000000000000000602082015250565b7f526570617920616d6f756e74206578636565647320626f72726f77656420616d60008201527f6f756e7400000000000000000000000000000000000000000000000000000000602082015250565b7f436f6c6c61746572616c20616e6420626f72726f7720616d6f756e7473206d7560008201527f73742062652067726561746572207468616e2030000000000000000000000000602082015250565b611e4781611c23565b8114611e5257600080fd5b50565b611e5e81611c35565b8114611e6957600080fd5b50565b611e7581611c61565b8114611e8057600080fd5b5056fea2646970667358221220ca32da5d2b024f47a59de76071dc768f48cae57e882efdf3a75e71f5ea0bc2e164736f6c63430008040033",
  "linkReferences": {},
  "deployedLinkReferences": {}
}