{
  "_format": "hh-sol-artifact-1",
  "contractName": "MockLending",
  "sourceName": "contracts/mocks/MockLending.sol",
  "abi": [
    {
      "inputs": [
        {
          "internalType": "address",
          "name": "_team",
          "type": "address"
        },
        {
          "internalType": "address",
          "name": "_governance",
          "type": "address"
        },
        {
          "internalType": "address",
          "name": "_chc",
          "type": "address"
        }
      ],
      "stateMutability": "nonpayable",
      "type": "constructor"
    },
    {
      "anonymous": false,
      "inputs": [
        {
          "indexed": false,
          "internalType": "address",
          "name": "user",
          "type": "address"
        },
        {
          "indexed": false,
          "internalType": "uint256",
          "name": "amount0",
          "type": "uint256"
        },
        {
          "indexed": false,
          "internalType": "uint256",
          "name": "amount1",
          "type": "uint256"
        },
        {
          "indexed": false,
          "internalType": "uint256",
          "name": "incentive",
          "type": "uint256"
        }
      ],
      "name": "Borrow",
      "type": "event"
    },
    {
      "anonymous": false,
      "inputs": [
        {
          "indexed": false,
          "internalType": "address",
          "name": "user",
          "type": "address"
        },
        {
          "indexed": false,
          "internalType": "uint256",
          "name": "amount",
          "type": "uint256"
        },
        {
          "indexed": false,
          "internalType": "uint256",
          "name": "incentive",
          "type": "uint256"
        }
      ],
      "name": "Lend",
      "type": "event"
    },
    {
      "anonymous": false,
      "inputs": [
        {
          "indexed": true,
          "internalType": "address",
          "name": "liquidator",
          "type": "address"
        },
        {
          "indexed": true,
          "internalType": "address",
          "name": "borrower",
          "type": "address"
        },
        {
          "indexed": false,
          "internalType": "uint256",
          "name": "amountLiquidated",
          "type": "uint256"
        }
      ],
      "name": "Liquidate",
      "type": "event"
    },
    {
      "anonymous": false,
      "inputs": [
        {
          "indexed": false,
          "internalType": "address",
          "name": "user",
          "type": "address"
        },
        {
          "indexed": false,
          "internalType": "uint256",
          "name": "amount",
          "type": "uint256"
        },
        {
          "indexed": false,
          "internalType": "uint256",
          "name": "collateralAmount",
          "type": "uint256"
        }
      ],
      "name": "Repay",
      "type": "event"
    },
    {
      "anonymous": false,
      "inputs": [
        {
          "indexed": false,
          "internalType": "address",
          "name": "user",
          "type": "address"
        },
        {
          "indexed": false,
          "internalType": "uint256",
          "name": "amount",
          "type": "uint256"
        }
      ],
      "name": "Withdraw",
      "type": "event"
    },
    {
      "inputs": [],
      "name": "LOWER_BOUND_INTEREST_RATE",
      "outputs": [
        {
          "internalType": "uint256",
          "name": "",
          "type": "uint256"
        }
      ],
      "stateMutability": "view",
      "type": "function"
    },
    {
      "inputs": [],
      "name": "TARGET_UTILIZATION_RATE",
      "outputs": [
        {
          "internalType": "uint256",
          "name": "",
          "type": "uint256"
        }
      ],
      "stateMutability": "view",
      "type": "function"
    },
    {
      "inputs": [
        {
          "internalType": "uint256",
          "name": "borrowAmount",
          "type": "uint256"
        },
        {
          "internalType": "address",
          "name": "_collateral",
          "type": "address"
        }
      ],
      "name": "borrow",
      "outputs": [],
      "stateMutability": "payable",
      "type": "function"
    },
    {
      "inputs": [
        {
          "internalType": "uint256",
          "name": "_amount",
          "type": "uint256"
        },
        {
          "internalType": "address",
          "name": "_collateral",
          "type": "address"
        }
      ],
      "name": "calculateCollateralAmount",
      "outputs": [
        {
          "internalType": "uint256",
          "name": "",
          "type": "uint256"
        }
      ],
      "stateMutability": "view",
      "type": "function"
    },
    {
      "inputs": [],
      "name": "calculateInterestRate",
      "outputs": [
        {
          "internalType": "uint256",
          "name": "",
          "type": "uint256"
        }
      ],
      "stateMutability": "view",
      "type": "function"
    },
    {
      "inputs": [],
      "name": "calculateUtilizationRate",
      "outputs": [
        {
          "internalType": "uint256",
          "name": "",
          "type": "uint256"
        }
      ],
      "stateMutability": "view",
      "type": "function"
    },
    {
      "inputs": [],
      "name": "getCdpCounter",
      "outputs": [
        {
          "internalType": "uint256",
          "name": "",
          "type": "uint256"
        }
      ],
      "stateMutability": "view",
      "type": "function"
    },
    {
      "inputs": [],
      "name": "getPositions",
      "outputs": [
        {
          "components": [
            {
              "internalType": "address",
              "name": "user",
              "type": "address"
            },
            {
              "internalType": "address",
              "name": "collateral",
              "type": "address"
            },
            {
              "internalType": "uint256",
              "name": "borrowedAmount",
              "type": "uint256"
            }
          ],
          "internalType": "struct MockLending.Position[]",
          "name": "",
          "type": "tuple[]"
        }
      ],
      "stateMutability": "view",
      "type": "function"
    },
    {
      "inputs": [
        {
          "internalType": "address",
          "name": "user",
          "type": "address"
        }
      ],
      "name": "getUserPositions",
      "outputs": [
        {
          "components": [
            {
              "internalType": "address",
              "name": "user",
              "type": "address"
            },
            {
              "internalType": "address",
              "name": "collateral",
              "type": "address"
            },
            {
              "internalType": "uint256",
              "name": "borrowedAmount",
              "type": "uint256"
            }
          ],
          "internalType": "struct MockLending.Position[]",
          "name": "",
          "type": "tuple[]"
        }
      ],
      "stateMutability": "view",
      "type": "function"
    },
    {
      "inputs": [
        {
          "internalType": "uint256",
          "name": "_amount",
          "type": "uint256"
        }
      ],
      "name": "lend",
      "outputs": [],
      "stateMutability": "nonpayable",
      "type": "function"
    },
    {
      "inputs": [
        {
          "internalType": "address",
          "name": "_borrower",
          "type": "address"
        },
        {
          "internalType": "address",
          "name": "_collateral",
          "type": "address"
        },
        {
          "internalType": "uint256",
          "name": "_amount",
          "type": "uint256"
        }
      ],
      "name": "liquidate",
      "outputs": [],
      "stateMutability": "nonpayable",
      "type": "function"
    },
    {
      "inputs": [
        {
          "internalType": "uint256",
          "name": "",
          "type": "uint256"
        }
      ],
      "name": "positions",
      "outputs": [
        {
          "internalType": "address",
          "name": "user",
          "type": "address"
        },
        {
          "internalType": "address",
          "name": "collateral",
          "type": "address"
        },
        {
          "internalType": "uint256",
          "name": "borrowedAmount",
          "type": "uint256"
        }
      ],
      "stateMutability": "view",
      "type": "function"
    },
    {
      "inputs": [],
      "name": "rebalanceInterestRate",
      "outputs": [],
      "stateMutability": "nonpayable",
      "type": "function"
    },
    {
      "inputs": [
        {
          "internalType": "address",
          "name": "_collateral",
          "type": "address"
        },
        {
          "internalType": "uint256",
          "name": "amount",
          "type": "uint256"
        }
      ],
      "name": "repay",
      "outputs": [],
      "stateMutability": "nonpayable",
      "type": "function"
    },
    {
      "inputs": [],
      "name": "totalBorrowed",
      "outputs": [
        {
          "internalType": "uint256",
          "name": "",
          "type": "uint256"
        }
      ],
      "stateMutability": "view",
      "type": "function"
    },
    {
      "inputs": [],
      "name": "totalSupplied",
      "outputs": [
        {
          "internalType": "uint256",
          "name": "",
          "type": "uint256"
        }
      ],
      "stateMutability": "view",
      "type": "function"
    },
    {
      "inputs": [],
      "name": "upperBoundInterestRate",
      "outputs": [
        {
          "internalType": "uint256",
          "name": "",
          "type": "uint256"
        }
      ],
      "stateMutability": "view",
      "type": "function"
    },
    {
      "inputs": [
        {
          "internalType": "address",
          "name": "",
          "type": "address"
        },
        {
          "internalType": "address",
          "name": "",
          "type": "address"
        }
      ],
      "name": "users",
      "outputs": [
        {
          "internalType": "address",
          "name": "user",
          "type": "address"
        },
        {
          "internalType": "address",
          "name": "collateral",
          "type": "address"
        },
        {
          "internalType": "uint256",
          "name": "borrowedAmount",
          "type": "uint256"
        }
      ],
      "stateMutability": "view",
      "type": "function"
    },
    {
      "inputs": [
        {
          "internalType": "uint256",
          "name": "_amount",
          "type": "uint256"
        }
      ],
      "name": "withdraw",
      "outputs": [],
      "stateMutability": "nonpayable",
      "type": "function"
    },
    {
      "stateMutability": "payable",
      "type": "receive"
    }
  ],
  "bytecode": "0x60806040526706f05b59d3b200006003553480156200001d57600080fd5b5060405162003a4d38038062003a4d833981810160405281019062000043919062000125565b816000806101000a81548173ffffffffffffffffffffffffffffffffffffffff021916908373ffffffffffffffffffffffffffffffffffffffff16021790555080600160006101000a81548173ffffffffffffffffffffffffffffffffffffffff021916908373ffffffffffffffffffffffffffffffffffffffff16021790555082600260006101000a81548173ffffffffffffffffffffffffffffffffffffffff021916908373ffffffffffffffffffffffffffffffffffffffff160217905550505050620001c9565b6000815190506200011f81620001af565b92915050565b6000806000606084860312156200013b57600080fd5b60006200014b868287016200010e565b93505060206200015e868287016200010e565b925050604062000171868287016200010e565b9150509250925092565b600062000188826200018f565b9050919050565b600073ffffffffffffffffffffffffffffffffffffffff82169050919050565b620001ba816200017b565b8114620001c657600080fd5b50565b61387480620001d96000396000f3fe6080604052600436106101175760003560e01c80635e80536a116100a0578063a6aa57ce11610064578063a6aa57ce146103bf578063a8b0d2fc146103e8578063bda736b8146103ff578063d10747fe1461042a578063e11a3ab31461045557610129565b80635e80536a146102c0578063630fd0ac146102ff578063802758601461032a57806399fbab88146103555780639d226d0b1461039457610129565b80632a6bc2dd116100e75780632a6bc2dd146101e85780632e1a7d4d146102255780633a082d8e1461024e5780634b3fd148146102795780634c19386c1461029557610129565b8062fc90801461012e5780630f2343021461016b57806322867d781461019657806326c01303146101bf57610129565b3661012957610127346000610480565b005b600080fd5b34801561013a57600080fd5b5061015560048036038101906101509190612b8a565b610a40565b6040516101629190613138565b60405180910390f35b34801561017757600080fd5b50610180610cc5565b60405161018d9190613138565b60405180910390f35b3480156101a257600080fd5b506101bd60048036038101906101b89190612a5c565b610ccb565b005b3480156101cb57600080fd5b506101e660048036038101906101e19190612a0d565b611107565b005b3480156101f457600080fd5b5061020f600480360381019061020a919061297f565b61173d565b60405161021c9190612fd4565b60405180910390f35b34801561023157600080fd5b5061024c60048036038101906102479190612b38565b611b6b565b005b34801561025a57600080fd5b50610263611d87565b6040516102709190613138565b60405180910390f35b610293600480360381019061028e9190612b8a565b610480565b005b3480156102a157600080fd5b506102aa611df5565b6040516102b79190613138565b60405180910390f35b3480156102cc57600080fd5b506102e760048036038101906102e291906129d1565b611dfb565b6040516102f693929190612ef8565b60405180910390f35b34801561030b57600080fd5b50610314611e72565b6040516103219190613138565b60405180910390f35b34801561033657600080fd5b5061033f611e78565b60405161034c9190612fd4565b60405180910390f35b34801561036157600080fd5b5061037c60048036038101906103779190612b38565b6120da565b60405161038b93929190612ef8565b60405180910390f35b3480156103a057600080fd5b506103a9612154565b6040516103b69190613138565b60405180910390f35b3480156103cb57600080fd5b506103e660048036038101906103e19190612b38565b612160565b005b3480156103f457600080fd5b506103fd61238f565b005b34801561040b57600080fd5b50610414612455565b6040516104219190613138565b60405180910390f35b34801561043657600080fd5b5061043f612493565b60405161044c9190613138565b60405180910390f35b34801561046157600080fd5b5061046a61249e565b6040516104779190613138565b60405180910390f35b600082116104c3576040517f08c379a00000000000000000000000000000000000000000000000000000000081526004016104ba90613078565b60405180910390fd5b81600160009054906101000a900473ffffffffffffffffffffffffffffffffffffffff1673ffffffffffffffffffffffffffffffffffffffff166370a08231306040518263ffffffff1660e01b815260040161051f9190612edd565b60206040518083038186803b15801561053757600080fd5b505afa15801561054b573d6000803e3d6000fd5b505050506040513d601f19601f8201168201806040525081019061056f9190612b61565b10156105b0576040517f08c379a00000000000000000000000000000000000000000000000000000000081526004016105a7906130f8565b60405180910390fd5b60006105bc8383610a40565b905060006004546005546105d091906131b3565b846105db9190613209565b693f870857a3e0e38000006105f091906133ab565b905083600460008282546106049190613405565b92505081905550836005600082825461061d91906131b3565b92505081905550600060405180606001604052803373ffffffffffffffffffffffffffffffffffffffff1681526020018573ffffffffffffffffffffffffffffffffffffffff168152602001868152509050600781908060018154018082558091505060019003906000526020600020906003020160009091909190915060008201518160000160006101000a81548173ffffffffffffffffffffffffffffffffffffffff021916908373ffffffffffffffffffffffffffffffffffffffff16021790555060208201518160010160006101000a81548173ffffffffffffffffffffffffffffffffffffffff021916908373ffffffffffffffffffffffffffffffffffffffff16021790555060408201518160020155505084600660003373ffffffffffffffffffffffffffffffffffffffff1673ffffffffffffffffffffffffffffffffffffffff16815260200190815260200160002060008673ffffffffffffffffffffffffffffffffffffffff1673ffffffffffffffffffffffffffffffffffffffff16815260200190815260200160002060020160008282546107c491906131b3565b92505081905550600073ffffffffffffffffffffffffffffffffffffffff168473ffffffffffffffffffffffffffffffffffffffff161461089e5760008473ffffffffffffffffffffffffffffffffffffffff166323b872dd3330876040518463ffffffff1660e01b815260040161083e93929190612ef8565b602060405180830381600087803b15801561085857600080fd5b505af115801561086c573d6000803e3d6000fd5b505050506040513d601f19601f820116820180604052508101906108909190612a98565b90508061089c57600080fd5b505b600160009054906101000a900473ffffffffffffffffffffffffffffffffffffffff1673ffffffffffffffffffffffffffffffffffffffff1663a9059cbb33876040518363ffffffff1660e01b81526004016108fb929190612f2f565b602060405180830381600087803b15801561091557600080fd5b505af1158015610929573d6000803e3d6000fd5b505050506040513d601f19601f8201168201806040525081019061094d9190612a98565b5060008054906101000a900473ffffffffffffffffffffffffffffffffffffffff1673ffffffffffffffffffffffffffffffffffffffff1663a9059cbb33846040518363ffffffff1660e01b81526004016109a9929190612f2f565b602060405180830381600087803b1580156109c357600080fd5b505af11580156109d7573d6000803e3d6000fd5b505050506040513d601f19601f820116820180604052508101906109fb9190612a98565b507f13ed6866d4e1ee6da46f845c46d7e54120883d75c5ea9a2dacc1c4ca8984ab8033868585604051610a319493929190612f8f565b60405180910390a15050505050565b600080600160009054906101000a900473ffffffffffffffffffffffffffffffffffffffff1673ffffffffffffffffffffffffffffffffffffffff16634a08e6886040518163ffffffff1660e01b815260040160206040518083038186803b158015610aab57600080fd5b505afa158015610abf573d6000803e3d6000fd5b505050506040513d601f19601f82011682018060405250810190610ae391906129a8565b73ffffffffffffffffffffffffffffffffffffffff1663feaf968c6040518163ffffffff1660e01b815260040160a06040518083038186803b158015610b2857600080fd5b505afa158015610b3c573d6000803e3d6000fd5b505050506040513d601f19601f82011682018060405250810190610b609190612bc6565b5050509150506000600160009054906101000a900473ffffffffffffffffffffffffffffffffffffffff1673ffffffffffffffffffffffffffffffffffffffff1663b050b672856040518263ffffffff1660e01b8152600401610bc39190612edd565b60a06040518083038186803b158015610bdb57600080fd5b505afa158015610bef573d6000803e3d6000fd5b505050506040513d601f19601f82011682018060405250810190610c139190612ac1565b94505050505060008173ffffffffffffffffffffffffffffffffffffffff1663feaf968c6040518163ffffffff1660e01b815260040160a06040518083038186803b158015610c6157600080fd5b505afa158015610c75573d6000803e3d6000fd5b505050506040513d601f19601f82011682018060405250810190610c999190612bc6565b5050509150506000610cb68288610cb091906133ab565b856124ab565b90508094505050505092915050565b60035481565b60008111610d0e576040517f08c379a0000000000000000000000000000000000000000000000000000000008152600401610d0590613038565b60405180910390fd5b80600660003373ffffffffffffffffffffffffffffffffffffffff1673ffffffffffffffffffffffffffffffffffffffff16815260200190815260200160002060008473ffffffffffffffffffffffffffffffffffffffff1673ffffffffffffffffffffffffffffffffffffffff168152602001908152602001600020600201541115610dd0576040517f08c379a0000000000000000000000000000000000000000000000000000000008152600401610dc7906130b8565b60405180910390fd5b6000610ddc8284610a40565b90508160056000828254610df09190613405565b9250508190555081600660003373ffffffffffffffffffffffffffffffffffffffff1673ffffffffffffffffffffffffffffffffffffffff16815260200190815260200160002060008573ffffffffffffffffffffffffffffffffffffffff1673ffffffffffffffffffffffffffffffffffffffff1681526020019081526020016000206002016000828254610e869190613405565b92505081905550600160009054906101000a900473ffffffffffffffffffffffffffffffffffffffff1673ffffffffffffffffffffffffffffffffffffffff166323b872dd3330856040518463ffffffff1660e01b8152600401610eec93929190612ef8565b602060405180830381600087803b158015610f0657600080fd5b505af1158015610f1a573d6000803e3d6000fd5b505050506040513d601f19601f82011682018060405250810190610f3e9190612a98565b50610f4933836124f5565b600073ffffffffffffffffffffffffffffffffffffffff168373ffffffffffffffffffffffffffffffffffffffff1614156110305760003373ffffffffffffffffffffffffffffffffffffffff1682604051610fa490612ec8565b60006040518083038185875af1925050503d8060008114610fe1576040519150601f19603f3d011682016040523d82523d6000602084013e610fe6565b606091505b505090508061102a576040517f08c379a0000000000000000000000000000000000000000000000000000000008152600401611021906130d8565b60405180910390fd5b506110c7565b8273ffffffffffffffffffffffffffffffffffffffff1663a9059cbb33836040518363ffffffff1660e01b815260040161106b929190612f2f565b602060405180830381600087803b15801561108557600080fd5b505af1158015611099573d6000803e3d6000fd5b505050506040513d601f19601f820116820180604052508101906110bd9190612a98565b6110c657600080fd5b5b7f77c6871227e5d2dec8dadd5354f78453203e22e669cd0ec4c19d9a8c5edb31d03383836040516110fa93929190612f58565b60405180910390a1505050565b600160009054906101000a900473ffffffffffffffffffffffffffffffffffffffff1673ffffffffffffffffffffffffffffffffffffffff16631775765f6040518163ffffffff1660e01b815260040160206040518083038186803b15801561116f57600080fd5b505afa158015611183573d6000803e3d6000fd5b505050506040513d601f19601f820116820180604052508101906111a79190612b61565b600160009054906101000a900473ffffffffffffffffffffffffffffffffffffffff1673ffffffffffffffffffffffffffffffffffffffff1663dcaf9c446040518163ffffffff1660e01b815260040160206040518083038186803b15801561120f57600080fd5b505afa158015611223573d6000803e3d6000fd5b505050506040513d601f19601f820116820180604052508101906112479190612b61565b10611287576040517f08c379a000000000000000000000000000000000000000000000000000000000815260040161127e90613058565b60405180910390fd5b6000600660008573ffffffffffffffffffffffffffffffffffffffff1673ffffffffffffffffffffffffffffffffffffffff16815260200190815260200160002060008473ffffffffffffffffffffffffffffffffffffffff1673ffffffffffffffffffffffffffffffffffffffff1681526020019081526020016000206002015490506000811161134e576040517f08c379a000000000000000000000000000000000000000000000000000000000815260040161134590613118565b60405180910390fd5b60006064600160009054906101000a900473ffffffffffffffffffffffffffffffffffffffff1673ffffffffffffffffffffffffffffffffffffffff1663b339b3686040518163ffffffff1660e01b815260040160206040518083038186803b1580156113ba57600080fd5b505afa1580156113ce573d6000803e3d6000fd5b505050506040513d601f19601f820116820180604052508101906113f29190612b61565b846113fd91906133ab565b6114079190613209565b90503073ffffffffffffffffffffffffffffffffffffffff166323b872dd338784876114339190613405565b6040518463ffffffff1660e01b815260040161145193929190612ef8565b602060405180830381600087803b15801561146b57600080fd5b505af115801561147f573d6000803e3d6000fd5b505050506040513d601f19601f820116820180604052508101906114a39190612a98565b5060006114b08486610a40565b905083600660003373ffffffffffffffffffffffffffffffffffffffff1673ffffffffffffffffffffffffffffffffffffffff16815260200190815260200160002060008773ffffffffffffffffffffffffffffffffffffffff1673ffffffffffffffffffffffffffffffffffffffff16815260200190815260200160002060020160008282546115419190613405565b9250508190555061155286856124f5565b600073ffffffffffffffffffffffffffffffffffffffff168573ffffffffffffffffffffffffffffffffffffffff1614156116395760003373ffffffffffffffffffffffffffffffffffffffff16826040516115ad90612ec8565b60006040518083038185875af1925050503d80600081146115ea576040519150601f19603f3d011682016040523d82523d6000602084013e6115ef565b606091505b5050905080611633576040517f08c379a000000000000000000000000000000000000000000000000000000000815260040161162a906130d8565b60405180910390fd5b506116d0565b8473ffffffffffffffffffffffffffffffffffffffff1663a9059cbb33836040518363ffffffff1660e01b8152600401611674929190612f2f565b602060405180830381600087803b15801561168e57600080fd5b505af11580156116a2573d6000803e3d6000fd5b505050506040513d601f19601f820116820180604052508101906116c69190612a98565b6116cf57600080fd5b5b8573ffffffffffffffffffffffffffffffffffffffff163373ffffffffffffffffffffffffffffffffffffffff167faef3faf684172084346f7dc2cc3bb1328d1cc23caec12dd9a82d4a4e56c00b178660405161172d9190613138565b60405180910390a3505050505050565b60606000805b6007805490508110156118685760006007828154811061178c577f4e487b7100000000000000000000000000000000000000000000000000000000600052603260045260246000fd5b90600052602060002090600302016002015411801561184157508373ffffffffffffffffffffffffffffffffffffffff16600782815481106117f7577f4e487b7100000000000000000000000000000000000000000000000000000000600052603260045260246000fd5b906000526020600020906003020160000160009054906101000a900473ffffffffffffffffffffffffffffffffffffffff1673ffffffffffffffffffffffffffffffffffffffff16145b15611855578180611851906134d4565b9250505b8080611860906134d4565b915050611743565b5060008167ffffffffffffffff8111156118ab577f4e487b7100000000000000000000000000000000000000000000000000000000600052604160045260246000fd5b6040519080825280602002602001820160405280156118e457816020015b6118d161289f565b8152602001906001900390816118c95790505b5090506000915060005b600780549050811015611b6057600060078281548110611937577f4e487b7100000000000000000000000000000000000000000000000000000000600052603260045260246000fd5b9060005260206000209060030201600201541180156119ec57508473ffffffffffffffffffffffffffffffffffffffff16600782815481106119a2577f4e487b7100000000000000000000000000000000000000000000000000000000600052603260045260246000fd5b906000526020600020906003020160000160009054906101000a900473ffffffffffffffffffffffffffffffffffffffff1673ffffffffffffffffffffffffffffffffffffffff16145b15611b4d5760078181548110611a2b577f4e487b7100000000000000000000000000000000000000000000000000000000600052603260045260246000fd5b90600052602060002090600302016040518060600160405290816000820160009054906101000a900473ffffffffffffffffffffffffffffffffffffffff1673ffffffffffffffffffffffffffffffffffffffff1673ffffffffffffffffffffffffffffffffffffffff1681526020016001820160009054906101000a900473ffffffffffffffffffffffffffffffffffffffff1673ffffffffffffffffffffffffffffffffffffffff1673ffffffffffffffffffffffffffffffffffffffff168152602001600282015481525050828481518110611b33577f4e487b7100000000000000000000000000000000000000000000000000000000600052603260045260246000fd5b60200260200101819052508280611b49906134d4565b9350505b8080611b58906134d4565b9150506118ee565b508092505050919050565b60008111611bae576040517f08c379a0000000000000000000000000000000000000000000000000000000008152600401611ba590613018565b60405180910390fd5b80600160009054906101000a900473ffffffffffffffffffffffffffffffffffffffff1673ffffffffffffffffffffffffffffffffffffffff166370a08231306040518263ffffffff1660e01b8152600401611c0a9190612edd565b60206040518083038186803b158015611c2257600080fd5b505afa158015611c36573d6000803e3d6000fd5b505050506040513d601f19601f82011682018060405250810190611c5a9190612b61565b1015611c9b576040517f08c379a0000000000000000000000000000000000000000000000000000000008152600401611c92906130f8565b60405180910390fd5b600160009054906101000a900473ffffffffffffffffffffffffffffffffffffffff1673ffffffffffffffffffffffffffffffffffffffff1663a9059cbb33836040518363ffffffff1660e01b8152600401611cf8929190612f2f565b602060405180830381600087803b158015611d1257600080fd5b505af1158015611d26573d6000803e3d6000fd5b505050506040513d601f19601f82011682018060405250810190611d4a9190612a98565b507f884edad9ce6fa2440d8a54cc123490eb96d2768479d49ff9c7366125a94243643382604051611d7c929190612f2f565b60405180910390a150565b600080611d92612455565b90506000670de0b6b3a76400006003546002846002611db1919061328d565b611dbb9190613209565b611dc591906133ab565b611dcf9190613209565b905066038d7ea4c680008111611dec5766038d7ea4c68000611dee565b805b9250505090565b60055481565b6006602052816000526040600020602052806000526040600020600091509150508060000160009054906101000a900473ffffffffffffffffffffffffffffffffffffffff16908060010160009054906101000a900473ffffffffffffffffffffffffffffffffffffffff16908060020154905083565b60045481565b6060600060078054905067ffffffffffffffff811115611ec1577f4e487b7100000000000000000000000000000000000000000000000000000000600052604160045260246000fd5b604051908082528060200260200182016040528015611efa57816020015b611ee761289f565b815260200190600190039081611edf5790505b5090506000805b6007805490508110156120d157600060078281548110611f4a577f4e487b7100000000000000000000000000000000000000000000000000000000600052603260045260246000fd5b90600052602060002090600302016002015411156120be5760078181548110611f9c577f4e487b7100000000000000000000000000000000000000000000000000000000600052603260045260246000fd5b90600052602060002090600302016040518060600160405290816000820160009054906101000a900473ffffffffffffffffffffffffffffffffffffffff1673ffffffffffffffffffffffffffffffffffffffff1673ffffffffffffffffffffffffffffffffffffffff1681526020016001820160009054906101000a900473ffffffffffffffffffffffffffffffffffffffff1673ffffffffffffffffffffffffffffffffffffffff1673ffffffffffffffffffffffffffffffffffffffff1681526020016002820154815250508383815181106120a4577f4e487b7100000000000000000000000000000000000000000000000000000000600052603260045260246000fd5b602002602001018190525081806120ba906134d4565b9250505b80806120c9906134d4565b915050611f01565b50819250505090565b600781815481106120ea57600080fd5b90600052602060002090600302016000915090508060000160009054906101000a900473ffffffffffffffffffffffffffffffffffffffff16908060010160009054906101000a900473ffffffffffffffffffffffffffffffffffffffff16908060020154905083565b670b1a2bc2ec50000081565b600081116121a3576040517f08c379a000000000000000000000000000000000000000000000000000000000815260040161219a90613018565b60405180910390fd5b60006004546005546121b591906131b3565b826121c09190613209565b693f870857a3e0e38000006121d591906133ab565b905081600460008282546121e991906131b3565b92505081905550600160009054906101000a900473ffffffffffffffffffffffffffffffffffffffff1673ffffffffffffffffffffffffffffffffffffffff166323b872dd3330856040518463ffffffff1660e01b815260040161224f93929190612ef8565b602060405180830381600087803b15801561226957600080fd5b505af115801561227d573d6000803e3d6000fd5b505050506040513d601f19601f820116820180604052508101906122a19190612a98565b5060008054906101000a900473ffffffffffffffffffffffffffffffffffffffff1673ffffffffffffffffffffffffffffffffffffffff1663a9059cbb33836040518363ffffffff1660e01b81526004016122fd929190612f2f565b602060405180830381600087803b15801561231757600080fd5b505af115801561232b573d6000803e3d6000fd5b505050506040513d601f19601f8201168201806040525081019061234f9190612a98565b507f8fff79b574da9a93d7a5408c2fc00c4a9b2b462321c1659b2fbbb9ff3dd221ff33838360405161238393929190612f58565b60405180910390a15050565b600260009054906101000a900473ffffffffffffffffffffffffffffffffffffffff1673ffffffffffffffffffffffffffffffffffffffff163373ffffffffffffffffffffffffffffffffffffffff161461241f576040517f08c379a000000000000000000000000000000000000000000000000000000000815260040161241690613098565b60405180910390fd5b6000612429612455565b905080670b1a2bc2ec50000061243f9190613209565b60035461244c91906133ab565b60038190555050565b600080600454141561246a5760009050612490565b670de0b6b3a76400006004546124809190613209565b60055461248d9190613209565b90505b90565b66038d7ea4c6800081565b6000600780549050905090565b60006124ed83836040518060400160405280601a81526020017f536166654d6174683a206469766973696f6e206279207a65726f00000000000081525061283c565b905092915050565b60005b600780549050811015612836578273ffffffffffffffffffffffffffffffffffffffff1660078281548110612556577f4e487b7100000000000000000000000000000000000000000000000000000000600052603260045260246000fd5b906000526020600020906003020160000160009054906101000a900473ffffffffffffffffffffffffffffffffffffffff1673ffffffffffffffffffffffffffffffffffffffff161480156125f5575081600782815481106125e1577f4e487b7100000000000000000000000000000000000000000000000000000000600052603260045260246000fd5b906000526020600020906003020160020154145b15612823576007600160078054905061260e9190613405565b81548110612645577f4e487b7100000000000000000000000000000000000000000000000000000000600052603260045260246000fd5b90600052602060002090600302016007828154811061268d577f4e487b7100000000000000000000000000000000000000000000000000000000600052603260045260246000fd5b90600052602060002090600302016000820160009054906101000a900473ffffffffffffffffffffffffffffffffffffffff168160000160006101000a81548173ffffffffffffffffffffffffffffffffffffffff021916908373ffffffffffffffffffffffffffffffffffffffff1602179055506001820160009054906101000a900473ffffffffffffffffffffffffffffffffffffffff168160010160006101000a81548173ffffffffffffffffffffffffffffffffffffffff021916908373ffffffffffffffffffffffffffffffffffffffff1602179055506002820154816002015590505060078054806127ae577f4e487b7100000000000000000000000000000000000000000000000000000000600052603160045260246000fd5b6001900381819060005260206000209060030201600080820160006101000a81549073ffffffffffffffffffffffffffffffffffffffff02191690556001820160006101000a81549073ffffffffffffffffffffffffffffffffffffffff021916905560028201600090555050905550612838565b808061282e906134d4565b9150506124f8565b505b5050565b60008083118290612883576040517f08c379a000000000000000000000000000000000000000000000000000000000815260040161287a9190612ff6565b60405180910390fd5b50600083856128929190613209565b9050809150509392505050565b6040518060600160405280600073ffffffffffffffffffffffffffffffffffffffff168152602001600073ffffffffffffffffffffffffffffffffffffffff168152602001600081525090565b6000813590506128fb816137cb565b92915050565b600081519050612910816137cb565b92915050565b600081519050612925816137e2565b92915050565b60008151905061293a816137f9565b92915050565b60008135905061294f81613810565b92915050565b60008151905061296481613810565b92915050565b60008151905061297981613827565b92915050565b60006020828403121561299157600080fd5b600061299f848285016128ec565b91505092915050565b6000602082840312156129ba57600080fd5b60006129c884828501612901565b91505092915050565b600080604083850312156129e457600080fd5b60006129f2858286016128ec565b9250506020612a03858286016128ec565b9150509250929050565b600080600060608486031215612a2257600080fd5b6000612a30868287016128ec565b9350506020612a41868287016128ec565b9250506040612a5286828701612940565b9150509250925092565b60008060408385031215612a6f57600080fd5b6000612a7d858286016128ec565b9250506020612a8e85828601612940565b9150509250929050565b600060208284031215612aaa57600080fd5b6000612ab884828501612916565b91505092915050565b600080600080600060a08688031215612ad957600080fd5b6000612ae788828901612916565b9550506020612af888828901612955565b9450506040612b0988828901612955565b9350506060612b1a88828901612955565b9250506080612b2b88828901612901565b9150509295509295909350565b600060208284031215612b4a57600080fd5b6000612b5884828501612940565b91505092915050565b600060208284031215612b7357600080fd5b6000612b8184828501612955565b91505092915050565b60008060408385031215612b9d57600080fd5b6000612bab85828601612940565b9250506020612bbc858286016128ec565b9150509250929050565b600080600080600060a08688031215612bde57600080fd5b6000612bec8882890161296a565b9550506020612bfd8882890161292b565b9450506040612c0e88828901612955565b9350506060612c1f88828901612955565b9250506080612c308882890161296a565b9150509295509295909350565b6000612c498383612e68565b60608301905092915050565b612c5e81613439565b82525050565b612c6d81613439565b82525050565b6000612c7e82613163565b612c888185613186565b9350612c9383613153565b8060005b83811015612cc4578151612cab8882612c3d565b9750612cb683613179565b925050600181019050612c97565b5085935050505092915050565b6000612cdc8261316e565b612ce681856131a2565b9350612cf68185602086016134a1565b612cff8161357b565b840191505092915050565b6000612d17600e836131a2565b9150612d2282613599565b602082019050919050565b6000612d3a601d836131a2565b9150612d45826135c2565b602082019050919050565b6000612d5d6019836131a2565b9150612d68826135eb565b602082019050919050565b6000612d806021836131a2565b9150612d8b82613614565b604082019050919050565b6000612da3600083613197565b9150612dae82613663565b600082019050919050565b6000612dc66024836131a2565b9150612dd182613666565b604082019050919050565b6000612de96024836131a2565b9150612df4826136b5565b604082019050919050565b6000612e0c602b836131a2565b9150612e1782613704565b604082019050919050565b6000612e2f6015836131a2565b9150612e3a82613753565b602082019050919050565b6000612e526022836131a2565b9150612e5d8261377c565b604082019050919050565b606082016000820151612e7e6000850182612c55565b506020820151612e916020850182612c55565b506040820151612ea46040850182612eaa565b50505050565b612eb381613481565b82525050565b612ec281613481565b82525050565b6000612ed382612d96565b9150819050919050565b6000602082019050612ef26000830184612c64565b92915050565b6000606082019050612f0d6000830186612c64565b612f1a6020830185612c64565b612f276040830184612eb9565b949350505050565b6000604082019050612f446000830185612c64565b612f516020830184612eb9565b9392505050565b6000606082019050612f6d6000830186612c64565b612f7a6020830185612eb9565b612f876040830184612eb9565b949350505050565b6000608082019050612fa46000830187612c64565b612fb16020830186612eb9565b612fbe6040830185612eb9565b612fcb6060830184612eb9565b95945050505050565b60006020820190508181036000830152612fee8184612c73565b905092915050565b600060208201905081810360008301526130108184612cd1565b905092915050565b6000602082019050818103600083015261303181612d0a565b9050919050565b6000602082019050818103600083015261305181612d2d565b9050919050565b6000602082019050818103600083015261307181612d50565b9050919050565b6000602082019050818103600083015261309181612d73565b9050919050565b600060208201905081810360008301526130b181612db9565b9050919050565b600060208201905081810360008301526130d181612ddc565b9050919050565b600060208201905081810360008301526130f181612dff565b9050919050565b6000602082019050818103600083015261311181612e22565b9050919050565b6000602082019050818103600083015261313181612e45565b9050919050565b600060208201905061314d6000830184612eb9565b92915050565b6000819050602082019050919050565b600081519050919050565b600081519050919050565b6000602082019050919050565b600082825260208201905092915050565b600081905092915050565b600082825260208201905092915050565b60006131be82613481565b91506131c983613481565b9250827fffffffffffffffffffffffffffffffffffffffffffffffffffffffffffffffff038211156131fe576131fd61351d565b5b828201905092915050565b600061321482613481565b915061321f83613481565b92508261322f5761322e61354c565b5b828204905092915050565b6000808291508390505b6001851115613284578086048111156132605761325f61351d565b5b600185161561326f5780820291505b808102905061327d8561358c565b9450613244565b94509492505050565b600061329882613481565b91506132a383613481565b92506132d07fffffffffffffffffffffffffffffffffffffffffffffffffffffffffffffffff84846132d8565b905092915050565b6000826132e857600190506133a4565b816132f657600090506133a4565b816001811461330c576002811461331657613345565b60019150506133a4565b60ff8411156133285761332761351d565b5b8360020a91508482111561333f5761333e61351d565b5b506133a4565b5060208310610133831016604e8410600b841016171561337a5782820a9050838111156133755761337461351d565b5b6133a4565b613387848484600161323a565b9250905081840481111561339e5761339d61351d565b5b81810290505b9392505050565b60006133b682613481565b91506133c183613481565b9250817fffffffffffffffffffffffffffffffffffffffffffffffffffffffffffffffff04831182151516156133fa576133f961351d565b5b828202905092915050565b600061341082613481565b915061341b83613481565b92508282101561342e5761342d61351d565b5b828203905092915050565b600061344482613461565b9050919050565b60008115159050919050565b6000819050919050565b600073ffffffffffffffffffffffffffffffffffffffff82169050919050565b6000819050919050565b600069ffffffffffffffffffff82169050919050565b60005b838110156134bf5780820151818401526020810190506134a4565b838111156134ce576000848401525b50505050565b60006134df82613481565b91507fffffffffffffffffffffffffffffffffffffffffffffffffffffffffffffffff8214156135125761351161351d565b5b600182019050919050565b7f4e487b7100000000000000000000000000000000000000000000000000000000600052601160045260246000fd5b7f4e487b7100000000000000000000000000000000000000000000000000000000600052601260045260246000fd5b6000601f19601f8301169050919050565b60008160011c9050919050565b7f496e76616c696420616d6f756e74000000000000000000000000000000000000600082015250565b7f416d6f756e74206d7573742062652067726561746572207468616e2030000000600082015250565b7f63616e6e6f74206c697175696461746520706f736974696f6e00000000000000600082015250565b7f436f6c6c61746572616c206d7573742062652067726561746572207468616e2060008201527f3000000000000000000000000000000000000000000000000000000000000000602082015250565b50565b7f63616e206f6e6c792062652063616c6c65642062792043475420676f7665726e60008201527f616e636500000000000000000000000000000000000000000000000000000000602082015250565b7f526570617920616d6f756e74206578636565647320626f72726f77656420616d60008201527f6f756e7400000000000000000000000000000000000000000000000000000000602082015250565b7f72657475726e206f6620657468657220636f6c6c61746572616c20776173207560008201527f6e7375636365737366756c000000000000000000000000000000000000000000602082015250565b7f496e73756666696369656e74202062616c616e63650000000000000000000000600082015250565b7f7573657220686173206e6f20706f736974696f6e7320746f206c69717569646160008201527f7465000000000000000000000000000000000000000000000000000000000000602082015250565b6137d481613439565b81146137df57600080fd5b50565b6137eb8161344b565b81146137f657600080fd5b50565b61380281613457565b811461380d57600080fd5b50565b61381981613481565b811461382457600080fd5b50565b6138308161348b565b811461383b57600080fd5b5056fea264697066735822122002e3047957e2942d22d411ce98a441f9107ebde0726dc551866f5a90231aa96864736f6c63430008040033",
  "linkReferences": {},
  "deployedLinkReferences": {}
}